{"abi":[{"type":"function","name":"canLiquidate","inputs":[{"name":"margin","type":"uint256","internalType":"uint256"},{"name":"maintenanceMargin","type":"uint256","internalType":"uint256"}],"outputs":[{"name":"","type":"bool","internalType":"bool"}],"stateMutability":"pure"}],"bytecode":{"object":"0x6080604052348015600e575f80fd5b5060a28061001b5f395ff3fe6080604052348015600e575f80fd5b50600436106026575f3560e01c8063c631d84b14602a575b5f80fd5b60396035366004604d565b1190565b604051901515815260200160405180910390f35b5f8060408385031215605d575f80fd5b5050803592602090910135915056fea2646970667358221220de23fb4bd55eeab9a6f6a5fca89451f9f803a34a27db65e1e40b3444f28d9fe764736f6c63430008180033","linkReferences":{}},"methodIdentifiers":{"canLiquidate(uint256,uint256)":"c631d84b"},"id":2}