{"abi":[{"type":"constructor","inputs":[{"name":"positionManager_","type":"address","internalType":"address"},{"name":"oracleAdapter_","type":"address","internalType":"address"},{"name":"riskConfig_","type":"address","internalType":"address"},{"name":"insuranceController_","type":"address","internalType":"address"}],"stateMutability":"nonpayable"},{"type":"function","name":"getGracePeriodExpiry","inputs":[{"name":"user","type":"address","internalType":"address"},{"name":"marketId","type":"bytes32","internalType":"bytes32"}],"outputs":[{"name":"expiry","type":"uint256","internalType":"uint256"}],"stateMutability":"view"},{"type":"function","name":"insuranceController","inputs":[],"outputs":[{"name":"","type":"address","internalType":"address"}],"stateMutability":"view"},{"type":"function","name":"isLiquidatable","inputs":[{"name":"user","type":"address","internalType":"address"},{"name":"marketId","type":"bytes32","internalType":"bytes32"}],"outputs":[{"name":"liquidatable","type":"bool","internalType":"bool"}],"stateMutability":"view"},{"type":"function","name":"isMaintenanceBreached","inputs":[{"name":"position","type":"tuple","internalType":"struct Types.Position","components":[{"name":"id","type":"uint256","internalType":"uint256"},{"name":"trader","type":"address","internalType":"address"},{"name":"marketId","type":"bytes32","internalType":"bytes32"},{"name":"collateralToken","type":"address","internalType":"address"},{"name":"collateralAmount","type":"uint256","internalType":"uint256"},{"name":"sizeUsdX18","type":"uint256","internalType":"uint256"},{"name":"entryPriceX18","type":"uint256","internalType":"uint256"},{"name":"leverageX18","type":"uint256","internalType":"uint256"},{"name":"isLong","type":"bool","internalType":"bool"},{"name":"status","type":"uint8","internalType":"enum Types.PositionStatus"},{"name":"insuranceStatus","type":"uint8","internalType":"enum Types.InsuranceStatus"},{"name":"openedAt","type":"uint64","internalType":"uint64"},{"name":"closedAt","type":"uint64","internalType":"uint64"},{"name":"insuranceTermId","type":"bytes32","internalType":"bytes32"}]},{"name":"markPriceX18","type":"uint256","internalType":"uint256"},{"name":"maintenanceMarginBps","type":"uint256","internalType":"uint256"}],"outputs":[{"name":"breached","type":"bool","internalType":"bool"}],"stateMutability":"pure"},{"type":"function","name":"liquidate","inputs":[{"name":"user","type":"address","internalType":"address"},{"name":"marketId","type":"bytes32","internalType":"bytes32"}],"outputs":[],"stateMutability":"nonpayable"},{"type":"function","name":"onMarginUpdated","inputs":[{"name":"user","type":"address","internalType":"address"},{"name":"marketId","type":"bytes32","internalType":"bytes32"}],"outputs":[],"stateMutability":"nonpayable"},{"type":"function","name":"oracleAdapter","inputs":[],"outputs":[{"name":"","type":"address","internalType":"address"}],"stateMutability":"view"},{"type":"function","name":"positionManager","inputs":[],"outputs":[{"name":"","type":"address","internalType":"address"}],"stateMutability":"view"},{"type":"function","name":"riskConfig","inputs":[],"outputs":[{"name":"","type":"address","internalType":"address"}],"stateMutability":"view"},{"type":"event","name":"LiquidationCompleted","inputs":[{"name":"positionId","type":"uint256","indexed":true,"internalType":"uint256"},{"name":"liquidator","type":"address","indexed":true,"internalType":"address"},{"name":"realizedPnl","type":"int256","indexed":false,"internalType":"int256"},{"name":"insurancePayout","type":"uint256","indexed":false,"internalType":"uint256"}],"anonymous":false},{"type":"event","name":"LiquidationProtectionActivated","inputs":[{"name":"positionId","type":"uint256","indexed":true,"internalType":"uint256"},{"name":"trader","type":"address","indexed":true,"internalType":"address"},{"name":"marketId","type":"bytes32","indexed":true,"internalType":"bytes32"},{"name":"expiresAt","type":"uint256","indexed":false,"internalType":"uint256"}],"anonymous":false},{"type":"event","name":"LiquidationProtectionReleased","inputs":[{"name":"positionId","type":"uint256","indexed":true,"internalType":"uint256"},{"name":"trader","type":"address","indexed":true,"internalType":"address"},{"name":"marketId","type":"bytes32","indexed":true,"internalType":"bytes32"}],"anonymous":false},{"type":"event","name":"LiquidationTriggered","inputs":[{"name":"positionId","type":"uint256","indexed":true,"internalType":"uint256"},{"name":"liquidator","type":"address","indexed":true,"internalType":"address"},{"name":"markPriceX18","type":"uint256","indexed":false,"internalType":"uint256"}],"anonymous":false},{"type":"error","name":"GracePeriodActive","inputs":[]},{"type":"error","name":"InactivePosition","inputs":[]},{"type":"error","name":"InvalidAddress","inputs":[]},{"type":"error","name":"InvalidLiquidationState","inputs":[]},{"type":"error","name":"InvalidMarket","inputs":[]},{"type":"error","name":"Unauthorized","inputs":[]}],"bytecode":{"object":"0x61010060405234801562000011575f80fd5b506040516200157a3803806200157a8339810160408190526200003491620000c3565b6001600160a01b03841615806200005257506001600160a01b038316155b806200006557506001600160a01b038216155b15620000845760405163e6c4247b60e01b815260040160405180910390fd5b6001600160a01b0393841660805291831660a052821660c0521660e0526200011d565b80516001600160a01b0381168114620000be575f80fd5b919050565b5f805f8060808587031215620000d7575f80fd5b620000e285620000a7565b9350620000f260208601620000a7565b92506200010260408601620000a7565b91506200011260608601620000a7565b905092959194509250565b60805160a05160c05160e0516113c1620001b95f395f818161018901528181610811015261089001525f818161016201528181610349015281816105ac015281816106a101528181610b410152610dde01525f818160e9015281816102b5015281816105180152610bec01525f818161013b0152818161020a0152818161045b01528181610933015281816109ed0152610a5201526113c15ff3fe608060405234801561000f575f80fd5b5060043610610090575f3560e01c80634fead416116100635780634fead41614610123578063791b98bc146101365780637c90a6ca1461015d5780638f97224014610184578063b44a846b146101ab575f80fd5b80632590c3b1146100945780632e16fd6b146100bc5780633af8c7a6146100cf5780633d9f3163146100e4575b5f80fd5b6100a76100a2366004610fd1565b6101cc565b60405190151581526020015b60405180910390f35b6100a76100ca3660046110d1565b6101e0565b6100e26100dd3660046110d1565b610433565b005b61010b7f000000000000000000000000000000000000000000000000000000000000000081565b6040516001600160a01b0390911681526020016100b3565b6100e26101313660046110d1565b6109e2565b61010b7f000000000000000000000000000000000000000000000000000000000000000081565b61010b7f000000000000000000000000000000000000000000000000000000000000000081565b61010b7f000000000000000000000000000000000000000000000000000000000000000081565b6101be6101b93660046110d1565b610c85565b6040519081526020016100b3565b5f6101d8848484610ca8565b949350505050565b6040516307d47a8b60e11b81526001600160a01b038381166004830152602482018390525f9182917f00000000000000000000000000000000000000000000000000000000000000001690630fa8f516906044016101c060405180830381865afa158015610250573d5f803e3d5ffd5b505050506040513d601f19601f820116820180604052508101906102749190611127565b90506001816101200151600381111561028f5761028f611206565b1461029d575f91505061042d565b604051637698aa3360e01b8152600481018490525f907f00000000000000000000000000000000000000000000000000000000000000006001600160a01b031690637698aa3390602401602060405180830381865afa158015610302573d5f803e3d5ffd5b505050506040513d601f19601f82011682018060405250810190610326919061121a565b604051630d4d5c4360e31b8152600481018690529091505f906001600160a01b037f00000000000000000000000000000000000000000000000000000000000000001690636a6ae2189060240160e060405180830381865afa15801561038e573d5f803e3d5ffd5b505050506040513d601f19601f820116820180604052508101906103b29190611231565b80519091506103d457604051639db8d5b160e01b815260040160405180910390fd5b6103e383838360800151610ca8565b6103f2575f935050505061042d565b610415835f806104028a8a610ce6565b81526020019081526020015f2054610d22565b15610425575f935050505061042d565b600193505050505b92915050565b6040516307d47a8b60e11b81526001600160a01b038381166004830152602482018390525f917f000000000000000000000000000000000000000000000000000000000000000090911690630fa8f516906044016101c060405180830381865afa1580156104a3573d5f803e3d5ffd5b505050506040513d601f19601f820116820180604052508101906104c79190611127565b9050600181610120015160038111156104e2576104e2611206565b1461050057604051631f9c0ddd60e31b815260040160405180910390fd5b604051637698aa3360e01b8152600481018390525f907f00000000000000000000000000000000000000000000000000000000000000006001600160a01b031690637698aa3390602401602060405180830381865afa158015610565573d5f803e3d5ffd5b505050506040513d601f19601f82011682018060405250810190610589919061121a565b604051630d4d5c4360e31b8152600481018590529091505f906001600160a01b037f00000000000000000000000000000000000000000000000000000000000000001690636a6ae2189060240160e060405180830381865afa1580156105f1573d5f803e3d5ffd5b505050506040513d601f19601f820116820180604052508101906106159190611231565b805190915061063757604051639db8d5b160e01b815260040160405180910390fd5b61064683838360800151610ca8565b61066e57610655858585610d46565b60405163381e4d7d60e01b815260040160405180910390fd5b5f6106798686610ce6565b5f8181526020819052604090205490915061069385610dba565b156107a857805f03610787577f00000000000000000000000000000000000000000000000000000000000000006001600160a01b031663354282206040518163ffffffff1660e01b8152600401602060405180830381865afa1580156106fb573d5f803e3d5ffd5b505050506040513d601f19601f8201168201806040525081019061071f919061121a565b61072990426112ee565b5f83815260208181526040918290208390558751915183815292935088926001600160a01b038b1692917f25684eed0766e049b30c4ba76d3f4b67023091d8a2b516d4ff84c2f88526c379910160405180910390a450505050505050565b804210156107a85760405163478f84e760e01b815260040160405180910390fd5b84516040518581523391907f989f810eb99a637da2dea16820faf53fe3fe36c9e490d54c6215d81b700d862d9060200160405180910390a35f806107ec8787610e64565b90506001876101400151600381111561080757610807611206565b14801561083c57507f00000000000000000000000000000000000000000000000000000000000000006001600160a01b031615155b801561084757505f81125b15610900575f61085682611301565b885160405163062c86ef60e31b815260048101919091526001600160a01b038c8116602483015260448201839052600160648301529192507f0000000000000000000000000000000000000000000000000000000000000000909116906331643778906084016020604051808303815f875af11580156108d8573d5f803e3d5ffd5b505050506040513d601f19601f820116820180604052508101906108fc919061121a565b9250505b604051635fae968760e01b81526001600160a01b038a81166004830152602482018a9052336044830152606482018890527f00000000000000000000000000000000000000000000000000000000000000001690635fae9687906084015f604051808303815f87803b158015610974575f80fd5b505af1158015610986573d5f803e3d5ffd5b5050505f858152602081815260408083209290925589518251858152918201869052339350917f747420e641b698a80f0dcdf3ad904c6df2df6652d951f0bc4b58bc7f589a042b910160405180910390a3505050505050505050565b336001600160a01b037f00000000000000000000000000000000000000000000000000000000000000001614610a2a576040516282b42960e81b815260040160405180910390fd5b6040516307d47a8b60e11b81526001600160a01b038381166004830152602482018390525f917f000000000000000000000000000000000000000000000000000000000000000090911690630fa8f516906044016101c060405180830381865afa158015610a9a573d5f803e3d5ffd5b505050506040513d601f19601f82011682018060405250810190610abe9190611127565b905060018161012001516003811115610ad957610ad9611206565b14610aff575f80610aea8585610ce6565b81526020019081526020015f205f9055505050565b5f805f610b0c8686610ce6565b81526020019081526020015f20549050805f03610b295750505050565b604051630d4d5c4360e31b8152600481018490525f907f00000000000000000000000000000000000000000000000000000000000000006001600160a01b031690636a6ae2189060240160e060405180830381865afa158015610b8e573d5f803e3d5ffd5b505050506040513d601f19601f82011682018060405250810190610bb29190611231565b8051909150610bd457604051639db8d5b160e01b815260040160405180910390fd5b604051637698aa3360e01b8152600481018590525f907f00000000000000000000000000000000000000000000000000000000000000006001600160a01b031690637698aa3390602401602060405180830381865afa158015610c39573d5f803e3d5ffd5b505050506040513d601f19601f82011682018060405250810190610c5d919061121a565b9050610c6e84828460800151610ca8565b610c7d57610c7d868686610d46565b505050505050565b5f805f610c928585610ce6565b81526020019081526020015f2054905092915050565b5f80610cb48585610e64565b90505f818660800151610cc7919061131b565b90505f610cd88760a0015186610f0d565b909113159695505050505050565b604080516001600160a01b03841660208201529081018290525f9060600160405160208183030381529060405280519060200120905092915050565b5f610d2c83610dba565b8015610d3f5750811580610d3f57508142105b9392505050565b5f610d518484610ce6565b5f8181526020819052604081205491925003610d6d5750505050565b5f818152602081905260408082208290558351905185926001600160a01b03881692917fe6433707d7f7dcad7ada1d94834f715c23d05c4f4f91e17b3dfa1e35bc4fc3439190a450505050565b5f60018261014001516003811115610dd457610dd4611206565b14801561042d57507f00000000000000000000000000000000000000000000000000000000000000006001600160a01b031663354282206040518163ffffffff1660e01b8152600401602060405180830381865afa158015610e38573d5f803e3d5ffd5b505050506040513d601f19601f82011682018060405250810190610e5c919061121a565b151592915050565b5f8260c001515f03610e7757505f61042d565b5f828460c0015111610e975760c0840151610e929084611342565b610ea7565b828460c00151610ea79190611342565b90505f8460c00151828660a00151610ebf9190611355565b610ec9919061136c565b90505f856101000151610ee3578560c00151851115610eec565b8560c001518510155b905080610f0157610efc82611301565b610f03565b815b9695505050505050565b5f612710610f1b8385611355565b610d3f919061136c565b6040516101c0810167ffffffffffffffff81118282101715610f5557634e487b7160e01b5f52604160045260245ffd5b60405290565b6001600160a01b0381168114610f6f575f80fd5b50565b8035610f7d81610f5b565b919050565b8015158114610f6f575f80fd5b8035610f7d81610f82565b60048110610f6f575f80fd5b8035610f7d81610f9a565b67ffffffffffffffff81168114610f6f575f80fd5b8035610f7d81610fb1565b5f805f838503610200811215610fe5575f80fd5b6101c080821215610ff4575f80fd5b610ffc610f25565b91508535825261100e60208701610f72565b60208301526040860135604083015261102960608701610f72565b60608301526080860135608083015260a086013560a083015260c086013560c083015260e086013560e0830152610100611064818801610f8f565b90830152610120611076878201610fa6565b90830152610140611088878201610fa6565b9083015261016061109a878201610fc6565b908301526101806110ac878201610fc6565b908301526101a0868101359083015290969085013595506101e0909401359392505050565b5f80604083850312156110e2575f80fd5b82356110ed81610f5b565b946020939093013593505050565b8051610f7d81610f5b565b8051610f7d81610f82565b8051610f7d81610f9a565b8051610f7d81610fb1565b5f6101c08284031215611138575f80fd5b611140610f25565b82518152611150602084016110fb565b60208201526040830151604082015261116b606084016110fb565b60608201526080830151608082015260a083015160a082015260c083015160c082015260e083015160e08201526101006111a6818501611106565b908201526101206111b8848201611111565b908201526101406111ca848201611111565b908201526101606111dc84820161111c565b908201526101806111ee84820161111c565b908201526101a0928301519281019290925250919050565b634e487b7160e01b5f52602160045260245ffd5b5f6020828403121561122a575f80fd5b5051919050565b5f60e08284031215611241575f80fd5b60405160e0810181811067ffffffffffffffff8211171561127057634e487b7160e01b5f52604160045260245ffd5b604052825161127e81610f82565b8152602083015161128e81610f5b565b602082015260408301516112a181610f5b565b80604083015250606083015160608201526080830151608082015260a083015160a082015260c083015160c08201528091505092915050565b634e487b7160e01b5f52601160045260245ffd5b8082018082111561042d5761042d6112da565b5f600160ff1b8201611315576113156112da565b505f0390565b8082018281125f83128015821682158216171561133a5761133a6112da565b505092915050565b8181038181111561042d5761042d6112da565b808202811582820484141761042d5761042d6112da565b5f8261138657634e487b7160e01b5f52601260045260245ffd5b50049056fea2646970667358221220c7bf1d8c3cf33ff3d9db707e88b5914e627196302bae53834adc303fba98746364736f6c63430008180033","linkReferences":{}},"methodIdentifiers":{"getGracePeriodExpiry(address,bytes32)":"b44a846b","insuranceController()":"8f972240","isLiquidatable(address,bytes32)":"2e16fd6b","isMaintenanceBreached((uint256,address,bytes32,address,uint256,uint256,uint256,uint256,bool,uint8,uint8,uint64,uint64,bytes32),uint256,uint256)":"2590c3b1","liquidate(address,bytes32)":"3af8c7a6","onMarginUpdated(address,bytes32)":"4fead416","oracleAdapter()":"3d9f3163","positionManager()":"791b98bc","riskConfig()":"7c90a6ca"},"id":2}