{"abi":[{"type":"constructor","inputs":[{"name":"positionManager_","type":"address","internalType":"address"},{"name":"oracleAdapter_","type":"address","internalType":"address"},{"name":"riskConfig_","type":"address","internalType":"address"},{"name":"insuranceController_","type":"address","internalType":"address"}],"stateMutability":"nonpayable"},{"type":"function","name":"insuranceController","inputs":[],"outputs":[{"name":"","type":"address","internalType":"address"}],"stateMutability":"view"},{"type":"function","name":"isLiquidatable","inputs":[{"name":"user","type":"address","internalType":"address"},{"name":"marketId","type":"bytes32","internalType":"bytes32"}],"outputs":[{"name":"liquidatable","type":"bool","internalType":"bool"}],"stateMutability":"view"},{"type":"function","name":"isMaintenanceBreached","inputs":[{"name":"position","type":"tuple","internalType":"struct Types.Position","components":[{"name":"id","type":"uint256","internalType":"uint256"},{"name":"trader","type":"address","internalType":"address"},{"name":"marketId","type":"bytes32","internalType":"bytes32"},{"name":"collateralToken","type":"address","internalType":"address"},{"name":"collateralAmount","type":"uint256","internalType":"uint256"},{"name":"sizeUsdX18","type":"uint256","internalType":"uint256"},{"name":"entryPriceX18","type":"uint256","internalType":"uint256"},{"name":"leverageX18","type":"uint256","internalType":"uint256"},{"name":"isLong","type":"bool","internalType":"bool"},{"name":"status","type":"uint8","internalType":"enum Types.PositionStatus"},{"name":"insuranceStatus","type":"uint8","internalType":"enum Types.InsuranceStatus"},{"name":"openedAt","type":"uint64","internalType":"uint64"},{"name":"closedAt","type":"uint64","internalType":"uint64"},{"name":"insuranceTermId","type":"bytes32","internalType":"bytes32"}]},{"name":"markPriceX18","type":"uint256","internalType":"uint256"},{"name":"maintenanceMarginBps","type":"uint256","internalType":"uint256"}],"outputs":[{"name":"breached","type":"bool","internalType":"bool"}],"stateMutability":"pure"},{"type":"function","name":"liquidate","inputs":[{"name":"user","type":"address","internalType":"address"},{"name":"marketId","type":"bytes32","internalType":"bytes32"}],"outputs":[],"stateMutability":"nonpayable"},{"type":"function","name":"oracleAdapter","inputs":[],"outputs":[{"name":"","type":"address","internalType":"address"}],"stateMutability":"view"},{"type":"function","name":"positionManager","inputs":[],"outputs":[{"name":"","type":"address","internalType":"address"}],"stateMutability":"view"},{"type":"function","name":"riskConfig","inputs":[],"outputs":[{"name":"","type":"address","internalType":"address"}],"stateMutability":"view"},{"type":"event","name":"LiquidationCompleted","inputs":[{"name":"positionId","type":"uint256","indexed":true,"internalType":"uint256"},{"name":"liquidator","type":"address","indexed":true,"internalType":"address"},{"name":"realizedPnl","type":"int256","indexed":false,"internalType":"int256"},{"name":"insurancePayout","type":"uint256","indexed":false,"internalType":"uint256"}],"anonymous":false},{"type":"event","name":"LiquidationTriggered","inputs":[{"name":"positionId","type":"uint256","indexed":true,"internalType":"uint256"},{"name":"liquidator","type":"address","indexed":true,"internalType":"address"},{"name":"markPriceX18","type":"uint256","indexed":false,"internalType":"uint256"}],"anonymous":false},{"type":"error","name":"InactivePosition","inputs":[]},{"type":"error","name":"InvalidAddress","inputs":[]},{"type":"error","name":"InvalidLiquidationState","inputs":[]},{"type":"error","name":"InvalidMarket","inputs":[]}],"bytecode":{"object":"0x610100604052348015610010575f80fd5b50604051610f06380380610f0683398101604081905261002f916100b9565b6001600160a01b038416158061004c57506001600160a01b038316155b8061005e57506001600160a01b038216155b1561007c5760405163e6c4247b60e01b815260040160405180910390fd5b6001600160a01b0393841660805291831660a052821660c0521660e05261010a565b80516001600160a01b03811681146100b4575f80fd5b919050565b5f805f80608085870312156100cc575f80fd5b6100d58561009e565b93506100e36020860161009e565b92506100f16040860161009e565b91506100ff6060860161009e565b905092959194509250565b60805160a05160c05160e051610d8b61017b5f395f81816101600152818161063e01526106bd01525f8181610139015281816102ff015261051e01525f818160d30152818161026b015261048a01525f8181610112015281816101c0015281816103cd01526107600152610d8b5ff3fe608060405234801561000f575f80fd5b506004361061007a575f3560e01c80633d9f3163116100585780633d9f3163146100ce578063791b98bc1461010d5780637c90a6ca146101345780638f9722401461015b575f80fd5b80632590c3b11461007e5780632e16fd6b146100a65780633af8c7a6146100b9575b5f80fd5b61009161008c3660046109ae565b610182565b60405190151581526020015b60405180910390f35b6100916100b4366004610aae565b610196565b6100cc6100c7366004610aae565b6103a5565b005b6100f57f000000000000000000000000000000000000000000000000000000000000000081565b6040516001600160a01b03909116815260200161009d565b6100f57f000000000000000000000000000000000000000000000000000000000000000081565b6100f57f000000000000000000000000000000000000000000000000000000000000000081565b6100f57f000000000000000000000000000000000000000000000000000000000000000081565b5f61018e8484846107ff565b949350505050565b6040516307d47a8b60e11b81526001600160a01b038381166004830152602482018390525f9182917f00000000000000000000000000000000000000000000000000000000000000001690630fa8f516906044016101c060405180830381865afa158015610206573d5f803e3d5ffd5b505050506040513d601f19601f8201168201806040525081019061022a9190610b04565b90506001816101200151600381111561024557610245610be3565b14610253575f91505061039f565b604051637698aa3360e01b8152600481018490525f907f00000000000000000000000000000000000000000000000000000000000000006001600160a01b031690637698aa3390602401602060405180830381865afa1580156102b8573d5f803e3d5ffd5b505050506040513d601f19601f820116820180604052508101906102dc9190610bf7565b604051630d4d5c4360e31b8152600481018690529091505f906001600160a01b037f00000000000000000000000000000000000000000000000000000000000000001690636a6ae2189060240160e060405180830381865afa158015610344573d5f803e3d5ffd5b505050506040513d601f19601f820116820180604052508101906103689190610c0e565b805190915061038a57604051639db8d5b160e01b815260040160405180910390fd5b610399838383608001516107ff565b93505050505b92915050565b6040516307d47a8b60e11b81526001600160a01b038381166004830152602482018390525f917f000000000000000000000000000000000000000000000000000000000000000090911690630fa8f516906044016101c060405180830381865afa158015610415573d5f803e3d5ffd5b505050506040513d601f19601f820116820180604052508101906104399190610b04565b90506001816101200151600381111561045457610454610be3565b1461047257604051631f9c0ddd60e31b815260040160405180910390fd5b604051637698aa3360e01b8152600481018390525f907f00000000000000000000000000000000000000000000000000000000000000006001600160a01b031690637698aa3390602401602060405180830381865afa1580156104d7573d5f803e3d5ffd5b505050506040513d601f19601f820116820180604052508101906104fb9190610bf7565b604051630d4d5c4360e31b8152600481018590529091505f906001600160a01b037f00000000000000000000000000000000000000000000000000000000000000001690636a6ae2189060240160e060405180830381865afa158015610563573d5f803e3d5ffd5b505050506040513d601f19601f820116820180604052508101906105879190610c0e565b80519091506105a957604051639db8d5b160e01b815260040160405180910390fd5b6105b8838383608001516107ff565b6105d55760405163381e4d7d60e01b815260040160405180910390fd5b82516040518381523391907f989f810eb99a637da2dea16820faf53fe3fe36c9e490d54c6215d81b700d862d9060200160405180910390a35f80610619858561083d565b90506001856101400151600381111561063457610634610be3565b14801561066957507f00000000000000000000000000000000000000000000000000000000000000006001600160a01b031615155b801561067457505f81125b1561072d575f61068382610ccb565b865160405163062c86ef60e31b815260048101919091526001600160a01b038a8116602483015260448201839052600160648301529192507f0000000000000000000000000000000000000000000000000000000000000000909116906331643778906084016020604051808303815f875af1158015610705573d5f803e3d5ffd5b505050506040513d601f19601f820116820180604052508101906107299190610bf7565b9250505b604051635fae968760e01b81526001600160a01b03888116600483015260248201889052336044830152606482018690527f00000000000000000000000000000000000000000000000000000000000000001690635fae9687906084015f604051808303815f87803b1580156107a1575f80fd5b505af11580156107b3573d5f803e3d5ffd5b5050865160408051858152602081018790523394509192507f747420e641b698a80f0dcdf3ad904c6df2df6652d951f0bc4b58bc7f589a042b910160405180910390a350505050505050565b5f8061080b858561083d565b90505f81866080015161081e9190610ce5565b90505f61082f8760a00151866108e3565b909113159695505050505050565b5f8260c001515f0361085057505f61039f565b5f828460c00151116108705760c084015161086b9084610d0c565b610880565b828460c001516108809190610d0c565b90505f8460c00151828660a001516108989190610d1f565b6108a29190610d36565b90505f8561010001516108bc578560c001518511156108c5565b8560c001518510155b9050806108da576108d582610ccb565b610399565b50949350505050565b5f6127106108f18385610d1f565b6108fb9190610d36565b9392505050565b6040516101c0810167ffffffffffffffff8111828210171561093257634e487b7160e01b5f52604160045260245ffd5b60405290565b6001600160a01b038116811461094c575f80fd5b50565b803561095a81610938565b919050565b801515811461094c575f80fd5b803561095a8161095f565b6004811061094c575f80fd5b803561095a81610977565b67ffffffffffffffff8116811461094c575f80fd5b803561095a8161098e565b5f805f8385036102008112156109c2575f80fd5b6101c0808212156109d1575f80fd5b6109d9610902565b9150853582526109eb6020870161094f565b602083015260408601356040830152610a066060870161094f565b60608301526080860135608083015260a086013560a083015260c086013560c083015260e086013560e0830152610100610a4181880161096c565b90830152610120610a53878201610983565b90830152610140610a65878201610983565b90830152610160610a778782016109a3565b90830152610180610a898782016109a3565b908301526101a0868101359083015290969085013595506101e0909401359392505050565b5f8060408385031215610abf575f80fd5b8235610aca81610938565b946020939093013593505050565b805161095a81610938565b805161095a8161095f565b805161095a81610977565b805161095a8161098e565b5f6101c08284031215610b15575f80fd5b610b1d610902565b82518152610b2d60208401610ad8565b602082015260408301516040820152610b4860608401610ad8565b60608201526080830151608082015260a083015160a082015260c083015160c082015260e083015160e0820152610100610b83818501610ae3565b90820152610120610b95848201610aee565b90820152610140610ba7848201610aee565b90820152610160610bb9848201610af9565b90820152610180610bcb848201610af9565b908201526101a0928301519281019290925250919050565b634e487b7160e01b5f52602160045260245ffd5b5f60208284031215610c07575f80fd5b5051919050565b5f60e08284031215610c1e575f80fd5b60405160e0810181811067ffffffffffffffff82111715610c4d57634e487b7160e01b5f52604160045260245ffd5b6040528251610c5b8161095f565b81526020830151610c6b81610938565b60208201526040830151610c7e81610938565b80604083015250606083015160608201526080830151608082015260a083015160a082015260c083015160c08201528091505092915050565b634e487b7160e01b5f52601160045260245ffd5b5f600160ff1b8201610cdf57610cdf610cb7565b505f0390565b8082018281125f831280158216821582161715610d0457610d04610cb7565b505092915050565b8181038181111561039f5761039f610cb7565b808202811582820484141761039f5761039f610cb7565b5f82610d5057634e487b7160e01b5f52601260045260245ffd5b50049056fea264697066735822122071b48e4e055d2f609ae500a58043dc25e9cba126c72de389788e6e6368a3b11364736f6c63430008180033","linkReferences":{}},"methodIdentifiers":{"insuranceController()":"8f972240","isLiquidatable(address,bytes32)":"2e16fd6b","isMaintenanceBreached((uint256,address,bytes32,address,uint256,uint256,uint256,uint256,bool,uint8,uint8,uint64,uint64,bytes32),uint256,uint256)":"2590c3b1","liquidate(address,bytes32)":"3af8c7a6","oracleAdapter()":"3d9f3163","positionManager()":"791b98bc","riskConfig()":"7c90a6ca"},"id":2}