{"abi":[{"type":"constructor","inputs":[{"name":"initialOwner","type":"address","internalType":"address"},{"name":"initialQuoteSigner","type":"address","internalType":"address"},{"name":"initialMaxCoverageRatioBps","type":"uint256","internalType":"uint256"},{"name":"initialPremiumTreasuryBps","type":"uint256","internalType":"uint256"},{"name":"initialVaultUtilizationLimitBps","type":"uint256","internalType":"uint256"},{"name":"initialLiquidationPenaltyBps","type":"uint256","internalType":"uint256"}],"stateMutability":"nonpayable"},{"type":"function","name":"acceptOwnership","inputs":[],"outputs":[],"stateMutability":"nonpayable"},{"type":"function","name":"activationDelayByMarket","inputs":[{"name":"marketId","type":"bytes32","internalType":"bytes32"}],"outputs":[{"name":"","type":"uint256","internalType":"uint256"}],"stateMutability":"view"},{"type":"function","name":"cooldownSecondsByTier","inputs":[{"name":"tier","type":"uint8","internalType":"uint8"}],"outputs":[{"name":"","type":"uint256","internalType":"uint256"}],"stateMutability":"view"},{"type":"function","name":"fullActivationDelayByMarket","inputs":[{"name":"marketId","type":"bytes32","internalType":"bytes32"}],"outputs":[{"name":"","type":"uint256","internalType":"uint256"}],"stateMutability":"view"},{"type":"function","name":"getGlobalParams","inputs":[],"outputs":[{"name":"maxCoverageRatioBps_","type":"uint256","internalType":"uint256"},{"name":"premiumTreasuryBps_","type":"uint256","internalType":"uint256"},{"name":"vaultUtilizationLimitBps_","type":"uint256","internalType":"uint256"},{"name":"liquidationPenaltyBps_","type":"uint256","internalType":"uint256"},{"name":"quoteSigner_","type":"address","internalType":"address"}],"stateMutability":"view"},{"type":"function","name":"getMarketConfig","inputs":[{"name":"marketId","type":"bytes32","internalType":"bytes32"}],"outputs":[{"name":"config","type":"tuple","internalType":"struct Types.MarketConfig","components":[{"name":"isActive","type":"bool","internalType":"bool"},{"name":"oracle","type":"address","internalType":"address"},{"name":"collateralToken","type":"address","internalType":"address"},{"name":"maxLeverageX18","type":"uint256","internalType":"uint256"},{"name":"maintenanceMarginBps","type":"uint256","internalType":"uint256"},{"name":"liquidationPenaltyBps","type":"uint256","internalType":"uint256"},{"name":"maxOpenInterestUsdX18","type":"uint256","internalType":"uint256"}]}],"stateMutability":"view"},{"type":"function","name":"liquidationGracePeriodSeconds","inputs":[],"outputs":[{"name":"","type":"uint256","internalType":"uint256"}],"stateMutability":"view"},{"type":"function","name":"liquidationPenaltyBps","inputs":[],"outputs":[{"name":"","type":"uint256","internalType":"uint256"}],"stateMutability":"view"},{"type":"function","name":"maxCoverageRatioBps","inputs":[],"outputs":[{"name":"","type":"uint256","internalType":"uint256"}],"stateMutability":"view"},{"type":"function","name":"maxCoverageRatioByTier","inputs":[{"name":"tier","type":"uint8","internalType":"uint8"}],"outputs":[{"name":"","type":"uint256","internalType":"uint256"}],"stateMutability":"view"},{"type":"function","name":"maxInsurableAmountByMarket","inputs":[{"name":"marketId","type":"bytes32","internalType":"bytes32"}],"outputs":[{"name":"","type":"uint256","internalType":"uint256"}],"stateMutability":"view"},{"type":"function","name":"minHoldingTimeByMarket","inputs":[{"name":"marketId","type":"bytes32","internalType":"bytes32"}],"outputs":[{"name":"","type":"uint256","internalType":"uint256"}],"stateMutability":"view"},{"type":"function","name":"owner","inputs":[],"outputs":[{"name":"","type":"address","internalType":"address"}],"stateMutability":"view"},{"type":"function","name":"pendingOwner","inputs":[],"outputs":[{"name":"","type":"address","internalType":"address"}],"stateMutability":"view"},{"type":"function","name":"premiumTreasuryBps","inputs":[],"outputs":[{"name":"","type":"uint256","internalType":"uint256"}],"stateMutability":"view"},{"type":"function","name":"quoteSigner","inputs":[],"outputs":[{"name":"","type":"address","internalType":"address"}],"stateMutability":"view"},{"type":"function","name":"renounceOwnership","inputs":[],"outputs":[],"stateMutability":"nonpayable"},{"type":"function","name":"setCoverageTier","inputs":[{"name":"tier","type":"uint8","internalType":"uint8"},{"name":"maxCoverageRatioBps_","type":"uint256","internalType":"uint256"}],"outputs":[],"stateMutability":"nonpayable"},{"type":"function","name":"setLiquidationGracePeriodSeconds","inputs":[{"name":"newLiquidationGracePeriodSeconds","type":"uint256","internalType":"uint256"}],"outputs":[],"stateMutability":"nonpayable"},{"type":"function","name":"setLiquidationPenaltyBps","inputs":[{"name":"newLiquidationPenaltyBps","type":"uint256","internalType":"uint256"}],"outputs":[],"stateMutability":"nonpayable"},{"type":"function","name":"setMarketConfig","inputs":[{"name":"marketId","type":"bytes32","internalType":"bytes32"},{"name":"config","type":"tuple","internalType":"struct Types.MarketConfig","components":[{"name":"isActive","type":"bool","internalType":"bool"},{"name":"oracle","type":"address","internalType":"address"},{"name":"collateralToken","type":"address","internalType":"address"},{"name":"maxLeverageX18","type":"uint256","internalType":"uint256"},{"name":"maintenanceMarginBps","type":"uint256","internalType":"uint256"},{"name":"liquidationPenaltyBps","type":"uint256","internalType":"uint256"},{"name":"maxOpenInterestUsdX18","type":"uint256","internalType":"uint256"}]}],"outputs":[],"stateMutability":"nonpayable"},{"type":"function","name":"setMarketInsuranceLimits","inputs":[{"name":"marketId","type":"bytes32","internalType":"bytes32"},{"name":"maxInsurableAmount","type":"uint256","internalType":"uint256"},{"name":"minHoldingTime","type":"uint256","internalType":"uint256"},{"name":"activationDelay","type":"uint256","internalType":"uint256"},{"name":"fullActivationDelay","type":"uint256","internalType":"uint256"}],"outputs":[],"stateMutability":"nonpayable"},{"type":"function","name":"setMaxCoverageRatioBps","inputs":[{"name":"newMaxCoverageRatioBps","type":"uint256","internalType":"uint256"}],"outputs":[],"stateMutability":"nonpayable"},{"type":"function","name":"setPremiumTreasuryBps","inputs":[{"name":"newPremiumTreasuryBps","type":"uint256","internalType":"uint256"}],"outputs":[],"stateMutability":"nonpayable"},{"type":"function","name":"setQuoteSigner","inputs":[{"name":"newQuoteSigner","type":"address","internalType":"address"}],"outputs":[],"stateMutability":"nonpayable"},{"type":"function","name":"setTierCooldown","inputs":[{"name":"tier","type":"uint8","internalType":"uint8"},{"name":"cooldownSeconds","type":"uint256","internalType":"uint256"}],"outputs":[],"stateMutability":"nonpayable"},{"type":"function","name":"setUtilizationThrottleBps","inputs":[{"name":"newUtilizationThrottleBps","type":"uint256","internalType":"uint256"}],"outputs":[],"stateMutability":"nonpayable"},{"type":"function","name":"setVaultUtilizationLimitBps","inputs":[{"name":"newVaultUtilizationLimitBps","type":"uint256","internalType":"uint256"}],"outputs":[],"stateMutability":"nonpayable"},{"type":"function","name":"transferOwnership","inputs":[{"name":"newOwner","type":"address","internalType":"address"}],"outputs":[],"stateMutability":"nonpayable"},{"type":"function","name":"utilizationThrottleBps","inputs":[],"outputs":[{"name":"","type":"uint256","internalType":"uint256"}],"stateMutability":"view"},{"type":"function","name":"vaultUtilizationLimitBps","inputs":[],"outputs":[{"name":"","type":"uint256","internalType":"uint256"}],"stateMutability":"view"},{"type":"event","name":"CoverageTierUpdated","inputs":[{"name":"tier","type":"uint8","indexed":true,"internalType":"uint8"},{"name":"maxCoverageRatioBps","type":"uint256","indexed":false,"internalType":"uint256"}],"anonymous":false},{"type":"event","name":"LiquidationGracePeriodUpdated","inputs":[{"name":"previousValue","type":"uint256","indexed":false,"internalType":"uint256"},{"name":"newValue","type":"uint256","indexed":false,"internalType":"uint256"}],"anonymous":false},{"type":"event","name":"LiquidationPenaltyBpsUpdated","inputs":[{"name":"previousValue","type":"uint256","indexed":false,"internalType":"uint256"},{"name":"newValue","type":"uint256","indexed":false,"internalType":"uint256"}],"anonymous":false},{"type":"event","name":"MarketConfigUpdated","inputs":[{"name":"marketId","type":"bytes32","indexed":true,"internalType":"bytes32"},{"name":"oracle","type":"address","indexed":true,"internalType":"address"},{"name":"collateralToken","type":"address","indexed":true,"internalType":"address"},{"name":"maxLeverageX18","type":"uint256","indexed":false,"internalType":"uint256"},{"name":"maintenanceMarginBps","type":"uint256","indexed":false,"internalType":"uint256"},{"name":"liquidationPenaltyBps","type":"uint256","indexed":false,"internalType":"uint256"},{"name":"maxOpenInterestUsdX18","type":"uint256","indexed":false,"internalType":"uint256"},{"name":"isActive","type":"bool","indexed":false,"internalType":"bool"}],"anonymous":false},{"type":"event","name":"MarketInsuranceLimitsUpdated","inputs":[{"name":"marketId","type":"bytes32","indexed":true,"internalType":"bytes32"},{"name":"maxInsurableAmount","type":"uint256","indexed":false,"internalType":"uint256"},{"name":"minHoldingTime","type":"uint256","indexed":false,"internalType":"uint256"},{"name":"activationDelay","type":"uint256","indexed":false,"internalType":"uint256"},{"name":"fullActivationDelay","type":"uint256","indexed":false,"internalType":"uint256"}],"anonymous":false},{"type":"event","name":"MaxCoverageRatioUpdated","inputs":[{"name":"previousValue","type":"uint256","indexed":false,"internalType":"uint256"},{"name":"newValue","type":"uint256","indexed":false,"internalType":"uint256"}],"anonymous":false},{"type":"event","name":"OwnershipTransferStarted","inputs":[{"name":"previousOwner","type":"address","indexed":true,"internalType":"address"},{"name":"newOwner","type":"address","indexed":true,"internalType":"address"}],"anonymous":false},{"type":"event","name":"OwnershipTransferred","inputs":[{"name":"previousOwner","type":"address","indexed":true,"internalType":"address"},{"name":"newOwner","type":"address","indexed":true,"internalType":"address"}],"anonymous":false},{"type":"event","name":"PremiumTreasuryBpsUpdated","inputs":[{"name":"previousValue","type":"uint256","indexed":false,"internalType":"uint256"},{"name":"newValue","type":"uint256","indexed":false,"internalType":"uint256"}],"anonymous":false},{"type":"event","name":"QuoteSignerUpdated","inputs":[{"name":"previousSigner","type":"address","indexed":true,"internalType":"address"},{"name":"newSigner","type":"address","indexed":true,"internalType":"address"}],"anonymous":false},{"type":"event","name":"TierCooldownUpdated","inputs":[{"name":"tier","type":"uint8","indexed":true,"internalType":"uint8"},{"name":"cooldownSeconds","type":"uint256","indexed":false,"internalType":"uint256"}],"anonymous":false},{"type":"event","name":"UtilizationThrottleBpsUpdated","inputs":[{"name":"previousValue","type":"uint256","indexed":false,"internalType":"uint256"},{"name":"newValue","type":"uint256","indexed":false,"internalType":"uint256"}],"anonymous":false},{"type":"event","name":"VaultUtilizationLimitBpsUpdated","inputs":[{"name":"previousValue","type":"uint256","indexed":false,"internalType":"uint256"},{"name":"newValue","type":"uint256","indexed":false,"internalType":"uint256"}],"anonymous":false},{"type":"error","name":"InvalidBps","inputs":[]},{"type":"error","name":"InvalidCoverageRatio","inputs":[]},{"type":"error","name":"InvalidLeverage","inputs":[]},{"type":"error","name":"InvalidMarket","inputs":[]},{"type":"error","name":"InvalidSigner","inputs":[]},{"type":"error","name":"OwnableInvalidOwner","inputs":[{"name":"owner","type":"address","internalType":"address"}]},{"type":"error","name":"OwnableUnauthorizedAccount","inputs":[{"name":"account","type":"address","internalType":"address"}]},{"type":"error","name":"ZeroAmount","inputs":[]}],"bytecode":{"object":"0x608060405234801562000010575f80fd5b506040516200144a3803806200144a833981016040819052620000339162000414565b856001600160a01b0381166200006257604051631e4fbdf760e01b81525f600482015260240160405180910390fd5b6200006d81620000c9565b506200007985620000e7565b620000848462000160565b6200008f83620001ca565b6200009a826200022d565b620000a5826200029a565b620000b08162000307565b620000bd61012c6200036a565b5050505050506200046d565b600180546001600160a01b0319169055620000e481620003a9565b50565b6001600160a01b0381166200010f57604051632057875960e21b815260040160405180910390fd5b600980546001600160a01b038381166001600160a01b0319831681179093556040519116919082907f0b6b513ed661cb195db5434de123da765c2d8ef310958c00646bb5a872cb1afa905f90a35050565b611388811115620001845760405163b5019d3160e01b815260040160405180910390fd5b600380549082905560408051828152602081018490527f48740be76cc420d0d477a4566a455fe4923fa42242ca2dd720920fb5afda57f491015b60405180910390a15050565b612710811115620001ee5760405163c6cc5d7f60e01b815260040160405180910390fd5b600480549082905560408051828152602081018490527feb472dd41ba3818e278d5831d62be2be663dbe8347d4f66b8f439a58b4a3f1c59101620001be565b8015806200023c575061271081115b156200025b5760405163c6cc5d7f60e01b815260040160405180910390fd5b600580549082905560408051828152602081018490527f7f1308ac357fab390cd5b5f12922a5e0eecdd32e8c86890f21b81e2baf7628a49101620001be565b801580620002a9575061271081115b15620002c85760405163c6cc5d7f60e01b815260040160405180910390fd5b600680549082905560408051828152602081018490527f67fbcc9d77033706bdcaafb17d21021c3277dd4e8fd065025dcb3bb89868f0219101620001be565b6127108111156200032b5760405163c6cc5d7f60e01b815260040160405180910390fd5b600780549082905560408051828152602081018490527f35f7db724bf5ccc7ab4e5d75df8aa8c240ddde34853dc9349495ea2c5bbb0ab09101620001be565b600880549082905560408051828152602081018490527fc07796ab1bc594ac0cbbf0ec521f2dca08281d574b48df43967fdde62bd0a0649101620001be565b5f80546001600160a01b038381166001600160a01b0319831681178455604051919092169283917f8be0079c531659141344cd1fd0a4f28419497f9722a3daafe3b4186f6b6457e09190a35050565b80516001600160a01b03811681146200040f575f80fd5b919050565b5f805f805f8060c087890312156200042a575f80fd5b6200043587620003f8565b95506200044560208801620003f8565b945060408701519350606087015192506080870151915060a087015190509295509295509295565b610fcf806200047b5f395ff3fe608060405234801561000f575f80fd5b50600436106101dc575f3560e01c806372fcabd911610109578063c6ded04c1161009e578063ed8c43561161006e578063ed8c435614610476578063eef62d9614610489578063f2fde38b1461049c578063f413bdb3146104af575f80fd5b8063c6ded04c1461042b578063d9a3f8681461044a578063e30c39781461045d578063eae382cb1461046e575f80fd5b806394d37388116100d957806394d37388146103ea578063a0f86ba6146103fd578063b126d15f14610405578063c148789a14610418575f80fd5b806372fcabd9146103a3578063799df069146103b657806379ba5097146103be5780638da5cb5b146103c6575f80fd5b8063433c10091161017f57806356ce180a1161014f57806356ce180a146102d45780636a6ae218146102e75780636b3222e61461035b578063715018a61461039b575f80fd5b8063433c1009146102785780634749a53514610280578063487018691461029f5780634e5b7825146102c1575f80fd5b806335428220116101ba57806335428220146102355780633a13a7fb1461023d5780633b4dbbca146102525780633fea6e2714610265575f80fd5b806312e08b44146101e0578063166f0052146101f7578063230273a114610216575b5f80fd5b6005545b6040519081526020015b60405180910390f35b6101e4610205366004610dac565b5f908152600b602052604090205490565b6101e4610224366004610dac565b5f908152600d602052604090205490565b6008546101e4565b61025061024b366004610dc3565b6104c0565b005b6101e4610260366004610e0f565b610592565b610250610273366004610e28565b6105bb565b6006546101e4565b6101e461028e366004610dac565b5f908152600c602052604090205490565b6101e46102ad366004610e0f565b60ff165f908152600f602052604090205490565b6102506102cf366004610dac565b610615565b6102506102e2366004610e64565b610629565b6102fa6102f5366004610dac565b61063a565b604080518251151581526020808401516001600160a01b0390811691830191909152838301511691810191909152606080830151908201526080808301519082015260a0808301519082015260c0918201519181019190915260e0016101ee565b6003546004546005546007546009546040805195865260208601949094529284019190915260608301526001600160a01b0316608082015260a0016101ee565b6102506106fc565b6102506103b1366004610dac565b61070f565b6004546101e4565b610250610720565b5f546001600160a01b03165b6040516001600160a01b0390911681526020016101ee565b6102506103f8366004610dac565b610766565b6007546101e4565b610250610413366004610dac565b610777565b610250610426366004610dac565b610788565b6101e4610439366004610dac565b5f908152600e602052604090205490565b610250610458366004610dac565b610799565b6001546001600160a01b03166103d2565b6003546101e4565b610250610484366004610e28565b6107aa565b610250610497366004610e7f565b61081b565b6102506104aa366004610e64565b6109f3565b6009546001600160a01b03166103d2565b6104c8610a63565b8415806104d3575083155b156104f157604051639db8d5b160e01b815260040160405180910390fd5b818110156105125760405163c6cc5d7f60e01b815260040160405180910390fd5b5f858152600b60209081526040808320879055600c8252808320869055600d8252808320859055600e82529182902083905581518681529081018590529081018390526060810182905285907f89f4755c8983218343522225bf2ca6940812764ca505e87ff963895910ccc51e9060800160405180910390a25050505050565b60ff81165f908152600a602052604081205480156105b057806105b4565b6003545b9392505050565b6105c3610a63565b60ff82165f818152600f602052604090819020839055517f617161916e5cc4145a845c639cc2f05cca7d4d4098920653bd01ced3ed7996e0906106099084815260200190565b60405180910390a25050565b61061d610a63565b61062681610a8f565b50565b610631610a63565b61062681610b01565b6106876040518060e001604052805f151581526020015f6001600160a01b031681526020015f6001600160a01b031681526020015f81526020015f81526020015f81526020015f81525090565b505f90815260026020818152604092839020835160e081018552815460ff8116151582526001600160a01b0361010090910481169382019390935260018201549092169382019390935290820154606082015260038201546080820152600482015460a082015260059091015460c082015290565b610704610a63565b61070d5f610b79565b565b610717610a63565b61062681610b92565b60015433906001600160a01b0316811461075d5760405163118cdaa760e01b81526001600160a01b03821660048201526024015b60405180910390fd5b61062681610b79565b61076e610a63565b61062681610bf3565b61077f610a63565b61062681610c54565b610790610a63565b61062681610cb5565b6107a1610a63565b61062681610d1f565b6107b2610a63565b6113888111156107d55760405163b5019d3160e01b815260040160405180910390fd5b60ff82165f818152600a602052604090819020839055517f0f2af5b44d21842a59626f2be07f07217cd5706cebaaff61061644a5b04a3d13906106099084815260200190565b610823610a63565b8161084157604051639db8d5b160e01b815260040160405180910390fd5b5f6108526040830160208401610e64565b6001600160a01b0316148061087e57505f6108736060830160408401610e64565b6001600160a01b0316145b1561089c57604051639db8d5b160e01b815260040160405180910390fd5b80606001355f036108c057604051633fe89cb960e11b815260040160405180910390fd5b6127108160800135106108e65760405163c6cc5d7f60e01b815260040160405180910390fd5b6127108160a00135111561090d5760405163c6cc5d7f60e01b815260040160405180910390fd5b8060c001355f0361093157604051631f2a200560e01b815260040160405180910390fd5b5f828152600260205260409020819061094a8282610ed4565b5061095d90506060820160408301610e64565b6001600160a01b03166109766040830160208401610e64565b6001600160a01b0316837ff68cc5ac9884fc67a1ed333d650a84ccebe48fe0b094b65b977227d0aebcace46060850135608086013560a087013560c08801356109c260208a018a610f7e565b6040805195865260208601949094529284019190915260608301521515608082015260a00160405180910390a45050565b6109fb610a63565b600180546001600160a01b0383166001600160a01b03199091168117909155610a2b5f546001600160a01b031690565b6001600160a01b03167f38d16b8cac22d99fc7c124b9cd0de2d3fa1faef420bfe791d8c362d765e2270060405160405180910390a350565b5f546001600160a01b0316331461070d5760405163118cdaa760e01b8152336004820152602401610754565b801580610a9d575061271081115b15610abb5760405163c6cc5d7f60e01b815260040160405180910390fd5b600580549082905560408051828152602081018490527f7f1308ac357fab390cd5b5f12922a5e0eecdd32e8c86890f21b81e2baf7628a491015b60405180910390a15050565b6001600160a01b038116610b2857604051632057875960e21b815260040160405180910390fd5b600980546001600160a01b038381166001600160a01b0319831681179093556040519116919082907f0b6b513ed661cb195db5434de123da765c2d8ef310958c00646bb5a872cb1afa905f90a35050565b600180546001600160a01b031916905561062681610d5d565b612710811115610bb55760405163c6cc5d7f60e01b815260040160405180910390fd5b600480549082905560408051828152602081018490527feb472dd41ba3818e278d5831d62be2be663dbe8347d4f66b8f439a58b4a3f1c59101610af5565b611388811115610c165760405163b5019d3160e01b815260040160405180910390fd5b600380549082905560408051828152602081018490527f48740be76cc420d0d477a4566a455fe4923fa42242ca2dd720920fb5afda57f49101610af5565b612710811115610c775760405163c6cc5d7f60e01b815260040160405180910390fd5b600780549082905560408051828152602081018490527f35f7db724bf5ccc7ab4e5d75df8aa8c240ddde34853dc9349495ea2c5bbb0ab09101610af5565b801580610cc3575061271081115b15610ce15760405163c6cc5d7f60e01b815260040160405180910390fd5b600680549082905560408051828152602081018490527f67fbcc9d77033706bdcaafb17d21021c3277dd4e8fd065025dcb3bb89868f0219101610af5565b600880549082905560408051828152602081018490527fc07796ab1bc594ac0cbbf0ec521f2dca08281d574b48df43967fdde62bd0a0649101610af5565b5f80546001600160a01b038381166001600160a01b0319831681178455604051919092169283917f8be0079c531659141344cd1fd0a4f28419497f9722a3daafe3b4186f6b6457e09190a35050565b5f60208284031215610dbc575f80fd5b5035919050565b5f805f805f60a08688031215610dd7575f80fd5b505083359560208501359550604085013594606081013594506080013592509050565b803560ff81168114610e0a575f80fd5b919050565b5f60208284031215610e1f575f80fd5b6105b482610dfa565b5f8060408385031215610e39575f80fd5b610e4283610dfa565b946020939093013593505050565b6001600160a01b0381168114610626575f80fd5b5f60208284031215610e74575f80fd5b81356105b481610e50565b5f80828403610100811215610e92575f80fd5b8335925060e0601f1982011215610ea7575f80fd5b506020830190509250929050565b8015158114610626575f80fd5b5f8135610ece81610e50565b92915050565b8135610edf81610eb5565b815490151560ff1660ff19919091161781556020820135610eff81610e50565b8154610100600160a81b031916600882901b610100600160a81b031617825550610f52610f2e60408401610ec2565b6001830180546001600160a01b0319166001600160a01b0392909216919091179055565b606082013560028201556080820135600382015560a0820135600482015560c082013560058201555050565b5f60208284031215610f8e575f80fd5b81356105b481610eb556fea2646970667358221220f9670e738fcf6bac34f634edd63fcbb1e0031d8e5b03206ed0e95a35bd3c320b64736f6c63430008180033","linkReferences":{}},"methodIdentifiers":{"acceptOwnership()":"79ba5097","activationDelayByMarket(bytes32)":"230273a1","cooldownSecondsByTier(uint8)":"48701869","fullActivationDelayByMarket(bytes32)":"c6ded04c","getGlobalParams()":"6b3222e6","getMarketConfig(bytes32)":"6a6ae218","liquidationGracePeriodSeconds()":"35428220","liquidationPenaltyBps()":"a0f86ba6","maxCoverageRatioBps()":"eae382cb","maxCoverageRatioByTier(uint8)":"3b4dbbca","maxInsurableAmountByMarket(bytes32)":"166f0052","minHoldingTimeByMarket(bytes32)":"4749a535","owner()":"8da5cb5b","pendingOwner()":"e30c3978","premiumTreasuryBps()":"799df069","quoteSigner()":"f413bdb3","renounceOwnership()":"715018a6","setCoverageTier(uint8,uint256)":"ed8c4356","setLiquidationGracePeriodSeconds(uint256)":"d9a3f868","setLiquidationPenaltyBps(uint256)":"b126d15f","setMarketConfig(bytes32,(bool,address,address,uint256,uint256,uint256,uint256))":"eef62d96","setMarketInsuranceLimits(bytes32,uint256,uint256,uint256,uint256)":"3a13a7fb","setMaxCoverageRatioBps(uint256)":"94d37388","setPremiumTreasuryBps(uint256)":"72fcabd9","setQuoteSigner(address)":"56ce180a","setTierCooldown(uint8,uint256)":"3fea6e27","setUtilizationThrottleBps(uint256)":"c148789a","setVaultUtilizationLimitBps(uint256)":"4e5b7825","transferOwnership(address)":"f2fde38b","utilizationThrottleBps()":"433c1009","vaultUtilizationLimitBps()":"12e08b44"},"id":6}