{"abi":[{"type":"constructor","inputs":[],"stateMutability":"nonpayable"},{"type":"function","name":"owner","inputs":[],"outputs":[{"name":"","type":"address","internalType":"address"}],"stateMutability":"view"},{"type":"function","name":"riskParams","inputs":[{"name":"","type":"address","internalType":"address"}],"outputs":[{"name":"maxLeverageX18","type":"uint256","internalType":"uint256"},{"name":"maintenanceMarginBps","type":"uint256","internalType":"uint256"}],"stateMutability":"view"},{"type":"function","name":"setRiskParams","inputs":[{"name":"asset","type":"address","internalType":"address"},{"name":"params","type":"tuple","internalType":"struct Types.RiskParams","components":[{"name":"maxLeverageX18","type":"uint256","internalType":"uint256"},{"name":"maintenanceMarginBps","type":"uint256","internalType":"uint256"}]}],"outputs":[],"stateMutability":"nonpayable"},{"type":"error","name":"Unauthorized","inputs":[]}],"bytecode":{"object":"0x608060405234801561000f575f80fd5b505f80546001600160a01b031916331790556101c28061002e5f395ff3fe608060405234801561000f575f80fd5b506004361061003f575f3560e01c8063102162dd1461004357806353b85a50146100585780638da5cb5b14610098575b5f80fd5b610056610051366004610130565b6100c2565b005b61007e61006636600461016c565b600160208190525f9182526040909120805491015482565b604080519283526020830191909152015b60405180910390f35b5f546100aa906001600160a01b031681565b6040516001600160a01b03909116815260200161008f565b5f546001600160a01b031633146100eb576040516282b42960e81b815260040160405180910390fd5b6001600160a01b03919091165f908152600160208181526040909220833581559290910135910155565b80356001600160a01b038116811461012b575f80fd5b919050565b5f808284036060811215610142575f80fd5b61014b84610115565b92506040601f198201121561015e575f80fd5b506020830190509250929050565b5f6020828403121561017c575f80fd5b61018582610115565b939250505056fea2646970667358221220ec27e5a67d421e221661af1a28f902b98593d52ed5ad77784d66b1347f53f22664736f6c63430008180033","linkReferences":{}},"methodIdentifiers":{"owner()":"8da5cb5b","riskParams(address)":"53b85a50","setRiskParams(address,(uint256,uint256))":"102162dd"},"id":6}