{"abi":[{"type":"constructor","inputs":[{"name":"initialOwner","type":"address","internalType":"address"},{"name":"initialQuoteSigner","type":"address","internalType":"address"},{"name":"initialMaxCoverageRatioBps","type":"uint256","internalType":"uint256"},{"name":"initialPremiumTreasuryBps","type":"uint256","internalType":"uint256"},{"name":"initialVaultUtilizationLimitBps","type":"uint256","internalType":"uint256"},{"name":"initialLiquidationPenaltyBps","type":"uint256","internalType":"uint256"}],"stateMutability":"nonpayable"},{"type":"function","name":"acceptOwnership","inputs":[],"outputs":[],"stateMutability":"nonpayable"},{"type":"function","name":"activationDelayByMarket","inputs":[{"name":"marketId","type":"bytes32","internalType":"bytes32"}],"outputs":[{"name":"","type":"uint256","internalType":"uint256"}],"stateMutability":"view"},{"type":"function","name":"cooldownSecondsByTier","inputs":[{"name":"tier","type":"uint8","internalType":"uint8"}],"outputs":[{"name":"","type":"uint256","internalType":"uint256"}],"stateMutability":"view"},{"type":"function","name":"fullActivationDelayByMarket","inputs":[{"name":"marketId","type":"bytes32","internalType":"bytes32"}],"outputs":[{"name":"","type":"uint256","internalType":"uint256"}],"stateMutability":"view"},{"type":"function","name":"getGlobalParams","inputs":[],"outputs":[{"name":"maxCoverageRatioBps_","type":"uint256","internalType":"uint256"},{"name":"premiumTreasuryBps_","type":"uint256","internalType":"uint256"},{"name":"vaultUtilizationLimitBps_","type":"uint256","internalType":"uint256"},{"name":"liquidationPenaltyBps_","type":"uint256","internalType":"uint256"},{"name":"quoteSigner_","type":"address","internalType":"address"}],"stateMutability":"view"},{"type":"function","name":"getMarketConfig","inputs":[{"name":"marketId","type":"bytes32","internalType":"bytes32"}],"outputs":[{"name":"config","type":"tuple","internalType":"struct Types.MarketConfig","components":[{"name":"isActive","type":"bool","internalType":"bool"},{"name":"oracle","type":"address","internalType":"address"},{"name":"collateralToken","type":"address","internalType":"address"},{"name":"maxLeverageX18","type":"uint256","internalType":"uint256"},{"name":"maintenanceMarginBps","type":"uint256","internalType":"uint256"},{"name":"liquidationPenaltyBps","type":"uint256","internalType":"uint256"},{"name":"maxOpenInterestUsdX18","type":"uint256","internalType":"uint256"}]}],"stateMutability":"view"},{"type":"function","name":"liquidationPenaltyBps","inputs":[],"outputs":[{"name":"","type":"uint256","internalType":"uint256"}],"stateMutability":"view"},{"type":"function","name":"maxCoverageRatioBps","inputs":[],"outputs":[{"name":"","type":"uint256","internalType":"uint256"}],"stateMutability":"view"},{"type":"function","name":"maxCoverageRatioByTier","inputs":[{"name":"tier","type":"uint8","internalType":"uint8"}],"outputs":[{"name":"","type":"uint256","internalType":"uint256"}],"stateMutability":"view"},{"type":"function","name":"maxInsurableAmountByMarket","inputs":[{"name":"marketId","type":"bytes32","internalType":"bytes32"}],"outputs":[{"name":"","type":"uint256","internalType":"uint256"}],"stateMutability":"view"},{"type":"function","name":"minHoldingTimeByMarket","inputs":[{"name":"marketId","type":"bytes32","internalType":"bytes32"}],"outputs":[{"name":"","type":"uint256","internalType":"uint256"}],"stateMutability":"view"},{"type":"function","name":"owner","inputs":[],"outputs":[{"name":"","type":"address","internalType":"address"}],"stateMutability":"view"},{"type":"function","name":"pendingOwner","inputs":[],"outputs":[{"name":"","type":"address","internalType":"address"}],"stateMutability":"view"},{"type":"function","name":"premiumTreasuryBps","inputs":[],"outputs":[{"name":"","type":"uint256","internalType":"uint256"}],"stateMutability":"view"},{"type":"function","name":"quoteSigner","inputs":[],"outputs":[{"name":"","type":"address","internalType":"address"}],"stateMutability":"view"},{"type":"function","name":"renounceOwnership","inputs":[],"outputs":[],"stateMutability":"nonpayable"},{"type":"function","name":"setCoverageTier","inputs":[{"name":"tier","type":"uint8","internalType":"uint8"},{"name":"maxCoverageRatioBps_","type":"uint256","internalType":"uint256"}],"outputs":[],"stateMutability":"nonpayable"},{"type":"function","name":"setLiquidationPenaltyBps","inputs":[{"name":"newLiquidationPenaltyBps","type":"uint256","internalType":"uint256"}],"outputs":[],"stateMutability":"nonpayable"},{"type":"function","name":"setMarketConfig","inputs":[{"name":"marketId","type":"bytes32","internalType":"bytes32"},{"name":"config","type":"tuple","internalType":"struct Types.MarketConfig","components":[{"name":"isActive","type":"bool","internalType":"bool"},{"name":"oracle","type":"address","internalType":"address"},{"name":"collateralToken","type":"address","internalType":"address"},{"name":"maxLeverageX18","type":"uint256","internalType":"uint256"},{"name":"maintenanceMarginBps","type":"uint256","internalType":"uint256"},{"name":"liquidationPenaltyBps","type":"uint256","internalType":"uint256"},{"name":"maxOpenInterestUsdX18","type":"uint256","internalType":"uint256"}]}],"outputs":[],"stateMutability":"nonpayable"},{"type":"function","name":"setMarketInsuranceLimits","inputs":[{"name":"marketId","type":"bytes32","internalType":"bytes32"},{"name":"maxInsurableAmount","type":"uint256","internalType":"uint256"},{"name":"minHoldingTime","type":"uint256","internalType":"uint256"},{"name":"activationDelay","type":"uint256","internalType":"uint256"},{"name":"fullActivationDelay","type":"uint256","internalType":"uint256"}],"outputs":[],"stateMutability":"nonpayable"},{"type":"function","name":"setMaxCoverageRatioBps","inputs":[{"name":"newMaxCoverageRatioBps","type":"uint256","internalType":"uint256"}],"outputs":[],"stateMutability":"nonpayable"},{"type":"function","name":"setPremiumTreasuryBps","inputs":[{"name":"newPremiumTreasuryBps","type":"uint256","internalType":"uint256"}],"outputs":[],"stateMutability":"nonpayable"},{"type":"function","name":"setQuoteSigner","inputs":[{"name":"newQuoteSigner","type":"address","internalType":"address"}],"outputs":[],"stateMutability":"nonpayable"},{"type":"function","name":"setTierCooldown","inputs":[{"name":"tier","type":"uint8","internalType":"uint8"},{"name":"cooldownSeconds","type":"uint256","internalType":"uint256"}],"outputs":[],"stateMutability":"nonpayable"},{"type":"function","name":"setUtilizationThrottleBps","inputs":[{"name":"newUtilizationThrottleBps","type":"uint256","internalType":"uint256"}],"outputs":[],"stateMutability":"nonpayable"},{"type":"function","name":"setVaultUtilizationLimitBps","inputs":[{"name":"newVaultUtilizationLimitBps","type":"uint256","internalType":"uint256"}],"outputs":[],"stateMutability":"nonpayable"},{"type":"function","name":"transferOwnership","inputs":[{"name":"newOwner","type":"address","internalType":"address"}],"outputs":[],"stateMutability":"nonpayable"},{"type":"function","name":"utilizationThrottleBps","inputs":[],"outputs":[{"name":"","type":"uint256","internalType":"uint256"}],"stateMutability":"view"},{"type":"function","name":"vaultUtilizationLimitBps","inputs":[],"outputs":[{"name":"","type":"uint256","internalType":"uint256"}],"stateMutability":"view"},{"type":"event","name":"CoverageTierUpdated","inputs":[{"name":"tier","type":"uint8","indexed":true,"internalType":"uint8"},{"name":"maxCoverageRatioBps","type":"uint256","indexed":false,"internalType":"uint256"}],"anonymous":false},{"type":"event","name":"LiquidationPenaltyBpsUpdated","inputs":[{"name":"previousValue","type":"uint256","indexed":false,"internalType":"uint256"},{"name":"newValue","type":"uint256","indexed":false,"internalType":"uint256"}],"anonymous":false},{"type":"event","name":"MarketConfigUpdated","inputs":[{"name":"marketId","type":"bytes32","indexed":true,"internalType":"bytes32"},{"name":"oracle","type":"address","indexed":true,"internalType":"address"},{"name":"collateralToken","type":"address","indexed":true,"internalType":"address"},{"name":"maxLeverageX18","type":"uint256","indexed":false,"internalType":"uint256"},{"name":"maintenanceMarginBps","type":"uint256","indexed":false,"internalType":"uint256"},{"name":"liquidationPenaltyBps","type":"uint256","indexed":false,"internalType":"uint256"},{"name":"maxOpenInterestUsdX18","type":"uint256","indexed":false,"internalType":"uint256"},{"name":"isActive","type":"bool","indexed":false,"internalType":"bool"}],"anonymous":false},{"type":"event","name":"MarketInsuranceLimitsUpdated","inputs":[{"name":"marketId","type":"bytes32","indexed":true,"internalType":"bytes32"},{"name":"maxInsurableAmount","type":"uint256","indexed":false,"internalType":"uint256"},{"name":"minHoldingTime","type":"uint256","indexed":false,"internalType":"uint256"},{"name":"activationDelay","type":"uint256","indexed":false,"internalType":"uint256"},{"name":"fullActivationDelay","type":"uint256","indexed":false,"internalType":"uint256"}],"anonymous":false},{"type":"event","name":"MaxCoverageRatioUpdated","inputs":[{"name":"previousValue","type":"uint256","indexed":false,"internalType":"uint256"},{"name":"newValue","type":"uint256","indexed":false,"internalType":"uint256"}],"anonymous":false},{"type":"event","name":"OwnershipTransferStarted","inputs":[{"name":"previousOwner","type":"address","indexed":true,"internalType":"address"},{"name":"newOwner","type":"address","indexed":true,"internalType":"address"}],"anonymous":false},{"type":"event","name":"OwnershipTransferred","inputs":[{"name":"previousOwner","type":"address","indexed":true,"internalType":"address"},{"name":"newOwner","type":"address","indexed":true,"internalType":"address"}],"anonymous":false},{"type":"event","name":"PremiumTreasuryBpsUpdated","inputs":[{"name":"previousValue","type":"uint256","indexed":false,"internalType":"uint256"},{"name":"newValue","type":"uint256","indexed":false,"internalType":"uint256"}],"anonymous":false},{"type":"event","name":"QuoteSignerUpdated","inputs":[{"name":"previousSigner","type":"address","indexed":true,"internalType":"address"},{"name":"newSigner","type":"address","indexed":true,"internalType":"address"}],"anonymous":false},{"type":"event","name":"TierCooldownUpdated","inputs":[{"name":"tier","type":"uint8","indexed":true,"internalType":"uint8"},{"name":"cooldownSeconds","type":"uint256","indexed":false,"internalType":"uint256"}],"anonymous":false},{"type":"event","name":"UtilizationThrottleBpsUpdated","inputs":[{"name":"previousValue","type":"uint256","indexed":false,"internalType":"uint256"},{"name":"newValue","type":"uint256","indexed":false,"internalType":"uint256"}],"anonymous":false},{"type":"event","name":"VaultUtilizationLimitBpsUpdated","inputs":[{"name":"previousValue","type":"uint256","indexed":false,"internalType":"uint256"},{"name":"newValue","type":"uint256","indexed":false,"internalType":"uint256"}],"anonymous":false},{"type":"error","name":"InvalidBps","inputs":[]},{"type":"error","name":"InvalidCoverageRatio","inputs":[]},{"type":"error","name":"InvalidLeverage","inputs":[]},{"type":"error","name":"InvalidMarket","inputs":[]},{"type":"error","name":"InvalidSigner","inputs":[]},{"type":"error","name":"OwnableInvalidOwner","inputs":[{"name":"owner","type":"address","internalType":"address"}]},{"type":"error","name":"OwnableUnauthorizedAccount","inputs":[{"name":"account","type":"address","internalType":"address"}]},{"type":"error","name":"ZeroAmount","inputs":[]}],"bytecode":{"object":"0x608060405234801562000010575f80fd5b506040516200137e3803806200137e8339810160408190526200003391620003c8565b856001600160a01b0381166200006257604051631e4fbdf760e01b81525f600482015260240160405180910390fd5b6200006d81620000bc565b506200007985620000da565b620000848462000153565b6200008f83620001bd565b6200009a8262000220565b620000a5826200028d565b620000b081620002fa565b50505050505062000421565b600180546001600160a01b0319169055620000d7816200035d565b50565b6001600160a01b0381166200010257604051632057875960e21b815260040160405180910390fd5b600880546001600160a01b038381166001600160a01b0319831681179093556040519116919082907f0b6b513ed661cb195db5434de123da765c2d8ef310958c00646bb5a872cb1afa905f90a35050565b611388811115620001775760405163b5019d3160e01b815260040160405180910390fd5b600380549082905560408051828152602081018490527f48740be76cc420d0d477a4566a455fe4923fa42242ca2dd720920fb5afda57f491015b60405180910390a15050565b612710811115620001e15760405163c6cc5d7f60e01b815260040160405180910390fd5b600480549082905560408051828152602081018490527feb472dd41ba3818e278d5831d62be2be663dbe8347d4f66b8f439a58b4a3f1c59101620001b1565b8015806200022f575061271081115b156200024e5760405163c6cc5d7f60e01b815260040160405180910390fd5b600580549082905560408051828152602081018490527f7f1308ac357fab390cd5b5f12922a5e0eecdd32e8c86890f21b81e2baf7628a49101620001b1565b8015806200029c575061271081115b15620002bb5760405163c6cc5d7f60e01b815260040160405180910390fd5b600680549082905560408051828152602081018490527f67fbcc9d77033706bdcaafb17d21021c3277dd4e8fd065025dcb3bb89868f0219101620001b1565b6127108111156200031e5760405163c6cc5d7f60e01b815260040160405180910390fd5b600780549082905560408051828152602081018490527f35f7db724bf5ccc7ab4e5d75df8aa8c240ddde34853dc9349495ea2c5bbb0ab09101620001b1565b5f80546001600160a01b038381166001600160a01b0319831681178455604051919092169283917f8be0079c531659141344cd1fd0a4f28419497f9722a3daafe3b4186f6b6457e09190a35050565b80516001600160a01b0381168114620003c3575f80fd5b919050565b5f805f805f8060c08789031215620003de575f80fd5b620003e987620003ac565b9550620003f960208801620003ac565b945060408701519350606087015192506080870151915060a087015190509295509295509295565b610f4f806200042f5f395ff3fe608060405234801561000f575f80fd5b50600436106101c6575f3560e01c806372fcabd9116100fe578063c148789a1161009e578063ed8c43561161006e578063ed8c435614610445578063eef62d9614610458578063f2fde38b1461046b578063f413bdb31461047e575f80fd5b8063c148789a146103fa578063c6ded04c1461040d578063e30c39781461042c578063eae382cb1461043d575f80fd5b80638da5cb5b116100d95780638da5cb5b146103a857806394d37388146103cc578063a0f86ba6146103df578063b126d15f146103e7575f80fd5b806372fcabd914610385578063799df0691461039857806379ba5097146103a0575f80fd5b80634749a5351161016957806356ce180a1161014457806356ce180a146102b65780636a6ae218146102c95780636b3222e61461033d578063715018a61461037d575f80fd5b80634749a5351461026257806348701869146102815780634e5b7825146102a3575f80fd5b80633a13a7fb116101a45780633a13a7fb1461021f5780633b4dbbca146102345780633fea6e2714610247578063433c10091461025a575f80fd5b806312e08b44146101ca578063166f0052146101e1578063230273a114610200575b5f80fd5b6005545b6040519081526020015b60405180910390f35b6101ce6101ef366004610d2c565b5f908152600a602052604090205490565b6101ce61020e366004610d2c565b5f908152600c602052604090205490565b61023261022d366004610d43565b61048f565b005b6101ce610242366004610d8f565b610561565b610232610255366004610da8565b61058a565b6006546101ce565b6101ce610270366004610d2c565b5f908152600b602052604090205490565b6101ce61028f366004610d8f565b60ff165f908152600e602052604090205490565b6102326102b1366004610d2c565b6105e4565b6102326102c4366004610de4565b6105f8565b6102dc6102d7366004610d2c565b610609565b604080518251151581526020808401516001600160a01b0390811691830191909152838301511691810191909152606080830151908201526080808301519082015260a0808301519082015260c0918201519181019190915260e0016101d8565b6003546004546005546007546008546040805195865260208601949094529284019190915260608301526001600160a01b0316608082015260a0016101d8565b6102326106cb565b610232610393366004610d2c565b6106de565b6004546101ce565b6102326106ef565b5f546001600160a01b03165b6040516001600160a01b0390911681526020016101d8565b6102326103da366004610d2c565b610735565b6007546101ce565b6102326103f5366004610d2c565b610746565b610232610408366004610d2c565b610757565b6101ce61041b366004610d2c565b5f908152600d602052604090205490565b6001546001600160a01b03166103b4565b6003546101ce565b610232610453366004610da8565b610768565b610232610466366004610dff565b6107d9565b610232610479366004610de4565b6109b1565b6008546001600160a01b03166103b4565b610497610a21565b8415806104a2575083155b156104c057604051639db8d5b160e01b815260040160405180910390fd5b818110156104e15760405163c6cc5d7f60e01b815260040160405180910390fd5b5f858152600a60209081526040808320879055600b8252808320869055600c8252808320859055600d82529182902083905581518681529081018590529081018390526060810182905285907f89f4755c8983218343522225bf2ca6940812764ca505e87ff963895910ccc51e9060800160405180910390a25050505050565b60ff81165f90815260096020526040812054801561057f5780610583565b6003545b9392505050565b610592610a21565b60ff82165f818152600e602052604090819020839055517f617161916e5cc4145a845c639cc2f05cca7d4d4098920653bd01ced3ed7996e0906105d89084815260200190565b60405180910390a25050565b6105ec610a21565b6105f581610a4d565b50565b610600610a21565b6105f581610abf565b6106566040518060e001604052805f151581526020015f6001600160a01b031681526020015f6001600160a01b031681526020015f81526020015f81526020015f81526020015f81525090565b505f90815260026020818152604092839020835160e081018552815460ff8116151582526001600160a01b0361010090910481169382019390935260018201549092169382019390935290820154606082015260038201546080820152600482015460a082015260059091015460c082015290565b6106d3610a21565b6106dc5f610b37565b565b6106e6610a21565b6105f581610b50565b60015433906001600160a01b0316811461072c5760405163118cdaa760e01b81526001600160a01b03821660048201526024015b60405180910390fd5b6105f581610b37565b61073d610a21565b6105f581610bb1565b61074e610a21565b6105f581610c12565b61075f610a21565b6105f581610c73565b610770610a21565b6113888111156107935760405163b5019d3160e01b815260040160405180910390fd5b60ff82165f8181526009602052604090819020839055517f0f2af5b44d21842a59626f2be07f07217cd5706cebaaff61061644a5b04a3d13906105d89084815260200190565b6107e1610a21565b816107ff57604051639db8d5b160e01b815260040160405180910390fd5b5f6108106040830160208401610de4565b6001600160a01b0316148061083c57505f6108316060830160408401610de4565b6001600160a01b0316145b1561085a57604051639db8d5b160e01b815260040160405180910390fd5b80606001355f0361087e57604051633fe89cb960e11b815260040160405180910390fd5b6127108160800135106108a45760405163c6cc5d7f60e01b815260040160405180910390fd5b6127108160a0013511156108cb5760405163c6cc5d7f60e01b815260040160405180910390fd5b8060c001355f036108ef57604051631f2a200560e01b815260040160405180910390fd5b5f82815260026020526040902081906109088282610e54565b5061091b90506060820160408301610de4565b6001600160a01b03166109346040830160208401610de4565b6001600160a01b0316837ff68cc5ac9884fc67a1ed333d650a84ccebe48fe0b094b65b977227d0aebcace46060850135608086013560a087013560c088013561098060208a018a610efe565b6040805195865260208601949094529284019190915260608301521515608082015260a00160405180910390a45050565b6109b9610a21565b600180546001600160a01b0383166001600160a01b031990911681179091556109e95f546001600160a01b031690565b6001600160a01b03167f38d16b8cac22d99fc7c124b9cd0de2d3fa1faef420bfe791d8c362d765e2270060405160405180910390a350565b5f546001600160a01b031633146106dc5760405163118cdaa760e01b8152336004820152602401610723565b801580610a5b575061271081115b15610a795760405163c6cc5d7f60e01b815260040160405180910390fd5b600580549082905560408051828152602081018490527f7f1308ac357fab390cd5b5f12922a5e0eecdd32e8c86890f21b81e2baf7628a491015b60405180910390a15050565b6001600160a01b038116610ae657604051632057875960e21b815260040160405180910390fd5b600880546001600160a01b038381166001600160a01b0319831681179093556040519116919082907f0b6b513ed661cb195db5434de123da765c2d8ef310958c00646bb5a872cb1afa905f90a35050565b600180546001600160a01b03191690556105f581610cdd565b612710811115610b735760405163c6cc5d7f60e01b815260040160405180910390fd5b600480549082905560408051828152602081018490527feb472dd41ba3818e278d5831d62be2be663dbe8347d4f66b8f439a58b4a3f1c59101610ab3565b611388811115610bd45760405163b5019d3160e01b815260040160405180910390fd5b600380549082905560408051828152602081018490527f48740be76cc420d0d477a4566a455fe4923fa42242ca2dd720920fb5afda57f49101610ab3565b612710811115610c355760405163c6cc5d7f60e01b815260040160405180910390fd5b600780549082905560408051828152602081018490527f35f7db724bf5ccc7ab4e5d75df8aa8c240ddde34853dc9349495ea2c5bbb0ab09101610ab3565b801580610c81575061271081115b15610c9f5760405163c6cc5d7f60e01b815260040160405180910390fd5b600680549082905560408051828152602081018490527f67fbcc9d77033706bdcaafb17d21021c3277dd4e8fd065025dcb3bb89868f0219101610ab3565b5f80546001600160a01b038381166001600160a01b0319831681178455604051919092169283917f8be0079c531659141344cd1fd0a4f28419497f9722a3daafe3b4186f6b6457e09190a35050565b5f60208284031215610d3c575f80fd5b5035919050565b5f805f805f60a08688031215610d57575f80fd5b505083359560208501359550604085013594606081013594506080013592509050565b803560ff81168114610d8a575f80fd5b919050565b5f60208284031215610d9f575f80fd5b61058382610d7a565b5f8060408385031215610db9575f80fd5b610dc283610d7a565b946020939093013593505050565b6001600160a01b03811681146105f5575f80fd5b5f60208284031215610df4575f80fd5b813561058381610dd0565b5f80828403610100811215610e12575f80fd5b8335925060e0601f1982011215610e27575f80fd5b506020830190509250929050565b80151581146105f5575f80fd5b5f8135610e4e81610dd0565b92915050565b8135610e5f81610e35565b815490151560ff1660ff19919091161781556020820135610e7f81610dd0565b8154610100600160a81b031916600882901b610100600160a81b031617825550610ed2610eae60408401610e42565b6001830180546001600160a01b0319166001600160a01b0392909216919091179055565b606082013560028201556080820135600382015560a0820135600482015560c082013560058201555050565b5f60208284031215610f0e575f80fd5b813561058381610e3556fea26469706673582212206d202fdcfa46d65acaa06adb895bc957f3e269907a493bbcb56e90c79ec24ddf64736f6c63430008180033","linkReferences":{}},"methodIdentifiers":{"acceptOwnership()":"79ba5097","activationDelayByMarket(bytes32)":"230273a1","cooldownSecondsByTier(uint8)":"48701869","fullActivationDelayByMarket(bytes32)":"c6ded04c","getGlobalParams()":"6b3222e6","getMarketConfig(bytes32)":"6a6ae218","liquidationPenaltyBps()":"a0f86ba6","maxCoverageRatioBps()":"eae382cb","maxCoverageRatioByTier(uint8)":"3b4dbbca","maxInsurableAmountByMarket(bytes32)":"166f0052","minHoldingTimeByMarket(bytes32)":"4749a535","owner()":"8da5cb5b","pendingOwner()":"e30c3978","premiumTreasuryBps()":"799df069","quoteSigner()":"f413bdb3","renounceOwnership()":"715018a6","setCoverageTier(uint8,uint256)":"ed8c4356","setLiquidationPenaltyBps(uint256)":"b126d15f","setMarketConfig(bytes32,(bool,address,address,uint256,uint256,uint256,uint256))":"eef62d96","setMarketInsuranceLimits(bytes32,uint256,uint256,uint256,uint256)":"3a13a7fb","setMaxCoverageRatioBps(uint256)":"94d37388","setPremiumTreasuryBps(uint256)":"72fcabd9","setQuoteSigner(address)":"56ce180a","setTierCooldown(uint8,uint256)":"3fea6e27","setUtilizationThrottleBps(uint256)":"c148789a","setVaultUtilizationLimitBps(uint256)":"4e5b7825","transferOwnership(address)":"f2fde38b","utilizationThrottleBps()":"433c1009","vaultUtilizationLimitBps()":"12e08b44"},"id":6}