{"abi":[{"type":"constructor","inputs":[{"name":"initialOwner","type":"address","internalType":"address"},{"name":"initialQuoteSigner","type":"address","internalType":"address"},{"name":"initialMaxCoverageRatioBps","type":"uint256","internalType":"uint256"},{"name":"initialPremiumTreasuryBps","type":"uint256","internalType":"uint256"},{"name":"initialVaultUtilizationLimitBps","type":"uint256","internalType":"uint256"},{"name":"initialLiquidationPenaltyBps","type":"uint256","internalType":"uint256"}],"stateMutability":"nonpayable"},{"type":"function","name":"acceptOwnership","inputs":[],"outputs":[],"stateMutability":"nonpayable"},{"type":"function","name":"getGlobalParams","inputs":[],"outputs":[{"name":"maxCoverageRatioBps_","type":"uint256","internalType":"uint256"},{"name":"premiumTreasuryBps_","type":"uint256","internalType":"uint256"},{"name":"vaultUtilizationLimitBps_","type":"uint256","internalType":"uint256"},{"name":"liquidationPenaltyBps_","type":"uint256","internalType":"uint256"},{"name":"quoteSigner_","type":"address","internalType":"address"}],"stateMutability":"view"},{"type":"function","name":"getMarketConfig","inputs":[{"name":"marketId","type":"bytes32","internalType":"bytes32"}],"outputs":[{"name":"config","type":"tuple","internalType":"struct Types.MarketConfig","components":[{"name":"isActive","type":"bool","internalType":"bool"},{"name":"oracle","type":"address","internalType":"address"},{"name":"collateralToken","type":"address","internalType":"address"},{"name":"maxLeverageX18","type":"uint256","internalType":"uint256"},{"name":"maintenanceMarginBps","type":"uint256","internalType":"uint256"},{"name":"liquidationPenaltyBps","type":"uint256","internalType":"uint256"},{"name":"maxOpenInterestUsdX18","type":"uint256","internalType":"uint256"}]}],"stateMutability":"view"},{"type":"function","name":"liquidationPenaltyBps","inputs":[],"outputs":[{"name":"","type":"uint256","internalType":"uint256"}],"stateMutability":"view"},{"type":"function","name":"maxCoverageRatioBps","inputs":[],"outputs":[{"name":"","type":"uint256","internalType":"uint256"}],"stateMutability":"view"},{"type":"function","name":"owner","inputs":[],"outputs":[{"name":"","type":"address","internalType":"address"}],"stateMutability":"view"},{"type":"function","name":"pendingOwner","inputs":[],"outputs":[{"name":"","type":"address","internalType":"address"}],"stateMutability":"view"},{"type":"function","name":"premiumTreasuryBps","inputs":[],"outputs":[{"name":"","type":"uint256","internalType":"uint256"}],"stateMutability":"view"},{"type":"function","name":"quoteSigner","inputs":[],"outputs":[{"name":"","type":"address","internalType":"address"}],"stateMutability":"view"},{"type":"function","name":"renounceOwnership","inputs":[],"outputs":[],"stateMutability":"nonpayable"},{"type":"function","name":"setLiquidationPenaltyBps","inputs":[{"name":"newLiquidationPenaltyBps","type":"uint256","internalType":"uint256"}],"outputs":[],"stateMutability":"nonpayable"},{"type":"function","name":"setMarketConfig","inputs":[{"name":"marketId","type":"bytes32","internalType":"bytes32"},{"name":"config","type":"tuple","internalType":"struct Types.MarketConfig","components":[{"name":"isActive","type":"bool","internalType":"bool"},{"name":"oracle","type":"address","internalType":"address"},{"name":"collateralToken","type":"address","internalType":"address"},{"name":"maxLeverageX18","type":"uint256","internalType":"uint256"},{"name":"maintenanceMarginBps","type":"uint256","internalType":"uint256"},{"name":"liquidationPenaltyBps","type":"uint256","internalType":"uint256"},{"name":"maxOpenInterestUsdX18","type":"uint256","internalType":"uint256"}]}],"outputs":[],"stateMutability":"nonpayable"},{"type":"function","name":"setMaxCoverageRatioBps","inputs":[{"name":"newMaxCoverageRatioBps","type":"uint256","internalType":"uint256"}],"outputs":[],"stateMutability":"nonpayable"},{"type":"function","name":"setPremiumTreasuryBps","inputs":[{"name":"newPremiumTreasuryBps","type":"uint256","internalType":"uint256"}],"outputs":[],"stateMutability":"nonpayable"},{"type":"function","name":"setQuoteSigner","inputs":[{"name":"newQuoteSigner","type":"address","internalType":"address"}],"outputs":[],"stateMutability":"nonpayable"},{"type":"function","name":"setVaultUtilizationLimitBps","inputs":[{"name":"newVaultUtilizationLimitBps","type":"uint256","internalType":"uint256"}],"outputs":[],"stateMutability":"nonpayable"},{"type":"function","name":"transferOwnership","inputs":[{"name":"newOwner","type":"address","internalType":"address"}],"outputs":[],"stateMutability":"nonpayable"},{"type":"function","name":"vaultUtilizationLimitBps","inputs":[],"outputs":[{"name":"","type":"uint256","internalType":"uint256"}],"stateMutability":"view"},{"type":"event","name":"LiquidationPenaltyBpsUpdated","inputs":[{"name":"previousValue","type":"uint256","indexed":false,"internalType":"uint256"},{"name":"newValue","type":"uint256","indexed":false,"internalType":"uint256"}],"anonymous":false},{"type":"event","name":"MarketConfigUpdated","inputs":[{"name":"marketId","type":"bytes32","indexed":true,"internalType":"bytes32"},{"name":"oracle","type":"address","indexed":true,"internalType":"address"},{"name":"collateralToken","type":"address","indexed":true,"internalType":"address"},{"name":"maxLeverageX18","type":"uint256","indexed":false,"internalType":"uint256"},{"name":"maintenanceMarginBps","type":"uint256","indexed":false,"internalType":"uint256"},{"name":"liquidationPenaltyBps","type":"uint256","indexed":false,"internalType":"uint256"},{"name":"maxOpenInterestUsdX18","type":"uint256","indexed":false,"internalType":"uint256"},{"name":"isActive","type":"bool","indexed":false,"internalType":"bool"}],"anonymous":false},{"type":"event","name":"MaxCoverageRatioUpdated","inputs":[{"name":"previousValue","type":"uint256","indexed":false,"internalType":"uint256"},{"name":"newValue","type":"uint256","indexed":false,"internalType":"uint256"}],"anonymous":false},{"type":"event","name":"OwnershipTransferStarted","inputs":[{"name":"previousOwner","type":"address","indexed":true,"internalType":"address"},{"name":"newOwner","type":"address","indexed":true,"internalType":"address"}],"anonymous":false},{"type":"event","name":"OwnershipTransferred","inputs":[{"name":"previousOwner","type":"address","indexed":true,"internalType":"address"},{"name":"newOwner","type":"address","indexed":true,"internalType":"address"}],"anonymous":false},{"type":"event","name":"PremiumTreasuryBpsUpdated","inputs":[{"name":"previousValue","type":"uint256","indexed":false,"internalType":"uint256"},{"name":"newValue","type":"uint256","indexed":false,"internalType":"uint256"}],"anonymous":false},{"type":"event","name":"QuoteSignerUpdated","inputs":[{"name":"previousSigner","type":"address","indexed":true,"internalType":"address"},{"name":"newSigner","type":"address","indexed":true,"internalType":"address"}],"anonymous":false},{"type":"event","name":"VaultUtilizationLimitBpsUpdated","inputs":[{"name":"previousValue","type":"uint256","indexed":false,"internalType":"uint256"},{"name":"newValue","type":"uint256","indexed":false,"internalType":"uint256"}],"anonymous":false},{"type":"error","name":"InvalidBps","inputs":[]},{"type":"error","name":"InvalidCoverageRatio","inputs":[]},{"type":"error","name":"InvalidLeverage","inputs":[]},{"type":"error","name":"InvalidMarket","inputs":[]},{"type":"error","name":"InvalidSigner","inputs":[]},{"type":"error","name":"OwnableInvalidOwner","inputs":[{"name":"owner","type":"address","internalType":"address"}]},{"type":"error","name":"OwnableUnauthorizedAccount","inputs":[{"name":"account","type":"address","internalType":"address"}]},{"type":"error","name":"ZeroAmount","inputs":[]}],"bytecode":{"object":"0x608060405234801562000010575f80fd5b5060405162000e8538038062000e85833981016040819052620000339162000350565b856001600160a01b0381166200006257604051631e4fbdf760e01b81525f600482015260240160405180910390fd5b6200006d81620000b1565b506200007985620000cf565b620000848462000148565b6200008f83620001b2565b6200009a8262000215565b620000a58162000282565b505050505050620003a9565b600180546001600160a01b0319169055620000cc81620002e5565b50565b6001600160a01b038116620000f757604051632057875960e21b815260040160405180910390fd5b600780546001600160a01b038381166001600160a01b0319831681179093556040519116919082907f0b6b513ed661cb195db5434de123da765c2d8ef310958c00646bb5a872cb1afa905f90a35050565b6113888111156200016c5760405163b5019d3160e01b815260040160405180910390fd5b600380549082905560408051828152602081018490527f48740be76cc420d0d477a4566a455fe4923fa42242ca2dd720920fb5afda57f491015b60405180910390a15050565b612710811115620001d65760405163c6cc5d7f60e01b815260040160405180910390fd5b600480549082905560408051828152602081018490527feb472dd41ba3818e278d5831d62be2be663dbe8347d4f66b8f439a58b4a3f1c59101620001a6565b80158062000224575061271081115b15620002435760405163c6cc5d7f60e01b815260040160405180910390fd5b600580549082905560408051828152602081018490527f7f1308ac357fab390cd5b5f12922a5e0eecdd32e8c86890f21b81e2baf7628a49101620001a6565b612710811115620002a65760405163c6cc5d7f60e01b815260040160405180910390fd5b600680549082905560408051828152602081018490527f35f7db724bf5ccc7ab4e5d75df8aa8c240ddde34853dc9349495ea2c5bbb0ab09101620001a6565b5f80546001600160a01b038381166001600160a01b0319831681178455604051919092169283917f8be0079c531659141344cd1fd0a4f28419497f9722a3daafe3b4186f6b6457e09190a35050565b80516001600160a01b03811681146200034b575f80fd5b919050565b5f805f805f8060c0878903121562000366575f80fd5b620003718762000334565b9550620003816020880162000334565b945060408701519350606087015192506080870151915060a087015190509295509295509295565b610ace80620003b75f395ff3fe608060405234801561000f575f80fd5b5060043610610111575f3560e01c80638da5cb5b1161009e578063e30c39781161006e578063e30c397814610285578063eae382cb14610296578063eef62d961461029e578063f2fde38b146102b1578063f413bdb3146102c4575f80fd5b80638da5cb5b1461023357806394d3738814610257578063a0f86ba61461026a578063b126d15f14610272575f80fd5b80636b3222e6116100e45780636b3222e6146101c8578063715018a61461020857806372fcabd914610210578063799df0691461022357806379ba50971461022b575f80fd5b806312e08b44146101155780634e5b78251461012c57806356ce180a146101415780636a6ae21814610154575b5f80fd5b6005545b6040519081526020015b60405180910390f35b61013f61013a366004610931565b6102d5565b005b61013f61014f36600461095c565b6102e9565b610167610162366004610931565b6102fa565b604080518251151581526020808401516001600160a01b0390811691830191909152838301511691810191909152606080830151908201526080808301519082015260a0808301519082015260c0918201519181019190915260e001610123565b6003546004546005546006546007546040805195865260208601949094529284019190915260608301526001600160a01b0316608082015260a001610123565b61013f6103bc565b61013f61021e366004610931565b6103cf565b600454610119565b61013f6103e0565b5f546001600160a01b03165b6040516001600160a01b039091168152602001610123565b61013f610265366004610931565b610426565b600654610119565b61013f610280366004610931565b610437565b6001546001600160a01b031661023f565b600354610119565b61013f6102ac36600461097e565b610448565b61013f6102bf36600461095c565b610620565b6007546001600160a01b031661023f565b6102dd610690565b6102e6816106bc565b50565b6102f1610690565b6102e68161072e565b6103476040518060e001604052805f151581526020015f6001600160a01b031681526020015f6001600160a01b031681526020015f81526020015f81526020015f81526020015f81525090565b505f90815260026020818152604092839020835160e081018552815460ff8116151582526001600160a01b0361010090910481169382019390935260018201549092169382019390935290820154606082015260038201546080820152600482015460a082015260059091015460c082015290565b6103c4610690565b6103cd5f6107a6565b565b6103d7610690565b6102e6816107bf565b60015433906001600160a01b0316811461041d5760405163118cdaa760e01b81526001600160a01b03821660048201526024015b60405180910390fd5b6102e6816107a6565b61042e610690565b6102e681610820565b61043f610690565b6102e681610881565b610450610690565b8161046e57604051639db8d5b160e01b815260040160405180910390fd5b5f61047f604083016020840161095c565b6001600160a01b031614806104ab57505f6104a0606083016040840161095c565b6001600160a01b0316145b156104c957604051639db8d5b160e01b815260040160405180910390fd5b80606001355f036104ed57604051633fe89cb960e11b815260040160405180910390fd5b6127108160800135106105135760405163c6cc5d7f60e01b815260040160405180910390fd5b6127108160a00135111561053a5760405163c6cc5d7f60e01b815260040160405180910390fd5b8060c001355f0361055e57604051631f2a200560e01b815260040160405180910390fd5b5f828152600260205260409020819061057782826109d3565b5061058a9050606082016040830161095c565b6001600160a01b03166105a3604083016020840161095c565b6001600160a01b0316837ff68cc5ac9884fc67a1ed333d650a84ccebe48fe0b094b65b977227d0aebcace46060850135608086013560a087013560c08801356105ef60208a018a610a7d565b6040805195865260208601949094529284019190915260608301521515608082015260a00160405180910390a45050565b610628610690565b600180546001600160a01b0383166001600160a01b031990911681179091556106585f546001600160a01b031690565b6001600160a01b03167f38d16b8cac22d99fc7c124b9cd0de2d3fa1faef420bfe791d8c362d765e2270060405160405180910390a350565b5f546001600160a01b031633146103cd5760405163118cdaa760e01b8152336004820152602401610414565b8015806106ca575061271081115b156106e85760405163c6cc5d7f60e01b815260040160405180910390fd5b600580549082905560408051828152602081018490527f7f1308ac357fab390cd5b5f12922a5e0eecdd32e8c86890f21b81e2baf7628a491015b60405180910390a15050565b6001600160a01b03811661075557604051632057875960e21b815260040160405180910390fd5b600780546001600160a01b038381166001600160a01b0319831681179093556040519116919082907f0b6b513ed661cb195db5434de123da765c2d8ef310958c00646bb5a872cb1afa905f90a35050565b600180546001600160a01b03191690556102e6816108e2565b6127108111156107e25760405163c6cc5d7f60e01b815260040160405180910390fd5b600480549082905560408051828152602081018490527feb472dd41ba3818e278d5831d62be2be663dbe8347d4f66b8f439a58b4a3f1c59101610722565b6113888111156108435760405163b5019d3160e01b815260040160405180910390fd5b600380549082905560408051828152602081018490527f48740be76cc420d0d477a4566a455fe4923fa42242ca2dd720920fb5afda57f49101610722565b6127108111156108a45760405163c6cc5d7f60e01b815260040160405180910390fd5b600680549082905560408051828152602081018490527f35f7db724bf5ccc7ab4e5d75df8aa8c240ddde34853dc9349495ea2c5bbb0ab09101610722565b5f80546001600160a01b038381166001600160a01b0319831681178455604051919092169283917f8be0079c531659141344cd1fd0a4f28419497f9722a3daafe3b4186f6b6457e09190a35050565b5f60208284031215610941575f80fd5b5035919050565b6001600160a01b03811681146102e6575f80fd5b5f6020828403121561096c575f80fd5b813561097781610948565b9392505050565b5f80828403610100811215610991575f80fd5b8335925060e0601f19820112156109a6575f80fd5b506020830190509250929050565b80151581146102e6575f80fd5b5f81356109cd81610948565b92915050565b81356109de816109b4565b815490151560ff1660ff199190911617815560208201356109fe81610948565b8154610100600160a81b031916600882901b610100600160a81b031617825550610a51610a2d604084016109c1565b6001830180546001600160a01b0319166001600160a01b0392909216919091179055565b606082013560028201556080820135600382015560a0820135600482015560c082013560058201555050565b5f60208284031215610a8d575f80fd5b8135610977816109b456fea2646970667358221220a0752afb1f33d772367e13d793d1740d1a1918ca2db14af57607655c0999495c64736f6c63430008180033","linkReferences":{}},"methodIdentifiers":{"acceptOwnership()":"79ba5097","getGlobalParams()":"6b3222e6","getMarketConfig(bytes32)":"6a6ae218","liquidationPenaltyBps()":"a0f86ba6","maxCoverageRatioBps()":"eae382cb","owner()":"8da5cb5b","pendingOwner()":"e30c3978","premiumTreasuryBps()":"799df069","quoteSigner()":"f413bdb3","renounceOwnership()":"715018a6","setLiquidationPenaltyBps(uint256)":"b126d15f","setMarketConfig(bytes32,(bool,address,address,uint256,uint256,uint256,uint256))":"eef62d96","setMaxCoverageRatioBps(uint256)":"94d37388","setPremiumTreasuryBps(uint256)":"72fcabd9","setQuoteSigner(address)":"56ce180a","setVaultUtilizationLimitBps(uint256)":"4e5b7825","transferOwnership(address)":"f2fde38b","vaultUtilizationLimitBps()":"12e08b44"},"id":6}