{"abi":[{"type":"constructor","inputs":[{"name":"initialOwner","type":"address","internalType":"address"},{"name":"baseTokenURI_","type":"string","internalType":"string"},{"name":"uriSuffix_","type":"string","internalType":"string"}],"stateMutability":"nonpayable"},{"type":"function","name":"BASTION_SUPPLY","inputs":[],"outputs":[{"name":"","type":"uint256","internalType":"uint256"}],"stateMutability":"view"},{"type":"function","name":"GUARDIAN_SUPPLY","inputs":[],"outputs":[{"name":"","type":"uint256","internalType":"uint256"}],"stateMutability":"view"},{"type":"function","name":"MAX_SUPPLY","inputs":[],"outputs":[{"name":"","type":"uint256","internalType":"uint256"}],"stateMutability":"view"},{"type":"function","name":"ORACLE_SUPPLY","inputs":[],"outputs":[{"name":"","type":"uint256","internalType":"uint256"}],"stateMutability":"view"},{"type":"function","name":"SENTINEL_SUPPLY","inputs":[],"outputs":[{"name":"","type":"uint256","internalType":"uint256"}],"stateMutability":"view"},{"type":"function","name":"acceptOwnership","inputs":[],"outputs":[],"stateMutability":"nonpayable"},{"type":"function","name":"activeBenefitToken","inputs":[{"name":"user","type":"address","internalType":"address"}],"outputs":[{"name":"tokenId","type":"uint256","internalType":"uint256"}],"stateMutability":"view"},{"type":"function","name":"adminMint","inputs":[{"name":"to","type":"address","internalType":"address"},{"name":"tokenId","type":"uint256","internalType":"uint256"}],"outputs":[],"stateMutability":"nonpayable"},{"type":"function","name":"approve","inputs":[{"name":"to","type":"address","internalType":"address"},{"name":"tokenId","type":"uint256","internalType":"uint256"}],"outputs":[],"stateMutability":"nonpayable"},{"type":"function","name":"assignRecipients","inputs":[{"name":"recipients","type":"address[]","internalType":"address[]"},{"name":"tokenIds","type":"uint256[]","internalType":"uint256[]"}],"outputs":[],"stateMutability":"nonpayable"},{"type":"function","name":"assignedRecipient","inputs":[{"name":"tokenId","type":"uint256","internalType":"uint256"}],"outputs":[{"name":"","type":"address","internalType":"address"}],"stateMutability":"view"},{"type":"function","name":"balanceOf","inputs":[{"name":"owner_","type":"address","internalType":"address"}],"outputs":[{"name":"","type":"uint256","internalType":"uint256"}],"stateMutability":"view"},{"type":"function","name":"benefitDetailsOf","inputs":[{"name":"user","type":"address","internalType":"address"}],"outputs":[{"name":"tradingFeeDiscountBps","type":"uint16","internalType":"uint16"},{"name":"tokenAirdropBonusBps","type":"uint16","internalType":"uint16"},{"name":"insurancePremiumDiscountBps","type":"uint16","internalType":"uint16"},{"name":"liquidationProtectionBoostBps","type":"uint16","internalType":"uint16"},{"name":"tradingCompetitionBoostBps","type":"uint16","internalType":"uint16"},{"name":"lpYieldBoostBps","type":"uint16","internalType":"uint16"},{"name":"lpExitCooldownReductionBps","type":"uint16","internalType":"uint16"},{"name":"partnerWhitelistEligible","type":"bool","internalType":"bool"},{"name":"priorityAccessEligible","type":"bool","internalType":"bool"}],"stateMutability":"view"},{"type":"function","name":"benefitOf","inputs":[{"name":"user","type":"address","internalType":"address"}],"outputs":[{"name":"","type":"tuple","internalType":"struct ZTRXNFT.BenefitConfig","components":[{"name":"tradingFeeDiscountBps","type":"uint16","internalType":"uint16"},{"name":"tokenAirdropBonusBps","type":"uint16","internalType":"uint16"},{"name":"insurancePremiumDiscountBps","type":"uint16","internalType":"uint16"},{"name":"liquidationProtectionBoostBps","type":"uint16","internalType":"uint16"},{"name":"tradingCompetitionBoostBps","type":"uint16","internalType":"uint16"},{"name":"lpYieldBoostBps","type":"uint16","internalType":"uint16"},{"name":"lpExitCooldownReductionBps","type":"uint16","internalType":"uint16"},{"name":"partnerWhitelistEligible","type":"bool","internalType":"bool"},{"name":"priorityAccessEligible","type":"bool","internalType":"bool"}]}],"stateMutability":"view"},{"type":"function","name":"claim","inputs":[{"name":"tokenId","type":"uint256","internalType":"uint256"}],"outputs":[],"stateMutability":"nonpayable"},{"type":"function","name":"claimBatch","inputs":[{"name":"tokenIds","type":"uint256[]","internalType":"uint256[]"}],"outputs":[],"stateMutability":"nonpayable"},{"type":"function","name":"clearActiveBenefitToken","inputs":[],"outputs":[],"stateMutability":"nonpayable"},{"type":"function","name":"clearAssignment","inputs":[{"name":"tokenId","type":"uint256","internalType":"uint256"}],"outputs":[],"stateMutability":"nonpayable"},{"type":"function","name":"getApproved","inputs":[{"name":"tokenId","type":"uint256","internalType":"uint256"}],"outputs":[{"name":"","type":"address","internalType":"address"}],"stateMutability":"view"},{"type":"function","name":"hasPriorityAccess","inputs":[{"name":"user","type":"address","internalType":"address"}],"outputs":[{"name":"","type":"bool","internalType":"bool"}],"stateMutability":"view"},{"type":"function","name":"insuranceBenefitAdjustmentsOf","inputs":[{"name":"user","type":"address","internalType":"address"}],"outputs":[{"name":"premiumDiscountBps","type":"uint16","internalType":"uint16"},{"name":"liquidationProtectionBoostBps","type":"uint16","internalType":"uint16"}],"stateMutability":"view"},{"type":"function","name":"isApprovedForAll","inputs":[{"name":"owner_","type":"address","internalType":"address"},{"name":"operator","type":"address","internalType":"address"}],"outputs":[{"name":"","type":"bool","internalType":"bool"}],"stateMutability":"view"},{"type":"function","name":"isPartnerWhitelistEligible","inputs":[{"name":"user","type":"address","internalType":"address"}],"outputs":[{"name":"","type":"bool","internalType":"bool"}],"stateMutability":"view"},{"type":"function","name":"liquidityBenefitAdjustmentsOf","inputs":[{"name":"user","type":"address","internalType":"address"}],"outputs":[{"name":"lpYieldBoostBps","type":"uint16","internalType":"uint16"},{"name":"lpExitCooldownReductionBps","type":"uint16","internalType":"uint16"}],"stateMutability":"view"},{"type":"function","name":"name","inputs":[],"outputs":[{"name":"","type":"string","internalType":"string"}],"stateMutability":"view"},{"type":"function","name":"owner","inputs":[],"outputs":[{"name":"","type":"address","internalType":"address"}],"stateMutability":"view"},{"type":"function","name":"ownerOf","inputs":[{"name":"tokenId","type":"uint256","internalType":"uint256"}],"outputs":[{"name":"","type":"address","internalType":"address"}],"stateMutability":"view"},{"type":"function","name":"pendingOwner","inputs":[],"outputs":[{"name":"","type":"address","internalType":"address"}],"stateMutability":"view"},{"type":"function","name":"reassignRecipient","inputs":[{"name":"tokenId","type":"uint256","internalType":"uint256"},{"name":"newRecipient","type":"address","internalType":"address"}],"outputs":[],"stateMutability":"nonpayable"},{"type":"function","name":"renounceOwnership","inputs":[],"outputs":[],"stateMutability":"nonpayable"},{"type":"function","name":"safeTransferFrom","inputs":[{"name":"from","type":"address","internalType":"address"},{"name":"to","type":"address","internalType":"address"},{"name":"tokenId","type":"uint256","internalType":"uint256"}],"outputs":[],"stateMutability":"nonpayable"},{"type":"function","name":"safeTransferFrom","inputs":[{"name":"from","type":"address","internalType":"address"},{"name":"to","type":"address","internalType":"address"},{"name":"tokenId","type":"uint256","internalType":"uint256"},{"name":"data","type":"bytes","internalType":"bytes"}],"outputs":[],"stateMutability":"nonpayable"},{"type":"function","name":"setActiveBenefitToken","inputs":[{"name":"tokenId","type":"uint256","internalType":"uint256"}],"outputs":[],"stateMutability":"nonpayable"},{"type":"function","name":"setApprovalForAll","inputs":[{"name":"operator","type":"address","internalType":"address"},{"name":"approved","type":"bool","internalType":"bool"}],"outputs":[],"stateMutability":"nonpayable"},{"type":"function","name":"setBaseTokenURI","inputs":[{"name":"newBaseTokenURI","type":"string","internalType":"string"},{"name":"newSuffix","type":"string","internalType":"string"}],"outputs":[],"stateMutability":"nonpayable"},{"type":"function","name":"setThemeBenefits","inputs":[{"name":"theme","type":"uint8","internalType":"enum ZTRXNFT.Theme"},{"name":"config","type":"tuple","internalType":"struct ZTRXNFT.BenefitConfig","components":[{"name":"tradingFeeDiscountBps","type":"uint16","internalType":"uint16"},{"name":"tokenAirdropBonusBps","type":"uint16","internalType":"uint16"},{"name":"insurancePremiumDiscountBps","type":"uint16","internalType":"uint16"},{"name":"liquidationProtectionBoostBps","type":"uint16","internalType":"uint16"},{"name":"tradingCompetitionBoostBps","type":"uint16","internalType":"uint16"},{"name":"lpYieldBoostBps","type":"uint16","internalType":"uint16"},{"name":"lpExitCooldownReductionBps","type":"uint16","internalType":"uint16"},{"name":"partnerWhitelistEligible","type":"bool","internalType":"bool"},{"name":"priorityAccessEligible","type":"bool","internalType":"bool"}]}],"outputs":[],"stateMutability":"nonpayable"},{"type":"function","name":"supportsInterface","inputs":[{"name":"interfaceId","type":"bytes4","internalType":"bytes4"}],"outputs":[{"name":"","type":"bool","internalType":"bool"}],"stateMutability":"pure"},{"type":"function","name":"symbol","inputs":[],"outputs":[{"name":"","type":"string","internalType":"string"}],"stateMutability":"view"},{"type":"function","name":"themeBenefits","inputs":[{"name":"theme","type":"uint8","internalType":"enum ZTRXNFT.Theme"}],"outputs":[{"name":"","type":"tuple","internalType":"struct ZTRXNFT.BenefitConfig","components":[{"name":"tradingFeeDiscountBps","type":"uint16","internalType":"uint16"},{"name":"tokenAirdropBonusBps","type":"uint16","internalType":"uint16"},{"name":"insurancePremiumDiscountBps","type":"uint16","internalType":"uint16"},{"name":"liquidationProtectionBoostBps","type":"uint16","internalType":"uint16"},{"name":"tradingCompetitionBoostBps","type":"uint16","internalType":"uint16"},{"name":"lpYieldBoostBps","type":"uint16","internalType":"uint16"},{"name":"lpExitCooldownReductionBps","type":"uint16","internalType":"uint16"},{"name":"partnerWhitelistEligible","type":"bool","internalType":"bool"},{"name":"priorityAccessEligible","type":"bool","internalType":"bool"}]}],"stateMutability":"view"},{"type":"function","name":"tokenBenefits","inputs":[{"name":"tokenId","type":"uint256","internalType":"uint256"}],"outputs":[{"name":"","type":"tuple","internalType":"struct ZTRXNFT.BenefitConfig","components":[{"name":"tradingFeeDiscountBps","type":"uint16","internalType":"uint16"},{"name":"tokenAirdropBonusBps","type":"uint16","internalType":"uint16"},{"name":"insurancePremiumDiscountBps","type":"uint16","internalType":"uint16"},{"name":"liquidationProtectionBoostBps","type":"uint16","internalType":"uint16"},{"name":"tradingCompetitionBoostBps","type":"uint16","internalType":"uint16"},{"name":"lpYieldBoostBps","type":"uint16","internalType":"uint16"},{"name":"lpExitCooldownReductionBps","type":"uint16","internalType":"uint16"},{"name":"partnerWhitelistEligible","type":"bool","internalType":"bool"},{"name":"priorityAccessEligible","type":"bool","internalType":"bool"}]}],"stateMutability":"view"},{"type":"function","name":"tokenTheme","inputs":[{"name":"tokenId","type":"uint256","internalType":"uint256"}],"outputs":[{"name":"","type":"uint8","internalType":"enum ZTRXNFT.Theme"}],"stateMutability":"pure"},{"type":"function","name":"tokenURI","inputs":[{"name":"tokenId","type":"uint256","internalType":"uint256"}],"outputs":[{"name":"","type":"string","internalType":"string"}],"stateMutability":"view"},{"type":"function","name":"totalMinted","inputs":[],"outputs":[{"name":"","type":"uint256","internalType":"uint256"}],"stateMutability":"view"},{"type":"function","name":"tradingFeeDiscountOf","inputs":[{"name":"user","type":"address","internalType":"address"}],"outputs":[{"name":"","type":"uint16","internalType":"uint16"}],"stateMutability":"view"},{"type":"function","name":"transferFrom","inputs":[{"name":"from","type":"address","internalType":"address"},{"name":"to","type":"address","internalType":"address"},{"name":"tokenId","type":"uint256","internalType":"uint256"}],"outputs":[],"stateMutability":"nonpayable"},{"type":"function","name":"transferOwnership","inputs":[{"name":"newOwner","type":"address","internalType":"address"}],"outputs":[],"stateMutability":"nonpayable"},{"type":"event","name":"ActiveBenefitTokenUpdated","inputs":[{"name":"user","type":"address","indexed":true,"internalType":"address"},{"name":"tokenId","type":"uint256","indexed":true,"internalType":"uint256"}],"anonymous":false},{"type":"event","name":"Approval","inputs":[{"name":"owner","type":"address","indexed":true,"internalType":"address"},{"name":"approved","type":"address","indexed":true,"internalType":"address"},{"name":"tokenId","type":"uint256","indexed":true,"internalType":"uint256"}],"anonymous":false},{"type":"event","name":"ApprovalForAll","inputs":[{"name":"owner","type":"address","indexed":true,"internalType":"address"},{"name":"operator","type":"address","indexed":true,"internalType":"address"},{"name":"approved","type":"bool","indexed":false,"internalType":"bool"}],"anonymous":false},{"type":"event","name":"BaseTokenURIUpdated","inputs":[{"name":"newBaseTokenURI","type":"string","indexed":false,"internalType":"string"},{"name":"newSuffix","type":"string","indexed":false,"internalType":"string"}],"anonymous":false},{"type":"event","name":"ClaimAssignmentUpdated","inputs":[{"name":"tokenId","type":"uint256","indexed":true,"internalType":"uint256"},{"name":"assignee","type":"address","indexed":true,"internalType":"address"}],"anonymous":false},{"type":"event","name":"OwnershipTransferStarted","inputs":[{"name":"previousOwner","type":"address","indexed":true,"internalType":"address"},{"name":"newOwner","type":"address","indexed":true,"internalType":"address"}],"anonymous":false},{"type":"event","name":"OwnershipTransferred","inputs":[{"name":"previousOwner","type":"address","indexed":true,"internalType":"address"},{"name":"newOwner","type":"address","indexed":true,"internalType":"address"}],"anonymous":false},{"type":"event","name":"ThemeBenefitsUpdated","inputs":[{"name":"theme","type":"uint8","indexed":true,"internalType":"enum ZTRXNFT.Theme"},{"name":"tradingFeeDiscountBps","type":"uint16","indexed":false,"internalType":"uint16"},{"name":"tokenAirdropBonusBps","type":"uint16","indexed":false,"internalType":"uint16"},{"name":"insurancePremiumDiscountBps","type":"uint16","indexed":false,"internalType":"uint16"},{"name":"liquidationProtectionBoostBps","type":"uint16","indexed":false,"internalType":"uint16"},{"name":"tradingCompetitionBoostBps","type":"uint16","indexed":false,"internalType":"uint16"},{"name":"lpYieldBoostBps","type":"uint16","indexed":false,"internalType":"uint16"},{"name":"lpExitCooldownReductionBps","type":"uint16","indexed":false,"internalType":"uint16"},{"name":"partnerWhitelistEligible","type":"bool","indexed":false,"internalType":"bool"},{"name":"priorityAccessEligible","type":"bool","indexed":false,"internalType":"bool"}],"anonymous":false},{"type":"event","name":"TokenClaimed","inputs":[{"name":"claimer","type":"address","indexed":true,"internalType":"address"},{"name":"tokenId","type":"uint256","indexed":true,"internalType":"uint256"},{"name":"theme","type":"uint8","indexed":true,"internalType":"enum ZTRXNFT.Theme"}],"anonymous":false},{"type":"event","name":"Transfer","inputs":[{"name":"from","type":"address","indexed":true,"internalType":"address"},{"name":"to","type":"address","indexed":true,"internalType":"address"},{"name":"tokenId","type":"uint256","indexed":true,"internalType":"uint256"}],"anonymous":false},{"type":"error","name":"AssignmentLengthMismatch","inputs":[]},{"type":"error","name":"InvalidAddress","inputs":[]},{"type":"error","name":"InvalidBpsValue","inputs":[{"name":"value","type":"uint256","internalType":"uint256"}]},{"type":"error","name":"InvalidTokenId","inputs":[{"name":"tokenId","type":"uint256","internalType":"uint256"}]},{"type":"error","name":"NotAssignedRecipient","inputs":[{"name":"tokenId","type":"uint256","internalType":"uint256"},{"name":"caller","type":"address","internalType":"address"}]},{"type":"error","name":"NotAuthorized","inputs":[{"name":"caller","type":"address","internalType":"address"},{"name":"tokenId","type":"uint256","internalType":"uint256"}]},{"type":"error","name":"OwnableInvalidOwner","inputs":[{"name":"owner","type":"address","internalType":"address"}]},{"type":"error","name":"OwnableUnauthorizedAccount","inputs":[{"name":"account","type":"address","internalType":"address"}]},{"type":"error","name":"TokenAlreadyAssigned","inputs":[{"name":"tokenId","type":"uint256","internalType":"uint256"},{"name":"currentAssignee","type":"address","internalType":"address"}]},{"type":"error","name":"TokenAlreadyMinted","inputs":[{"name":"tokenId","type":"uint256","internalType":"uint256"}]},{"type":"error","name":"TokenNotMinted","inputs":[{"name":"tokenId","type":"uint256","internalType":"uint256"}]},{"type":"error","name":"TransferToNonReceiver","inputs":[]}],"bytecode":{"object":"0x608060405234801562000010575f80fd5b5060405162002bd238038062002bd283398101604081905262000033916200021d565b826001600160a01b0381166200006257604051631e4fbdf760e01b81525f600482015260240160405180910390fd5b6200006d81620000ef565b50604080518082019091526008815267169514960813919560c21b60208201526002906200009c90826200032b565b506040805180820190915260048152630b4a8a4b60e31b6020820152600390620000c790826200032b565b506004620000d683826200032b565b506005620000e582826200032b565b50505050620003f7565b600180546001600160a01b03191690556200010a816200010d565b50565b5f80546001600160a01b038381166001600160a01b0319831681178455604051919092169283917f8be0079c531659141344cd1fd0a4f28419497f9722a3daafe3b4186f6b6457e09190a35050565b634e487b7160e01b5f52604160045260245ffd5b5f82601f83011262000180575f80fd5b81516001600160401b03808211156200019d576200019d6200015c565b604051601f8301601f19908116603f01168101908282118183101715620001c857620001c86200015c565b8160405283815260209250866020858801011115620001e5575f80fd5b5f91505b83821015620002085785820183015181830184015290820190620001e9565b5f602085830101528094505050505092915050565b5f805f6060848603121562000230575f80fd5b83516001600160a01b038116811462000247575f80fd5b60208501519093506001600160401b038082111562000264575f80fd5b620002728783880162000170565b9350604086015191508082111562000288575f80fd5b50620002978682870162000170565b9150509250925092565b600181811c90821680620002b657607f821691505b602082108103620002d557634e487b7160e01b5f52602260045260245ffd5b50919050565b601f8211156200032657805f5260205f20601f840160051c81016020851015620003025750805b601f840160051c820191505b8181101562000323575f81556001016200030e565b50505b505050565b81516001600160401b038111156200034757620003476200015c565b6200035f81620003588454620002a1565b84620002db565b602080601f83116001811462000395575f84156200037d5750858301515b5f19600386901b1c1916600185901b178555620003ef565b5f85815260208120601f198616915b82811015620003c557888601518255948401946001909101908401620003a4565b5085821015620003e357878501515f19600388901b60f8161c191681555b505060018460011b0185555b505050505050565b6127cd80620004055f395ff3fe608060405234801561000f575f80fd5b5060043610610281575f3560e01c806379ba509711610156578063c87b56dd116100ca578063e3f8c12311610084578063e3f8c123146105c9578063e58306f9146105dc578063e985e9c5146105ef578063efc9c1591461062a578063f2fde38b1461063d578063f677cc7014610650575f80fd5b8063c87b56dd14610522578063c8c4963814610535578063cbb6160814610548578063cc42302a14610568578063e2c0242914610590578063e30c3978146105b8575f80fd5b8063a2309ff81161011b578063a2309ff8146104c6578063a9b517e7146104ce578063b062a39c146104e1578063b3fd1162146104f4578063b88d4fde146104fc578063c19bfa7c1461050f575f80fd5b806379ba50971461048057806386b1b3cb146104885780638da5cb5b1461049b57806395d89b41146104ab578063a22cb465146104b3575f80fd5b8063379607f5116101f857806362abebce116101b257806362abebce146104235780636352211e146104365780636734bd841461044957806370a0823114610452578063715018a61461046557806373cfbf3a1461046d575f80fd5b8063379607f5146103a157806341cf742c146103b457806342842e0e146103c757806354012565146103da578063551dbfea146103e257806356f71c23146103f5575f80fd5b80630b9b001c116102495780630b9b001c146103155780630da0961d146103285780631c45fdcc14610348578063200256711461035f57806323b872dd1461038557806332cb6b0c14610398575f80fd5b806301ffc9a71461028557806306fdde03146102ad578063081812fc146102c257806308b4d70c146102ed578063095ea7b314610302575b5f80fd5b610298610293366004611cdf565b610658565b60405190151581526020015b60405180910390f35b6102b56106a9565b6040516102a49190611d4e565b6102d56102d0366004611d60565b610739565b6040516001600160a01b0390911681526020016102a4565b6103006102fb366004611d60565b610790565b005b610300610310366004611d92565b610820565b610300610323366004611dff565b6108ea565b61033b610336366004611e66565b610951565b6040516102a49190611e7f565b6103516101f481565b6040519081526020016102a4565b61037261036d366004611e66565b610ac4565b60405161ffff90911681526020016102a4565b610300610393366004611efe565b610ad5565b6103516107d081565b6103006103af366004611d60565b610ae5565b6102986103c2366004611e66565b610af2565b6103006103d5366004611efe565b610b07565b610351605081565b61033b6103f0366004611d60565b610b21565b610408610403366004611e66565b610c38565b6040805161ffff9384168152929091166020830152016102a4565b610300610431366004611f78565b610c5a565b6102d5610444366004611d60565b610c95565b6103516104b081565b610351610460366004611e66565b610ccd565b610300610d10565b61040861047b366004611e66565b610d23565b610300610d45565b6102d5610496366004611d60565b610d86565b5f546001600160a01b03166102d5565b6102b5610dab565b6103006104c1366004611fc4565b610dba565b600654610351565b6103006104dc366004612007565b610e25565b6103006104ef366004611d60565b610f5d565b61035160dc81565b61030061050a366004612059565b610fa1565b61030061051d36600461212e565b610fd5565b6102b5610530366004611d60565b610fed565b610298610543366004611e66565b61105c565b61055b610556366004611d60565b611070565b6040516102a4919061216c565b61057b610576366004611e66565b6110d6565b6040516102a499989796959493929190612192565b61035161059e366004611e66565b6001600160a01b03165f908152600d602052604090205490565b6001546001600160a01b03166102d5565b6103006105d73660046121e1565b611138565b6103006105ea366004611d92565b6111c4565b6102986105fd36600461223c565b6001600160a01b039182165f908152600a6020908152604080832093909416825291909152205460ff1690565b61033b610638366004612264565b6111fd565b61030061064b366004611e66565b61121a565b61030061128a565b5f6001600160e01b031982166301ffc9a760e01b148061068857506001600160e01b031982166380ac58cd60e01b145b806106a357506001600160e01b03198216635b5e139f60e01b145b92915050565b6060600280546106b89061227d565b80601f01602080910402602001604051908101604052809291908181526020018280546106e49061227d565b801561072f5780601f106107065761010080835404028352916020019161072f565b820191905f5260205f20905b81548152906001019060200180831161071257829003601f168201915b5050505050905090565b5f818152600760205260408120546001600160a01b031661077557604051634a4d002f60e01b8152600481018390526024015b60405180910390fd5b505f908152600960205260409020546001600160a01b031690565b610798611293565b6107a1816112bf565b5f818152600760205260409020546001600160a01b0316156107d9576040516322d1d39560e21b81526004810182905260240161076c565b5f818152600b602052604080822080546001600160a01b03191690555182907fb3dcf078c92617a6b2b7c3d3781fcd5d399f4de1ca97583e00ac4a78e9a7f44a908390a350565b5f61082a82610c95565b9050336001600160a01b0382161480159061086857506001600160a01b0381165f908152600a6020908152604080832033845290915290205460ff16155b1561088f5760405163030af4dd60e51b81523360048201526024810183905260440161076c565b5f8281526009602052604080822080546001600160a01b0319166001600160a01b0387811691821790925591518593918516917f8c5be1e5ebec7d5bd14f71427d1e84f3dd0314c0f7b2291e5b200ac8c7c3b92591a4505050565b6108f2611293565b60046108ff848683612300565b50600561090d828483612300565b507f19c1a81f34d9a8d208a44017474815e9089aff4b57e461c08509577eea2c39008484848460405161094394939291906123e2565b60405180910390a150505050565b610959611c7f565b6001600160a01b0382165f908152600d602052604090205480158061099757505f818152600760205260409020546001600160a01b03848116911614155b156109eb57505060408051610120810182525f80825260208201819052918101829052606081018290526080810182905260a0810182905260c0810182905260e08101829052610100810191909152919050565b600c5f6109f783611070565b6003811115610a0857610a08612158565b6003811115610a1957610a19612158565b815260208082019290925260409081015f20815161012081018352905461ffff808216835262010000820481169483019490945264010000000081048416928201929092526601000000000000820483166060820152600160401b820483166080820152600160501b8204831660a0820152600160601b820490921660c083015260ff600160701b82048116151560e0840152600160781b9091041615156101008201529392505050565b5f610ace82610951565b5192915050565b610ae08383836112ee565b505050565b610aef813361154f565b50565b5f610afc82610951565b610100015192915050565b610ae083838360405180602001604052805f815250610fa1565b610b29611c7f565b5f828152600760205260409020546001600160a01b0316610b6057604051634a4d002f60e01b81526004810183905260240161076c565b600c5f610b6c84611070565b6003811115610b7d57610b7d612158565b6003811115610b8e57610b8e612158565b815260208082019290925260409081015f20815161012081018352905461ffff808216835262010000820481169483019490945264010000000081048416928201929092526601000000000000820483166060820152600160401b820483166080820152600160501b8204831660a0820152600160601b820490921660c083015260ff600160701b82048116151560e0840152600160781b90910416151561010082015292915050565b5f805f610c4484610951565b90508060a001518160c001519250925050915091565b805f5b81811015610c8f57610c87848483818110610c7a57610c7a612413565b905060200201353361154f565b600101610c5d565b50505050565b5f818152600760205260408120546001600160a01b0316806106a357604051634a4d002f60e01b81526004810184905260240161076c565b5f6001600160a01b038216610cf55760405163e6c4247b60e01b815260040160405180910390fd5b506001600160a01b03165f9081526008602052604090205490565b610d18611293565b610d215f611653565b565b5f805f610d2f84610951565b9050806040015181606001519250925050915091565b60015433906001600160a01b03168114610d7d5760405163118cdaa760e01b81526001600160a01b038216600482015260240161076c565b610aef81611653565b5f610d90826112bf565b505f908152600b60205260409020546001600160a01b031690565b6060600380546106b89061227d565b335f818152600a602090815260408083206001600160a01b03871680855290835292819020805460ff191686151590811790915590519081529192917f17307eab39ab6107e8899845ad3d59bd9653f200f220920489ca2b5937696c31910160405180910390a35050565b610e2d611293565b610e368161166c565b80600c5f846003811115610e4c57610e4c612158565b6003811115610e5d57610e5d612158565b81526020019081526020015f208181610e76919061244e565b905050816003811115610e8b57610e8b612158565b7ff3415736b5465453b07c9bd7cd5b75e53a886e069908ff50f01062206fec8691610eb960208401846125e0565b610ec960408501602086016125e0565b610ed960608601604087016125e0565b610ee960808701606088016125e0565b610ef960a08801608089016125e0565b610f0960c0890160a08a016125e0565b610f1960e08a0160c08b016125e0565b610f2a6101008b0160e08c016125fb565b610f3c6101208c016101008d016125fb565b604051610f5199989796959493929190612192565b60405180910390a25050565b33610f6782610c95565b6001600160a01b031614610f975760405163030af4dd60e51b81523360048201526024810182905260440161076c565b610aef33826117c1565b610fac8484846112ee565b610fb8848484846117f4565b610c8f5760405163159e090560e01b815260040160405180910390fd5b610fdd611293565b610fe9828260016118a3565b5050565b5f818152600760205260409020546060906001600160a01b031661102757604051634a4d002f60e01b81526004810183905260240161076c565b6004611032836119c2565b600560405160200161104693929190612685565b6040516020818303038152906040529050919050565b5f61106682610951565b60e0015192915050565b5f61107a826112bf565b6104b0821161108a57505f919050565b6110986101f46104b06126c0565b82116110a657506001919050565b60dc6110b66101f46104b06126c0565b6110c091906126c0565b82116110ce57506002919050565b506003919050565b5f805f805f805f805f806110e98b610951565b9050805f015181602001518260400151836060015184608001518560a001518660c001518760e00151886101000151995099509950995099509950995099509950509193959799909294969850565b611140611293565b80838114611161576040516310c375f760e11b815260040160405180910390fd5b5f5b818110156111bc576111b484848381811061118057611180612413565b9050602002013587878481811061119957611199612413565b90506020020160208101906111ae9190611e66565b5f6118a3565b600101611163565b505050505050565b6111cc611293565b6001600160a01b0382166111f35760405163e6c4247b60e01b815260040160405180910390fd5b610fe98282611ab4565b611205611c7f565b600c5f836003811115610b7d57610b7d612158565b611222611293565b600180546001600160a01b0383166001600160a01b031990911681179091556112525f546001600160a01b031690565b6001600160a01b03167f38d16b8cac22d99fc7c124b9cd0de2d3fa1faef420bfe791d8c362d765e2270060405160405180910390a350565b610d2133611bdf565b5f546001600160a01b03163314610d215760405163118cdaa760e01b815233600482015260240161076c565b8015806112cd57506107d081115b15610aef5760405163ed15e6cf60e01b81526004810182905260240161076c565b6001600160a01b0382166113155760405163e6c4247b60e01b815260040160405180910390fd5b5f61131f82610c95565b9050836001600160a01b0316816001600160a01b03161461135c5760405163030af4dd60e51b81523360048201526024810183905260440161076c565b5f336001600160a01b038316148061139657506001600160a01b0382165f908152600a6020908152604080832033845290915290205460ff165b806113b657505f838152600960205260409020546001600160a01b031633145b9050806113df5760405163030af4dd60e51b81523360048201526024810184905260440161076c565b5f83815260096020908152604080832080546001600160a01b03199081169091556001600160a01b038981168086526008855283862080545f1901905590891680865283862080546001019055888652600785528386208054909316179091558352600d909152902054839003611482576001600160a01b0385165f818152600d6020526040808220829055519091905f80516020612778833981519152908390a35b6001600160a01b0384165f908152600d602052604081205490036114d0576001600160a01b0384165f818152600d6020526040808220869055518592915f8051602061277883398151915291a35b60405183905f906001600160a01b038816907f8c5be1e5ebec7d5bd14f71427d1e84f3dd0314c0f7b2291e5b200ac8c7c3b925908390a482846001600160a01b0316866001600160a01b03167fddf252ad1be2c89b69c2b068fc378daa952ba7f163c4a11628f55a4df523b3ef60405160405180910390a45050505050565b611558826112bf565b5f828152600760205260409020546001600160a01b031615611590576040516322d1d39560e21b81526004810183905260240161076c565b5f828152600b60205260409020546001600160a01b038281169116146115db576040516355697fdd60e11b8152600481018390526001600160a01b038216602482015260440161076c565b5f828152600b6020526040902080546001600160a01b03191690556116008183611ab4565b61160982611070565b600381111561161a5761161a612158565b60405183906001600160a01b038416907f990d30728a5954132436e3fcf632738b5b51bebabcd7f3b6b704dad5977f41b6905f90a45050565b600180546001600160a01b0319169055610aef81611c30565b61271061167c60208301836125e0565b61ffff1611156116b35761169360208201826125e0565b604051631efd176560e21b815261ffff909116600482015260240161076c565b6127106116c660408301602084016125e0565b61ffff1611156116e05761169360408201602083016125e0565b6127106116f360608301604084016125e0565b61ffff16111561170d5761169360608201604083016125e0565b61271061172060808301606084016125e0565b61ffff16111561173a5761169360808201606083016125e0565b61271061174d60a08301608084016125e0565b61ffff1611156117675761169360a08201608083016125e0565b61271061177a60c0830160a084016125e0565b61ffff1611156117945761169360c0820160a083016125e0565b6127106117a760e0830160c084016125e0565b61ffff161115610aef5761169360e0820160c083016125e0565b6001600160a01b0382165f818152600d6020526040808220849055518392915f8051602061277883398151915291a35050565b5f836001600160a01b03163b5f0361180e5750600161189b565b604051630a85bd0160e11b81526001600160a01b0385169063150b7a02906118409033908990889088906004016126d3565b6020604051808303815f875af192505050801561187a575060408051601f3d908101601f191682019092526118779181019061270f565b60015b61188557505f61189b565b6001600160e01b031916630a85bd0160e11b1490505b949350505050565b6118ac836112bf565b6001600160a01b0382166118d35760405163e6c4247b60e01b815260040160405180910390fd5b5f838152600760205260409020546001600160a01b03161561190b576040516322d1d39560e21b81526004810184905260240161076c565b5f838152600b60205260409020546001600160a01b03168115801561193857506001600160a01b03811615155b156119685760405163db470be160e01b8152600481018590526001600160a01b038216602482015260440161076c565b5f848152600b602052604080822080546001600160a01b0319166001600160a01b0387169081179091559051909186917fb3dcf078c92617a6b2b7c3d3781fcd5d399f4de1ca97583e00ac4a78e9a7f44a9190a350505050565b6060815f036119e85750506040805180820190915260018152600360fc1b602082015290565b815f5b8115611a06576001016119ff600a8361273e565b91506119eb565b5f8167ffffffffffffffff811115611a2057611a20612045565b6040519080825280601f01601f191660200182016040528015611a4a576020820181803683370190505b5090505b841561189b57611a5f600183612751565b9150611a6c600a86612764565b611a779060306126c0565b60f81b818381518110611a8c57611a8c612413565b60200101906001600160f81b03191690815f1a905350611aad600a8661273e565b9450611a4e565b611abd816112bf565b6001600160a01b038216611ae45760405163e6c4247b60e01b815260040160405180910390fd5b5f818152600760205260409020546001600160a01b031615611b1c576040516322d1d39560e21b81526004810182905260240161076c565b6001600160a01b0382165f818152600860209081526040808320805460019081019091556006805490910190558483526007825280832080546001600160a01b03191685179055928252600d9052908120549003611ba4576001600160a01b0382165f818152600d6020526040808220849055518392915f8051602061277883398151915291a35b60405181906001600160a01b038416905f907fddf252ad1be2c89b69c2b068fc378daa952ba7f163c4a11628f55a4df523b3ef908290a45050565b6001600160a01b0381165f908152600d602052604090205415610aef576001600160a01b0381165f818152600d6020526040808220829055519091905f80516020612778833981519152908390a350565b5f80546001600160a01b038381166001600160a01b0319831681178455604051919092169283917f8be0079c531659141344cd1fd0a4f28419497f9722a3daafe3b4186f6b6457e09190a35050565b60408051610120810182525f80825260208201819052918101829052606081018290526080810182905260a0810182905260c0810182905260e0810182905261010081019190915290565b6001600160e01b031981168114610aef575f80fd5b5f60208284031215611cef575f80fd5b8135611cfa81611cca565b9392505050565b5f5b83811015611d1b578181015183820152602001611d03565b50505f910152565b5f8151808452611d3a816020860160208601611d01565b601f01601f19169290920160200192915050565b602081525f611cfa6020830184611d23565b5f60208284031215611d70575f80fd5b5035919050565b80356001600160a01b0381168114611d8d575f80fd5b919050565b5f8060408385031215611da3575f80fd5b611dac83611d77565b946020939093013593505050565b5f8083601f840112611dca575f80fd5b50813567ffffffffffffffff811115611de1575f80fd5b602083019150836020828501011115611df8575f80fd5b9250929050565b5f805f8060408587031215611e12575f80fd5b843567ffffffffffffffff80821115611e29575f80fd5b611e3588838901611dba565b90965094506020870135915080821115611e4d575f80fd5b50611e5a87828801611dba565b95989497509550505050565b5f60208284031215611e76575f80fd5b611cfa82611d77565b815161ffff908116825260208084015182169083015260408084015182169083015260608084015182169083015260808084015182169083015260a08084015182169083015260c080840151918216908301526101208201905060e0830151611eec60e084018215159052565b50610100928301511515919092015290565b5f805f60608486031215611f10575f80fd5b611f1984611d77565b9250611f2760208501611d77565b9150604084013590509250925092565b5f8083601f840112611f47575f80fd5b50813567ffffffffffffffff811115611f5e575f80fd5b6020830191508360208260051b8501011115611df8575f80fd5b5f8060208385031215611f89575f80fd5b823567ffffffffffffffff811115611f9f575f80fd5b611fab85828601611f37565b90969095509350505050565b8015158114610aef575f80fd5b5f8060408385031215611fd5575f80fd5b611fde83611d77565b91506020830135611fee81611fb7565b809150509250929050565b803560048110611d8d575f80fd5b5f8082840361014081121561201a575f80fd5b61202384611ff9565b9250610120601f1982011215612037575f80fd5b506020830190509250929050565b634e487b7160e01b5f52604160045260245ffd5b5f805f806080858703121561206c575f80fd5b61207585611d77565b935061208360208601611d77565b925060408501359150606085013567ffffffffffffffff808211156120a6575f80fd5b818701915087601f8301126120b9575f80fd5b8135818111156120cb576120cb612045565b604051601f8201601f19908116603f011681019083821181831017156120f3576120f3612045565b816040528281528a602084870101111561210b575f80fd5b826020860160208301375f60208483010152809550505050505092959194509250565b5f806040838503121561213f575f80fd5b8235915061214f60208401611d77565b90509250929050565b634e487b7160e01b5f52602160045260245ffd5b602081016004831061218c57634e487b7160e01b5f52602160045260245ffd5b91905290565b61ffff998a1681529789166020890152958816604088015293871660608701529186166080860152851660a085015290931660c083015291151560e08201529015156101008201526101200190565b5f805f80604085870312156121f4575f80fd5b843567ffffffffffffffff8082111561220b575f80fd5b61221788838901611f37565b9096509450602087013591508082111561222f575f80fd5b50611e5a87828801611f37565b5f806040838503121561224d575f80fd5b61225683611d77565b915061214f60208401611d77565b5f60208284031215612274575f80fd5b611cfa82611ff9565b600181811c9082168061229157607f821691505b6020821081036122af57634e487b7160e01b5f52602260045260245ffd5b50919050565b601f821115610ae057805f5260205f20601f840160051c810160208510156122da5750805b601f840160051c820191505b818110156122f9575f81556001016122e6565b5050505050565b67ffffffffffffffff83111561231857612318612045565b61232c83612326835461227d565b836122b5565b5f601f84116001811461235d575f85156123465750838201355b5f19600387901b1c1916600186901b1783556122f9565b5f83815260208120601f198716915b8281101561238c578685013582556020948501946001909201910161236c565b50868210156123a8575f1960f88860031b161c19848701351681555b505060018560011b0183555050505050565b81835281816020850137505f828201602090810191909152601f909101601f19169091010190565b604081525f6123f56040830186886123ba565b82810360208401526124088185876123ba565b979650505050505050565b634e487b7160e01b5f52603260045260245ffd5b61ffff81168114610aef575f80fd5b5f81356106a381612427565b5f81356106a381611fb7565b813561245981612427565b61ffff8116905081548161ffff198216178355602084013561247a81612427565b63ffff00008160101b168363ffffffff198416171784555050506124c16124a360408401612436565b825465ffff00000000191660209190911b65ffff0000000016178255565b6124f26124d060608401612436565b825467ffff000000000000191660309190911b67ffff00000000000016178255565b61252761250160808401612436565b825469ffff0000000000000000191660409190911b69ffff000000000000000016178255565b61255661253660a08401612436565b82805461ffff60501b191660509290921b61ffff60501b16919091179055565b61258561256560c08401612436565b82805461ffff60601b191660609290921b61ffff60601b16919091179055565b6125b261259460e08401612442565b82805460ff60701b191691151560701b60ff60701b16919091179055565b610fe96125c26101008401612442565b82805460ff60781b191691151560781b60ff60781b16919091179055565b5f602082840312156125f0575f80fd5b8135611cfa81612427565b5f6020828403121561260b575f80fd5b8135611cfa81611fb7565b5f81546126228161227d565b6001828116801561263a576001811461264f5761267b565b60ff198416875282151583028701945061267b565b855f526020805f205f5b858110156126725781548a820152908401908201612659565b50505082870194505b5050505092915050565b5f6126908286612616565b84516126a0818360208901611d01565b61240881830186612616565b634e487b7160e01b5f52601160045260245ffd5b808201808211156106a3576106a36126ac565b6001600160a01b03858116825284166020820152604081018390526080606082018190525f9061270590830184611d23565b9695505050505050565b5f6020828403121561271f575f80fd5b8151611cfa81611cca565b634e487b7160e01b5f52601260045260245ffd5b5f8261274c5761274c61272a565b500490565b818103818111156106a3576106a36126ac565b5f826127725761277261272a565b50069056fe984440cd51895a547b6aae7ccd7e5cf998ea08446f2c7d184fff6b58b07e2830a2646970667358221220e9b3da6134959ec8d1a78c9d7ffa405784647119b38a4dea36576efa8688011164736f6c63430008180033","linkReferences":{}},"methodIdentifiers":{"BASTION_SUPPLY()":"b3fd1162","GUARDIAN_SUPPLY()":"1c45fdcc","MAX_SUPPLY()":"32cb6b0c","ORACLE_SUPPLY()":"54012565","SENTINEL_SUPPLY()":"6734bd84","acceptOwnership()":"79ba5097","activeBenefitToken(address)":"e2c02429","adminMint(address,uint256)":"e58306f9","approve(address,uint256)":"095ea7b3","assignRecipients(address[],uint256[])":"e3f8c123","assignedRecipient(uint256)":"86b1b3cb","balanceOf(address)":"70a08231","benefitDetailsOf(address)":"cc42302a","benefitOf(address)":"0da0961d","claim(uint256)":"379607f5","claimBatch(uint256[])":"62abebce","clearActiveBenefitToken()":"f677cc70","clearAssignment(uint256)":"08b4d70c","getApproved(uint256)":"081812fc","hasPriorityAccess(address)":"41cf742c","insuranceBenefitAdjustmentsOf(address)":"73cfbf3a","isApprovedForAll(address,address)":"e985e9c5","isPartnerWhitelistEligible(address)":"c8c49638","liquidityBenefitAdjustmentsOf(address)":"56f71c23","name()":"06fdde03","owner()":"8da5cb5b","ownerOf(uint256)":"6352211e","pendingOwner()":"e30c3978","reassignRecipient(uint256,address)":"c19bfa7c","renounceOwnership()":"715018a6","safeTransferFrom(address,address,uint256)":"42842e0e","safeTransferFrom(address,address,uint256,bytes)":"b88d4fde","setActiveBenefitToken(uint256)":"b062a39c","setApprovalForAll(address,bool)":"a22cb465","setBaseTokenURI(string,string)":"0b9b001c","setThemeBenefits(uint8,(uint16,uint16,uint16,uint16,uint16,uint16,uint16,bool,bool))":"a9b517e7","supportsInterface(bytes4)":"01ffc9a7","symbol()":"95d89b41","themeBenefits(uint8)":"efc9c159","tokenBenefits(uint256)":"551dbfea","tokenTheme(uint256)":"cbb61608","tokenURI(uint256)":"c87b56dd","totalMinted()":"a2309ff8","tradingFeeDiscountOf(address)":"20025671","transferFrom(address,address,uint256)":"23b872dd","transferOwnership(address)":"f2fde38b"},"id":6}