{"abi":[{"type":"constructor","inputs":[{"name":"initialOwner","type":"address","internalType":"address"},{"name":"riskConfig_","type":"address","internalType":"address"},{"name":"riskVault_","type":"address","internalType":"address"},{"name":"collateralToken_","type":"address","internalType":"address"}],"stateMutability":"nonpayable"},{"type":"function","name":"acceptOwnership","inputs":[],"outputs":[],"stateMutability":"nonpayable"},{"type":"function","name":"authorizedCaller","inputs":[{"name":"caller","type":"address","internalType":"address"}],"outputs":[{"name":"isAuthorized","type":"bool","internalType":"bool"}],"stateMutability":"view"},{"type":"function","name":"cancelCoverageOnClose","inputs":[{"name":"positionId","type":"uint256","internalType":"uint256"}],"outputs":[],"stateMutability":"nonpayable"},{"type":"function","name":"collateralToken","inputs":[],"outputs":[{"name":"","type":"address","internalType":"address"}],"stateMutability":"view"},{"type":"function","name":"domainSeparator","inputs":[],"outputs":[{"name":"","type":"bytes32","internalType":"bytes32"}],"stateMutability":"view"},{"type":"function","name":"getCoverage","inputs":[{"name":"positionId","type":"uint256","internalType":"uint256"}],"outputs":[{"name":"","type":"tuple","internalType":"struct InsuranceController.CoverageSnapshot","components":[{"name":"user","type":"address","internalType":"address"},{"name":"marketId","type":"bytes32","internalType":"bytes32"},{"name":"side","type":"bool","internalType":"bool"},{"name":"leverageX18","type":"uint256","internalType":"uint256"},{"name":"sizeUsdX18","type":"uint256","internalType":"uint256"},{"name":"premiumBps","type":"uint256","internalType":"uint256"},{"name":"coverageRatioBps","type":"uint256","internalType":"uint256"},{"name":"maxInsurableAmount","type":"uint256","internalType":"uint256"},{"name":"minHoldingTime","type":"uint256","internalType":"uint256"},{"name":"cooldownSeconds","type":"uint256","internalType":"uint256"},{"name":"activationDelay","type":"uint256","internalType":"uint256"},{"name":"fullActivationDelay","type":"uint256","internalType":"uint256"},{"name":"userTier","type":"uint8","internalType":"uint8"},{"name":"marketTier","type":"uint8","internalType":"uint8"},{"name":"reservedAmount","type":"uint256","internalType":"uint256"},{"name":"activatedAt","type":"uint256","internalType":"uint256"},{"name":"quoteExpiry","type":"uint256","internalType":"uint256"},{"name":"quoteNonce","type":"uint256","internalType":"uint256"},{"name":"modelVersion","type":"bytes32","internalType":"bytes32"},{"name":"quoteHash","type":"bytes32","internalType":"bytes32"},{"name":"status","type":"uint8","internalType":"enum Types.InsuranceStatus"},{"name":"premiumSettled","type":"bool","internalType":"bool"}]}],"stateMutability":"view"},{"type":"function","name":"onPositionClosed","inputs":[{"name":"","type":"address","internalType":"address"},{"name":"","type":"bytes32","internalType":"bytes32"},{"name":"positionId","type":"uint256","internalType":"uint256"},{"name":"","type":"bytes32","internalType":"bytes32"}],"outputs":[],"stateMutability":"nonpayable"},{"type":"function","name":"onPositionLiquidated","inputs":[{"name":"","type":"address","internalType":"address"},{"name":"","type":"bytes32","internalType":"bytes32"},{"name":"positionId","type":"uint256","internalType":"uint256"},{"name":"","type":"bytes32","internalType":"bytes32"}],"outputs":[],"stateMutability":"nonpayable"},{"type":"function","name":"onPositionOpened","inputs":[{"name":"","type":"address","internalType":"address"},{"name":"","type":"bytes32","internalType":"bytes32"},{"name":"positionId","type":"uint256","internalType":"uint256"},{"name":"","type":"bytes32","internalType":"bytes32"}],"outputs":[{"name":"","type":"bool","internalType":"bool"}],"stateMutability":"view"},{"type":"function","name":"owner","inputs":[],"outputs":[{"name":"","type":"address","internalType":"address"}],"stateMutability":"view"},{"type":"function","name":"pendingOwner","inputs":[],"outputs":[{"name":"","type":"address","internalType":"address"}],"stateMutability":"view"},{"type":"function","name":"processLiquidationClaim","inputs":[{"name":"positionId","type":"uint256","internalType":"uint256"},{"name":"recipient","type":"address","internalType":"address"},{"name":"realizedLoss","type":"uint256","internalType":"uint256"},{"name":"eligible","type":"bool","internalType":"bool"}],"outputs":[{"name":"claimPaid","type":"uint256","internalType":"uint256"}],"stateMutability":"nonpayable"},{"type":"function","name":"registerCoverage","inputs":[{"name":"positionId","type":"uint256","internalType":"uint256"},{"name":"quote","type":"tuple","internalType":"struct IInsuranceController.SignedInsuranceQuote","components":[{"name":"user","type":"address","internalType":"address"},{"name":"marketId","type":"bytes32","internalType":"bytes32"},{"name":"side","type":"bool","internalType":"bool"},{"name":"leverageX18","type":"uint256","internalType":"uint256"},{"name":"sizeUsdX18","type":"uint256","internalType":"uint256"},{"name":"premiumBps","type":"uint256","internalType":"uint256"},{"name":"coverageRatioBps","type":"uint256","internalType":"uint256"},{"name":"maxInsurableAmount","type":"uint256","internalType":"uint256"},{"name":"minHoldingTime","type":"uint256","internalType":"uint256"},{"name":"cooldownSeconds","type":"uint256","internalType":"uint256"},{"name":"activationDelay","type":"uint256","internalType":"uint256"},{"name":"fullActivationDelay","type":"uint256","internalType":"uint256"},{"name":"userTier","type":"uint8","internalType":"uint8"},{"name":"marketTier","type":"uint8","internalType":"uint8"},{"name":"expiry","type":"uint256","internalType":"uint256"},{"name":"nonce","type":"uint256","internalType":"uint256"},{"name":"modelVersion","type":"bytes32","internalType":"bytes32"}]},{"name":"signature","type":"bytes","internalType":"bytes"}],"outputs":[],"stateMutability":"nonpayable"},{"type":"function","name":"renounceOwnership","inputs":[],"outputs":[],"stateMutability":"nonpayable"},{"type":"function","name":"riskConfig","inputs":[],"outputs":[{"name":"","type":"address","internalType":"address"}],"stateMutability":"view"},{"type":"function","name":"riskVault","inputs":[],"outputs":[{"name":"","type":"address","internalType":"address"}],"stateMutability":"view"},{"type":"function","name":"setAuthorizedCaller","inputs":[{"name":"caller","type":"address","internalType":"address"},{"name":"isAuthorized","type":"bool","internalType":"bool"}],"outputs":[],"stateMutability":"nonpayable"},{"type":"function","name":"settlePremiumOnProfit","inputs":[{"name":"positionId","type":"uint256","internalType":"uint256"},{"name":"payer","type":"address","internalType":"address"},{"name":"realizedProfit","type":"uint256","internalType":"uint256"}],"outputs":[{"name":"premiumCharged","type":"uint256","internalType":"uint256"}],"stateMutability":"nonpayable"},{"type":"function","name":"transferOwnership","inputs":[{"name":"newOwner","type":"address","internalType":"address"}],"outputs":[],"stateMutability":"nonpayable"},{"type":"function","name":"usedQuotes","inputs":[{"name":"quoteHash","type":"bytes32","internalType":"bytes32"}],"outputs":[{"name":"used","type":"bool","internalType":"bool"}],"stateMutability":"view"},{"type":"function","name":"userCooldownUntil","inputs":[{"name":"user","type":"address","internalType":"address"}],"outputs":[{"name":"untilTimestamp","type":"uint256","internalType":"uint256"}],"stateMutability":"view"},{"type":"function","name":"verifyQuote","inputs":[{"name":"quote","type":"tuple","internalType":"struct IInsuranceController.SignedInsuranceQuote","components":[{"name":"user","type":"address","internalType":"address"},{"name":"marketId","type":"bytes32","internalType":"bytes32"},{"name":"side","type":"bool","internalType":"bool"},{"name":"leverageX18","type":"uint256","internalType":"uint256"},{"name":"sizeUsdX18","type":"uint256","internalType":"uint256"},{"name":"premiumBps","type":"uint256","internalType":"uint256"},{"name":"coverageRatioBps","type":"uint256","internalType":"uint256"},{"name":"maxInsurableAmount","type":"uint256","internalType":"uint256"},{"name":"minHoldingTime","type":"uint256","internalType":"uint256"},{"name":"cooldownSeconds","type":"uint256","internalType":"uint256"},{"name":"activationDelay","type":"uint256","internalType":"uint256"},{"name":"fullActivationDelay","type":"uint256","internalType":"uint256"},{"name":"userTier","type":"uint8","internalType":"uint8"},{"name":"marketTier","type":"uint8","internalType":"uint8"},{"name":"expiry","type":"uint256","internalType":"uint256"},{"name":"nonce","type":"uint256","internalType":"uint256"},{"name":"modelVersion","type":"bytes32","internalType":"bytes32"}]},{"name":"signature","type":"bytes","internalType":"bytes"}],"outputs":[{"name":"","type":"bool","internalType":"bool"}],"stateMutability":"view"},{"type":"event","name":"AuthorizedCallerUpdated","inputs":[{"name":"caller","type":"address","indexed":true,"internalType":"address"},{"name":"isAuthorized","type":"bool","indexed":false,"internalType":"bool"}],"anonymous":false},{"type":"event","name":"ClaimPaid","inputs":[{"name":"insuranceId","type":"uint256","indexed":true,"internalType":"uint256"},{"name":"positionId","type":"uint256","indexed":true,"internalType":"uint256"},{"name":"beneficiary","type":"address","indexed":true,"internalType":"address"},{"name":"token","type":"address","indexed":false,"internalType":"address"},{"name":"claimAmount","type":"uint256","indexed":false,"internalType":"uint256"}],"anonymous":false},{"type":"event","name":"InsuranceActivated","inputs":[{"name":"insuranceId","type":"uint256","indexed":true,"internalType":"uint256"},{"name":"positionId","type":"uint256","indexed":true,"internalType":"uint256"},{"name":"quoteId","type":"bytes32","indexed":true,"internalType":"bytes32"},{"name":"coverageRatioBps","type":"uint256","indexed":false,"internalType":"uint256"},{"name":"premiumRateBps","type":"uint256","indexed":false,"internalType":"uint256"},{"name":"reservedAmount","type":"uint256","indexed":false,"internalType":"uint256"}],"anonymous":false},{"type":"event","name":"InsuranceCancelled","inputs":[{"name":"insuranceId","type":"uint256","indexed":true,"internalType":"uint256"},{"name":"positionId","type":"uint256","indexed":true,"internalType":"uint256"}],"anonymous":false},{"type":"event","name":"OwnershipTransferStarted","inputs":[{"name":"previousOwner","type":"address","indexed":true,"internalType":"address"},{"name":"newOwner","type":"address","indexed":true,"internalType":"address"}],"anonymous":false},{"type":"event","name":"OwnershipTransferred","inputs":[{"name":"previousOwner","type":"address","indexed":true,"internalType":"address"},{"name":"newOwner","type":"address","indexed":true,"internalType":"address"}],"anonymous":false},{"type":"event","name":"PremiumSettled","inputs":[{"name":"insuranceId","type":"uint256","indexed":true,"internalType":"uint256"},{"name":"positionId","type":"uint256","indexed":true,"internalType":"uint256"},{"name":"trader","type":"address","indexed":true,"internalType":"address"},{"name":"token","type":"address","indexed":false,"internalType":"address"},{"name":"premiumAmount","type":"uint256","indexed":false,"internalType":"uint256"}],"anonymous":false},{"type":"error","name":"CooldownActive","inputs":[]},{"type":"error","name":"CoverageNotEffective","inputs":[]},{"type":"error","name":"ExceedsMaxInsurableAmount","inputs":[]},{"type":"error","name":"InactivePosition","inputs":[]},{"type":"error","name":"InsuranceNotActive","inputs":[]},{"type":"error","name":"InvalidAddress","inputs":[]},{"type":"error","name":"InvalidCoverageRatio","inputs":[]},{"type":"error","name":"InvalidLiquidationState","inputs":[]},{"type":"error","name":"InvalidSignature","inputs":[]},{"type":"error","name":"MinHoldingNotMet","inputs":[]},{"type":"error","name":"OwnableInvalidOwner","inputs":[{"name":"owner","type":"address","internalType":"address"}]},{"type":"error","name":"OwnableUnauthorizedAccount","inputs":[{"name":"account","type":"address","internalType":"address"}]},{"type":"error","name":"QuoteAlreadyUsed","inputs":[]},{"type":"error","name":"QuoteExpired","inputs":[]},{"type":"error","name":"TransferFailed","inputs":[]},{"type":"error","name":"Unauthorized","inputs":[]},{"type":"error","name":"VaultCapacityExceeded","inputs":[]}],"bytecode":{"object":"0x60e060405234801562000010575f80fd5b506040516200296a3803806200296a833981016040819052620000339162000166565b836001600160a01b0381166200006257604051631e4fbdf760e01b81525f600482015260240160405180910390fd5b6200006d81620000dd565b506001600160a01b03831615806200008c57506001600160a01b038216155b806200009f57506001600160a01b038116155b15620000be5760405163e6c4247b60e01b815260040160405180910390fd5b6001600160a01b0392831660805290821660a0521660c05250620001c0565b600180546001600160a01b0319169055620000f881620000fb565b50565b5f80546001600160a01b038381166001600160a01b0319831681178455604051919092169283917f8be0079c531659141344cd1fd0a4f28419497f9722a3daafe3b4186f6b6457e09190a35050565b80516001600160a01b038116811462000161575f80fd5b919050565b5f805f80608085870312156200017a575f80fd5b62000185856200014a565b935062000195602086016200014a565b9250620001a5604086016200014a565b9150620001b5606086016200014a565b905092959194509250565b60805160a05160c0516126ec6200027e5f395f81816102a501528181610455015281816104810152818161054a015281816105d001526109f101525f81816101dd015281816104a2015281816104dd0152818161098e01528181610ec0015281816116a601528181611d620152611de501525f818161022c015281816112e10152818161185a015281816118fd015281816119a401528181611a4901528181611aef01528181611b9501528181611c220152611cd401526126ec5ff3fe608060405234801561000f575f80fd5b506004361061013d575f3560e01c806398f6ef12116100b4578063d9428c0811610079578063d9428c08146102fc578063e0c04c391461030f578063e30c39781461032e578063f2fde38b1461033f578063f698da2514610352578063fcb9b3941461035a575f80fd5b806398f6ef121461025e578063a7a4490214610280578063b2016bd4146102a0578063b9615b1a146102c7578063d3748921146102e9575f80fd5b80634975bf41116101055780634975bf41146101c557806356a8792d146101d8578063715018a61461021757806379ba50971461021f5780637c90a6ca146102275780638da5cb5b1461024e575f80fd5b8063197aa593146101415780631a32b9fc14610167578063316437781461018a5780633ab272041461019d578063454bbd29146101b2575b5f80fd5b61015461014f3660046121f5565b61036d565b6040519081526020015b60405180910390f35b61017a61017536600461222a565b610636565b604051901515815260200161015e565b61015461019836600461226f565b610697565b6101b06101ab3660046122b6565b610a5a565b005b6101b06101c03660046122cd565b610a94565b6101b06101d3366004612360565b610b21565b6101ff7f000000000000000000000000000000000000000000000000000000000000000081565b6040516001600160a01b03909116815260200161015e565b6101b0610f85565b6101b0610f98565b6101ff7f000000000000000000000000000000000000000000000000000000000000000081565b5f546001600160a01b03166101ff565b61017a61026c3660046123b9565b60026020525f908152604090205460ff1681565b61029361028e3660046122b6565b610fde565b60405161015e9190612408565b6101ff7f000000000000000000000000000000000000000000000000000000000000000081565b61017a6102d53660046122b6565b60046020525f908152604090205460ff1681565b6101b06102f736600461222a565b611138565b6101b061030a36600461222a565b6111b6565b61015461031d3660046123b9565b60056020525f908152604090205481565b6001546001600160a01b03166101ff565b6101b061034d3660046123b9565b61121b565b61015461128b565b61017a610368366004612527565b611299565b335f9081526002602052604081205460ff1661039b576040516282b42960e81b815260040160405180910390fd5b5f8481526003602052604090206001601382015460ff1660038111156103c3576103c36123d4565b146103e15760405163446b96e160e01b815260040160405180910390fd5b6001600160a01b0384166104085760405163e6c4247b60e01b815260040160405180910390fd5b6013810154610100900460ff1615610423575f91505061062f565b82156105af57610437838260050154611376565b915081156105af5760138101805461ff00191661010017905561047c7f0000000000000000000000000000000000000000000000000000000000000000853085611397565b6104c77f00000000000000000000000000000000000000000000000000000000000000007f00000000000000000000000000000000000000000000000000000000000000008461148c565b60405163071817bf60e21b8152600481018390527f00000000000000000000000000000000000000000000000000000000000000006001600160a01b031690631c605efc906024015f604051808303815f87803b158015610526575f80fd5b505af1158015610538573d5f803e3d5ffd5b50508254604080516001600160a01b037f00000000000000000000000000000000000000000000000000000000000000008116825260208201889052909216935088925082917f513f4321a6a862d87b2c61c348626eabd74446fe7ed80037ebc2a748659a76a3910160405180910390a45061062f565b60138101805461ff0019166101001790558054604080516001600160a01b037f0000000000000000000000000000000000000000000000000000000000000000811682526020820186905290921691879182917f513f4321a6a862d87b2c61c348626eabd74446fe7ed80037ebc2a748659a76a3910160405180910390a4505b9392505050565b335f9081526002602052604081205460ff16610664576040516282b42960e81b815260040160405180910390fd5b60015f8481526003602081905260409091206013015460ff169081111561068d5761068d6123d4565b1495945050505050565b335f9081526002602052604081205460ff166106c5576040516282b42960e81b815260040160405180910390fd5b5f8581526003602052604090206001601382015460ff1660038111156106ed576106ed6123d4565b1461070b5760405163446b96e160e01b815260040160405180910390fd5b82158061071f57506001600160a01b038516155b1561073d5760405163381e4d7d60e01b815260040160405180910390fd5b835f0361075d5760405163381e4d7d60e01b815260040160405180910390fd5b806008015481600e0154610771919061258d565b42101561079157604051633473d59b60e11b815260040160405180910390fd5b604080516102c08101825282546001600160a01b0316815260018301546020820152600283015460ff908116151592820192909252600380840154606083015260048401546080830152600584015460a0830152600684015460c0830152600784015460e08301526008840154610100808401919091526009850154610120840152600a850154610140840152600b850154610160840152600c8501548085166101808501520483166101a0830152600d8401546101c0830152600e8401546101e0830152600f84015461020083015260108401546102208301526011840154610240830152601284015461026083015260138401545f936108d69392869261028085019216908111156108a7576108a76123d4565b60038111156108b8576108b86123d4565b815260139190910154610100900460ff161515602090910152611578565b9050805f036108f85760405163108072d560e01b815260040160405180910390fd5b5f6109038683611376565b905082600d0154811061091a5782600d015461091c565b805b60138401805460ff19166002179055600984015490945015610961576009830154610947904261258d565b83546001600160a01b03165f908152600560205260409020555b6040516320db1d3d60e01b8152600481018990526001600160a01b038881166024830152604482018690527f000000000000000000000000000000000000000000000000000000000000000016906320db1d3d906064015f604051808303815f87803b1580156109cf575f80fd5b505af11580156109e1573d5f803e3d5ffd5b5050604080516001600160a01b037f000000000000000000000000000000000000000000000000000000000000000081168252602082018990528b1693508b925082917f6e20c25d9914f1729e9fafbfd71ded7b11326f9deb01c5e86f1e44aa6b063f87910160405180910390a4505050949350505050565b335f9081526002602052604090205460ff16610a88576040516282b42960e81b815260040160405180910390fd5b610a9181611633565b50565b610a9c61172d565b6001600160a01b038216610ac35760405163e6c4247b60e01b815260040160405180910390fd5b6001600160a01b0382165f81815260026020908152604091829020805460ff191685151590811790915591519182527fad857fa38c9319cb80848f1ef2f924383b90297eb5d71755738ff037d100faa1910160405180910390a25050565b335f9081526002602052604090205460ff16610b4f576040516282b42960e81b815260040160405180910390fd5b835f03610b6f57604051631f9c0ddd60e31b815260040160405180910390fd5b42836101c001351015610b9557604051638727a7f960e01b815260040160405180910390fd5b60055f610ba560208601866123b9565b6001600160a01b03166001600160a01b031681526020019081526020015f2054421015610be55760405163aa9a98df60e01b815260040160405180910390fd5b5f610bef84611759565b5f8181526004602052604090205490915060ff1615610c21576040516307387c7360e31b815260040160405180910390fd5b610c2c848484611299565b610c4957604051638baa579f60e01b815260040160405180910390fd5b5f610c64610c5f6101a0870161018088016125a0565b611856565b905060c08501351580610c7a5750808560c00135115b15610c985760405163b5019d3160e01b815260040160405180910390fd5b5f610ca28661197f565b9050801580610cb45750808660800135115b15610cd2576040516324200cd360e11b815260040160405180910390fd5b5f610cdc87611a24565b90505f610ce888611aca565b90505f610cf489611b70565b90505f610d008a611c16565b905082821015610d235760405163381e4d7d60e01b815260040160405180910390fd5b5f610d368b608001358c60c00135611376565b9050610d4181611cd1565b5f888152600460209081526040808320805460ff191660011790558e83526003825290912090610d73908d018d6123b9565b81546001600160a01b0319166001600160a01b039190911617815560208c01356001820155610da860608d0160408e016125c0565b60028201805460ff191691151591909117905560608c0135600382015560808c0135600482015560a08c0135600582015560c08c01356006820155600781018790556008810186905560098101839055600a8101859055600b8101849055610e186101a08d016101808e016125a0565b600c8201805460ff191660ff92909216919091179055610e406101c08d016101a08e016125a0565b600c8201805461ff00191661010060ff9390931692909202919091179055600d810182905542600e8201556101c08c0135600f8201556101e08c013560108201556102008c013560118201556012810189905560138101805461ffff1916600117905560405163794c23f360e01b8152600481018e9052602481018390527f00000000000000000000000000000000000000000000000000000000000000006001600160a01b03169063794c23f3906044015f604051808303815f87803b158015610f09575f80fd5b505af1158015610f1b573d5f803e3d5ffd5b50505050888d8e7fb008bf2e3a62d6e339092f89f54396f27227e3e2f57655d2932cdf7e3058d2568460060154856005015487604051610f6e939291909283526020830191909152604082015260600190565b60405180910390a450505050505050505050505050565b610f8d61172d565b610f965f611e9c565b565b60015433906001600160a01b03168114610fd55760405163118cdaa760e01b81526001600160a01b03821660048201526024015b60405180910390fd5b610a9181611e9c565b610fe6612125565b5f8281526003602081815260409283902083516102c08101855281546001600160a01b03168152600182015492810192909252600281015460ff90811615159483019490945280830154606083015260048101546080830152600581015460a0830152600681015460c0830152600781015460e08301526008810154610100808401919091526009820154610120840152600a820154610140840152600b820154610160840152600c8201548086166101808501520484166101a0830152600d8101546101c0830152600e8101546101e0830152600f81015461020083015260108101546102208301526011810154610240830152601281015461026083015260138101549193909261028085019290911690811115611108576111086123d4565b6003811115611119576111196123d4565b815260139190910154610100900460ff16151560209091015292915050565b335f9081526002602052604090205460ff16611166576040516282b42960e81b815260040160405180910390fd5b60015f8381526003602081905260409091206013015460ff169081111561118f5761118f6123d4565b036111b0575f828152600360205260409020601301805460ff191660021790555b50505050565b335f9081526002602052604090205460ff166111e4576040516282b42960e81b815260040160405180910390fd5b60015f8381526003602081905260409091206013015460ff169081111561120d5761120d6123d4565b036111b0576111b082611633565b61122361172d565b600180546001600160a01b0383166001600160a01b031990911681179091556112535f546001600160a01b031690565b6001600160a01b03167f38d16b8cac22d99fc7c124b9cd0de2d3fa1faef420bfe791d8c362d765e2270060405160405180910390a350565b5f611294611eb5565b905090565b5f42846101c0013510156112ae57505f61062f565b604182146112bd57505f61062f565b5f6112cf6112ca86611759565b611f59565b90505f6112dd828686611fa0565b90507f00000000000000000000000000000000000000000000000000000000000000006001600160a01b031663f413bdb36040518163ffffffff1660e01b8152600401602060405180830381865afa15801561133b573d5f803e3d5ffd5b505050506040513d601f19601f8201168201806040525081019061135f91906125db565b6001600160a01b0391821691161495945050505050565b5f61271061138483856125f6565b61138e919061260d565b90505b92915050565b604080516001600160a01b0385811660248301528481166044830152606480830185905283518084039091018152608490920183526020820180516001600160e01b03166323b872dd60e01b17905291515f928392908816916113fa919061262c565b5f604051808303815f865af19150503d805f8114611433576040519150601f19603f3d011682016040523d82523d5f602084013e611438565b606091505b509150915081158061146657508051158015906114665750808060200190518101906114649190612658565b155b15611484576040516312171d8360e31b815260040160405180910390fd5b505050505050565b604080516001600160a01b038481166024830152604480830185905283518084039091018152606490920183526020820180516001600160e01b031663095ea7b360e01b17905291515f928392908716916114e7919061262c565b5f604051808303815f865af19150503d805f8114611520576040519150601f19603f3d011682016040523d82523d5f602084013e611525565b606091505b509150915081158061155357508051158015906115535750808060200190518101906115519190612658565b155b15611571576040516312171d8360e31b815260040160405180910390fd5b5050505050565b5f80826101e00151421161158c575f61159c565b6101e083015161159c9042612673565b90508261014001518110156115b357505f92915050565b826101400151836101600151116115cd57505060c0015190565b82610160015181106115e257505060c0015190565b5f8361014001518461016001516115f99190612673565b90505f8461014001518361160d9190612673565b905081818660c0015161162091906125f6565b61162a919061260d565b95945050505050565b5f8181526003602052604090206001601382015460ff16600381111561165b5761165b6123d4565b146116795760405163446b96e160e01b815260040160405180910390fd5b60138101805460ff19166003179055604051634ea0efc960e01b8152600481018390526001600160a01b037f00000000000000000000000000000000000000000000000000000000000000001690634ea0efc9906024015f604051808303815f87803b1580156116e7575f80fd5b505af11580156116f9573d5f803e3d5ffd5b50506040518492508291507f24a46104d657e451226b6d841f2b9988ce177136f1d1c584d6f95e5db4f66d2d905f90a35050565b5f546001600160a01b03163314610f965760405163118cdaa760e01b8152336004820152602401610fcc565b5f8061176483612054565b90507fb30098d917f44a5d530e8dd2111068179fd4b941ce79a475beef4d8e3b63e4e661179460208501856123b9565b60208501356117a960608701604088016125c0565b6040805160208101959095526001600160a01b03909316928401929092526060838101919091529015156080838101919091529085013560a0838101919091529085013560c0838101919091529085013560e083015284013561010082015261012081018290526101c08401356101408201526101e08401356101608201526102008401356101808201526101a00160405160208183030381529060405280519060200120915050919050565b5f807f00000000000000000000000000000000000000000000000000000000000000006001600160a01b031663eae382cb6040518163ffffffff1660e01b8152600401602060405180830381865afa1580156118b4573d5f803e3d5ffd5b505050506040513d601f19601f820116820180604052508101906118d89190612686565b604051631da6dde560e11b815260ff851660048201529091505f906001600160a01b037f00000000000000000000000000000000000000000000000000000000000000001690633b4dbbca90602401602060405180830381865afa158015611942573d5f803e3d5ffd5b505050506040513d601f19601f820116820180604052508101906119669190612686565b90508082106119755780611977565b815b949350505050565b604051630b37802960e11b8152602082013560048201525f9081906001600160a01b037f0000000000000000000000000000000000000000000000000000000000000000169063166f005290602401602060405180830381865afa1580156119e9573d5f803e3d5ffd5b505050506040513d601f19601f82011682018060405250810190611a0d9190612686565b90508015611a1b578061062f565b505060e0013590565b604051634749a53560e01b8152602082013560048201525f9081906001600160a01b037f00000000000000000000000000000000000000000000000000000000000000001690634749a53590602401602060405180830381865afa158015611a8e573d5f803e3d5ffd5b505050506040513d601f19601f82011682018060405250810190611ab29190612686565b90508015611ac0578061062f565b5050610100013590565b60405163230273a160e01b8152602082013560048201525f9081906001600160a01b037f0000000000000000000000000000000000000000000000000000000000000000169063230273a190602401602060405180830381865afa158015611b34573d5f803e3d5ffd5b505050506040513d601f19601f82011682018060405250810190611b589190612686565b90508015611b66578061062f565b5050610140013590565b6040516331b7b41360e21b8152602082013560048201525f9081906001600160a01b037f0000000000000000000000000000000000000000000000000000000000000000169063c6ded04c90602401602060405180830381865afa158015611bda573d5f803e3d5ffd5b505050506040513d601f19601f82011682018060405250810190611bfe9190612686565b90508015611c0c578061062f565b5050610160013590565b5f806001600160a01b037f0000000000000000000000000000000000000000000000000000000000000000166348701869611c596101a0860161018087016125a0565b6040516001600160e01b031960e084901b16815260ff9091166004820152602401602060405180830381865afa158015611c95573d5f803e3d5ffd5b505050506040513d601f19601f82011682018060405250810190611cb99190612686565b90508015611cc7578061062f565b5050610120013590565b5f7f00000000000000000000000000000000000000000000000000000000000000006001600160a01b031663433c10096040518163ffffffff1660e01b8152600401602060405180830381865afa158015611d2e573d5f803e3d5ffd5b505050506040513d601f19601f82011682018060405250810190611d529190612686565b9050805f03611d5f575050565b5f7f00000000000000000000000000000000000000000000000000000000000000006001600160a01b03166301e1d1146040518163ffffffff1660e01b8152600401602060405180830381865afa158015611dbc573d5f803e3d5ffd5b505050506040513d601f19601f82011682018060405250810190611de09190612686565b90505f7f00000000000000000000000000000000000000000000000000000000000000006001600160a01b031663c71b0e1c6040518163ffffffff1660e01b8152600401602060405180830381865afa158015611e3f573d5f803e3d5ffd5b505050506040513d601f19601f82011682018060405250810190611e639190612686565b90505f611e708385611376565b905080611e7d868461258d565b111561157157604051630c57b57760e21b815260040160405180910390fd5b600180546001600160a01b0319169055610a91816120d6565b604080517f8b73c3c69bb8fe3d512ecc4cf759cc79239f7b179b0ffacaa9a75d522b39400f60208201527ff788b8a4d26cb9b7649b5feca9391f3945fe5286523d352be9423ac9507dd5f2918101919091527fc89efdaa54c0f20c7adf612882df0950f5a951637e0307cdcb4c672f298b8bc660608201524660808201523060a08201525f9060c00160405160208183030381529060405280519060200120905090565b5f611f62611eb5565b60405161190160f01b60208201526022810191909152604281018390526062015b604051602081830303815290604052805190602001209050919050565b5f823560208401356040850135831a601b811015611fc657611fc3601b8261269d565b90505b8060ff16601b14158015611fde57508060ff16601c14155b15611fee575f935050505061062f565b604080515f81526020810180835289905260ff831691810191909152606081018490526080810183905260019060a0016020604051602081039080840390855afa15801561203e573d5f803e3d5ffd5b5050604051601f19015198975050505050505050565b5f60e08201356101008301356101208401356101408501356101608601356120846101a0880161018089016125a0565b6120966101c089016101a08a016125a0565b6040805160208101989098528701959095526060860193909352608085019190915260a084015260ff90811660c08401521660e082015261010001611f83565b5f80546001600160a01b038381166001600160a01b0319831681178455604051919092169283917f8be0079c531659141344cd1fd0a4f28419497f9722a3daafe3b4186f6b6457e09190a35050565b604051806102c001604052805f6001600160a01b031681526020015f80191681526020015f151581526020015f81526020015f81526020015f81526020015f81526020015f81526020015f81526020015f81526020015f81526020015f81526020015f60ff1681526020015f60ff1681526020015f81526020015f81526020015f81526020015f81526020015f80191681526020015f80191681526020015f60038111156121d5576121d56123d4565b81525f60209091015290565b6001600160a01b0381168114610a91575f80fd5b5f805f60608486031215612207575f80fd5b833592506020840135612219816121e1565b929592945050506040919091013590565b5f805f806080858703121561223d575f80fd5b8435612248816121e1565b966020860135965060408601359560600135945092505050565b8015158114610a91575f80fd5b5f805f8060808587031215612282575f80fd5b843593506020850135612294816121e1565b92506040850135915060608501356122ab81612262565b939692955090935050565b5f602082840312156122c6575f80fd5b5035919050565b5f80604083850312156122de575f80fd5b82356122e9816121e1565b915060208301356122f981612262565b809150509250929050565b5f6102208284031215612315575f80fd5b50919050565b5f8083601f84011261232b575f80fd5b50813567ffffffffffffffff811115612342575f80fd5b602083019150836020828501011115612359575f80fd5b9250929050565b5f805f806102608587031215612374575f80fd5b843593506123858660208701612304565b925061024085013567ffffffffffffffff8111156123a1575f80fd5b6123ad8782880161231b565b95989497509550505050565b5f602082840312156123c9575f80fd5b813561062f816121e1565b634e487b7160e01b5f52602160045260245ffd5b6004811061240457634e487b7160e01b5f52602160045260245ffd5b9052565b81516001600160a01b031681526102c08101602083015160208301526040830151612437604084018215159052565b50606083015160608301526080830151608083015260a083015160a083015260c083015160c083015260e083015160e0830152610100808401518184015250610120808401518184015250610140808401518184015250610160808401518184015250610180808401516124af8285018260ff169052565b50506101a08381015160ff16908301526101c080840151908301526101e08084015190830152610200808401519083015261022080840151908301526102408084015190830152610260808401519083015261028080840151612514828501826123e8565b50506102a0928301511515919092015290565b5f805f610240848603121561253a575f80fd5b6125448585612304565b925061022084013567ffffffffffffffff811115612560575f80fd5b61256c8682870161231b565b9497909650939450505050565b634e487b7160e01b5f52601160045260245ffd5b8082018082111561139157611391612579565b5f602082840312156125b0575f80fd5b813560ff8116811461062f575f80fd5b5f602082840312156125d0575f80fd5b813561062f81612262565b5f602082840312156125eb575f80fd5b815161062f816121e1565b808202811582820484141761139157611391612579565b5f8261262757634e487b7160e01b5f52601260045260245ffd5b500490565b5f82515f5b8181101561264b5760208186018101518583015201612631565b505f920191825250919050565b5f60208284031215612668575f80fd5b815161062f81612262565b8181038181111561139157611391612579565b5f60208284031215612696575f80fd5b5051919050565b60ff81811683821601908111156113915761139161257956fea26469706673582212202258c240e773892e25f1cec1f4064252ed76fcbb33f7d8397fa45fb13746f92264736f6c63430008180033","linkReferences":{}},"methodIdentifiers":{"acceptOwnership()":"79ba5097","authorizedCaller(address)":"98f6ef12","cancelCoverageOnClose(uint256)":"3ab27204","collateralToken()":"b2016bd4","domainSeparator()":"f698da25","getCoverage(uint256)":"a7a44902","onPositionClosed(address,bytes32,uint256,bytes32)":"d9428c08","onPositionLiquidated(address,bytes32,uint256,bytes32)":"d3748921","onPositionOpened(address,bytes32,uint256,bytes32)":"1a32b9fc","owner()":"8da5cb5b","pendingOwner()":"e30c3978","processLiquidationClaim(uint256,address,uint256,bool)":"31643778","registerCoverage(uint256,(address,bytes32,bool,uint256,uint256,uint256,uint256,uint256,uint256,uint256,uint256,uint256,uint8,uint8,uint256,uint256,bytes32),bytes)":"4975bf41","renounceOwnership()":"715018a6","riskConfig()":"7c90a6ca","riskVault()":"56a8792d","setAuthorizedCaller(address,bool)":"454bbd29","settlePremiumOnProfit(uint256,address,uint256)":"197aa593","transferOwnership(address)":"f2fde38b","usedQuotes(bytes32)":"b9615b1a","userCooldownUntil(address)":"e0c04c39","verifyQuote((address,bytes32,bool,uint256,uint256,uint256,uint256,uint256,uint256,uint256,uint256,uint256,uint8,uint8,uint256,uint256,bytes32),bytes)":"fcb9b394"},"id":1}