{"abi":[{"type":"constructor","inputs":[{"name":"initialOwner","type":"address","internalType":"address"},{"name":"riskConfig_","type":"address","internalType":"address"},{"name":"riskVault_","type":"address","internalType":"address"},{"name":"collateralToken_","type":"address","internalType":"address"}],"stateMutability":"nonpayable"},{"type":"function","name":"acceptOwnership","inputs":[],"outputs":[],"stateMutability":"nonpayable"},{"type":"function","name":"authorizedCaller","inputs":[{"name":"caller","type":"address","internalType":"address"}],"outputs":[{"name":"isAuthorized","type":"bool","internalType":"bool"}],"stateMutability":"view"},{"type":"function","name":"benefitNFT","inputs":[],"outputs":[{"name":"","type":"address","internalType":"address"}],"stateMutability":"view"},{"type":"function","name":"cancelCoverageOnClose","inputs":[{"name":"positionId","type":"uint256","internalType":"uint256"}],"outputs":[],"stateMutability":"nonpayable"},{"type":"function","name":"collateralToken","inputs":[],"outputs":[{"name":"","type":"address","internalType":"address"}],"stateMutability":"view"},{"type":"function","name":"domainSeparator","inputs":[],"outputs":[{"name":"","type":"bytes32","internalType":"bytes32"}],"stateMutability":"view"},{"type":"function","name":"getCoverage","inputs":[{"name":"positionId","type":"uint256","internalType":"uint256"}],"outputs":[{"name":"","type":"tuple","internalType":"struct InsuranceController.CoverageSnapshot","components":[{"name":"user","type":"address","internalType":"address"},{"name":"marketId","type":"bytes32","internalType":"bytes32"},{"name":"side","type":"bool","internalType":"bool"},{"name":"leverageX18","type":"uint256","internalType":"uint256"},{"name":"sizeUsdX18","type":"uint256","internalType":"uint256"},{"name":"premiumBps","type":"uint256","internalType":"uint256"},{"name":"coverageRatioBps","type":"uint256","internalType":"uint256"},{"name":"maxInsurableAmount","type":"uint256","internalType":"uint256"},{"name":"minHoldingTime","type":"uint256","internalType":"uint256"},{"name":"cooldownSeconds","type":"uint256","internalType":"uint256"},{"name":"activationDelay","type":"uint256","internalType":"uint256"},{"name":"fullActivationDelay","type":"uint256","internalType":"uint256"},{"name":"userTier","type":"uint8","internalType":"uint8"},{"name":"marketTier","type":"uint8","internalType":"uint8"},{"name":"reservedAmount","type":"uint256","internalType":"uint256"},{"name":"activatedAt","type":"uint256","internalType":"uint256"},{"name":"quoteExpiry","type":"uint256","internalType":"uint256"},{"name":"quoteNonce","type":"uint256","internalType":"uint256"},{"name":"benefitTokenId","type":"uint256","internalType":"uint256"},{"name":"premiumDiscountBps","type":"uint256","internalType":"uint256"},{"name":"liquidationProtectionBoostBps","type":"uint256","internalType":"uint256"},{"name":"modelVersion","type":"bytes32","internalType":"bytes32"},{"name":"quoteHash","type":"bytes32","internalType":"bytes32"},{"name":"status","type":"uint8","internalType":"enum Types.InsuranceStatus"},{"name":"premiumSettled","type":"bool","internalType":"bool"}]}],"stateMutability":"view"},{"type":"function","name":"onPositionClosed","inputs":[{"name":"","type":"address","internalType":"address"},{"name":"","type":"bytes32","internalType":"bytes32"},{"name":"positionId","type":"uint256","internalType":"uint256"},{"name":"","type":"bytes32","internalType":"bytes32"}],"outputs":[],"stateMutability":"nonpayable"},{"type":"function","name":"onPositionLiquidated","inputs":[{"name":"","type":"address","internalType":"address"},{"name":"","type":"bytes32","internalType":"bytes32"},{"name":"positionId","type":"uint256","internalType":"uint256"},{"name":"","type":"bytes32","internalType":"bytes32"}],"outputs":[],"stateMutability":"nonpayable"},{"type":"function","name":"onPositionOpened","inputs":[{"name":"","type":"address","internalType":"address"},{"name":"","type":"bytes32","internalType":"bytes32"},{"name":"positionId","type":"uint256","internalType":"uint256"},{"name":"","type":"bytes32","internalType":"bytes32"}],"outputs":[{"name":"","type":"bool","internalType":"bool"}],"stateMutability":"view"},{"type":"function","name":"owner","inputs":[],"outputs":[{"name":"","type":"address","internalType":"address"}],"stateMutability":"view"},{"type":"function","name":"pendingOwner","inputs":[],"outputs":[{"name":"","type":"address","internalType":"address"}],"stateMutability":"view"},{"type":"function","name":"processLiquidationClaim","inputs":[{"name":"positionId","type":"uint256","internalType":"uint256"},{"name":"recipient","type":"address","internalType":"address"},{"name":"realizedLoss","type":"uint256","internalType":"uint256"},{"name":"eligible","type":"bool","internalType":"bool"}],"outputs":[{"name":"claimPaid","type":"uint256","internalType":"uint256"}],"stateMutability":"nonpayable"},{"type":"function","name":"registerCoverage","inputs":[{"name":"positionId","type":"uint256","internalType":"uint256"},{"name":"quote","type":"tuple","internalType":"struct IInsuranceController.SignedInsuranceQuote","components":[{"name":"user","type":"address","internalType":"address"},{"name":"marketId","type":"bytes32","internalType":"bytes32"},{"name":"side","type":"bool","internalType":"bool"},{"name":"leverageX18","type":"uint256","internalType":"uint256"},{"name":"sizeUsdX18","type":"uint256","internalType":"uint256"},{"name":"premiumBps","type":"uint256","internalType":"uint256"},{"name":"coverageRatioBps","type":"uint256","internalType":"uint256"},{"name":"maxInsurableAmount","type":"uint256","internalType":"uint256"},{"name":"minHoldingTime","type":"uint256","internalType":"uint256"},{"name":"cooldownSeconds","type":"uint256","internalType":"uint256"},{"name":"activationDelay","type":"uint256","internalType":"uint256"},{"name":"fullActivationDelay","type":"uint256","internalType":"uint256"},{"name":"userTier","type":"uint8","internalType":"uint8"},{"name":"marketTier","type":"uint8","internalType":"uint8"},{"name":"expiry","type":"uint256","internalType":"uint256"},{"name":"nonce","type":"uint256","internalType":"uint256"},{"name":"modelVersion","type":"bytes32","internalType":"bytes32"}]},{"name":"signature","type":"bytes","internalType":"bytes"}],"outputs":[],"stateMutability":"nonpayable"},{"type":"function","name":"renounceOwnership","inputs":[],"outputs":[],"stateMutability":"nonpayable"},{"type":"function","name":"riskConfig","inputs":[],"outputs":[{"name":"","type":"address","internalType":"address"}],"stateMutability":"view"},{"type":"function","name":"riskVault","inputs":[],"outputs":[{"name":"","type":"address","internalType":"address"}],"stateMutability":"view"},{"type":"function","name":"setAuthorizedCaller","inputs":[{"name":"caller","type":"address","internalType":"address"},{"name":"isAuthorized","type":"bool","internalType":"bool"}],"outputs":[],"stateMutability":"nonpayable"},{"type":"function","name":"setBenefitNFT","inputs":[{"name":"newBenefitNFT","type":"address","internalType":"address"}],"outputs":[],"stateMutability":"nonpayable"},{"type":"function","name":"settlePremiumOnProfit","inputs":[{"name":"positionId","type":"uint256","internalType":"uint256"},{"name":"payer","type":"address","internalType":"address"},{"name":"realizedProfit","type":"uint256","internalType":"uint256"}],"outputs":[{"name":"premiumCharged","type":"uint256","internalType":"uint256"}],"stateMutability":"nonpayable"},{"type":"function","name":"transferOwnership","inputs":[{"name":"newOwner","type":"address","internalType":"address"}],"outputs":[],"stateMutability":"nonpayable"},{"type":"function","name":"usedQuotes","inputs":[{"name":"quoteHash","type":"bytes32","internalType":"bytes32"}],"outputs":[{"name":"used","type":"bool","internalType":"bool"}],"stateMutability":"view"},{"type":"function","name":"userCooldownUntil","inputs":[{"name":"user","type":"address","internalType":"address"}],"outputs":[{"name":"untilTimestamp","type":"uint256","internalType":"uint256"}],"stateMutability":"view"},{"type":"function","name":"verifyQuote","inputs":[{"name":"quote","type":"tuple","internalType":"struct IInsuranceController.SignedInsuranceQuote","components":[{"name":"user","type":"address","internalType":"address"},{"name":"marketId","type":"bytes32","internalType":"bytes32"},{"name":"side","type":"bool","internalType":"bool"},{"name":"leverageX18","type":"uint256","internalType":"uint256"},{"name":"sizeUsdX18","type":"uint256","internalType":"uint256"},{"name":"premiumBps","type":"uint256","internalType":"uint256"},{"name":"coverageRatioBps","type":"uint256","internalType":"uint256"},{"name":"maxInsurableAmount","type":"uint256","internalType":"uint256"},{"name":"minHoldingTime","type":"uint256","internalType":"uint256"},{"name":"cooldownSeconds","type":"uint256","internalType":"uint256"},{"name":"activationDelay","type":"uint256","internalType":"uint256"},{"name":"fullActivationDelay","type":"uint256","internalType":"uint256"},{"name":"userTier","type":"uint8","internalType":"uint8"},{"name":"marketTier","type":"uint8","internalType":"uint8"},{"name":"expiry","type":"uint256","internalType":"uint256"},{"name":"nonce","type":"uint256","internalType":"uint256"},{"name":"modelVersion","type":"bytes32","internalType":"bytes32"}]},{"name":"signature","type":"bytes","internalType":"bytes"}],"outputs":[{"name":"","type":"bool","internalType":"bool"}],"stateMutability":"view"},{"type":"event","name":"AuthorizedCallerUpdated","inputs":[{"name":"caller","type":"address","indexed":true,"internalType":"address"},{"name":"isAuthorized","type":"bool","indexed":false,"internalType":"bool"}],"anonymous":false},{"type":"event","name":"BenefitNFTUpdated","inputs":[{"name":"previousBenefitNFT","type":"address","indexed":true,"internalType":"address"},{"name":"newBenefitNFT","type":"address","indexed":true,"internalType":"address"}],"anonymous":false},{"type":"event","name":"ClaimPaid","inputs":[{"name":"insuranceId","type":"uint256","indexed":true,"internalType":"uint256"},{"name":"positionId","type":"uint256","indexed":true,"internalType":"uint256"},{"name":"beneficiary","type":"address","indexed":true,"internalType":"address"},{"name":"token","type":"address","indexed":false,"internalType":"address"},{"name":"claimAmount","type":"uint256","indexed":false,"internalType":"uint256"}],"anonymous":false},{"type":"event","name":"InsuranceActivated","inputs":[{"name":"insuranceId","type":"uint256","indexed":true,"internalType":"uint256"},{"name":"positionId","type":"uint256","indexed":true,"internalType":"uint256"},{"name":"quoteId","type":"bytes32","indexed":true,"internalType":"bytes32"},{"name":"coverageRatioBps","type":"uint256","indexed":false,"internalType":"uint256"},{"name":"premiumRateBps","type":"uint256","indexed":false,"internalType":"uint256"},{"name":"reservedAmount","type":"uint256","indexed":false,"internalType":"uint256"}],"anonymous":false},{"type":"event","name":"InsuranceCancelled","inputs":[{"name":"insuranceId","type":"uint256","indexed":true,"internalType":"uint256"},{"name":"positionId","type":"uint256","indexed":true,"internalType":"uint256"}],"anonymous":false},{"type":"event","name":"OwnershipTransferStarted","inputs":[{"name":"previousOwner","type":"address","indexed":true,"internalType":"address"},{"name":"newOwner","type":"address","indexed":true,"internalType":"address"}],"anonymous":false},{"type":"event","name":"OwnershipTransferred","inputs":[{"name":"previousOwner","type":"address","indexed":true,"internalType":"address"},{"name":"newOwner","type":"address","indexed":true,"internalType":"address"}],"anonymous":false},{"type":"event","name":"PremiumSettled","inputs":[{"name":"insuranceId","type":"uint256","indexed":true,"internalType":"uint256"},{"name":"positionId","type":"uint256","indexed":true,"internalType":"uint256"},{"name":"trader","type":"address","indexed":true,"internalType":"address"},{"name":"token","type":"address","indexed":false,"internalType":"address"},{"name":"premiumAmount","type":"uint256","indexed":false,"internalType":"uint256"}],"anonymous":false},{"type":"error","name":"CooldownActive","inputs":[]},{"type":"error","name":"CoverageNotEffective","inputs":[]},{"type":"error","name":"ExceedsMaxInsurableAmount","inputs":[]},{"type":"error","name":"InactivePosition","inputs":[]},{"type":"error","name":"InsuranceNotActive","inputs":[]},{"type":"error","name":"InvalidAddress","inputs":[]},{"type":"error","name":"InvalidCoverageRatio","inputs":[]},{"type":"error","name":"InvalidLiquidationState","inputs":[]},{"type":"error","name":"InvalidSignature","inputs":[]},{"type":"error","name":"MinHoldingNotMet","inputs":[]},{"type":"error","name":"OwnableInvalidOwner","inputs":[{"name":"owner","type":"address","internalType":"address"}]},{"type":"error","name":"OwnableUnauthorizedAccount","inputs":[{"name":"account","type":"address","internalType":"address"}]},{"type":"error","name":"QuoteAlreadyUsed","inputs":[]},{"type":"error","name":"QuoteExpired","inputs":[]},{"type":"error","name":"TransferFailed","inputs":[]},{"type":"error","name":"Unauthorized","inputs":[]},{"type":"error","name":"VaultCapacityExceeded","inputs":[]}],"bytecode":{"object":"0x60e060405234801562000010575f80fd5b5060405162002c7538038062002c75833981016040819052620000339162000166565b836001600160a01b0381166200006257604051631e4fbdf760e01b81525f600482015260240160405180910390fd5b6200006d81620000dd565b506001600160a01b03831615806200008c57506001600160a01b038216155b806200009f57506001600160a01b038116155b15620000be5760405163e6c4247b60e01b815260040160405180910390fd5b6001600160a01b0392831660805290821660a0521660c05250620001c0565b600180546001600160a01b0319169055620000f881620000fb565b50565b5f80546001600160a01b038381166001600160a01b0319831681178455604051919092169283917f8be0079c531659141344cd1fd0a4f28419497f9722a3daafe3b4186f6b6457e09190a35050565b80516001600160a01b038116811462000161575f80fd5b919050565b5f805f80608085870312156200017a575f80fd5b62000185856200014a565b935062000195602086016200014a565b9250620001a5604086016200014a565b9150620001b5606086016200014a565b905092959194509250565b60805160a05160c0516129f76200027e5f395f81816102e101528181610491015281816104bd015281816105860152818161060c0152610a4c01525f818161021e015281816104de01528181610519015281816109e901528181610f4f015281816117a001528181611ca10152611d2401525f8181610255015281816113db01528181611954015281816119f701528181611c1301528181611e0001528181611ea501528181611f320152818161200601526120ac01526129f75ff3fe608060405234801561000f575f80fd5b5060043610610153575f3560e01c806398f6ef12116100bf578063d9428c0811610079578063d9428c0814610338578063e0c04c391461034b578063e30c39781461036a578063f2fde38b1461037b578063f698da251461038e578063fcb9b39414610396575f80fd5b806398f6ef1214610287578063a61b1c76146102a9578063a7a44902146102bc578063b2016bd4146102dc578063b9615b1a14610303578063d374892114610325575f80fd5b80634975bf41116101105780634975bf411461020657806356a8792d14610219578063715018a61461024057806379ba5097146102485780637c90a6ca146102505780638da5cb5b14610277575f80fd5b80630a89a2c014610157578063197aa593146101875780631a32b9fc146101a857806331643778146101cb5780633ab27204146101de578063454bbd29146101f3575b5f80fd5b60025461016a906001600160a01b031681565b6040516001600160a01b0390911681526020015b60405180910390f35b61019a610195366004612498565b6103a9565b60405190815260200161017e565b6101bb6101b63660046124cd565b610672565b604051901515815260200161017e565b61019a6101d9366004612512565b6106d1565b6101f16101ec366004612559565b610ab5565b005b6101f1610201366004612570565b610aef565b6101f1610214366004612603565b610b7c565b61016a7f000000000000000000000000000000000000000000000000000000000000000081565b6101f1611008565b6101f161101b565b61016a7f000000000000000000000000000000000000000000000000000000000000000081565b5f546001600160a01b031661016a565b6101bb61029536600461265c565b60036020525f908152604090205460ff1681565b6101f16102b736600461265c565b611061565b6102cf6102ca366004612559565b6110ba565b60405161017e91906126ab565b61016a7f000000000000000000000000000000000000000000000000000000000000000081565b6101bb610311366004612559565b60056020525f908152604090205460ff1681565b6101f16103333660046124cd565b611236565b6101f16103463660046124cd565b6112b2565b61019a61035936600461265c565b60066020525f908152604090205481565b6001546001600160a01b031661016a565b6101f161038936600461265c565b611315565b61019a611385565b6101bb6103a43660046127eb565b611393565b335f9081526003602052604081205460ff166103d7576040516282b42960e81b815260040160405180910390fd5b5f8481526004602052604090206001601682015460ff1660038111156103ff576103ff612677565b1461041d5760405163446b96e160e01b815260040160405180910390fd5b6001600160a01b0384166104445760405163e6c4247b60e01b815260040160405180910390fd5b6016810154610100900460ff161561045f575f91505061066b565b82156105eb57610473838260050154611470565b915081156105eb5760168101805461ff0019166101001790556104b87f0000000000000000000000000000000000000000000000000000000000000000853085611491565b6105037f00000000000000000000000000000000000000000000000000000000000000007f000000000000000000000000000000000000000000000000000000000000000084611586565b60405163071817bf60e21b8152600481018390527f00000000000000000000000000000000000000000000000000000000000000006001600160a01b031690631c605efc906024015f604051808303815f87803b158015610562575f80fd5b505af1158015610574573d5f803e3d5ffd5b50508254604080516001600160a01b037f00000000000000000000000000000000000000000000000000000000000000008116825260208201889052909216935088925082917f513f4321a6a862d87b2c61c348626eabd74446fe7ed80037ebc2a748659a76a3910160405180910390a45061066b565b60168101805461ff0019166101001790558054604080516001600160a01b037f0000000000000000000000000000000000000000000000000000000000000000811682526020820186905290921691879182917f513f4321a6a862d87b2c61c348626eabd74446fe7ed80037ebc2a748659a76a3910160405180910390a4505b9392505050565b335f9081526003602052604081205460ff166106a0576040516282b42960e81b815260040160405180910390fd5b60015f8481526004602052604090206016015460ff1660038111156106c7576106c7612677565b1495945050505050565b335f9081526003602052604081205460ff166106ff576040516282b42960e81b815260040160405180910390fd5b5f8581526004602052604090206001601682015460ff16600381111561072757610727612677565b146107455760405163446b96e160e01b815260040160405180910390fd5b82158061075957506001600160a01b038516155b156107775760405163381e4d7d60e01b815260040160405180910390fd5b835f036107975760405163381e4d7d60e01b815260040160405180910390fd5b806008015481600e01546107ab9190612851565b4210156107cb57604051633473d59b60e11b815260040160405180910390fd5b604080516103208101825282546001600160a01b0316815260018301546020820152600283015460ff908116151592820192909252600380840154606083015260048401546080830152600584015460a0830152600684015460c0830152600784015460e08301526008840154610100808401919091526009850154610120840152600a850154610140840152600b850154610160840152600c8501548085166101808501520483166101a0830152600d8401546101c0830152600e8401546101e0830152600f840154610200830152601084015461022083015260118401546102408301526012840154610260830152601384015461028083015260148401546102a083015260158401546102c083015260168401545f93610931939286926102e0850192169081111561090257610902612677565b600381111561091357610913612677565b815260169190910154610100900460ff161515602090910152611672565b9050805f036109535760405163108072d560e01b815260040160405180910390fd5b5f61095e8683611470565b905082600d015481106109755782600d0154610977565b805b60168401805460ff191660021790556009840154909450156109bc5760098301546109a29042612851565b83546001600160a01b03165f908152600660205260409020555b6040516320db1d3d60e01b8152600481018990526001600160a01b038881166024830152604482018690527f000000000000000000000000000000000000000000000000000000000000000016906320db1d3d906064015f604051808303815f87803b158015610a2a575f80fd5b505af1158015610a3c573d5f803e3d5ffd5b5050604080516001600160a01b037f000000000000000000000000000000000000000000000000000000000000000081168252602082018990528b1693508b925082917f6e20c25d9914f1729e9fafbfd71ded7b11326f9deb01c5e86f1e44aa6b063f87910160405180910390a4505050949350505050565b335f9081526003602052604090205460ff16610ae3576040516282b42960e81b815260040160405180910390fd5b610aec8161172d565b50565b610af7611827565b6001600160a01b038216610b1e5760405163e6c4247b60e01b815260040160405180910390fd5b6001600160a01b0382165f81815260036020908152604091829020805460ff191685151590811790915591519182527fad857fa38c9319cb80848f1ef2f924383b90297eb5d71755738ff037d100faa1910160405180910390a25050565b335f9081526003602052604090205460ff16610baa576040516282b42960e81b815260040160405180910390fd5b835f03610bca57604051631f9c0ddd60e31b815260040160405180910390fd5b42836101c001351015610bf057604051638727a7f960e01b815260040160405180910390fd5b60065f610c00602086018661265c565b6001600160a01b03166001600160a01b031681526020019081526020015f2054421015610c405760405163aa9a98df60e01b815260040160405180910390fd5b5f610c4a84611853565b5f8181526005602052604090205490915060ff1615610c7c576040516307387c7360e31b815260040160405180910390fd5b610c87848484611393565b610ca457604051638baa579f60e01b815260040160405180910390fd5b5f610cbf610cba6101a087016101808801612864565b611950565b905060c08501351580610cd55750808560c00135115b15610cf35760405163b5019d3160e01b815260040160405180910390fd5b5f610d13610d04602088018861265c565b8760a001358860c00135611a79565b90505f610d2887608001358360800151611470565b9050610d3381611c10565b5f848152600560209081526040808320805460ff191660011790558a83526004825290912090610d659089018961265c565b81546001600160a01b0319166001600160a01b039190911617815560208801356001820155610d9a6060890160408a01612884565b60028201805460ff191691151591909117905560608881013560038301556080808a013560048401559084015160058301558301516006820155610ddd88611ddb565b600782018190551580610df7575080600701548860800135115b15610e15576040516324200cd360e11b815260040160405180910390fd5b610e1e88611e80565b6008820155610e2c88611f26565b6009820155610e3a88611fe1565b600a820155610e4888612087565b600b8201819055600a8201541115610e735760405163381e4d7d60e01b815260040160405180910390fd5b610e856101a089016101808a01612864565b600c8201805460ff191660ff92909216919091179055610ead6101c089016101a08a01612864565b600c8201805461ff00191661010060ff9390931692909202919091179055600d810182905542600e8201556101c0880135600f8201556101e088013560108201558251601182015560208301516012820155604080840151601383015561020089013560148301556015820186905560168201805461ffff191660011790555163794c23f360e01b8152600481018a9052602481018390526001600160a01b037f0000000000000000000000000000000000000000000000000000000000000000169063794c23f3906044015f604051808303815f87803b158015610f90575f80fd5b505af1158015610fa2573d5f803e3d5ffd5b5050505084898a7fb008bf2e3a62d6e339092f89f54396f27227e3e2f57655d2932cdf7e3058d2568460060154856005015487604051610ff5939291909283526020830191909152604082015260600190565b60405180910390a4505050505050505050565b611010611827565b6110195f61212d565b565b60015433906001600160a01b031681146110585760405163118cdaa760e01b81526001600160a01b03821660048201526024015b60405180910390fd5b610aec8161212d565b611069611827565b600280546001600160a01b038381166001600160a01b0319831681179093556040519116919082907f4aba22d1e550a2844004df5bf46eed5e37aefb846f2d2cc32a5e9ac87f44e17e905f90a35050565b6110c26123b6565b5f8281526004602081815260409283902083516103208101855281546001600160a01b03168152600182015492810192909252600281015460ff9081161515948301949094526003808201546060840152928101546080830152600581015460a0830152600681015460c0830152600781015460e08301526008810154610100808401919091526009820154610120840152600a820154610140840152600b820154610160840152600c8201548086166101808501520484166101a0830152600d8101546101c0830152600e8101546101e0830152600f810154610200830152601081015461022083015260118101546102408301526012810154610260830152601381015461028083015260148101546102a083015260158101546102c08301526016810154919390926102e08501929091169081111561120657611206612677565b600381111561121757611217612677565b815260169190910154610100900460ff16151560209091015292915050565b335f9081526003602052604090205460ff16611264576040516282b42960e81b815260040160405180910390fd5b60015f8381526004602052604090206016015460ff16600381111561128b5761128b612677565b036112ac575f828152600460205260409020601601805460ff191660021790555b50505050565b335f9081526003602052604090205460ff166112e0576040516282b42960e81b815260040160405180910390fd5b60015f8381526004602052604090206016015460ff16600381111561130757611307612677565b036112ac576112ac8261172d565b61131d611827565b600180546001600160a01b0383166001600160a01b0319909116811790915561134d5f546001600160a01b031690565b6001600160a01b03167f38d16b8cac22d99fc7c124b9cd0de2d3fa1faef420bfe791d8c362d765e2270060405160405180910390a350565b5f61138e612146565b905090565b5f42846101c0013510156113a857505f61066b565b604182146113b757505f61066b565b5f6113c96113c486611853565b6121ea565b90505f6113d7828686612231565b90507f00000000000000000000000000000000000000000000000000000000000000006001600160a01b031663f413bdb36040518163ffffffff1660e01b8152600401602060405180830381865afa158015611435573d5f803e3d5ffd5b505050506040513d601f19601f82011682018060405250810190611459919061289f565b6001600160a01b0391821691161495945050505050565b5f61271061147e83856128ba565b61148891906128d1565b90505b92915050565b604080516001600160a01b0385811660248301528481166044830152606480830185905283518084039091018152608490920183526020820180516001600160e01b03166323b872dd60e01b17905291515f928392908816916114f491906128f0565b5f604051808303815f865af19150503d805f811461152d576040519150601f19603f3d011682016040523d82523d5f602084013e611532565b606091505b5091509150811580611560575080511580159061156057508080602001905181019061155e919061291c565b155b1561157e576040516312171d8360e31b815260040160405180910390fd5b505050505050565b604080516001600160a01b038481166024830152604480830185905283518084039091018152606490920183526020820180516001600160e01b031663095ea7b360e01b17905291515f928392908716916115e191906128f0565b5f604051808303815f865af19150503d805f811461161a576040519150601f19603f3d011682016040523d82523d5f602084013e61161f565b606091505b509150915081158061164d575080511580159061164d57508080602001905181019061164b919061291c565b155b1561166b576040516312171d8360e31b815260040160405180910390fd5b5050505050565b5f80826101e001514211611686575f611696565b6101e08301516116969042612937565b90508261014001518110156116ad57505f92915050565b826101400151836101600151116116c757505060c0015190565b82610160015181106116dc57505060c0015190565b5f8361014001518461016001516116f39190612937565b90505f846101400151836117079190612937565b905081818660c0015161171a91906128ba565b61172491906128d1565b95945050505050565b5f8181526004602052604090206001601682015460ff16600381111561175557611755612677565b146117735760405163446b96e160e01b815260040160405180910390fd5b60168101805460ff19166003179055604051634ea0efc960e01b8152600481018390526001600160a01b037f00000000000000000000000000000000000000000000000000000000000000001690634ea0efc9906024015f604051808303815f87803b1580156117e1575f80fd5b505af11580156117f3573d5f803e3d5ffd5b50506040518492508291507f24a46104d657e451226b6d841f2b9988ce177136f1d1c584d6f95e5db4f66d2d905f90a35050565b5f546001600160a01b031633146110195760405163118cdaa760e01b815233600482015260240161104f565b5f8061185e836122e5565b90507fb30098d917f44a5d530e8dd2111068179fd4b941ce79a475beef4d8e3b63e4e661188e602085018561265c565b60208501356118a36060870160408801612884565b6040805160208101959095526001600160a01b03909316928401929092526060838101919091529015156080838101919091529085013560a0838101919091529085013560c0838101919091529085013560e083015284013561010082015261012081018290526101c08401356101408201526101e08401356101608201526102008401356101808201526101a00160405160208183030381529060405280519060200120915050919050565b5f807f00000000000000000000000000000000000000000000000000000000000000006001600160a01b031663eae382cb6040518163ffffffff1660e01b8152600401602060405180830381865afa1580156119ae573d5f803e3d5ffd5b505050506040513d601f19601f820116820180604052508101906119d2919061294a565b604051631da6dde560e11b815260ff851660048201529091505f906001600160a01b037f00000000000000000000000000000000000000000000000000000000000000001690633b4dbbca90602401602060405180830381865afa158015611a3c573d5f803e3d5ffd5b505050506040513d601f19601f82011682018060405250810190611a60919061294a565b9050808210611a6f5780611a71565b815b949350505050565b611aa66040518060a001604052805f81526020015f81526020015f81526020015f81526020015f81525090565b6002546001600160a01b0316611ac957606081018390526080810182905261066b565b60025460405163e2c0242960e01b81526001600160a01b0386811660048301529091169063e2c0242990602401602060405180830381865afa158015611b11573d5f803e3d5ffd5b505050506040513d601f19601f82011682018060405250810190611b35919061294a565b81526002546040516339e7df9d60e11b81526001600160a01b0386811660048301525f9283929116906373cfbf3a906024016040805180830381865afa158015611b81573d5f803e3d5ffd5b505050506040513d601f19601f82011682018060405250810190611ba59190612977565b61ffff80831660208701819052908216604087015291935091508511611bcb575f611bda565b6020830151611bda9086612937565b60608401526040830151611bee9085612851565b608084018190526127101015611c075761271060808401525b50509392505050565b5f7f00000000000000000000000000000000000000000000000000000000000000006001600160a01b031663433c10096040518163ffffffff1660e01b8152600401602060405180830381865afa158015611c6d573d5f803e3d5ffd5b505050506040513d601f19601f82011682018060405250810190611c91919061294a565b9050805f03611c9e575050565b5f7f00000000000000000000000000000000000000000000000000000000000000006001600160a01b03166301e1d1146040518163ffffffff1660e01b8152600401602060405180830381865afa158015611cfb573d5f803e3d5ffd5b505050506040513d601f19601f82011682018060405250810190611d1f919061294a565b90505f7f00000000000000000000000000000000000000000000000000000000000000006001600160a01b031663c71b0e1c6040518163ffffffff1660e01b8152600401602060405180830381865afa158015611d7e573d5f803e3d5ffd5b505050506040513d601f19601f82011682018060405250810190611da2919061294a565b90505f611daf8385611470565b905080611dbc8684612851565b111561166b57604051630c57b57760e21b815260040160405180910390fd5b604051630b37802960e11b8152602082013560048201525f9081906001600160a01b037f0000000000000000000000000000000000000000000000000000000000000000169063166f005290602401602060405180830381865afa158015611e45573d5f803e3d5ffd5b505050506040513d601f19601f82011682018060405250810190611e69919061294a565b90508015611e77578061066b565b505060e0013590565b604051634749a53560e01b8152602082013560048201525f9081906001600160a01b037f00000000000000000000000000000000000000000000000000000000000000001690634749a53590602401602060405180830381865afa158015611eea573d5f803e3d5ffd5b505050506040513d601f19601f82011682018060405250810190611f0e919061294a565b90508015611f1c578061066b565b5050610100013590565b5f806001600160a01b037f0000000000000000000000000000000000000000000000000000000000000000166348701869611f696101a086016101808701612864565b6040516001600160e01b031960e084901b16815260ff9091166004820152602401602060405180830381865afa158015611fa5573d5f803e3d5ffd5b505050506040513d601f19601f82011682018060405250810190611fc9919061294a565b90508015611fd7578061066b565b5050610120013590565b60405163230273a160e01b8152602082013560048201525f9081906001600160a01b037f0000000000000000000000000000000000000000000000000000000000000000169063230273a190602401602060405180830381865afa15801561204b573d5f803e3d5ffd5b505050506040513d601f19601f8201168201806040525081019061206f919061294a565b9050801561207d578061066b565b5050610140013590565b6040516331b7b41360e21b8152602082013560048201525f9081906001600160a01b037f0000000000000000000000000000000000000000000000000000000000000000169063c6ded04c90602401602060405180830381865afa1580156120f1573d5f803e3d5ffd5b505050506040513d601f19601f82011682018060405250810190612115919061294a565b90508015612123578061066b565b5050610160013590565b600180546001600160a01b0319169055610aec81612367565b604080517f8b73c3c69bb8fe3d512ecc4cf759cc79239f7b179b0ffacaa9a75d522b39400f60208201527ff788b8a4d26cb9b7649b5feca9391f3945fe5286523d352be9423ac9507dd5f2918101919091527fc89efdaa54c0f20c7adf612882df0950f5a951637e0307cdcb4c672f298b8bc660608201524660808201523060a08201525f9060c00160405160208183030381529060405280519060200120905090565b5f6121f3612146565b60405161190160f01b60208201526022810191909152604281018390526062015b604051602081830303815290604052805190602001209050919050565b5f823560208401356040850135831a601b81101561225757612254601b826129a8565b90505b8060ff16601b1415801561226f57508060ff16601c14155b1561227f575f935050505061066b565b604080515f81526020810180835289905260ff831691810191909152606081018490526080810183905260019060a0016020604051602081039080840390855afa1580156122cf573d5f803e3d5ffd5b5050604051601f19015198975050505050505050565b5f60e08201356101008301356101208401356101408501356101608601356123156101a088016101808901612864565b6123276101c089016101a08a01612864565b6040805160208101989098528701959095526060860193909352608085019190915260a084015260ff90811660c08401521660e082015261010001612214565b5f80546001600160a01b038381166001600160a01b0319831681178455604051919092169283917f8be0079c531659141344cd1fd0a4f28419497f9722a3daafe3b4186f6b6457e09190a35050565b6040518061032001604052805f6001600160a01b031681526020015f80191681526020015f151581526020015f81526020015f81526020015f81526020015f81526020015f81526020015f81526020015f81526020015f81526020015f81526020015f60ff1681526020015f60ff1681526020015f81526020015f81526020015f81526020015f81526020015f81526020015f81526020015f81526020015f80191681526020015f80191681526020015f600381111561247857612478612677565b81525f60209091015290565b6001600160a01b0381168114610aec575f80fd5b5f805f606084860312156124aa575f80fd5b8335925060208401356124bc81612484565b929592945050506040919091013590565b5f805f80608085870312156124e0575f80fd5b84356124eb81612484565b966020860135965060408601359560600135945092505050565b8015158114610aec575f80fd5b5f805f8060808587031215612525575f80fd5b84359350602085013561253781612484565b925060408501359150606085013561254e81612505565b939692955090935050565b5f60208284031215612569575f80fd5b5035919050565b5f8060408385031215612581575f80fd5b823561258c81612484565b9150602083013561259c81612505565b809150509250929050565b5f61022082840312156125b8575f80fd5b50919050565b5f8083601f8401126125ce575f80fd5b50813567ffffffffffffffff8111156125e5575f80fd5b6020830191508360208285010111156125fc575f80fd5b9250929050565b5f805f806102608587031215612617575f80fd5b8435935061262886602087016125a7565b925061024085013567ffffffffffffffff811115612644575f80fd5b612650878288016125be565b95989497509550505050565b5f6020828403121561266c575f80fd5b813561066b81612484565b634e487b7160e01b5f52602160045260245ffd5b600481106126a757634e487b7160e01b5f52602160045260245ffd5b9052565b81516001600160a01b0316815261032081016020830151602083015260408301516126da604084018215159052565b50606083015160608301526080830151608083015260a083015160a083015260c083015160c083015260e083015160e0830152610100808401518184015250610120808401518184015250610140808401518184015250610160808401518184015250610180808401516127528285018260ff169052565b50506101a08381015160ff16908301526101c080840151908301526101e08084015190830152610200808401519083015261022080840151908301526102408084015190830152610260808401519083015261028080840151908301526102a080840151908301526102c080840151908301526102e0808401516127d88285018261268b565b5050610300928301511515919092015290565b5f805f61024084860312156127fe575f80fd5b61280885856125a7565b925061022084013567ffffffffffffffff811115612824575f80fd5b612830868287016125be565b9497909650939450505050565b634e487b7160e01b5f52601160045260245ffd5b8082018082111561148b5761148b61283d565b5f60208284031215612874575f80fd5b813560ff8116811461066b575f80fd5b5f60208284031215612894575f80fd5b813561066b81612505565b5f602082840312156128af575f80fd5b815161066b81612484565b808202811582820484141761148b5761148b61283d565b5f826128eb57634e487b7160e01b5f52601260045260245ffd5b500490565b5f82515f5b8181101561290f57602081860181015185830152016128f5565b505f920191825250919050565b5f6020828403121561292c575f80fd5b815161066b81612505565b8181038181111561148b5761148b61283d565b5f6020828403121561295a575f80fd5b5051919050565b805161ffff81168114612972575f80fd5b919050565b5f8060408385031215612988575f80fd5b61299183612961565b915061299f60208401612961565b90509250929050565b60ff818116838216019081111561148b5761148b61283d56fea2646970667358221220b286d6ede0e586dab9048341d7b0274e2c229ed15e6fc5167a3b49636b43920064736f6c63430008180033","linkReferences":{}},"methodIdentifiers":{"acceptOwnership()":"79ba5097","authorizedCaller(address)":"98f6ef12","benefitNFT()":"0a89a2c0","cancelCoverageOnClose(uint256)":"3ab27204","collateralToken()":"b2016bd4","domainSeparator()":"f698da25","getCoverage(uint256)":"a7a44902","onPositionClosed(address,bytes32,uint256,bytes32)":"d9428c08","onPositionLiquidated(address,bytes32,uint256,bytes32)":"d3748921","onPositionOpened(address,bytes32,uint256,bytes32)":"1a32b9fc","owner()":"8da5cb5b","pendingOwner()":"e30c3978","processLiquidationClaim(uint256,address,uint256,bool)":"31643778","registerCoverage(uint256,(address,bytes32,bool,uint256,uint256,uint256,uint256,uint256,uint256,uint256,uint256,uint256,uint8,uint8,uint256,uint256,bytes32),bytes)":"4975bf41","renounceOwnership()":"715018a6","riskConfig()":"7c90a6ca","riskVault()":"56a8792d","setAuthorizedCaller(address,bool)":"454bbd29","setBenefitNFT(address)":"a61b1c76","settlePremiumOnProfit(uint256,address,uint256)":"197aa593","transferOwnership(address)":"f2fde38b","usedQuotes(bytes32)":"b9615b1a","userCooldownUntil(address)":"e0c04c39","verifyQuote((address,bytes32,bool,uint256,uint256,uint256,uint256,uint256,uint256,uint256,uint256,uint256,uint8,uint8,uint256,uint256,bytes32),bytes)":"fcb9b394"},"id":1}