{"abi":[{"type":"constructor","inputs":[{"name":"initialOwner","type":"address","internalType":"address"},{"name":"riskConfig_","type":"address","internalType":"address"},{"name":"riskVault_","type":"address","internalType":"address"},{"name":"collateralToken_","type":"address","internalType":"address"}],"stateMutability":"nonpayable"},{"type":"function","name":"acceptOwnership","inputs":[],"outputs":[],"stateMutability":"nonpayable"},{"type":"function","name":"authorizedCaller","inputs":[{"name":"caller","type":"address","internalType":"address"}],"outputs":[{"name":"isAuthorized","type":"bool","internalType":"bool"}],"stateMutability":"view"},{"type":"function","name":"cancelCoverageOnClose","inputs":[{"name":"positionId","type":"uint256","internalType":"uint256"}],"outputs":[],"stateMutability":"nonpayable"},{"type":"function","name":"collateralToken","inputs":[],"outputs":[{"name":"","type":"address","internalType":"address"}],"stateMutability":"view"},{"type":"function","name":"domainSeparator","inputs":[],"outputs":[{"name":"","type":"bytes32","internalType":"bytes32"}],"stateMutability":"view"},{"type":"function","name":"getCoverage","inputs":[{"name":"positionId","type":"uint256","internalType":"uint256"}],"outputs":[{"name":"","type":"tuple","internalType":"struct InsuranceController.CoverageSnapshot","components":[{"name":"user","type":"address","internalType":"address"},{"name":"marketId","type":"bytes32","internalType":"bytes32"},{"name":"side","type":"bool","internalType":"bool"},{"name":"leverageX18","type":"uint256","internalType":"uint256"},{"name":"sizeUsdX18","type":"uint256","internalType":"uint256"},{"name":"premiumBps","type":"uint256","internalType":"uint256"},{"name":"coverageRatioBps","type":"uint256","internalType":"uint256"},{"name":"reservedAmount","type":"uint256","internalType":"uint256"},{"name":"quoteExpiry","type":"uint256","internalType":"uint256"},{"name":"quoteNonce","type":"uint256","internalType":"uint256"},{"name":"modelVersion","type":"bytes32","internalType":"bytes32"},{"name":"quoteHash","type":"bytes32","internalType":"bytes32"},{"name":"status","type":"uint8","internalType":"enum Types.InsuranceStatus"},{"name":"premiumSettled","type":"bool","internalType":"bool"}]}],"stateMutability":"view"},{"type":"function","name":"onPositionClosed","inputs":[{"name":"","type":"address","internalType":"address"},{"name":"","type":"bytes32","internalType":"bytes32"},{"name":"positionId","type":"uint256","internalType":"uint256"},{"name":"","type":"bytes32","internalType":"bytes32"}],"outputs":[],"stateMutability":"nonpayable"},{"type":"function","name":"onPositionLiquidated","inputs":[{"name":"","type":"address","internalType":"address"},{"name":"","type":"bytes32","internalType":"bytes32"},{"name":"positionId","type":"uint256","internalType":"uint256"},{"name":"","type":"bytes32","internalType":"bytes32"}],"outputs":[],"stateMutability":"nonpayable"},{"type":"function","name":"onPositionOpened","inputs":[{"name":"","type":"address","internalType":"address"},{"name":"","type":"bytes32","internalType":"bytes32"},{"name":"positionId","type":"uint256","internalType":"uint256"},{"name":"","type":"bytes32","internalType":"bytes32"}],"outputs":[{"name":"","type":"bool","internalType":"bool"}],"stateMutability":"view"},{"type":"function","name":"owner","inputs":[],"outputs":[{"name":"","type":"address","internalType":"address"}],"stateMutability":"view"},{"type":"function","name":"pendingOwner","inputs":[],"outputs":[{"name":"","type":"address","internalType":"address"}],"stateMutability":"view"},{"type":"function","name":"processLiquidationClaim","inputs":[{"name":"positionId","type":"uint256","internalType":"uint256"},{"name":"recipient","type":"address","internalType":"address"},{"name":"realizedLoss","type":"uint256","internalType":"uint256"},{"name":"eligible","type":"bool","internalType":"bool"}],"outputs":[{"name":"claimPaid","type":"uint256","internalType":"uint256"}],"stateMutability":"nonpayable"},{"type":"function","name":"registerCoverage","inputs":[{"name":"positionId","type":"uint256","internalType":"uint256"},{"name":"quote","type":"tuple","internalType":"struct IInsuranceController.SignedInsuranceQuote","components":[{"name":"user","type":"address","internalType":"address"},{"name":"marketId","type":"bytes32","internalType":"bytes32"},{"name":"side","type":"bool","internalType":"bool"},{"name":"leverageX18","type":"uint256","internalType":"uint256"},{"name":"sizeUsdX18","type":"uint256","internalType":"uint256"},{"name":"premiumBps","type":"uint256","internalType":"uint256"},{"name":"coverageRatioBps","type":"uint256","internalType":"uint256"},{"name":"expiry","type":"uint256","internalType":"uint256"},{"name":"nonce","type":"uint256","internalType":"uint256"},{"name":"modelVersion","type":"bytes32","internalType":"bytes32"}]},{"name":"signature","type":"bytes","internalType":"bytes"}],"outputs":[],"stateMutability":"nonpayable"},{"type":"function","name":"renounceOwnership","inputs":[],"outputs":[],"stateMutability":"nonpayable"},{"type":"function","name":"riskConfig","inputs":[],"outputs":[{"name":"","type":"address","internalType":"address"}],"stateMutability":"view"},{"type":"function","name":"riskVault","inputs":[],"outputs":[{"name":"","type":"address","internalType":"address"}],"stateMutability":"view"},{"type":"function","name":"setAuthorizedCaller","inputs":[{"name":"caller","type":"address","internalType":"address"},{"name":"isAuthorized","type":"bool","internalType":"bool"}],"outputs":[],"stateMutability":"nonpayable"},{"type":"function","name":"settlePremiumOnProfit","inputs":[{"name":"positionId","type":"uint256","internalType":"uint256"},{"name":"payer","type":"address","internalType":"address"},{"name":"realizedProfit","type":"uint256","internalType":"uint256"}],"outputs":[{"name":"premiumCharged","type":"uint256","internalType":"uint256"}],"stateMutability":"nonpayable"},{"type":"function","name":"transferOwnership","inputs":[{"name":"newOwner","type":"address","internalType":"address"}],"outputs":[],"stateMutability":"nonpayable"},{"type":"function","name":"usedQuotes","inputs":[{"name":"quoteHash","type":"bytes32","internalType":"bytes32"}],"outputs":[{"name":"used","type":"bool","internalType":"bool"}],"stateMutability":"view"},{"type":"function","name":"verifyQuote","inputs":[{"name":"quote","type":"tuple","internalType":"struct IInsuranceController.SignedInsuranceQuote","components":[{"name":"user","type":"address","internalType":"address"},{"name":"marketId","type":"bytes32","internalType":"bytes32"},{"name":"side","type":"bool","internalType":"bool"},{"name":"leverageX18","type":"uint256","internalType":"uint256"},{"name":"sizeUsdX18","type":"uint256","internalType":"uint256"},{"name":"premiumBps","type":"uint256","internalType":"uint256"},{"name":"coverageRatioBps","type":"uint256","internalType":"uint256"},{"name":"expiry","type":"uint256","internalType":"uint256"},{"name":"nonce","type":"uint256","internalType":"uint256"},{"name":"modelVersion","type":"bytes32","internalType":"bytes32"}]},{"name":"signature","type":"bytes","internalType":"bytes"}],"outputs":[{"name":"","type":"bool","internalType":"bool"}],"stateMutability":"view"},{"type":"event","name":"AuthorizedCallerUpdated","inputs":[{"name":"caller","type":"address","indexed":true,"internalType":"address"},{"name":"isAuthorized","type":"bool","indexed":false,"internalType":"bool"}],"anonymous":false},{"type":"event","name":"ClaimPaid","inputs":[{"name":"insuranceId","type":"uint256","indexed":true,"internalType":"uint256"},{"name":"positionId","type":"uint256","indexed":true,"internalType":"uint256"},{"name":"beneficiary","type":"address","indexed":true,"internalType":"address"},{"name":"token","type":"address","indexed":false,"internalType":"address"},{"name":"claimAmount","type":"uint256","indexed":false,"internalType":"uint256"}],"anonymous":false},{"type":"event","name":"InsuranceActivated","inputs":[{"name":"insuranceId","type":"uint256","indexed":true,"internalType":"uint256"},{"name":"positionId","type":"uint256","indexed":true,"internalType":"uint256"},{"name":"quoteId","type":"bytes32","indexed":true,"internalType":"bytes32"},{"name":"coverageRatioBps","type":"uint256","indexed":false,"internalType":"uint256"},{"name":"premiumRateBps","type":"uint256","indexed":false,"internalType":"uint256"},{"name":"reservedAmount","type":"uint256","indexed":false,"internalType":"uint256"}],"anonymous":false},{"type":"event","name":"InsuranceCancelled","inputs":[{"name":"insuranceId","type":"uint256","indexed":true,"internalType":"uint256"},{"name":"positionId","type":"uint256","indexed":true,"internalType":"uint256"}],"anonymous":false},{"type":"event","name":"OwnershipTransferStarted","inputs":[{"name":"previousOwner","type":"address","indexed":true,"internalType":"address"},{"name":"newOwner","type":"address","indexed":true,"internalType":"address"}],"anonymous":false},{"type":"event","name":"OwnershipTransferred","inputs":[{"name":"previousOwner","type":"address","indexed":true,"internalType":"address"},{"name":"newOwner","type":"address","indexed":true,"internalType":"address"}],"anonymous":false},{"type":"event","name":"PremiumSettled","inputs":[{"name":"insuranceId","type":"uint256","indexed":true,"internalType":"uint256"},{"name":"positionId","type":"uint256","indexed":true,"internalType":"uint256"},{"name":"trader","type":"address","indexed":true,"internalType":"address"},{"name":"token","type":"address","indexed":false,"internalType":"address"},{"name":"premiumAmount","type":"uint256","indexed":false,"internalType":"uint256"}],"anonymous":false},{"type":"error","name":"InactivePosition","inputs":[]},{"type":"error","name":"InsuranceNotActive","inputs":[]},{"type":"error","name":"InvalidAddress","inputs":[]},{"type":"error","name":"InvalidCoverageRatio","inputs":[]},{"type":"error","name":"InvalidLiquidationState","inputs":[]},{"type":"error","name":"InvalidSignature","inputs":[]},{"type":"error","name":"OwnableInvalidOwner","inputs":[{"name":"owner","type":"address","internalType":"address"}]},{"type":"error","name":"OwnableUnauthorizedAccount","inputs":[{"name":"account","type":"address","internalType":"address"}]},{"type":"error","name":"QuoteAlreadyUsed","inputs":[]},{"type":"error","name":"QuoteExpired","inputs":[]},{"type":"error","name":"TransferFailed","inputs":[]},{"type":"error","name":"Unauthorized","inputs":[]}],"bytecode":{"object":"0x60e060405234801562000010575f80fd5b5060405162001e0a38038062001e0a833981016040819052620000339162000166565b836001600160a01b0381166200006257604051631e4fbdf760e01b81525f600482015260240160405180910390fd5b6200006d81620000dd565b506001600160a01b03831615806200008c57506001600160a01b038216155b806200009f57506001600160a01b038116155b15620000be5760405163e6c4247b60e01b815260040160405180910390fd5b6001600160a01b0392831660805290821660a0521660c05250620001c0565b600180546001600160a01b0319169055620000f881620000fb565b50565b5f80546001600160a01b038381166001600160a01b0319831681178455604051919092169283917f8be0079c531659141344cd1fd0a4f28419497f9722a3daafe3b4186f6b6457e09190a35050565b80516001600160a01b038116811462000161575f80fd5b919050565b5f805f80608085870312156200017a575f80fd5b62000185856200014a565b935062000195602086016200014a565b9250620001a5604086016200014a565b9150620001b5606086016200014a565b905092959194509250565b60805160a05160c051611bcb6200023f5f395f818161029a0152818161042b0152818161045701528181610520015281816105a601526107ff01525f81816101bf01528181610478015281816104b30152818161079a01528181610f5601526113da01525f8181610221015281816109750152610ca20152611bcb5ff3fe608060405234801561000f575f80fd5b5060043610610132575f3560e01c80638da5cb5b116100b4578063c30963d711610079578063c30963d7146102de578063d3748921146102f1578063d9428c0814610304578063e30c397814610317578063f2fde38b14610328578063f698da251461033b575f80fd5b80638da5cb5b1461024357806398f6ef1214610253578063a7a4490214610275578063b2016bd414610295578063b9615b1a146102bc575f80fd5b806356a8792d116100fa57806356a8792d146101ba5780636846ade7146101f9578063715018a61461020c57806379ba5097146102145780637c90a6ca1461021c575f80fd5b8063197aa593146101365780631a32b9fc1461015c578063316437781461017f5780633ab2720414610192578063454bbd29146101a7575b5f80fd5b610149610144366004611781565b610343565b6040519081526020015b60405180910390f35b61016f61016a3660046117b6565b61060c565b6040519015158152602001610153565b61014961018d3660046117fb565b61066d565b6101a56101a0366004611842565b610867565b005b6101a56101b5366004611859565b6108a1565b6101e17f000000000000000000000000000000000000000000000000000000000000000081565b6040516001600160a01b039091168152602001610153565b61016f6102073660046118ec565b61092e565b6101a5610a0a565b6101a5610a1d565b6101e17f000000000000000000000000000000000000000000000000000000000000000081565b5f546001600160a01b03166101e1565b61016f61026136600461193e565b60026020525f908152604090205460ff1681565b610288610283366004611842565b610a63565b604051610153919061198d565b6101e17f000000000000000000000000000000000000000000000000000000000000000081565b61016f6102ca366004611842565b60046020525f908152604090205460ff1681565b6101a56102ec366004611a45565b610bc8565b6101a56102ff3660046117b6565b611004565b6101a56103123660046117b6565b611082565b6001546001600160a01b03166101e1565b6101a561033636600461193e565b6110e7565b610149611157565b335f9081526002602052604081205460ff16610371576040516282b42960e81b815260040160405180910390fd5b5f8481526003602052604090206001600c82015460ff16600381111561039957610399611959565b146103b75760405163446b96e160e01b815260040160405180910390fd5b6001600160a01b0384166103de5760405163e6c4247b60e01b815260040160405180910390fd5b600c810154610100900460ff16156103f9575f915050610605565b82156105855761040d838260050154611165565b9150811561058557600c8101805461ff0019166101001790556104527f0000000000000000000000000000000000000000000000000000000000000000853085611186565b61049d7f00000000000000000000000000000000000000000000000000000000000000007f00000000000000000000000000000000000000000000000000000000000000008461127b565b60405163071817bf60e21b8152600481018390527f00000000000000000000000000000000000000000000000000000000000000006001600160a01b031690631c605efc906024015f604051808303815f87803b1580156104fc575f80fd5b505af115801561050e573d5f803e3d5ffd5b50508254604080516001600160a01b037f00000000000000000000000000000000000000000000000000000000000000008116825260208201889052909216935088925082917f513f4321a6a862d87b2c61c348626eabd74446fe7ed80037ebc2a748659a76a3910160405180910390a450610605565b600c8101805461ff0019166101001790558054604080516001600160a01b037f0000000000000000000000000000000000000000000000000000000000000000811682526020820186905290921691879182917f513f4321a6a862d87b2c61c348626eabd74446fe7ed80037ebc2a748659a76a3910160405180910390a4505b9392505050565b335f9081526002602052604081205460ff1661063a576040516282b42960e81b815260040160405180910390fd5b60015f848152600360208190526040909120600c015460ff169081111561066357610663611959565b1495945050505050565b335f9081526002602052604081205460ff1661069b576040516282b42960e81b815260040160405180910390fd5b5f8581526003602052604090206001600c82015460ff1660038111156106c3576106c3611959565b146106e15760405163446b96e160e01b815260040160405180910390fd5b8215806106f557506001600160a01b038516155b156107135760405163381e4d7d60e01b815260040160405180910390fd5b835f036107335760405163381e4d7d60e01b815260040160405180910390fd5b5f610742858360060154611165565b90508160070154811061075957816007015461075b565b805b600c8301805460ff191660021790556040516320db1d3d60e01b8152600481018990526001600160a01b038881166024830152604482018390529194507f0000000000000000000000000000000000000000000000000000000000000000909116906320db1d3d906064015f604051808303815f87803b1580156107dd575f80fd5b505af11580156107ef573d5f803e3d5ffd5b5050604080516001600160a01b037f000000000000000000000000000000000000000000000000000000000000000081168252602082018890528a1693508a925082917f6e20c25d9914f1729e9fafbfd71ded7b11326f9deb01c5e86f1e44aa6b063f87910160405180910390a45050949350505050565b335f9081526002602052604090205460ff16610895576040516282b42960e81b815260040160405180910390fd5b61089e81611367565b50565b6108a9611461565b6001600160a01b0382166108d05760405163e6c4247b60e01b815260040160405180910390fd5b6001600160a01b0382165f81815260026020908152604091829020805460ff191685151590811790915591519182527fad857fa38c9319cb80848f1ef2f924383b90297eb5d71755738ff037d100faa1910160405180910390a25050565b5f428460e00135101561094257505f610605565b6041821461095157505f610605565b5f61096361095e8661148d565b61157f565b90505f6109718286866115ad565b90507f00000000000000000000000000000000000000000000000000000000000000006001600160a01b031663f413bdb36040518163ffffffff1660e01b8152600401602060405180830381865afa1580156109cf573d5f803e3d5ffd5b505050506040513d601f19601f820116820180604052508101906109f39190611a9e565b6001600160a01b0391821691161495945050505050565b610a12611461565b610a1b5f611661565b565b60015433906001600160a01b03168114610a5a5760405163118cdaa760e01b81526001600160a01b03821660048201526024015b60405180910390fd5b61089e81611661565b604080516101c0810182525f80825260208201819052918101829052606081018290526080810182905260a0810182905260c0810182905260e08101829052610100810182905261012081018290526101408101829052610160810182905261018081018290526101a08101919091525f8281526003602081815260409283902083516101c08101855281546001600160a01b03168152600182015492810192909252600281015460ff90811615159483019490945280830154606083015260048101546080830152600581015460a0830152600681015460c0830152600781015460e083015260088101546101008301526009810154610120830152600a810154610140830152600b810154610160830152600c8101549193909261018085019290911690811115610b9857610b98611959565b6003811115610ba957610ba9611959565b8152600c9190910154610100900460ff16151560209091015292915050565b335f9081526002602052604090205460ff16610bf6576040516282b42960e81b815260040160405180910390fd5b835f03610c1657604051631f9c0ddd60e31b815260040160405180910390fd5b428360e001351015610c3b57604051638727a7f960e01b815260040160405180910390fd5b5f610c458461148d565b5f8181526004602052604090205490915060ff1615610c77576040516307387c7360e31b815260040160405180910390fd5b610c8284848461092e565b610c9f57604051638baa579f60e01b815260040160405180910390fd5b5f7f00000000000000000000000000000000000000000000000000000000000000006001600160a01b031663eae382cb6040518163ffffffff1660e01b8152600401602060405180830381865afa158015610cfc573d5f803e3d5ffd5b505050506040513d601f19601f82011682018060405250810190610d209190611ab9565b9050808560c001351115610d475760405163b5019d3160e01b815260040160405180910390fd5b5f610d5a86608001358760c00135611165565b5f84815260046020908152604091829020805460ff1916600117905581516101c08101909252919250908190610d929089018961193e565b6001600160a01b0316815260200187602001358152602001876040016020810190610dbd9190611ad0565b1515815260200187606001358152602001876080013581526020018760a0013581526020018760c0013581526020018281526020018760e0013581526020018761010001358152602001876101200135815260200184815260200160016003811115610e2b57610e2b611959565b81525f60209182018190528981526003808352604091829020845181546001600160a01b039091166001600160a01b0319909116178155928401516001848101919091559184015160028401805491151560ff199283161790556060850151848301556080850151600485015560a0850151600585015560c0850151600685015560e0850151600785015561010085015160088501556101208501516009850155610140850151600a850155610160850151600b850155610180850151600c85018054919490939190921691908490811115610f0957610f09611959565b02179055506101a09190910151600c90910180549115156101000261ff001990921691909117905560405163794c23f360e01b815260048101889052602481018290526001600160a01b037f0000000000000000000000000000000000000000000000000000000000000000169063794c23f3906044015f604051808303815f87803b158015610f97575f80fd5b505af1158015610fa9573d5f803e3d5ffd5b50506040805160c08a0135815260a08a0135602082015290810184905285925089915081907fb008bf2e3a62d6e339092f89f54396f27227e3e2f57655d2932cdf7e3058d2569060600160405180910390a450505050505050565b335f9081526002602052604090205460ff16611032576040516282b42960e81b815260040160405180910390fd5b60015f838152600360208190526040909120600c015460ff169081111561105b5761105b611959565b0361107c575f828152600360205260409020600c01805460ff191660021790555b50505050565b335f9081526002602052604090205460ff166110b0576040516282b42960e81b815260040160405180910390fd5b60015f838152600360208190526040909120600c015460ff16908111156110d9576110d9611959565b0361107c5761107c82611367565b6110ef611461565b600180546001600160a01b0383166001600160a01b0319909116811790915561111f5f546001600160a01b031690565b6001600160a01b03167f38d16b8cac22d99fc7c124b9cd0de2d3fa1faef420bfe791d8c362d765e2270060405160405180910390a350565b5f61116061167a565b905090565b5f6127106111738385611aff565b61117d9190611b16565b90505b92915050565b604080516001600160a01b0385811660248301528481166044830152606480830185905283518084039091018152608490920183526020820180516001600160e01b03166323b872dd60e01b17905291515f928392908816916111e99190611b35565b5f604051808303815f865af19150503d805f8114611222576040519150601f19603f3d011682016040523d82523d5f602084013e611227565b606091505b509150915081158061125557508051158015906112555750808060200190518101906112539190611b61565b155b15611273576040516312171d8360e31b815260040160405180910390fd5b505050505050565b604080516001600160a01b038481166024830152604480830185905283518084039091018152606490920183526020820180516001600160e01b031663095ea7b360e01b17905291515f928392908716916112d69190611b35565b5f604051808303815f865af19150503d805f811461130f576040519150601f19603f3d011682016040523d82523d5f602084013e611314565b606091505b509150915081158061134257508051158015906113425750808060200190518101906113409190611b61565b155b15611360576040516312171d8360e31b815260040160405180910390fd5b5050505050565b5f8181526003602052604090206001600c82015460ff16600381111561138f5761138f611959565b146113ad5760405163446b96e160e01b815260040160405180910390fd5b600c8101805460ff19166003179055604051634ea0efc960e01b8152600481018390526001600160a01b037f00000000000000000000000000000000000000000000000000000000000000001690634ea0efc9906024015f604051808303815f87803b15801561141b575f80fd5b505af115801561142d573d5f803e3d5ffd5b50506040518492508291507f24a46104d657e451226b6d841f2b9988ce177136f1d1c584d6f95e5db4f66d2d905f90a35050565b5f546001600160a01b03163314610a1b5760405163118cdaa760e01b8152336004820152602401610a51565b5f7f27cdd10a8f27f62c2556858f0c0f7e2aea8351083981caf799a9f9a009d36f7c6114bc602084018461193e565b60208401356114d16060860160408701611ad0565b856060013586608001358760a001358860c001358960e001358a61010001358b61012001356040516020016115629b9a999897969594939291909a8b526001600160a01b039990991660208b015260408a01979097529415156060890152608088019390935260a087019190915260c086015260e08501526101008401526101208301526101408201526101600190565b604051602081830303815290604052805190602001209050919050565b5f61158861167a565b60405161190160f01b6020820152602281019190915260428101839052606201611562565b5f823560208401356040850135831a601b8110156115d3576115d0601b82611b7c565b90505b8060ff16601b141580156115eb57508060ff16601c14155b156115fb575f9350505050610605565b604080515f81526020810180835289905260ff831691810191909152606081018490526080810183905260019060a0016020604051602081039080840390855afa15801561164b573d5f803e3d5ffd5b5050604051601f19015198975050505050505050565b600180546001600160a01b031916905561089e8161171e565b604080517f8b73c3c69bb8fe3d512ecc4cf759cc79239f7b179b0ffacaa9a75d522b39400f60208201527ff788b8a4d26cb9b7649b5feca9391f3945fe5286523d352be9423ac9507dd5f2918101919091527fc89efdaa54c0f20c7adf612882df0950f5a951637e0307cdcb4c672f298b8bc660608201524660808201523060a08201525f9060c00160405160208183030381529060405280519060200120905090565b5f80546001600160a01b038381166001600160a01b0319831681178455604051919092169283917f8be0079c531659141344cd1fd0a4f28419497f9722a3daafe3b4186f6b6457e09190a35050565b6001600160a01b038116811461089e575f80fd5b5f805f60608486031215611793575f80fd5b8335925060208401356117a58161176d565b929592945050506040919091013590565b5f805f80608085870312156117c9575f80fd5b84356117d48161176d565b966020860135965060408601359560600135945092505050565b801515811461089e575f80fd5b5f805f806080858703121561180e575f80fd5b8435935060208501356118208161176d565b9250604085013591506060850135611837816117ee565b939692955090935050565b5f60208284031215611852575f80fd5b5035919050565b5f806040838503121561186a575f80fd5b82356118758161176d565b91506020830135611885816117ee565b809150509250929050565b5f61014082840312156118a1575f80fd5b50919050565b5f8083601f8401126118b7575f80fd5b50813567ffffffffffffffff8111156118ce575f80fd5b6020830191508360208285010111156118e5575f80fd5b9250929050565b5f805f61016084860312156118ff575f80fd5b6119098585611890565b925061014084013567ffffffffffffffff811115611925575f80fd5b611931868287016118a7565b9497909650939450505050565b5f6020828403121561194e575f80fd5b81356106058161176d565b634e487b7160e01b5f52602160045260245ffd5b6004811061198957634e487b7160e01b5f52602160045260245ffd5b9052565b81516001600160a01b031681526101c081016020830151602083015260408301516119bc604084018215159052565b50606083015160608301526080830151608083015260a083015160a083015260c083015160c083015260e083015160e083015261010080840151818401525061012080840151818401525061014080840151818401525061016080840151818401525061018080840151611a328285018261196d565b50506101a0928301511515919092015290565b5f805f806101808587031215611a59575f80fd5b84359350611a6a8660208701611890565b925061016085013567ffffffffffffffff811115611a86575f80fd5b611a92878288016118a7565b95989497509550505050565b5f60208284031215611aae575f80fd5b81516106058161176d565b5f60208284031215611ac9575f80fd5b5051919050565b5f60208284031215611ae0575f80fd5b8135610605816117ee565b634e487b7160e01b5f52601160045260245ffd5b808202811582820484141761118057611180611aeb565b5f82611b3057634e487b7160e01b5f52601260045260245ffd5b500490565b5f82515f5b81811015611b545760208186018101518583015201611b3a565b505f920191825250919050565b5f60208284031215611b71575f80fd5b8151610605816117ee565b60ff818116838216019081111561118057611180611aeb56fea264697066735822122081e1997f490dea940d4136f9114d0356ef947464ae9aa461e35a19d6f739f4ac64736f6c63430008180033","linkReferences":{}},"methodIdentifiers":{"acceptOwnership()":"79ba5097","authorizedCaller(address)":"98f6ef12","cancelCoverageOnClose(uint256)":"3ab27204","collateralToken()":"b2016bd4","domainSeparator()":"f698da25","getCoverage(uint256)":"a7a44902","onPositionClosed(address,bytes32,uint256,bytes32)":"d9428c08","onPositionLiquidated(address,bytes32,uint256,bytes32)":"d3748921","onPositionOpened(address,bytes32,uint256,bytes32)":"1a32b9fc","owner()":"8da5cb5b","pendingOwner()":"e30c3978","processLiquidationClaim(uint256,address,uint256,bool)":"31643778","registerCoverage(uint256,(address,bytes32,bool,uint256,uint256,uint256,uint256,uint256,uint256,bytes32),bytes)":"c30963d7","renounceOwnership()":"715018a6","riskConfig()":"7c90a6ca","riskVault()":"56a8792d","setAuthorizedCaller(address,bool)":"454bbd29","settlePremiumOnProfit(uint256,address,uint256)":"197aa593","transferOwnership(address)":"f2fde38b","usedQuotes(bytes32)":"b9615b1a","verifyQuote((address,bytes32,bool,uint256,uint256,uint256,uint256,uint256,uint256,bytes32),bytes)":"6846ade7"},"id":1}