{"abi":[{"type":"receive","stateMutability":"payable"},{"type":"function","name":"coverLoss","inputs":[{"name":"amount","type":"uint256","internalType":"uint256"}],"outputs":[{"name":"covered","type":"uint256","internalType":"uint256"}],"stateMutability":"nonpayable"},{"type":"function","name":"insuranceFund","inputs":[],"outputs":[{"name":"","type":"uint256","internalType":"uint256"}],"stateMutability":"view"},{"type":"event","name":"LossCovered","inputs":[{"name":"requested","type":"uint256","indexed":false,"internalType":"uint256"},{"name":"covered","type":"uint256","indexed":false,"internalType":"uint256"}],"anonymous":false}],"bytecode":{"object":"0x608060405234801561000f575f80fd5b506101948061001d5f395ff3fe60806040526004361061002b575f3560e01c8063602e00a81461004c578063b79023031461007d575f80fd5b3661004857345f808282546100409190610121565b925050819055005b5f80fd5b348015610057575f80fd5b5061006b610066366004610134565b610091565b60405190815260200160405180910390f35b348015610088575f80fd5b5061006b5f5481565b5f805461009f9083906100f4565b9050805f808282546100b1919061014b565b909155505060408051838152602081018390527fa51702a47bc1f5618b8663cd13e345cb036029e8c8ee3ef9ca94d476b5a228df910160405180910390a1919050565b5f8183106101025781610104565b825b90505b92915050565b634e487b7160e01b5f52601160045260245ffd5b808201808211156101075761010761010d565b5f60208284031215610144575f80fd5b5035919050565b818103818111156101075761010761010d56fea2646970667358221220a5ab7db85d7c7f365ad277fad329edc9a98531b4eabf5c60c284962ca18ba60964736f6c63430008180033","linkReferences":{}},"methodIdentifiers":{"coverLoss(uint256)":"602e00a8","insuranceFund()":"b7902303"},"id":1}