{"abi":[{"type":"function","name":"collateral","inputs":[{"name":"","type":"address","internalType":"address"}],"outputs":[{"name":"","type":"uint256","internalType":"uint256"}],"stateMutability":"view"},{"type":"function","name":"deposit","inputs":[],"outputs":[],"stateMutability":"payable"},{"type":"function","name":"withdraw","inputs":[{"name":"amount","type":"uint256","internalType":"uint256"}],"outputs":[],"stateMutability":"nonpayable"},{"type":"event","name":"Deposited","inputs":[{"name":"account","type":"address","indexed":true,"internalType":"address"},{"name":"amount","type":"uint256","indexed":false,"internalType":"uint256"}],"anonymous":false},{"type":"event","name":"Withdrawn","inputs":[{"name":"account","type":"address","indexed":true,"internalType":"address"},{"name":"amount","type":"uint256","indexed":false,"internalType":"uint256"}],"anonymous":false},{"type":"error","name":"InsufficientBalance","inputs":[]},{"type":"error","name":"ZeroAmount","inputs":[]}],"bytecode":{"object":"0x608060405234801561000f575f80fd5b506102fe8061001d5f395ff3fe608060405260043610610033575f3560e01c80632e1a7d4d14610037578063a5fdc5de14610058578063d0e30db014610095575b5f80fd5b348015610042575f80fd5b50610056610051366004610244565b61009d565b005b348015610063575f80fd5b5061008361007236600461025b565b5f6020819052908152604090205481565b60405190815260200160405180910390f35b6100566101ca565b805f036100bd57604051631f2a200560e01b815260040160405180910390fd5b335f90815260208190526040902054818110156100ed57604051631e9acf1760e31b815260040160405180910390fd5b6100f7828261029c565b335f8181526020819052604080822093909355915184908381818185875af1925050503d805f8114610144576040519150601f19603f3d011682016040523d82523d5f602084013e610149565b606091505b50509050806101905760405162461bcd60e51b815260206004820152600f60248201526e1514905394d1915497d19052531151608a1b604482015260640160405180910390fd5b60405183815233907f7084f5476618d8e60b11ef0d7d3f06914655adb8793e28ff7f018d4c76d505d59060200160405180910390a2505050565b345f036101ea57604051631f2a200560e01b815260040160405180910390fd5b335f90815260208190526040812080543492906102089084906102b5565b909155505060405134815233907f2da466a7b24304f47e87fa2e1e5a81b9831ce54fec19055ce277ca2f39ba42c49060200160405180910390a2565b5f60208284031215610254575f80fd5b5035919050565b5f6020828403121561026b575f80fd5b81356001600160a01b0381168114610281575f80fd5b9392505050565b634e487b7160e01b5f52601160045260245ffd5b818103818111156102af576102af610288565b92915050565b808201808211156102af576102af61028856fea2646970667358221220a4f0f01b0e4237f3f62cd8c999fc60f8ba4d1d5ce385a1b63f5d187aa589361f64736f6c63430008180033","linkReferences":{}},"methodIdentifiers":{"collateral(address)":"a5fdc5de","deposit()":"d0e30db0","withdraw(uint256)":"2e1a7d4d"},"id":3}