{"abi":[{"type":"constructor","inputs":[{"name":"initialOwner","type":"address","internalType":"address"},{"name":"collateralToken_","type":"address","internalType":"address"}],"stateMutability":"nonpayable"},{"type":"function","name":"acceptOwnership","inputs":[],"outputs":[],"stateMutability":"nonpayable"},{"type":"function","name":"authorizedModules","inputs":[{"name":"module","type":"address","internalType":"address"}],"outputs":[{"name":"isAuthorized","type":"bool","internalType":"bool"}],"stateMutability":"view"},{"type":"function","name":"availableBalance","inputs":[{"name":"user","type":"address","internalType":"address"}],"outputs":[{"name":"amount","type":"uint256","internalType":"uint256"}],"stateMutability":"view"},{"type":"function","name":"collateralToken","inputs":[],"outputs":[{"name":"","type":"address","internalType":"address"}],"stateMutability":"view"},{"type":"function","name":"deposit","inputs":[{"name":"amount","type":"uint256","internalType":"uint256"}],"outputs":[],"stateMutability":"nonpayable"},{"type":"function","name":"lockMargin","inputs":[{"name":"user","type":"address","internalType":"address"},{"name":"amount","type":"uint256","internalType":"uint256"}],"outputs":[],"stateMutability":"nonpayable"},{"type":"function","name":"lockedMargin","inputs":[{"name":"user","type":"address","internalType":"address"}],"outputs":[{"name":"amount","type":"uint256","internalType":"uint256"}],"stateMutability":"view"},{"type":"function","name":"owner","inputs":[],"outputs":[{"name":"","type":"address","internalType":"address"}],"stateMutability":"view"},{"type":"function","name":"pendingOwner","inputs":[],"outputs":[{"name":"","type":"address","internalType":"address"}],"stateMutability":"view"},{"type":"function","name":"renounceOwnership","inputs":[],"outputs":[],"stateMutability":"nonpayable"},{"type":"function","name":"setAuthorizedModule","inputs":[{"name":"module","type":"address","internalType":"address"},{"name":"isAuthorized","type":"bool","internalType":"bool"}],"outputs":[],"stateMutability":"nonpayable"},{"type":"function","name":"totalBalance","inputs":[{"name":"user","type":"address","internalType":"address"}],"outputs":[{"name":"amount","type":"uint256","internalType":"uint256"}],"stateMutability":"view"},{"type":"function","name":"transferOut","inputs":[{"name":"user","type":"address","internalType":"address"},{"name":"amount","type":"uint256","internalType":"uint256"}],"outputs":[],"stateMutability":"nonpayable"},{"type":"function","name":"transferOwnership","inputs":[{"name":"newOwner","type":"address","internalType":"address"}],"outputs":[],"stateMutability":"nonpayable"},{"type":"function","name":"transferSettlement","inputs":[{"name":"to","type":"address","internalType":"address"},{"name":"amount","type":"uint256","internalType":"uint256"}],"outputs":[],"stateMutability":"nonpayable"},{"type":"function","name":"unlockMargin","inputs":[{"name":"user","type":"address","internalType":"address"},{"name":"amount","type":"uint256","internalType":"uint256"}],"outputs":[],"stateMutability":"nonpayable"},{"type":"function","name":"withdraw","inputs":[{"name":"amount","type":"uint256","internalType":"uint256"}],"outputs":[],"stateMutability":"nonpayable"},{"type":"event","name":"Deposited","inputs":[{"name":"account","type":"address","indexed":true,"internalType":"address"},{"name":"token","type":"address","indexed":true,"internalType":"address"},{"name":"amount","type":"uint256","indexed":false,"internalType":"uint256"}],"anonymous":false},{"type":"event","name":"MarginLocked","inputs":[{"name":"account","type":"address","indexed":true,"internalType":"address"},{"name":"amount","type":"uint256","indexed":false,"internalType":"uint256"},{"name":"newLockedMargin","type":"uint256","indexed":false,"internalType":"uint256"}],"anonymous":false},{"type":"event","name":"MarginUnlocked","inputs":[{"name":"account","type":"address","indexed":true,"internalType":"address"},{"name":"amount","type":"uint256","indexed":false,"internalType":"uint256"},{"name":"newLockedMargin","type":"uint256","indexed":false,"internalType":"uint256"}],"anonymous":false},{"type":"event","name":"ModuleAuthorizationUpdated","inputs":[{"name":"module","type":"address","indexed":true,"internalType":"address"},{"name":"isAuthorized","type":"bool","indexed":false,"internalType":"bool"}],"anonymous":false},{"type":"event","name":"OwnershipTransferStarted","inputs":[{"name":"previousOwner","type":"address","indexed":true,"internalType":"address"},{"name":"newOwner","type":"address","indexed":true,"internalType":"address"}],"anonymous":false},{"type":"event","name":"OwnershipTransferred","inputs":[{"name":"previousOwner","type":"address","indexed":true,"internalType":"address"},{"name":"newOwner","type":"address","indexed":true,"internalType":"address"}],"anonymous":false},{"type":"event","name":"SettlementTransferred","inputs":[{"name":"to","type":"address","indexed":true,"internalType":"address"},{"name":"token","type":"address","indexed":true,"internalType":"address"},{"name":"amount","type":"uint256","indexed":false,"internalType":"uint256"}],"anonymous":false},{"type":"event","name":"Withdrawn","inputs":[{"name":"account","type":"address","indexed":true,"internalType":"address"},{"name":"token","type":"address","indexed":true,"internalType":"address"},{"name":"amount","type":"uint256","indexed":false,"internalType":"uint256"}],"anonymous":false},{"type":"error","name":"InsufficientMargin","inputs":[]},{"type":"error","name":"InvalidAddress","inputs":[]},{"type":"error","name":"OwnableInvalidOwner","inputs":[{"name":"owner","type":"address","internalType":"address"}]},{"type":"error","name":"OwnableUnauthorizedAccount","inputs":[{"name":"account","type":"address","internalType":"address"}]},{"type":"error","name":"TransferFailed","inputs":[]},{"type":"error","name":"Unauthorized","inputs":[]},{"type":"error","name":"ZeroAmount","inputs":[]}],"bytecode":{"object":"0x60a060405234801561000f575f80fd5b50604051610f75380380610f7583398101604081905261002e91610125565b816001600160a01b03811661005c57604051631e4fbdf760e01b81525f600482015260240160405180910390fd5b6100658161009f565b506001600160a01b03811661008d5760405163e6c4247b60e01b815260040160405180910390fd5b6001600160a01b031660805250610156565b600180546001600160a01b03191690556100b8816100bb565b50565b5f80546001600160a01b038381166001600160a01b0319831681178455604051919092169283917f8be0079c531659141344cd1fd0a4f28419497f9722a3daafe3b4186f6b6457e09190a35050565b80516001600160a01b0381168114610120575f80fd5b919050565b5f8060408385031215610136575f80fd5b61013f8361010a565b915061014d6020840161010a565b90509250929050565b608051610ddd6101985f395f818161021b0152818161045b0152818161048301528181610725015281816107770152818161096a01526109920152610ddd5ff3fe608060405234801561000f575f80fd5b5060043610610106575f3560e01c80638da5cb5b1161009e578063b6b55f251161006e578063b6b55f251461023d578063d389e33e14610250578063e30c39781461026f578063e9761a6914610280578063f2fde38b14610293575f80fd5b80638da5cb5b146101cc578063a0821be3146101f0578063a5bce37914610203578063b2016bd414610216575f80fd5b806371478383116100d95780637147838314610196578063715018a6146101a957806376890c58146101b157806379ba5097146101c4575f80fd5b806317f6fe5b1461010a5780632e1a7d4d146101415780632f45580c146101565780636eacd39814610169575b5f80fd5b61012c610118366004610c85565b60046020525f908152604090205460ff1681565b60405190151581526020015b60405180910390f35b61015461014f366004610ca5565b6102a6565b005b610154610164366004610cbc565b6102b3565b610188610177366004610c85565b60026020525f908152604090205481565b604051908152602001610138565b6101546101a4366004610cbc565b6103e1565b6101546104f2565b6101546101bf366004610cbc565b610505565b610154610541565b5f546001600160a01b03165b6040516001600160a01b039091168152602001610138565b6101886101fe366004610c85565b610587565b610154610211366004610cbc565b6105ba565b6101d87f000000000000000000000000000000000000000000000000000000000000000081565b61015461024b366004610ca5565b610700565b61018861025e366004610c85565b60036020525f908152604090205481565b6001546001600160a01b03166101d8565b61015461028e366004610cf1565b6107d2565b6101546102a1366004610c85565b610858565b6102b033826108c8565b50565b335f9081526004602052604090205460ff166102e1576040516282b42960e81b815260040160405180910390fd5b6001600160a01b0382166103085760405163e6c4247b60e01b815260040160405180910390fd5b805f0361032857604051631f2a200560e01b815260040160405180910390fd5b6001600160a01b0382165f90815260036020526040902054811115610360576040516341c092a960e01b815260040160405180910390fd5b6001600160a01b0382165f9081526003602052604081208054839290610387908490610d3a565b90915550506001600160a01b0382165f81815260036020908152604091829020548251858152918201527facc6941a4560f236034b521a4a335e68ef9c43b692797ef5fb443f590943c79991015b60405180910390a25050565b335f9081526004602052604090205460ff1661040f576040516282b42960e81b815260040160405180910390fd5b6001600160a01b0382166104365760405163e6c4247b60e01b815260040160405180910390fd5b805f0361045657604051631f2a200560e01b815260040160405180910390fd5b6104817f000000000000000000000000000000000000000000000000000000000000000083836109f5565b7f00000000000000000000000000000000000000000000000000000000000000006001600160a01b0316826001600160a01b03167f6d60299590c2d1c1f6961a320118b1ae92633c5504953c2c8b413d150fe68853836040516104e691815260200190565b60405180910390a35050565b6104fa610ae1565b6105035f610b0d565b565b335f9081526004602052604090205460ff16610533576040516282b42960e81b815260040160405180910390fd5b61053d82826108c8565b5050565b60015433906001600160a01b0316811461057e5760405163118cdaa760e01b81526001600160a01b03821660048201526024015b60405180910390fd5b6102b081610b0d565b6001600160a01b0381165f9081526003602090815260408083205460029092528220546105b49190610d3a565b92915050565b335f9081526004602052604090205460ff166105e8576040516282b42960e81b815260040160405180910390fd5b6001600160a01b03821661060f5760405163e6c4247b60e01b815260040160405180910390fd5b805f0361062f57604051631f2a200560e01b815260040160405180910390fd5b6001600160a01b0382165f90815260036020908152604080832054600290925282205461065c9190610d3a565b90508181101561067f576040516341c092a960e01b815260040160405180910390fd5b6001600160a01b0383165f90815260036020526040812080548492906106a6908490610d4d565b90915550506001600160a01b0383165f81815260036020908152604091829020548251868152918201527f59eec948b8c4858c08a9604445f25b9906522c2af4965f2591064874d833b622910160405180910390a2505050565b805f0361072057604051631f2a200560e01b815260040160405180910390fd5b61074c7f0000000000000000000000000000000000000000000000000000000000000000333084610b26565b335f908152600260205260408120805483929061076a908490610d4d565b90915550506040518181527f00000000000000000000000000000000000000000000000000000000000000006001600160a01b03169033907f8752a472e571a816aea92eec8dae9baf628e840f4929fbcc2d155e6233ff68a79060200160405180910390a350565b6107da610ae1565b6001600160a01b0382166108015760405163e6c4247b60e01b815260040160405180910390fd5b6001600160a01b0382165f81815260046020908152604091829020805460ff191685151590811790915591519182527fcb29ab590819cd2db0d1579a18d3b436aa55c8cba348bb15adf19163caa5a12291016103d5565b610860610ae1565b600180546001600160a01b0383166001600160a01b031990911681179091556108905f546001600160a01b031690565b6001600160a01b03167f38d16b8cac22d99fc7c124b9cd0de2d3fa1faef420bfe791d8c362d765e2270060405160405180910390a350565b6001600160a01b0382166108ef5760405163e6c4247b60e01b815260040160405180910390fd5b805f0361090f57604051631f2a200560e01b815260040160405180910390fd5b8061091983610587565b1015610938576040516341c092a960e01b815260040160405180910390fd5b6001600160a01b0382165f908152600260205260408120805483929061095f908490610d3a565b9091555061099090507f000000000000000000000000000000000000000000000000000000000000000083836109f5565b7f00000000000000000000000000000000000000000000000000000000000000006001600160a01b0316826001600160a01b03167fd1c19fbcd4551a5edfb66d43d2e337c04837afda3482b42bdf569a8fccdae5fb836040516104e691815260200190565b604080516001600160a01b038481166024830152604480830185905283518084039091018152606490920183526020820180516001600160e01b031663a9059cbb60e01b17905291515f92839290871691610a509190610d60565b5f604051808303815f865af19150503d805f8114610a89576040519150601f19603f3d011682016040523d82523d5f602084013e610a8e565b606091505b5091509150811580610abc5750805115801590610abc575080806020019051810190610aba9190610d8c565b155b15610ada576040516312171d8360e31b815260040160405180910390fd5b5050505050565b5f546001600160a01b031633146105035760405163118cdaa760e01b8152336004820152602401610575565b600180546001600160a01b03191690556102b081610c1b565b604080516001600160a01b0385811660248301528481166044830152606480830185905283518084039091018152608490920183526020820180516001600160e01b03166323b872dd60e01b17905291515f92839290881691610b899190610d60565b5f604051808303815f865af19150503d805f8114610bc2576040519150601f19603f3d011682016040523d82523d5f602084013e610bc7565b606091505b5091509150811580610bf55750805115801590610bf5575080806020019051810190610bf39190610d8c565b155b15610c13576040516312171d8360e31b815260040160405180910390fd5b505050505050565b5f80546001600160a01b038381166001600160a01b0319831681178455604051919092169283917f8be0079c531659141344cd1fd0a4f28419497f9722a3daafe3b4186f6b6457e09190a35050565b80356001600160a01b0381168114610c80575f80fd5b919050565b5f60208284031215610c95575f80fd5b610c9e82610c6a565b9392505050565b5f60208284031215610cb5575f80fd5b5035919050565b5f8060408385031215610ccd575f80fd5b610cd683610c6a565b946020939093013593505050565b80151581146102b0575f80fd5b5f8060408385031215610d02575f80fd5b610d0b83610c6a565b91506020830135610d1b81610ce4565b809150509250929050565b634e487b7160e01b5f52601160045260245ffd5b818103818111156105b4576105b4610d26565b808201808211156105b4576105b4610d26565b5f82515f5b81811015610d7f5760208186018101518583015201610d65565b505f920191825250919050565b5f60208284031215610d9c575f80fd5b8151610c9e81610ce456fea26469706673582212203a083a1a78f89d5ddf556a03530ee4edd52c59d6c03a676cc411789a5caffff764736f6c63430008180033","linkReferences":{}},"methodIdentifiers":{"acceptOwnership()":"79ba5097","authorizedModules(address)":"17f6fe5b","availableBalance(address)":"a0821be3","collateralToken()":"b2016bd4","deposit(uint256)":"b6b55f25","lockMargin(address,uint256)":"a5bce379","lockedMargin(address)":"d389e33e","owner()":"8da5cb5b","pendingOwner()":"e30c3978","renounceOwnership()":"715018a6","setAuthorizedModule(address,bool)":"e9761a69","totalBalance(address)":"6eacd398","transferOut(address,uint256)":"76890c58","transferOwnership(address)":"f2fde38b","transferSettlement(address,uint256)":"71478383","unlockMargin(address,uint256)":"2f45580c","withdraw(uint256)":"2e1a7d4d"},"id":3}