{"abi":[{"type":"constructor","inputs":[{"name":"initialOwner","type":"address","internalType":"address"}],"stateMutability":"nonpayable"},{"type":"function","name":"acceptOwnership","inputs":[],"outputs":[],"stateMutability":"nonpayable"},{"type":"function","name":"getIndexPrice","inputs":[{"name":"marketId","type":"bytes32","internalType":"bytes32"}],"outputs":[{"name":"priceX18","type":"uint256","internalType":"uint256"}],"stateMutability":"view"},{"type":"function","name":"getMarkPrice","inputs":[{"name":"marketId","type":"bytes32","internalType":"bytes32"}],"outputs":[{"name":"priceX18","type":"uint256","internalType":"uint256"}],"stateMutability":"view"},{"type":"function","name":"getMarketOracleConfig","inputs":[{"name":"marketId","type":"bytes32","internalType":"bytes32"}],"outputs":[{"name":"","type":"tuple","internalType":"struct OracleAdapter.MarketOracleConfig","components":[{"name":"markFeed","type":"address","internalType":"address"},{"name":"indexFeed","type":"address","internalType":"address"},{"name":"maxStaleness","type":"uint32","internalType":"uint32"},{"name":"maxDeviationBps","type":"uint16","internalType":"uint16"},{"name":"markFeedDecimals","type":"uint8","internalType":"uint8"},{"name":"indexFeedDecimals","type":"uint8","internalType":"uint8"},{"name":"minPriceX18","type":"uint256","internalType":"uint256"},{"name":"maxPriceX18","type":"uint256","internalType":"uint256"},{"name":"isActive","type":"bool","internalType":"bool"}]}],"stateMutability":"view"},{"type":"function","name":"owner","inputs":[],"outputs":[{"name":"","type":"address","internalType":"address"}],"stateMutability":"view"},{"type":"function","name":"pendingOwner","inputs":[],"outputs":[{"name":"","type":"address","internalType":"address"}],"stateMutability":"view"},{"type":"function","name":"renounceOwnership","inputs":[],"outputs":[],"stateMutability":"nonpayable"},{"type":"function","name":"setMarketFeeds","inputs":[{"name":"marketId","type":"bytes32","internalType":"bytes32"},{"name":"markFeed","type":"address","internalType":"address"},{"name":"indexFeed","type":"address","internalType":"address"},{"name":"maxStaleness","type":"uint32","internalType":"uint32"},{"name":"maxDeviationBps","type":"uint16","internalType":"uint16"},{"name":"minPriceX18","type":"uint256","internalType":"uint256"},{"name":"maxPriceX18","type":"uint256","internalType":"uint256"}],"outputs":[],"stateMutability":"nonpayable"},{"type":"function","name":"transferOwnership","inputs":[{"name":"newOwner","type":"address","internalType":"address"}],"outputs":[],"stateMutability":"nonpayable"},{"type":"event","name":"OracleMarketConfigured","inputs":[{"name":"marketId","type":"bytes32","indexed":true,"internalType":"bytes32"},{"name":"markFeed","type":"address","indexed":true,"internalType":"address"},{"name":"indexFeed","type":"address","indexed":true,"internalType":"address"},{"name":"maxStaleness","type":"uint32","indexed":false,"internalType":"uint32"},{"name":"maxDeviationBps","type":"uint16","indexed":false,"internalType":"uint16"},{"name":"minPriceX18","type":"uint256","indexed":false,"internalType":"uint256"},{"name":"maxPriceX18","type":"uint256","indexed":false,"internalType":"uint256"}],"anonymous":false},{"type":"event","name":"OwnershipTransferStarted","inputs":[{"name":"previousOwner","type":"address","indexed":true,"internalType":"address"},{"name":"newOwner","type":"address","indexed":true,"internalType":"address"}],"anonymous":false},{"type":"event","name":"OwnershipTransferred","inputs":[{"name":"previousOwner","type":"address","indexed":true,"internalType":"address"},{"name":"newOwner","type":"address","indexed":true,"internalType":"address"}],"anonymous":false},{"type":"error","name":"InvalidMarket","inputs":[]},{"type":"error","name":"InvalidOracleConfig","inputs":[]},{"type":"error","name":"InvalidPrice","inputs":[]},{"type":"error","name":"OwnableInvalidOwner","inputs":[{"name":"owner","type":"address","internalType":"address"}]},{"type":"error","name":"OwnableUnauthorizedAccount","inputs":[{"name":"account","type":"address","internalType":"address"}]},{"type":"error","name":"PriceDeviationTooHigh","inputs":[]},{"type":"error","name":"StalePrice","inputs":[]}],"bytecode":{"object":"0x608060405234801561000f575f80fd5b50604051610f67380380610f6783398101604081905261002e916100d7565b806001600160a01b03811661005c57604051631e4fbdf760e01b81525f600482015260240160405180910390fd5b6100658161006c565b5050610104565b600180546001600160a01b031916905561008581610088565b50565b5f80546001600160a01b038381166001600160a01b0319831681178455604051919092169283917f8be0079c531659141344cd1fd0a4f28419497f9722a3daafe3b4186f6b6457e09190a35050565b5f602082840312156100e7575f80fd5b81516001600160a01b03811681146100fd575f80fd5b9392505050565b610e56806101115f395ff3fe608060405234801561000f575f80fd5b5060043610610090575f3560e01c806379ba50971161006357806379ba5097146101df5780638da5cb5b146101e7578063af456bfe1461020b578063e30c39781461021e578063f2fde38b1461022f575f80fd5b806344ba68f21461009457806365312f18146101a1578063715018a6146101c25780637698aa33146101cc575b5f80fd5b61018b6100a2366004610aa9565b60408051610120810182525f80825260208201819052918101829052606081018290526080810182905260a0810182905260c0810182905260e08101829052610100810191909152505f9081526002602081815260409283902083516101208101855281546001600160a01b03908116825260018301549081169382019390935263ffffffff600160a01b8404169481019490945261ffff600160c01b830416606085015260ff600160d01b830481166080860152600160d81b909204821660a08501529182015460c0840152600382015460e084015260049091015416151561010082015290565b6040516101989190610ac0565b60405180910390f35b6101b46101af366004610aa9565b610242565b604051908152602001610198565b6101ca610258565b005b6101b46101da366004610aa9565b61026b565b6101ca610281565b5f546001600160a01b03165b6040516001600160a01b039091168152602001610198565b6101ca610219366004610b85565b6102ca565b6001546001600160a01b03166101f3565b6101ca61023d366004610c04565b61067e565b5f8061024d836106ee565b509095945050505050565b61026061086f565b6102695f61089b565b565b5f80610276836106ee565b509195945050505050565b60015433906001600160a01b031681146102be5760405163118cdaa760e01b81526001600160a01b03821660048201526024015b60405180910390fd5b6102c78161089b565b50565b6102d261086f565b8615806102e657506001600160a01b038616155b806102f857506001600160a01b038516155b1561031657604051639db8d5b160e01b815260040160405180910390fd5b63ffffffff8416158061032e57506127108361ffff16115b1561034c5760405163dae95a0760e01b815260040160405180910390fd5b8115806103595750808210155b156103775760405163dae95a0760e01b815260040160405180910390fd5b5f866001600160a01b031663313ce5676040518163ffffffff1660e01b8152600401602060405180830381865afa1580156103b4573d5f803e3d5ffd5b505050506040513d601f19601f820116820180604052508101906103d89190610c1d565b90505f866001600160a01b031663313ce5676040518163ffffffff1660e01b8152600401602060405180830381865afa158015610417573d5f803e3d5ffd5b505050506040513d601f19601f8201168201806040525081019061043b9190610c1d565b905060128260ff161180610452575060128160ff16115b156104705760405163dae95a0760e01b815260040160405180910390fd5b604051806101200160405280896001600160a01b03168152602001886001600160a01b031681526020018763ffffffff1681526020018661ffff1681526020018360ff1681526020018260ff1681526020018581526020018481526020016001151581525060025f8b81526020019081526020015f205f820151815f015f6101000a8154816001600160a01b0302191690836001600160a01b031602179055506020820151816001015f6101000a8154816001600160a01b0302191690836001600160a01b0316021790555060408201518160010160146101000a81548163ffffffff021916908363ffffffff16021790555060608201518160010160186101000a81548161ffff021916908361ffff160217905550608082015181600101601a6101000a81548160ff021916908360ff16021790555060a082015181600101601b6101000a81548160ff021916908360ff16021790555060c0820151816002015560e08201518160030155610100820151816004015f6101000a81548160ff021916908315150217905550905050866001600160a01b0316886001600160a01b03168a7f8b8dbfe902c417488799f106dae754050927640d9fad715685445d309592e14c8989898960405161066b949392919063ffffffff94909416845261ffff9290921660208401526040830152606082015260800190565b60405180910390a4505050505050505050565b61068661086f565b600180546001600160a01b0383166001600160a01b031990911681179091556106b65f546001600160a01b031690565b6001600160a01b03167f38d16b8cac22d99fc7c124b9cd0de2d3fa1faef420bfe791d8c362d765e2270060405160405180910390a350565b5f81815260026020818152604080842081516101208101835281546001600160a01b03908116825260018301549081169482019490945263ffffffff600160a01b8504169281019290925261ffff600160c01b840416606083015260ff600160d01b840481166080840152600160d81b909304831660a08301529283015460c0820152600383015460e08201526004909201541615156101008201819052829182918291906107b057604051639db8d5b160e01b815260040160405180910390fd5b6107c1815f015182608001516108b4565b602083015160a08401519297509094506107da916108b4565b604083015191955092506107f49063ffffffff1684610c58565b421180610814575060408101516108119063ffffffff1683610c58565b42115b1561083257604051630cd5fa0760e11b815260040160405180910390fd5b610845858260c001518360e0015161099d565b610858848260c001518360e0015161099d565b610867858583606001516109cc565b509193509193565b5f546001600160a01b031633146102695760405163118cdaa760e01b81523360048201526024016102b5565b600180546001600160a01b03191690556102c781610a2f565b5f805f80856001600160a01b031663feaf968c6040518163ffffffff1660e01b815260040160a060405180830381865afa1580156108f4573d5f803e3d5ffd5b505050506040513d601f19601f820116820180604052508101906109189190610c84565b509350509250505f8213158061092c575080155b8061093657504281115b156109535760405162bfc92160e01b815260040160405180910390fd5b8160ff861660120361096a57935091506109969050565b5f610976876012610cd0565b61098190600a610dc9565b905061098d8183610dd7565b95509193505050505b9250929050565b818310806109aa57508083115b156109c75760405162bfc92160e01b815260040160405180910390fd5b505050565b8061ffff165f036109dc57505050565b5f6109e78484610a7e565b90505f836109f761271084610dd7565b610a019190610dee565b90508261ffff16811115610a28576040516369e2517960e11b815260040160405180910390fd5b5050505050565b5f80546001600160a01b038381166001600160a01b0319831681178455604051919092169283917f8be0079c531659141344cd1fd0a4f28419497f9722a3daafe3b4186f6b6457e09190a35050565b5f81831015610a9657610a918383610e0d565b610aa0565b610aa08284610e0d565b90505b92915050565b5f60208284031215610ab9575f80fd5b5035919050565b81516001600160a01b03908116825260208084015190911690820152604080830151610120830191610af99084018263ffffffff169052565b506060830151610b0f606084018261ffff169052565b506080830151610b24608084018260ff169052565b5060a0830151610b3960a084018260ff169052565b5060c083015160c083015260e083015160e083015261010080840151610b628285018215159052565b505092915050565b80356001600160a01b0381168114610b80575f80fd5b919050565b5f805f805f805f60e0888a031215610b9b575f80fd5b87359650610bab60208901610b6a565b9550610bb960408901610b6a565b9450606088013563ffffffff81168114610bd1575f80fd5b9350608088013561ffff81168114610be7575f80fd5b9699959850939692959460a0840135945060c09093013592915050565b5f60208284031215610c14575f80fd5b610aa082610b6a565b5f60208284031215610c2d575f80fd5b815160ff81168114610c3d575f80fd5b9392505050565b634e487b7160e01b5f52601160045260245ffd5b80820180821115610aa357610aa3610c44565b805169ffffffffffffffffffff81168114610b80575f80fd5b5f805f805f60a08688031215610c98575f80fd5b610ca186610c6b565b9450602086015193506040860151925060608601519150610cc460808701610c6b565b90509295509295909350565b60ff8281168282160390811115610aa357610aa3610c44565b600181815b80851115610d2357815f1904821115610d0957610d09610c44565b80851615610d1657918102915b93841c9390800290610cee565b509250929050565b5f82610d3957506001610aa3565b81610d4557505f610aa3565b8160018114610d5b5760028114610d6557610d81565b6001915050610aa3565b60ff841115610d7657610d76610c44565b50506001821b610aa3565b5060208310610133831016604e8410600b8410161715610da4575081810a610aa3565b610dae8383610ce9565b805f1904821115610dc157610dc1610c44565b029392505050565b5f610aa060ff841683610d2b565b8082028115828204841417610aa357610aa3610c44565b5f82610e0857634e487b7160e01b5f52601260045260245ffd5b500490565b81810381811115610aa357610aa3610c4456fea26469706673582212208955df60f8defc1f089b690e162e1c9e4246da6a933357492892b4a4f11a2cce64736f6c63430008180033","linkReferences":{}},"methodIdentifiers":{"acceptOwnership()":"79ba5097","getIndexPrice(bytes32)":"65312f18","getMarkPrice(bytes32)":"7698aa33","getMarketOracleConfig(bytes32)":"44ba68f2","owner()":"8da5cb5b","pendingOwner()":"e30c3978","renounceOwnership()":"715018a6","setMarketFeeds(bytes32,address,address,uint32,uint16,uint256,uint256)":"af456bfe","transferOwnership(address)":"f2fde38b"},"id":4}