{"abi":[{"type":"constructor","inputs":[],"stateMutability":"nonpayable"},{"type":"function","name":"getPrice","inputs":[{"name":"asset","type":"address","internalType":"address"}],"outputs":[{"name":"priceX18","type":"uint256","internalType":"uint256"},{"name":"updatedAt","type":"uint256","internalType":"uint256"}],"stateMutability":"view"},{"type":"function","name":"owner","inputs":[],"outputs":[{"name":"","type":"address","internalType":"address"}],"stateMutability":"view"},{"type":"function","name":"prices","inputs":[{"name":"","type":"address","internalType":"address"}],"outputs":[{"name":"priceX18","type":"uint256","internalType":"uint256"},{"name":"updatedAt","type":"uint256","internalType":"uint256"}],"stateMutability":"view"},{"type":"function","name":"setPrice","inputs":[{"name":"asset","type":"address","internalType":"address"},{"name":"priceX18","type":"uint256","internalType":"uint256"}],"outputs":[],"stateMutability":"nonpayable"},{"type":"event","name":"PriceUpdated","inputs":[{"name":"asset","type":"address","indexed":true,"internalType":"address"},{"name":"priceX18","type":"uint256","indexed":false,"internalType":"uint256"},{"name":"updatedAt","type":"uint256","indexed":false,"internalType":"uint256"}],"anonymous":false},{"type":"error","name":"Unauthorized","inputs":[]}],"bytecode":{"object":"0x608060405234801561000f575f80fd5b505f80546001600160a01b0319163317905561024c8061002e5f395ff3fe608060405234801561000f575f80fd5b5060043610610049575f3560e01c8062e4768b1461004d57806341976e09146100625780638da5cb5b146100bc578063cfed246b146100e6575b5f80fd5b61006061005b3660046101ce565b61010c565b005b6100a26100703660046101f6565b6001600160a01b03165f9081526001602081815260409283902083518085019094528054808552920154920182905291565b604080519283526020830191909152015b60405180910390f35b5f546100ce906001600160a01b031681565b6040516001600160a01b0390911681526020016100b3565b6100a26100f43660046101f6565b600160208190525f9182526040909120805491015482565b5f546001600160a01b03163314610135576040516282b42960e81b815260040160405180910390fd5b6040805180820182528281524260208083018281526001600160a01b0387165f8181526001938490528690209451855590519390910192909255915190917fb556fac599c3c70efb9ab1fa725ecace6c81cc48d1455f886607def065f3e0c0916101a791858252602082015260400190565b60405180910390a25050565b80356001600160a01b03811681146101c9575f80fd5b919050565b5f80604083850312156101df575f80fd5b6101e8836101b3565b946020939093013593505050565b5f60208284031215610206575f80fd5b61020f826101b3565b939250505056fea264697066735822122075bc5105a7ec2f9166265fb3b139947ab46a8e4d986957880ddb2ef48d6f213364736f6c63430008180033","linkReferences":{}},"methodIdentifiers":{"getPrice(address)":"41976e09","owner()":"8da5cb5b","prices(address)":"cfed246b","setPrice(address,uint256)":"00e4768b"},"id":4}