{"abi":[{"type":"function","name":"claimToReturn","inputs":[],"outputs":[{"name":"","type":"uint256","internalType":"uint256"}],"stateMutability":"view"},{"type":"function","name":"closeCallCount","inputs":[],"outputs":[{"name":"","type":"uint256","internalType":"uint256"}],"stateMutability":"view"},{"type":"function","name":"lastEligible","inputs":[],"outputs":[{"name":"","type":"bool","internalType":"bool"}],"stateMutability":"view"},{"type":"function","name":"lastOpenInsuranceTermId","inputs":[],"outputs":[{"name":"","type":"bytes32","internalType":"bytes32"}],"stateMutability":"view"},{"type":"function","name":"lastOpenMarketId","inputs":[],"outputs":[{"name":"","type":"bytes32","internalType":"bytes32"}],"stateMutability":"view"},{"type":"function","name":"lastOpenPositionId","inputs":[],"outputs":[{"name":"","type":"uint256","internalType":"uint256"}],"stateMutability":"view"},{"type":"function","name":"lastOpenUser","inputs":[],"outputs":[{"name":"","type":"address","internalType":"address"}],"stateMutability":"view"},{"type":"function","name":"lastPositionId","inputs":[],"outputs":[{"name":"","type":"uint256","internalType":"uint256"}],"stateMutability":"view"},{"type":"function","name":"lastRealizedLoss","inputs":[],"outputs":[{"name":"","type":"uint256","internalType":"uint256"}],"stateMutability":"view"},{"type":"function","name":"lastRecipient","inputs":[],"outputs":[{"name":"","type":"address","internalType":"address"}],"stateMutability":"view"},{"type":"function","name":"liquidateCallCount","inputs":[],"outputs":[{"name":"","type":"uint256","internalType":"uint256"}],"stateMutability":"view"},{"type":"function","name":"onPositionClosed","inputs":[{"name":"","type":"address","internalType":"address"},{"name":"","type":"bytes32","internalType":"bytes32"},{"name":"","type":"uint256","internalType":"uint256"},{"name":"","type":"bytes32","internalType":"bytes32"}],"outputs":[],"stateMutability":"nonpayable"},{"type":"function","name":"onPositionLiquidated","inputs":[{"name":"","type":"address","internalType":"address"},{"name":"","type":"bytes32","internalType":"bytes32"},{"name":"","type":"uint256","internalType":"uint256"},{"name":"","type":"bytes32","internalType":"bytes32"}],"outputs":[],"stateMutability":"nonpayable"},{"type":"function","name":"onPositionOpened","inputs":[{"name":"user","type":"address","internalType":"address"},{"name":"marketId","type":"bytes32","internalType":"bytes32"},{"name":"positionId","type":"uint256","internalType":"uint256"},{"name":"insuranceTermId","type":"bytes32","internalType":"bytes32"}],"outputs":[{"name":"","type":"bool","internalType":"bool"}],"stateMutability":"nonpayable"},{"type":"function","name":"openCallCount","inputs":[],"outputs":[{"name":"","type":"uint256","internalType":"uint256"}],"stateMutability":"view"},{"type":"function","name":"openReturnValue","inputs":[],"outputs":[{"name":"","type":"bool","internalType":"bool"}],"stateMutability":"view"},{"type":"function","name":"processCallCount","inputs":[],"outputs":[{"name":"","type":"uint256","internalType":"uint256"}],"stateMutability":"view"},{"type":"function","name":"processLiquidationClaim","inputs":[{"name":"positionId","type":"uint256","internalType":"uint256"},{"name":"recipient","type":"address","internalType":"address"},{"name":"realizedLoss","type":"uint256","internalType":"uint256"},{"name":"eligible","type":"bool","internalType":"bool"}],"outputs":[{"name":"claimPaid","type":"uint256","internalType":"uint256"}],"stateMutability":"nonpayable"},{"type":"function","name":"setClaimToReturn","inputs":[{"name":"amount","type":"uint256","internalType":"uint256"}],"outputs":[],"stateMutability":"nonpayable"},{"type":"function","name":"setOpenReturnValue","inputs":[{"name":"value","type":"bool","internalType":"bool"}],"outputs":[],"stateMutability":"nonpayable"}],"bytecode":{"object":"0x60806040526003805460ff1916600117905534801561001c575f80fd5b506104a38061002a5f395ff3fe608060405234801561000f575f80fd5b5060043610610127575f3560e01c80638bcd099a116100a9578063bd1f42311161006e578063bd1f423114610237578063d23ee66b14610244578063d374892114610257578063d9428c081461026a578063e7f5c2401461027d575f80fd5b80638bcd099a146101cb5780639bb87e81146101ec5780639c925b72146101f55780639e6e960114610225578063a7d1de4c1461022e575f80fd5b806331643778116100ef57806331643778146101955780633b12f3dc146101a8578063440d95f7146101b15780634a2f67d8146101b957806358354502146101c2575f80fd5b806302b8d6d81461012b5780630c3b7136146101475780630da36d41146101505780631a32b9fc14610165578063241e8fe914610188575b5f80fd5b61013460065481565b6040519081526020015b60405180910390f35b61013460055481565b61016361015e36600461036e565b600c55565b005b6101786101733660046103a0565b610286565b604051901515815260200161013e565b600b546101789060ff1681565b6101346101a33660046103e5565b6102e6565b610134600c5481565b6101345f5481565b61013460015481565b61013460085481565b6101636101d9366004610428565b6003805460ff1916911515919091179055565b610134600a5481565b60035461020d9061010090046001600160a01b031681565b6040516001600160a01b03909116815260200161013e565b61013460045481565b61013460075481565b6003546101789060ff1681565b60095461020d906001600160a01b031681565b6101636102653660046103a0565b610340565b6101636102783660046103a0565b61035d565b61013460025481565b5f60015f808282546102989190610448565b909155505060038054610100600160a81b0319166101006001600160a01b0388160217905560048490556005839055600682905581158015906102dd575060035460ff165b95945050505050565b5f600160075f8282546102f99190610448565b909155505050600893909355600980546001600160a01b0319166001600160a01b039390931692909217909155600a55600b805460ff1916911515919091179055600c5490565b600160025f8282546103529190610448565b909155505050505050565b6001805f8282546103529190610448565b5f6020828403121561037e575f80fd5b5035919050565b80356001600160a01b038116811461039b575f80fd5b919050565b5f805f80608085870312156103b3575f80fd5b6103bc85610385565b966020860135965060408601359560600135945092505050565b8035801515811461039b575f80fd5b5f805f80608085870312156103f8575f80fd5b8435935061040860208601610385565b92506040850135915061041d606086016103d6565b905092959194509250565b5f60208284031215610438575f80fd5b610441826103d6565b9392505050565b8082018082111561046757634e487b7160e01b5f52601160045260245ffd5b9291505056fea26469706673582212203edc74188637a2e330e0f5da2970d648f3761f66f6d1812383a15e7c803ed58c64736f6c63430008180033","linkReferences":{}},"methodIdentifiers":{"claimToReturn()":"3b12f3dc","closeCallCount()":"4a2f67d8","lastEligible()":"241e8fe9","lastOpenInsuranceTermId()":"02b8d6d8","lastOpenMarketId()":"9e6e9601","lastOpenPositionId()":"0c3b7136","lastOpenUser()":"9c925b72","lastPositionId()":"58354502","lastRealizedLoss()":"9bb87e81","lastRecipient()":"d23ee66b","liquidateCallCount()":"e7f5c240","onPositionClosed(address,bytes32,uint256,bytes32)":"d9428c08","onPositionLiquidated(address,bytes32,uint256,bytes32)":"d3748921","onPositionOpened(address,bytes32,uint256,bytes32)":"1a32b9fc","openCallCount()":"440d95f7","openReturnValue()":"bd1f4231","processCallCount()":"a7d1de4c","processLiquidationClaim(uint256,address,uint256,bool)":"31643778","setClaimToReturn(uint256)":"0da36d41","setOpenReturnValue(bool)":"8bcd099a"},"id":15}