{"abi":[{"type":"constructor","inputs":[{"name":"decimals_","type":"uint8","internalType":"uint8"}],"stateMutability":"nonpayable"},{"type":"function","name":"decimals","inputs":[],"outputs":[{"name":"","type":"uint8","internalType":"uint8"}],"stateMutability":"view"},{"type":"function","name":"latestRoundData","inputs":[],"outputs":[{"name":"roundId","type":"uint80","internalType":"uint80"},{"name":"answer","type":"int256","internalType":"int256"},{"name":"startedAt","type":"uint256","internalType":"uint256"},{"name":"updatedAt","type":"uint256","internalType":"uint256"},{"name":"answeredInRound","type":"uint80","internalType":"uint80"}],"stateMutability":"view"},{"type":"function","name":"setAnswer","inputs":[{"name":"answer_","type":"int256","internalType":"int256"},{"name":"updatedAt_","type":"uint256","internalType":"uint256"}],"outputs":[],"stateMutability":"nonpayable"}],"bytecode":{"object":"0x60a060405234801561000f575f80fd5b5060405161018938038061018983398101604081905261002e91610039565b60ff16608052610060565b5f60208284031215610049575f80fd5b815160ff81168114610059575f80fd5b9392505050565b6080516101126100775f395f604201526101125ff3fe6080604052348015600e575f80fd5b5060043610603a575f3560e01c8063313ce56714603e578063860f138314607b578063feaf968c146092575b5f80fd5b60647f000000000000000000000000000000000000000000000000000000000000000081565b60405160ff90911681526020015b60405180910390f35b6090608636600460bd565b5f91909155600155565b005b5f546001805460408051838152602081019490945283018190526060830152608082015260a0016072565b5f806040838503121560cd575f80fd5b5050803592602090910135915056fea26469706673582212200559f233fe6d2d254c42c22abeee9e96281c5e63f19e3fd1df9781551138d9e464736f6c63430008180033","linkReferences":{}},"methodIdentifiers":{"decimals()":"313ce567","latestRoundData()":"feaf968c","setAnswer(int256,uint256)":"860f1383"},"id":17}