{"abi":[{"type":"function","name":"nextPositionId","inputs":[],"outputs":[{"name":"","type":"uint256","internalType":"uint256"}],"stateMutability":"view"},{"type":"function","name":"openPosition","inputs":[{"name":"asset","type":"address","internalType":"address"},{"name":"size","type":"uint256","internalType":"uint256"},{"name":"entryPriceX18","type":"uint256","internalType":"uint256"},{"name":"side","type":"uint8","internalType":"enum Types.PositionSide"}],"outputs":[{"name":"id","type":"uint256","internalType":"uint256"}],"stateMutability":"nonpayable"},{"type":"function","name":"positions","inputs":[{"name":"","type":"uint256","internalType":"uint256"}],"outputs":[{"name":"account","type":"address","internalType":"address"},{"name":"asset","type":"address","internalType":"address"},{"name":"size","type":"uint256","internalType":"uint256"},{"name":"entryPriceX18","type":"uint256","internalType":"uint256"},{"name":"side","type":"uint8","internalType":"enum Types.PositionSide"}],"stateMutability":"view"}],"bytecode":{"object":"0x608060405234801561000f575f80fd5b506102e28061001d5f395ff3fe608060405234801561000f575f80fd5b506004361061003f575f3560e01c80634039aedc14610043578063899346c71461006957806399fbab8814610071575b5f80fd5b6100566100513660046101b6565b6100ce565b6040519081526020015b60405180910390f35b6100565f5481565b6100bd61007f36600461020b565b600160208190525f9182526040909120805491810154600282015460038301546004909301546001600160a01b039485169490921692909160ff1685565b604051610060959493929190610236565b5f805f81546100dc90610288565b91905081905590506040518060a00160405280336001600160a01b03168152602001866001600160a01b0316815260200185815260200184815260200183600181111561012b5761012b610222565b90525f82815260016020818152604092839020845181546001600160a01b03199081166001600160a01b039283161783559286015182850180549094169116179091559183015160028301556060830151600383015560808301516004830180549192909160ff19169083818111156101a6576101a6610222565b0217905550905050949350505050565b5f805f80608085870312156101c9575f80fd5b84356001600160a01b03811681146101df575f80fd5b93506020850135925060408501359150606085013560028110610200575f80fd5b939692955090935050565b5f6020828403121561021b575f80fd5b5035919050565b634e487b7160e01b5f52602160045260245ffd5b6001600160a01b03868116825285166020820152604081018490526060810183905260a081016002831061027857634e487b7160e01b5f52602160045260245ffd5b8260808301529695505050505050565b5f600182016102a557634e487b7160e01b5f52601160045260245ffd5b506001019056fea2646970667358221220259a03026128b79ec4662c5bbf96d305e0e2e067a2c0c662f2992372e1ab9a7364736f6c63430008180033","linkReferences":{}},"methodIdentifiers":{"nextPositionId()":"899346c7","openPosition(address,uint256,uint256,uint8)":"4039aedc","positions(uint256)":"99fbab88"},"id":5}