{"abi":[{"type":"constructor","inputs":[{"name":"initialOwner","type":"address","internalType":"address"},{"name":"marginVault_","type":"address","internalType":"address"},{"name":"riskConfig_","type":"address","internalType":"address"}],"stateMutability":"nonpayable"},{"type":"function","name":"acceptOwnership","inputs":[],"outputs":[],"stateMutability":"nonpayable"},{"type":"function","name":"authorizedRelayer","inputs":[{"name":"relayer","type":"address","internalType":"address"}],"outputs":[{"name":"isAuthorized","type":"bool","internalType":"bool"}],"stateMutability":"view"},{"type":"function","name":"closePosition","inputs":[{"name":"params","type":"tuple","internalType":"struct PositionManager.ClosePositionParams","components":[{"name":"owner","type":"address","internalType":"address"},{"name":"marketId","type":"bytes32","internalType":"bytes32"},{"name":"executionPriceX18","type":"uint256","internalType":"uint256"}]}],"outputs":[],"stateMutability":"nonpayable"},{"type":"function","name":"getPosition","inputs":[{"name":"user","type":"address","internalType":"address"},{"name":"marketId","type":"bytes32","internalType":"bytes32"}],"outputs":[{"name":"position","type":"tuple","internalType":"struct Types.Position","components":[{"name":"id","type":"uint256","internalType":"uint256"},{"name":"trader","type":"address","internalType":"address"},{"name":"marketId","type":"bytes32","internalType":"bytes32"},{"name":"collateralToken","type":"address","internalType":"address"},{"name":"collateralAmount","type":"uint256","internalType":"uint256"},{"name":"sizeUsdX18","type":"uint256","internalType":"uint256"},{"name":"entryPriceX18","type":"uint256","internalType":"uint256"},{"name":"leverageX18","type":"uint256","internalType":"uint256"},{"name":"isLong","type":"bool","internalType":"bool"},{"name":"status","type":"uint8","internalType":"enum Types.PositionStatus"},{"name":"insuranceStatus","type":"uint8","internalType":"enum Types.InsuranceStatus"},{"name":"openedAt","type":"uint64","internalType":"uint64"},{"name":"closedAt","type":"uint64","internalType":"uint64"},{"name":"insuranceTermId","type":"bytes32","internalType":"bytes32"}]}],"stateMutability":"view"},{"type":"function","name":"increasePosition","inputs":[{"name":"params","type":"tuple","internalType":"struct PositionManager.IncreasePositionParams","components":[{"name":"owner","type":"address","internalType":"address"},{"name":"marketId","type":"bytes32","internalType":"bytes32"},{"name":"sizeDeltaUsdX18","type":"uint256","internalType":"uint256"},{"name":"executionPriceX18","type":"uint256","internalType":"uint256"},{"name":"additionalMargin","type":"uint256","internalType":"uint256"}]}],"outputs":[],"stateMutability":"nonpayable"},{"type":"function","name":"insuranceController","inputs":[],"outputs":[{"name":"","type":"address","internalType":"address"}],"stateMutability":"view"},{"type":"function","name":"marginVault","inputs":[],"outputs":[{"name":"","type":"address","internalType":"address"}],"stateMutability":"view"},{"type":"function","name":"markLiquidated","inputs":[{"name":"user","type":"address","internalType":"address"},{"name":"marketId","type":"bytes32","internalType":"bytes32"},{"name":"liquidator","type":"address","internalType":"address"},{"name":"executionPriceX18","type":"uint256","internalType":"uint256"}],"outputs":[],"stateMutability":"nonpayable"},{"type":"function","name":"nextPositionId","inputs":[],"outputs":[{"name":"","type":"uint256","internalType":"uint256"}],"stateMutability":"view"},{"type":"function","name":"openPosition","inputs":[{"name":"params","type":"tuple","internalType":"struct PositionManager.OpenPositionParams","components":[{"name":"owner","type":"address","internalType":"address"},{"name":"marketId","type":"bytes32","internalType":"bytes32"},{"name":"isLong","type":"bool","internalType":"bool"},{"name":"sizeUsdX18","type":"uint256","internalType":"uint256"},{"name":"entryPriceX18","type":"uint256","internalType":"uint256"},{"name":"leverageX18","type":"uint256","internalType":"uint256"},{"name":"margin","type":"uint256","internalType":"uint256"},{"name":"insuranceTermId","type":"bytes32","internalType":"bytes32"}]}],"outputs":[],"stateMutability":"nonpayable"},{"type":"function","name":"owner","inputs":[],"outputs":[{"name":"","type":"address","internalType":"address"}],"stateMutability":"view"},{"type":"function","name":"pendingOwner","inputs":[],"outputs":[{"name":"","type":"address","internalType":"address"}],"stateMutability":"view"},{"type":"function","name":"reducePosition","inputs":[{"name":"params","type":"tuple","internalType":"struct PositionManager.ReducePositionParams","components":[{"name":"owner","type":"address","internalType":"address"},{"name":"marketId","type":"bytes32","internalType":"bytes32"},{"name":"sizeDeltaUsdX18","type":"uint256","internalType":"uint256"},{"name":"executionPriceX18","type":"uint256","internalType":"uint256"}]}],"outputs":[],"stateMutability":"nonpayable"},{"type":"function","name":"renounceOwnership","inputs":[],"outputs":[],"stateMutability":"nonpayable"},{"type":"function","name":"riskConfig","inputs":[],"outputs":[{"name":"","type":"address","internalType":"address"}],"stateMutability":"view"},{"type":"function","name":"setInsuranceController","inputs":[{"name":"newInsuranceController","type":"address","internalType":"address"}],"outputs":[],"stateMutability":"nonpayable"},{"type":"function","name":"setRelayer","inputs":[{"name":"relayer","type":"address","internalType":"address"},{"name":"isAuthorized","type":"bool","internalType":"bool"}],"outputs":[],"stateMutability":"nonpayable"},{"type":"function","name":"transferOwnership","inputs":[{"name":"newOwner","type":"address","internalType":"address"}],"outputs":[],"stateMutability":"nonpayable"},{"type":"event","name":"InsuranceControllerUpdated","inputs":[{"name":"previousController","type":"address","indexed":true,"internalType":"address"},{"name":"newController","type":"address","indexed":true,"internalType":"address"}],"anonymous":false},{"type":"event","name":"LiquidationCompleted","inputs":[{"name":"positionId","type":"uint256","indexed":true,"internalType":"uint256"},{"name":"liquidator","type":"address","indexed":true,"internalType":"address"},{"name":"realizedPnl","type":"int256","indexed":false,"internalType":"int256"},{"name":"insurancePayout","type":"uint256","indexed":false,"internalType":"uint256"}],"anonymous":false},{"type":"event","name":"LiquidationTriggered","inputs":[{"name":"positionId","type":"uint256","indexed":true,"internalType":"uint256"},{"name":"liquidator","type":"address","indexed":true,"internalType":"address"},{"name":"markPriceX18","type":"uint256","indexed":false,"internalType":"uint256"}],"anonymous":false},{"type":"event","name":"OwnershipTransferStarted","inputs":[{"name":"previousOwner","type":"address","indexed":true,"internalType":"address"},{"name":"newOwner","type":"address","indexed":true,"internalType":"address"}],"anonymous":false},{"type":"event","name":"OwnershipTransferred","inputs":[{"name":"previousOwner","type":"address","indexed":true,"internalType":"address"},{"name":"newOwner","type":"address","indexed":true,"internalType":"address"}],"anonymous":false},{"type":"event","name":"PositionClosed","inputs":[{"name":"positionId","type":"uint256","indexed":true,"internalType":"uint256"},{"name":"realizedPnl","type":"int256","indexed":false,"internalType":"int256"},{"name":"exitPriceX18","type":"uint256","indexed":false,"internalType":"uint256"}],"anonymous":false},{"type":"event","name":"PositionIncreased","inputs":[{"name":"positionId","type":"uint256","indexed":true,"internalType":"uint256"},{"name":"newSizeUsdX18","type":"uint256","indexed":false,"internalType":"uint256"},{"name":"addedCollateral","type":"uint256","indexed":false,"internalType":"uint256"}],"anonymous":false},{"type":"event","name":"PositionOpened","inputs":[{"name":"positionId","type":"uint256","indexed":true,"internalType":"uint256"},{"name":"trader","type":"address","indexed":true,"internalType":"address"},{"name":"marketId","type":"bytes32","indexed":true,"internalType":"bytes32"},{"name":"sizeUsdX18","type":"uint256","indexed":false,"internalType":"uint256"},{"name":"collateralAmount","type":"uint256","indexed":false,"internalType":"uint256"},{"name":"entryPriceX18","type":"uint256","indexed":false,"internalType":"uint256"},{"name":"isLong","type":"bool","indexed":false,"internalType":"bool"}],"anonymous":false},{"type":"event","name":"PositionReduced","inputs":[{"name":"positionId","type":"uint256","indexed":true,"internalType":"uint256"},{"name":"reducedSizeUsdX18","type":"uint256","indexed":false,"internalType":"uint256"},{"name":"realizedPnl","type":"int256","indexed":false,"internalType":"int256"}],"anonymous":false},{"type":"event","name":"RelayerUpdated","inputs":[{"name":"relayer","type":"address","indexed":true,"internalType":"address"},{"name":"isAuthorized","type":"bool","indexed":false,"internalType":"bool"}],"anonymous":false},{"type":"error","name":"InactivePosition","inputs":[]},{"type":"error","name":"InvalidAddress","inputs":[]},{"type":"error","name":"InvalidLeverage","inputs":[]},{"type":"error","name":"InvalidLiquidationState","inputs":[]},{"type":"error","name":"InvalidMarket","inputs":[]},{"type":"error","name":"InvalidSize","inputs":[]},{"type":"error","name":"OwnableInvalidOwner","inputs":[{"name":"owner","type":"address","internalType":"address"}]},{"type":"error","name":"OwnableUnauthorizedAccount","inputs":[{"name":"account","type":"address","internalType":"address"}]},{"type":"error","name":"PositionAlreadyOpen","inputs":[]},{"type":"error","name":"Unauthorized","inputs":[]},{"type":"error","name":"ZeroAmount","inputs":[]}],"bytecode":{"object":"0x60c060405234801562000010575f80fd5b5060405162001e6638038062001e6683398101604081905262000033916200014d565b826001600160a01b0381166200006257604051631e4fbdf760e01b81525f600482015260240160405180910390fd5b6200006d81620000c4565b506001600160a01b03821615806200008c57506001600160a01b038116155b15620000ab5760405163e6c4247b60e01b815260040160405180910390fd5b6001600160a01b039182166080521660a0525062000194565b600180546001600160a01b0319169055620000df81620000e2565b50565b5f80546001600160a01b038381166001600160a01b0319831681178455604051919092169283917f8be0079c531659141344cd1fd0a4f28419497f9722a3daafe3b4186f6b6457e09190a35050565b80516001600160a01b038116811462000148575f80fd5b919050565b5f805f6060848603121562000160575f80fd5b6200016b8462000131565b92506200017b6020850162000131565b91506200018b6040850162000131565b90509250925092565b60805160a051611c86620001e05f395f818161017b015261170501525f818161021a015281816106d80152818161095c01528181610e32015281816110fa015261147d0152611c865ff3fe608060405234801561000f575f80fd5b5060043610610111575f3560e01c806398259db81161009e578063cfad9ca81161006e578063cfad9ca81461024f578063e30c397814610281578063ecd8dc3a14610292578063f2fde38b146102a5578063f9954735146102b8575f80fd5b806398259db8146101ef578063acf0f66a14610202578063c2b12cb614610215578063c5c535a91461023c575f80fd5b806379ba5097116100e457806379ba50971461016e5780637c90a6ca14610176578063899346c7146101b55780638da5cb5b146101cc5780638f972240146101dc575f80fd5b80630fa8f516146101155780632def37a01461013e5780635fae968714610153578063715018a614610166575b5f80fd5b610128610123366004611861565b6102cb565b60405161013591906118bf565b60405180910390f35b61015161014c3660046119b0565b610479565b005b6101516101613660046119cb565b6104d2565b610151610781565b610151610794565b61019d7f000000000000000000000000000000000000000000000000000000000000000081565b6040516001600160a01b039091168152602001610135565b6101be60025481565b604051908152602001610135565b5f546001600160a01b031661019d565b60035461019d906001600160a01b031681565b6101516101fd366004611a10565b6107dd565b610151610210366004611a27565b610da2565b61019d7f000000000000000000000000000000000000000000000000000000000000000081565b61015161024a366004611a37565b610fb9565b61027161025d3660046119b0565b60046020525f908152604090205460ff1681565b6040519015158152602001610135565b6001546001600160a01b031661019d565b6101516102a0366004611a54565b6111ce565b6101516102b33660046119b0565b61125b565b6101516102c6366004611a8b565b6112cb565b61033c604080516101c0810182525f80825260208201819052918101829052606081018290526080810182905260a0810182905260c0810182905260e0810182905261010081018290529061012082019081526020015f81525f602082018190526040820181905260609091015290565b6001600160a01b038084165f90815260056020818152604080842087855282529283902083516101c0810185528154815260018201548616928101929092526002810154938201939093526003808401549094166060820152600483015460808201529082015460a0820152600682015460c0820152600782015460e0820152600882015460ff808216151561010080850191909152929461012086019390920416908111156103ee576103ee61188b565b60038111156103ff576103ff61188b565b81526020016008820160029054906101000a900460ff1660038111156104275761042761188b565b60038111156104385761043861188b565b8152600882015467ffffffffffffffff6301000000820481166020840152600160581b90910416604082015260099091015460609091015290505b92915050565b610481611546565b600380546001600160a01b038381166001600160a01b0319831681179093556040519116919082907f220b46f293ecd7c9211f4b66fac321c0a954fe57bdbab6ff0d2582dc52e83cfa905f90a35050565b335f9081526004602052604090205460ff16610500576040516282b42960e81b815260040160405180910390fd5b5f61050b8585611572565b90506001600160a01b0383161580610521575081155b1561053f5760405163381e4d7d60e01b815260040160405180910390fd5b80546040518381526001600160a01b03851691907f989f810eb99a637da2dea16820faf53fe3fe36c9e490d54c6215d81b700d862d9060200160405180910390a36008810154600582015460068301545f926105a19260ff9091169186611606565b60048301549091506001600884015462010000900460ff1660038111156105ca576105ca61188b565b1480156105e157506003546001600160a01b031615155b15610662576003548354600985015460405163d374892160e01b81526001600160a01b039093169263d374892192610621928c928c929190600401611a9b565b5f604051808303815f87803b158015610638575f80fd5b505af115801561064a573d5f803e3d5ffd5b5050505060088301805462ff00001916620200001790555b5f600584018190556004808501829055600785019190915560088401805467ffffffffffffffff4216600160581b0272ffffffffffffffff000000000000000000ff001990911617610300179055604051630bd1560360e21b81526001600160a01b0389811692820192909252602481018390527f000000000000000000000000000000000000000000000000000000000000000090911690632f45580c906044015f604051808303815f87803b15801561071b575f80fd5b505af115801561072d573d5f803e3d5ffd5b50508454604080518681525f60208201526001600160a01b038a1694509192507f747420e641b698a80f0dcdf3ad904c6df2df6652d951f0bc4b58bc7f589a042b910160405180910390a350505050505050565b610789611546565b6107925f611689565b565b60015433906001600160a01b031681146107d15760405163118cdaa760e01b81526001600160a01b03821660048201526024015b60405180910390fd5b6107da81611689565b50565b335f9081526004602052604090205460ff1661080b576040516282b42960e81b815260040160405180910390fd5b5f61081960208301836119b0565b6001600160a01b0316036108405760405163e6c4247b60e01b815260040160405180910390fd5b602081013561086257604051639db8d5b160e01b815260040160405180910390fd5b60c0810135158061087557506080810135155b1561089357604051631f2a200560e01b815260040160405180910390fd5b80606001355f036108b757604051630ffd11ad60e01b815260040160405180910390fd5b5f6005816108c860208501856119b0565b6001600160a01b0316815260208082019290925260409081015f9081208584013582529092529020905060016008820154610100900460ff1660038111156109125761091261188b565b0361093057604051631f19c11d60e01b815260040160405180910390fd5b5f61093e83602001356116a2565b90506109528360a00135826060015161179d565b6001600160a01b037f00000000000000000000000000000000000000000000000000000000000000001663a5bce37961098e60208601866119b0565b6040516001600160e01b031960e084901b1681526001600160a01b03909116600482015260c086013560248201526044015f604051808303815f87803b1580156109d6575f80fd5b505af11580156109e8573d5f803e3d5ffd5b505050505f60025f81546109fb90611ad5565b918290555090505f60e085013515801590610a2057506003546001600160a01b031615155b15610abe576003545f906001600160a01b0316631a32b9fc610a4560208901896119b0565b8860200135868a60e001356040518563ffffffff1660e01b8152600401610a6f9493929190611a9b565b6020604051808303815f875af1158015610a8b573d5f803e3d5ffd5b505050506040513d601f19601f82011682018060405250810190610aaf9190611af8565b90508015610abc57600191505b505b604080516101c08101909152828152602080820190610adf908801886119b0565b6001600160a01b031681526020018660200135815260200184604001516001600160a01b031681526020018660c00135815260200186606001358152602001866080013581526020018660a001358152602001866040016020810190610b459190611b13565b1515815260200160018152602001826003811115610b6557610b6561188b565b81526020014267ffffffffffffffff1681526020015f67ffffffffffffffff1681526020018660e0013581525060055f875f016020810190610ba791906119b0565b6001600160a01b03908116825260208083019390935260409182015f9081208a8501358252845282902084518155928401516001840180549183166001600160a01b031992831617905591840151600284015560608401516003808501805492909316919093161790556080830151600483015560a0830151600583015560c0830151600683015560e083015160078301556101008084015160088401805491151560ff1983168117825561012087015194919361ff001990911661ffff199093169290921791908490811115610c8057610c8061188b565b021790555061014082015160088201805462ff0000191662010000836003811115610cad57610cad61188b565b021790555061016082015160088201805461018085015167ffffffffffffffff908116600160581b0267ffffffffffffffff60581b19919094166301000000021672ffffffffffffffffffffffffffffffff00000019909116179190911790556101a09091015160099091015560208501803590610d2b90876119b0565b6001600160a01b0316837f3ffd7fd948c5e90086b70ba6a934fa1faed10bb524bb094bc1607b84cc6c58326060890180359060c08b01359060808c013590610d769060408e01611b13565b604080519485526020850193909352918301521515606082015260800160405180910390a45050505050565b335f9081526004602052604090205460ff16610dd0576040516282b42960e81b815260040160405180910390fd5b5f610deb610de160208401846119b0565b8360200135611572565b905060408201351580610e0057506060820135155b15610e1e57604051631f2a200560e01b815260040160405180910390fd5b608082013515610edf576001600160a01b037f00000000000000000000000000000000000000000000000000000000000000001663a5bce379610e6460208501856119b0565b6040516001600160e01b031960e084901b1681526001600160a01b039091166004820152608085013560248201526044015f604051808303815f87803b158015610eac575f80fd5b505af1158015610ebe573d5f803e3d5ffd5b505050508160800135816004015f828254610ed99190611b2e565b90915550505b60058101545f610ef3604085013583611b2e565b905080610f0860408601356060870135611b41565b838560060154610f189190611b41565b610f229190611b2e565b610f2c9190611b58565b6006840155600583018190556004830154610f489082906117cb565b60078401555f610f5b60208601356116a2565b9050610f6f8460070154826060015161179d565b8354600585015460408051918252608088013560208301527f7a7c91da4431183b882c881b099bbdf8b23aa5ccf277a523d67de7555e4d0a83910160405180910390a25050505050565b335f9081526004602052604090205460ff16610fe7576040516282b42960e81b815260040160405180910390fd5b5f610ff8610de160208401846119b0565b90506040820135158061100d57506060820135155b1561102b57604051631f2a200560e01b815260040160405180910390fd5b806005015482604001351061105357604051630ffd11ad60e01b815260040160405180910390fd5b600881015460068201545f916110799160ff909116906040860135906060870135611606565b90505f8260050154846040013584600401546110959190611b41565b61109f9190611b58565b90508360400135836005015f8282546110b89190611b77565b9250508190555080836004015f8282546110d29190611b77565b925050819055506110eb836005015484600401546117cb565b60078401556001600160a01b037f000000000000000000000000000000000000000000000000000000000000000016632f45580c61112c60208701876119b0565b6040516001600160e01b031960e084901b1681526001600160a01b039091166004820152602481018490526044015f604051808303815f87803b158015611171575f80fd5b505af1158015611183573d5f803e3d5ffd5b5050845460408051818901358152602081018790529193507f94af22c3a28c44c5d788e68496547b61a428a37968e07650fd07b0388951f42f9250015b60405180910390a250505050565b6111d6611546565b6001600160a01b0382166111fd5760405163e6c4247b60e01b815260040160405180910390fd5b6001600160a01b0382165f81815260046020908152604091829020805460ff191685151590811790915591519182527f4b36b2e66f38ed349bec532105790177f1283bcbc094e6cd48565195d3033c43910160405180910390a25050565b611263611546565b600180546001600160a01b0383166001600160a01b031990911681179091556112935f546001600160a01b031690565b6001600160a01b03167f38d16b8cac22d99fc7c124b9cd0de2d3fa1faef420bfe791d8c362d765e2270060405160405180910390a350565b335f9081526004602052604090205460ff166112f9576040516282b42960e81b815260040160405180910390fd5b5f61130a610de160208401846119b0565b905081604001355f0361133057604051631f2a200560e01b815260040160405180910390fd5b6008810154600582015460068301545f926113559260ff909116916040870135611606565b60048301549091506001600884015462010000900460ff16600381111561137e5761137e61188b565b14801561139557506003546001600160a01b031615155b15611429576003546001600160a01b031663d9428c086113b860208701876119b0565b855460098701546040516001600160e01b031960e086901b1681526113e8939260208b0135929091600401611a9b565b5f604051808303815f87803b1580156113ff575f80fd5b505af1158015611411573d5f803e3d5ffd5b5050505060088301805462ff00001916620200001790555b5f6005840181905560048401819055600784015560088301805467ffffffffffffffff4216600160581b0272ffffffffffffffff000000000000000000ff0019909116176102001790556001600160a01b037f000000000000000000000000000000000000000000000000000000000000000016632f45580c6114af60208701876119b0565b6040516001600160e01b031960e084901b1681526001600160a01b039091166004820152602481018490526044015f604051808303815f87803b1580156114f4575f80fd5b505af1158015611506573d5f803e3d5ffd5b50508454604080518681528189013560208201529193507f188c5a1621fdf38505775be572d11aceb0b1e5f518d210077c6f1ca91399d29d9250016111c0565b5f546001600160a01b031633146107925760405163118cdaa760e01b81523360048201526024016107c8565b5f6001600160a01b0383161580611587575081155b156115a557604051639db8d5b160e01b815260040160405180910390fd5b506001600160a01b0382165f908152600560209081526040808320848452909152902060016008820154610100900460ff1660038111156115e8576115e861188b565b1461047357604051631f9c0ddd60e31b815260040160405180910390fd5b5f825f0361161557505f611681565b5f82841161162c576116278484611b77565b611636565b6116368385611b77565b90505f846116448388611b41565b61164e9190611b58565b90505f8761165f5785851115611664565b858510155b9050806116795761167482611b8a565b61167b565b815b93505050505b949350505050565b600180546001600160a01b03191690556107da816117fe565b6116ef6040518060e001604052805f151581526020015f6001600160a01b031681526020015f6001600160a01b031681526020015f81526020015f81526020015f81526020015f81525090565b604051630d4d5c4360e31b8152600481018390527f00000000000000000000000000000000000000000000000000000000000000006001600160a01b031690636a6ae2189060240160e060405180830381865afa158015611752573d5f803e3d5ffd5b505050506040513d601f19601f820116820180604052508101906117769190611baf565b805190915061179857604051639db8d5b160e01b815260040160405180910390fd5b919050565b8115806117a957508082115b156117c757604051633fe89cb960e11b815260040160405180910390fd5b5050565b5f815f036117da57505f610473565b816117ed670de0b6b3a764000085611b41565b6117f79190611b58565b9392505050565b5f80546001600160a01b038381166001600160a01b0319831681178455604051919092169283917f8be0079c531659141344cd1fd0a4f28419497f9722a3daafe3b4186f6b6457e09190a35050565b6001600160a01b03811681146107da575f80fd5b5f8060408385031215611872575f80fd5b823561187d8161184d565b946020939093013593505050565b634e487b7160e01b5f52602160045260245ffd5b600481106118bb57634e487b7160e01b5f52602160045260245ffd5b9052565b815181526020808301516101c08301916118e3908401826001600160a01b03169052565b5060408301516040830152606083015161190860608401826001600160a01b03169052565b506080830151608083015260a083015160a083015260c083015160c083015260e083015160e0830152610100808401516119458285018215159052565b50506101208084015161195a8285018261189f565b50506101408084015161196f8285018261189f565b50506101608381015167ffffffffffffffff81168483015250506101808381015167ffffffffffffffff81168483015250506101a092830151919092015290565b5f602082840312156119c0575f80fd5b81356117f78161184d565b5f805f80608085870312156119de575f80fd5b84356119e98161184d565b9350602085013592506040850135611a008161184d565b9396929550929360600135925050565b5f6101008284031215611a21575f80fd5b50919050565b5f60a08284031215611a21575f80fd5b5f60808284031215611a21575f80fd5b80151581146107da575f80fd5b5f8060408385031215611a65575f80fd5b8235611a708161184d565b91506020830135611a8081611a47565b809150509250929050565b5f60608284031215611a21575f80fd5b6001600160a01b0394909416845260208401929092526040830152606082015260800190565b634e487b7160e01b5f52601160045260245ffd5b5f60018201611ae657611ae6611ac1565b5060010190565b805161179881611a47565b5f60208284031215611b08575f80fd5b81516117f781611a47565b5f60208284031215611b23575f80fd5b81356117f781611a47565b8082018082111561047357610473611ac1565b808202811582820484141761047357610473611ac1565b5f82611b7257634e487b7160e01b5f52601260045260245ffd5b500490565b8181038181111561047357610473611ac1565b5f600160ff1b8201611b9e57611b9e611ac1565b505f0390565b80516117988161184d565b5f60e08284031215611bbf575f80fd5b60405160e0810181811067ffffffffffffffff82111715611bee57634e487b7160e01b5f52604160045260245ffd5b604052611bfa83611aed565b8152611c0860208401611ba4565b6020820152611c1960408401611ba4565b6040820152606083015160608201526080830151608082015260a083015160a082015260c083015160c0820152809150509291505056fea2646970667358221220687911f42bdc5e1c19045c7ede077132de0e616f2733e26a844909bc759dea7a64736f6c63430008180033","linkReferences":{}},"methodIdentifiers":{"acceptOwnership()":"79ba5097","authorizedRelayer(address)":"cfad9ca8","closePosition((address,bytes32,uint256))":"f9954735","getPosition(address,bytes32)":"0fa8f516","increasePosition((address,bytes32,uint256,uint256,uint256))":"acf0f66a","insuranceController()":"8f972240","marginVault()":"c2b12cb6","markLiquidated(address,bytes32,address,uint256)":"5fae9687","nextPositionId()":"899346c7","openPosition((address,bytes32,bool,uint256,uint256,uint256,uint256,bytes32))":"98259db8","owner()":"8da5cb5b","pendingOwner()":"e30c3978","reducePosition((address,bytes32,uint256,uint256))":"c5c535a9","renounceOwnership()":"715018a6","riskConfig()":"7c90a6ca","setInsuranceController(address)":"2def37a0","setRelayer(address,bool)":"ecd8dc3a","transferOwnership(address)":"f2fde38b"},"id":5}