{"abi":[{"type":"constructor","inputs":[{"name":"initialOwner","type":"address","internalType":"address"},{"name":"marginVault_","type":"address","internalType":"address"},{"name":"riskConfig_","type":"address","internalType":"address"}],"stateMutability":"nonpayable"},{"type":"function","name":"acceptOwnership","inputs":[],"outputs":[],"stateMutability":"nonpayable"},{"type":"function","name":"addMargin","inputs":[{"name":"marketId","type":"bytes32","internalType":"bytes32"},{"name":"amount","type":"uint256","internalType":"uint256"}],"outputs":[],"stateMutability":"nonpayable"},{"type":"function","name":"authorizedRelayer","inputs":[{"name":"relayer","type":"address","internalType":"address"}],"outputs":[{"name":"isAuthorized","type":"bool","internalType":"bool"}],"stateMutability":"view"},{"type":"function","name":"closePosition","inputs":[{"name":"params","type":"tuple","internalType":"struct PositionManager.ClosePositionParams","components":[{"name":"owner","type":"address","internalType":"address"},{"name":"marketId","type":"bytes32","internalType":"bytes32"},{"name":"executionPriceX18","type":"uint256","internalType":"uint256"}]}],"outputs":[],"stateMutability":"nonpayable"},{"type":"function","name":"getPosition","inputs":[{"name":"user","type":"address","internalType":"address"},{"name":"marketId","type":"bytes32","internalType":"bytes32"}],"outputs":[{"name":"position","type":"tuple","internalType":"struct Types.Position","components":[{"name":"id","type":"uint256","internalType":"uint256"},{"name":"trader","type":"address","internalType":"address"},{"name":"marketId","type":"bytes32","internalType":"bytes32"},{"name":"collateralToken","type":"address","internalType":"address"},{"name":"collateralAmount","type":"uint256","internalType":"uint256"},{"name":"sizeUsdX18","type":"uint256","internalType":"uint256"},{"name":"entryPriceX18","type":"uint256","internalType":"uint256"},{"name":"leverageX18","type":"uint256","internalType":"uint256"},{"name":"isLong","type":"bool","internalType":"bool"},{"name":"status","type":"uint8","internalType":"enum Types.PositionStatus"},{"name":"insuranceStatus","type":"uint8","internalType":"enum Types.InsuranceStatus"},{"name":"openedAt","type":"uint64","internalType":"uint64"},{"name":"closedAt","type":"uint64","internalType":"uint64"},{"name":"insuranceTermId","type":"bytes32","internalType":"bytes32"}]}],"stateMutability":"view"},{"type":"function","name":"increasePosition","inputs":[{"name":"params","type":"tuple","internalType":"struct PositionManager.IncreasePositionParams","components":[{"name":"owner","type":"address","internalType":"address"},{"name":"marketId","type":"bytes32","internalType":"bytes32"},{"name":"sizeDeltaUsdX18","type":"uint256","internalType":"uint256"},{"name":"executionPriceX18","type":"uint256","internalType":"uint256"},{"name":"additionalMargin","type":"uint256","internalType":"uint256"}]}],"outputs":[],"stateMutability":"nonpayable"},{"type":"function","name":"insuranceController","inputs":[],"outputs":[{"name":"","type":"address","internalType":"address"}],"stateMutability":"view"},{"type":"function","name":"liquidationEngine","inputs":[],"outputs":[{"name":"","type":"address","internalType":"address"}],"stateMutability":"view"},{"type":"function","name":"marginVault","inputs":[],"outputs":[{"name":"","type":"address","internalType":"address"}],"stateMutability":"view"},{"type":"function","name":"markLiquidated","inputs":[{"name":"user","type":"address","internalType":"address"},{"name":"marketId","type":"bytes32","internalType":"bytes32"},{"name":"liquidator","type":"address","internalType":"address"},{"name":"executionPriceX18","type":"uint256","internalType":"uint256"}],"outputs":[],"stateMutability":"nonpayable"},{"type":"function","name":"nextPositionId","inputs":[],"outputs":[{"name":"","type":"uint256","internalType":"uint256"}],"stateMutability":"view"},{"type":"function","name":"openPosition","inputs":[{"name":"params","type":"tuple","internalType":"struct PositionManager.OpenPositionParams","components":[{"name":"owner","type":"address","internalType":"address"},{"name":"marketId","type":"bytes32","internalType":"bytes32"},{"name":"isLong","type":"bool","internalType":"bool"},{"name":"sizeUsdX18","type":"uint256","internalType":"uint256"},{"name":"entryPriceX18","type":"uint256","internalType":"uint256"},{"name":"leverageX18","type":"uint256","internalType":"uint256"},{"name":"margin","type":"uint256","internalType":"uint256"},{"name":"insuranceTermId","type":"bytes32","internalType":"bytes32"}]}],"outputs":[],"stateMutability":"nonpayable"},{"type":"function","name":"owner","inputs":[],"outputs":[{"name":"","type":"address","internalType":"address"}],"stateMutability":"view"},{"type":"function","name":"pendingOwner","inputs":[],"outputs":[{"name":"","type":"address","internalType":"address"}],"stateMutability":"view"},{"type":"function","name":"reducePosition","inputs":[{"name":"params","type":"tuple","internalType":"struct PositionManager.ReducePositionParams","components":[{"name":"owner","type":"address","internalType":"address"},{"name":"marketId","type":"bytes32","internalType":"bytes32"},{"name":"sizeDeltaUsdX18","type":"uint256","internalType":"uint256"},{"name":"executionPriceX18","type":"uint256","internalType":"uint256"}]}],"outputs":[],"stateMutability":"nonpayable"},{"type":"function","name":"renounceOwnership","inputs":[],"outputs":[],"stateMutability":"nonpayable"},{"type":"function","name":"riskConfig","inputs":[],"outputs":[{"name":"","type":"address","internalType":"address"}],"stateMutability":"view"},{"type":"function","name":"setInsuranceController","inputs":[{"name":"newInsuranceController","type":"address","internalType":"address"}],"outputs":[],"stateMutability":"nonpayable"},{"type":"function","name":"setLiquidationEngine","inputs":[{"name":"newLiquidationEngine","type":"address","internalType":"address"}],"outputs":[],"stateMutability":"nonpayable"},{"type":"function","name":"setRelayer","inputs":[{"name":"relayer","type":"address","internalType":"address"},{"name":"isAuthorized","type":"bool","internalType":"bool"}],"outputs":[],"stateMutability":"nonpayable"},{"type":"function","name":"transferOwnership","inputs":[{"name":"newOwner","type":"address","internalType":"address"}],"outputs":[],"stateMutability":"nonpayable"},{"type":"event","name":"InsuranceControllerUpdated","inputs":[{"name":"previousController","type":"address","indexed":true,"internalType":"address"},{"name":"newController","type":"address","indexed":true,"internalType":"address"}],"anonymous":false},{"type":"event","name":"LiquidationCompleted","inputs":[{"name":"positionId","type":"uint256","indexed":true,"internalType":"uint256"},{"name":"liquidator","type":"address","indexed":true,"internalType":"address"},{"name":"realizedPnl","type":"int256","indexed":false,"internalType":"int256"},{"name":"insurancePayout","type":"uint256","indexed":false,"internalType":"uint256"}],"anonymous":false},{"type":"event","name":"LiquidationEngineUpdated","inputs":[{"name":"previousEngine","type":"address","indexed":true,"internalType":"address"},{"name":"newEngine","type":"address","indexed":true,"internalType":"address"}],"anonymous":false},{"type":"event","name":"LiquidationTriggered","inputs":[{"name":"positionId","type":"uint256","indexed":true,"internalType":"uint256"},{"name":"liquidator","type":"address","indexed":true,"internalType":"address"},{"name":"markPriceX18","type":"uint256","indexed":false,"internalType":"uint256"}],"anonymous":false},{"type":"event","name":"OwnershipTransferStarted","inputs":[{"name":"previousOwner","type":"address","indexed":true,"internalType":"address"},{"name":"newOwner","type":"address","indexed":true,"internalType":"address"}],"anonymous":false},{"type":"event","name":"OwnershipTransferred","inputs":[{"name":"previousOwner","type":"address","indexed":true,"internalType":"address"},{"name":"newOwner","type":"address","indexed":true,"internalType":"address"}],"anonymous":false},{"type":"event","name":"PositionClosed","inputs":[{"name":"positionId","type":"uint256","indexed":true,"internalType":"uint256"},{"name":"realizedPnl","type":"int256","indexed":false,"internalType":"int256"},{"name":"exitPriceX18","type":"uint256","indexed":false,"internalType":"uint256"}],"anonymous":false},{"type":"event","name":"PositionIncreased","inputs":[{"name":"positionId","type":"uint256","indexed":true,"internalType":"uint256"},{"name":"newSizeUsdX18","type":"uint256","indexed":false,"internalType":"uint256"},{"name":"addedCollateral","type":"uint256","indexed":false,"internalType":"uint256"}],"anonymous":false},{"type":"event","name":"PositionMarginAdded","inputs":[{"name":"positionId","type":"uint256","indexed":true,"internalType":"uint256"},{"name":"trader","type":"address","indexed":true,"internalType":"address"},{"name":"marketId","type":"bytes32","indexed":true,"internalType":"bytes32"},{"name":"amount","type":"uint256","indexed":false,"internalType":"uint256"},{"name":"newCollateralAmount","type":"uint256","indexed":false,"internalType":"uint256"}],"anonymous":false},{"type":"event","name":"PositionOpened","inputs":[{"name":"positionId","type":"uint256","indexed":true,"internalType":"uint256"},{"name":"trader","type":"address","indexed":true,"internalType":"address"},{"name":"marketId","type":"bytes32","indexed":true,"internalType":"bytes32"},{"name":"sizeUsdX18","type":"uint256","indexed":false,"internalType":"uint256"},{"name":"collateralAmount","type":"uint256","indexed":false,"internalType":"uint256"},{"name":"entryPriceX18","type":"uint256","indexed":false,"internalType":"uint256"},{"name":"isLong","type":"bool","indexed":false,"internalType":"bool"}],"anonymous":false},{"type":"event","name":"PositionReduced","inputs":[{"name":"positionId","type":"uint256","indexed":true,"internalType":"uint256"},{"name":"reducedSizeUsdX18","type":"uint256","indexed":false,"internalType":"uint256"},{"name":"realizedPnl","type":"int256","indexed":false,"internalType":"int256"}],"anonymous":false},{"type":"event","name":"RelayerUpdated","inputs":[{"name":"relayer","type":"address","indexed":true,"internalType":"address"},{"name":"isAuthorized","type":"bool","indexed":false,"internalType":"bool"}],"anonymous":false},{"type":"error","name":"GracePeriodActive","inputs":[]},{"type":"error","name":"InactivePosition","inputs":[]},{"type":"error","name":"InvalidAddress","inputs":[]},{"type":"error","name":"InvalidLeverage","inputs":[]},{"type":"error","name":"InvalidLiquidationState","inputs":[]},{"type":"error","name":"InvalidMarket","inputs":[]},{"type":"error","name":"InvalidSize","inputs":[]},{"type":"error","name":"OwnableInvalidOwner","inputs":[{"name":"owner","type":"address","internalType":"address"}]},{"type":"error","name":"OwnableUnauthorizedAccount","inputs":[{"name":"account","type":"address","internalType":"address"}]},{"type":"error","name":"PositionAlreadyOpen","inputs":[]},{"type":"error","name":"Unauthorized","inputs":[]},{"type":"error","name":"ZeroAmount","inputs":[]}],"bytecode":{"object":"0x60c060405234801562000010575f80fd5b50604051620021be380380620021be83398101604081905262000033916200014d565b826001600160a01b0381166200006257604051631e4fbdf760e01b81525f600482015260240160405180910390fd5b6200006d81620000c4565b506001600160a01b03821615806200008c57506001600160a01b038116155b15620000ab5760405163e6c4247b60e01b815260040160405180910390fd5b6001600160a01b039182166080521660a0525062000194565b600180546001600160a01b0319169055620000df81620000e2565b50565b5f80546001600160a01b038381166001600160a01b0319831681178455604051919092169283917f8be0079c531659141344cd1fd0a4f28419497f9722a3daafe3b4186f6b6457e09190a35050565b80516001600160a01b038116811462000148575f80fd5b919050565b5f805f6060848603121562000160575f80fd5b6200016b8462000131565b92506200017b6020850162000131565b91506200018b6040850162000131565b90509250925092565b60805160a051611fd7620001e75f395f81816101da015261196501525f81816102740152818161078b01528181610a0f01528181610e9e015281816110920152818161135a01526116dd0152611fd75ff3fe608060405234801561000f575f80fd5b5060043610610132575f3560e01c80638f972240116100b4578063c5c535a911610079578063c5c535a914610296578063cfad9ca8146102a9578063e30c3978146102db578063ecd8dc3a146102ec578063f2fde38b146102ff578063f995473514610312575f80fd5b80638f9722401461022357806398259db8146102365780639e0a737814610249578063acf0f66a1461025c578063c2b12cb61461026f575f80fd5b8063715018a6116100fa578063715018a6146101c557806379ba5097146101cd5780637c90a6ca146101d5578063899346c7146101fc5780638da5cb5b14610213575f80fd5b80630fa8f516146101365780632def37a01461015f57806344bf3c72146101745780634d298abd1461019f5780635fae9687146101b2575b5f80fd5b610149610144366004611b7b565b610325565b6040516101569190611bd9565b60405180910390f35b61017261016d366004611cca565b6104d3565b005b600454610187906001600160a01b031681565b6040516001600160a01b039091168152602001610156565b6101726101ad366004611cca565b61052c565b6101726101c0366004611ce5565b610585565b610172610834565b610172610847565b6101877f000000000000000000000000000000000000000000000000000000000000000081565b61020560025481565b604051908152602001610156565b5f546001600160a01b0316610187565b600354610187906001600160a01b031681565b610172610244366004611d2a565b610890565b610172610257366004611d41565b610e55565b61017261026a366004611d61565b610fe8565b6101877f000000000000000000000000000000000000000000000000000000000000000081565b6101726102a4366004611d71565b611219565b6102cb6102b7366004611cca565b60056020525f908152604090205460ff1681565b6040519015158152602001610156565b6001546001600160a01b0316610187565b6101726102fa366004611d8e565b61142e565b61017261030d366004611cca565b6114bb565b610172610320366004611dc5565b61152b565b610396604080516101c0810182525f80825260208201819052918101829052606081018290526080810182905260a0810182905260c0810182905260e0810182905261010081018290529061012082019081526020015f81525f602082018190526040820181905260609091015290565b6001600160a01b038084165f90815260066020818152604080842087855282529283902083516101c081018552815481526001820154861692810192909252600281015493820193909352600380840154909416606082015260048301546080820152600583015460a08201529082015460c0820152600782015460e0820152600882015460ff8082161515610100808501919091529294610120860193909204169081111561044857610448611ba5565b600381111561045957610459611ba5565b81526020016008820160029054906101000a900460ff16600381111561048157610481611ba5565b600381111561049257610492611ba5565b8152600882015467ffffffffffffffff6301000000820481166020840152600160581b90910416604082015260099091015460609091015290505b92915050565b6104db6117a6565b600380546001600160a01b038381166001600160a01b0319831681179093556040519116919082907f220b46f293ecd7c9211f4b66fac321c0a954fe57bdbab6ff0d2582dc52e83cfa905f90a35050565b6105346117a6565b600480546001600160a01b038381166001600160a01b0319831681179093556040519116919082907f07d2a780329aa9dfe6253b0f6bf796d318f89c9f8f75c4b016828c2e71bc8a6b905f90a35050565b335f9081526005602052604090205460ff166105b3576040516282b42960e81b815260040160405180910390fd5b5f6105be85856117d2565b90506001600160a01b03831615806105d4575081155b156105f25760405163381e4d7d60e01b815260040160405180910390fd5b80546040518381526001600160a01b03851691907f989f810eb99a637da2dea16820faf53fe3fe36c9e490d54c6215d81b700d862d9060200160405180910390a36008810154600582015460068301545f926106549260ff9091169186611866565b60048301549091506001600884015462010000900460ff16600381111561067d5761067d611ba5565b14801561069457506003546001600160a01b031615155b15610715576003548354600985015460405163d374892160e01b81526001600160a01b039093169263d3748921926106d4928c928c929190600401611dd5565b5f604051808303815f87803b1580156106eb575f80fd5b505af11580156106fd573d5f803e3d5ffd5b5050505060088301805462ff00001916620200001790555b5f600584018190556004808501829055600785019190915560088401805467ffffffffffffffff4216600160581b0272ffffffffffffffff000000000000000000ff001990911617610300179055604051630bd1560360e21b81526001600160a01b0389811692820192909252602481018390527f000000000000000000000000000000000000000000000000000000000000000090911690632f45580c906044015f604051808303815f87803b1580156107ce575f80fd5b505af11580156107e0573d5f803e3d5ffd5b50508454604080518681525f60208201526001600160a01b038a1694509192507f747420e641b698a80f0dcdf3ad904c6df2df6652d951f0bc4b58bc7f589a042b910160405180910390a350505050505050565b61083c6117a6565b6108455f6118e9565b565b60015433906001600160a01b031681146108845760405163118cdaa760e01b81526001600160a01b03821660048201526024015b60405180910390fd5b61088d816118e9565b50565b335f9081526005602052604090205460ff166108be576040516282b42960e81b815260040160405180910390fd5b5f6108cc6020830183611cca565b6001600160a01b0316036108f35760405163e6c4247b60e01b815260040160405180910390fd5b602081013561091557604051639db8d5b160e01b815260040160405180910390fd5b60c0810135158061092857506080810135155b1561094657604051631f2a200560e01b815260040160405180910390fd5b80606001355f0361096a57604051630ffd11ad60e01b815260040160405180910390fd5b5f60068161097b6020850185611cca565b6001600160a01b0316815260208082019290925260409081015f9081208584013582529092529020905060016008820154610100900460ff1660038111156109c5576109c5611ba5565b036109e357604051631f19c11d60e01b815260040160405180910390fd5b5f6109f18360200135611902565b9050610a058360a0013582606001516119fd565b6001600160a01b037f00000000000000000000000000000000000000000000000000000000000000001663a5bce379610a416020860186611cca565b6040516001600160e01b031960e084901b1681526001600160a01b03909116600482015260c086013560248201526044015f604051808303815f87803b158015610a89575f80fd5b505af1158015610a9b573d5f803e3d5ffd5b505050505f60025f8154610aae90611e0f565b918290555090505f60e085013515801590610ad357506003546001600160a01b031615155b15610b71576003545f906001600160a01b0316631a32b9fc610af86020890189611cca565b8860200135868a60e001356040518563ffffffff1660e01b8152600401610b229493929190611dd5565b6020604051808303815f875af1158015610b3e573d5f803e3d5ffd5b505050506040513d601f19601f82011682018060405250810190610b629190611e32565b90508015610b6f57600191505b505b604080516101c08101909152828152602080820190610b9290880188611cca565b6001600160a01b031681526020018660200135815260200184604001516001600160a01b031681526020018660c00135815260200186606001358152602001866080013581526020018660a001358152602001866040016020810190610bf89190611e4d565b1515815260200160018152602001826003811115610c1857610c18611ba5565b81526020014267ffffffffffffffff1681526020015f67ffffffffffffffff1681526020018660e0013581525060065f875f016020810190610c5a9190611cca565b6001600160a01b03908116825260208083019390935260409182015f9081208a8501358252845282902084518155928401516001840180549183166001600160a01b031992831617905591840151600284015560608401516003808501805492909316919093161790556080830151600483015560a0830151600583015560c0830151600683015560e083015160078301556101008084015160088401805491151560ff1983168117825561012087015194919361ff001990911661ffff199093169290921791908490811115610d3357610d33611ba5565b021790555061014082015160088201805462ff0000191662010000836003811115610d6057610d60611ba5565b021790555061016082015160088201805461018085015167ffffffffffffffff908116600160581b0267ffffffffffffffff60581b19919094166301000000021672ffffffffffffffffffffffffffffffff00000019909116179190911790556101a09091015160099091015560208501803590610dde9087611cca565b6001600160a01b0316837f3ffd7fd948c5e90086b70ba6a934fa1faed10bb524bb094bc1607b84cc6c58326060890180359060c08b01359060808c013590610e299060408e01611e4d565b604080519485526020850193909352918301521515606082015260800160405180910390a45050505050565b5f610e6033846117d2565b9050815f03610e8257604051631f2a200560e01b815260040160405180910390fd5b60405163a5bce37960e01b8152336004820152602481018390527f00000000000000000000000000000000000000000000000000000000000000006001600160a01b03169063a5bce379906044015f604051808303815f87803b158015610ee7575f80fd5b505af1158015610ef9573d5f803e3d5ffd5b5050505081816004015f828254610f109190611e68565b92505081905550610f2981600501548260040154611a2b565b6007820155805460048201546040805185815260208101929092528592339290917f3f28c239cd60d0cd9f9b857d412b83349e7647bc0d2e07a955362e08427a5949910160405180910390a46004546001600160a01b031615610fe357600480546040516327f56a0b60e11b81523392810192909252602482018590526001600160a01b031690634fead416906044015f604051808303815f87803b158015610fd0575f80fd5b505af1925050508015610fe1575060015b505b505050565b335f9081526005602052604090205460ff16611016576040516282b42960e81b815260040160405180910390fd5b5f6110316110276020840184611cca565b83602001356117d2565b90506040820135158061104657506060820135155b1561106457604051631f2a200560e01b815260040160405180910390fd5b61107e6110746020840184611cca565b8360200135611a5e565b60808201351561113f576001600160a01b037f00000000000000000000000000000000000000000000000000000000000000001663a5bce3796110c46020850185611cca565b6040516001600160e01b031960e084901b1681526001600160a01b039091166004820152608085013560248201526044015f604051808303815f87803b15801561110c575f80fd5b505af115801561111e573d5f803e3d5ffd5b505050508160800135816004015f8282546111399190611e68565b90915550505b60058101545f611153604085013583611e68565b90508061116860408601356060870135611e7b565b8385600601546111789190611e7b565b6111829190611e68565b61118c9190611e92565b60068401556005830181905560048301546111a8908290611a2b565b60078401555f6111bb6020860135611902565b90506111cf846007015482606001516119fd565b8354600585015460408051918252608088013560208301527f7a7c91da4431183b882c881b099bbdf8b23aa5ccf277a523d67de7555e4d0a83910160405180910390a25050505050565b335f9081526005602052604090205460ff16611247576040516282b42960e81b815260040160405180910390fd5b5f6112586110276020840184611cca565b90506040820135158061126d57506060820135155b1561128b57604051631f2a200560e01b815260040160405180910390fd5b80600501548260400135106112b357604051630ffd11ad60e01b815260040160405180910390fd5b600881015460068201545f916112d99160ff909116906040860135906060870135611866565b90505f8260050154846040013584600401546112f59190611e7b565b6112ff9190611e92565b90508360400135836005015f8282546113189190611eb1565b9250508190555080836004015f8282546113329190611eb1565b9250508190555061134b83600501548460040154611a2b565b60078401556001600160a01b037f000000000000000000000000000000000000000000000000000000000000000016632f45580c61138c6020870187611cca565b6040516001600160e01b031960e084901b1681526001600160a01b039091166004820152602481018490526044015f604051808303815f87803b1580156113d1575f80fd5b505af11580156113e3573d5f803e3d5ffd5b5050845460408051818901358152602081018790529193507f94af22c3a28c44c5d788e68496547b61a428a37968e07650fd07b0388951f42f9250015b60405180910390a250505050565b6114366117a6565b6001600160a01b03821661145d5760405163e6c4247b60e01b815260040160405180910390fd5b6001600160a01b0382165f81815260056020908152604091829020805460ff191685151590811790915591519182527f4b36b2e66f38ed349bec532105790177f1283bcbc094e6cd48565195d3033c43910160405180910390a25050565b6114c36117a6565b600180546001600160a01b0383166001600160a01b031990911681179091556114f35f546001600160a01b031690565b6001600160a01b03167f38d16b8cac22d99fc7c124b9cd0de2d3fa1faef420bfe791d8c362d765e2270060405160405180910390a350565b335f9081526005602052604090205460ff16611559576040516282b42960e81b815260040160405180910390fd5b5f61156a6110276020840184611cca565b905081604001355f0361159057604051631f2a200560e01b815260040160405180910390fd5b6008810154600582015460068301545f926115b59260ff909116916040870135611866565b60048301549091506001600884015462010000900460ff1660038111156115de576115de611ba5565b1480156115f557506003546001600160a01b031615155b15611689576003546001600160a01b031663d9428c086116186020870187611cca565b855460098701546040516001600160e01b031960e086901b168152611648939260208b0135929091600401611dd5565b5f604051808303815f87803b15801561165f575f80fd5b505af1158015611671573d5f803e3d5ffd5b5050505060088301805462ff00001916620200001790555b5f6005840181905560048401819055600784015560088301805467ffffffffffffffff4216600160581b0272ffffffffffffffff000000000000000000ff0019909116176102001790556001600160a01b037f000000000000000000000000000000000000000000000000000000000000000016632f45580c61170f6020870187611cca565b6040516001600160e01b031960e084901b1681526001600160a01b039091166004820152602481018490526044015f604051808303815f87803b158015611754575f80fd5b505af1158015611766573d5f803e3d5ffd5b50508454604080518681528189013560208201529193507f188c5a1621fdf38505775be572d11aceb0b1e5f518d210077c6f1ca91399d29d925001611420565b5f546001600160a01b031633146108455760405163118cdaa760e01b815233600482015260240161087b565b5f6001600160a01b03831615806117e7575081155b1561180557604051639db8d5b160e01b815260040160405180910390fd5b506001600160a01b0382165f908152600660209081526040808320848452909152902060016008820154610100900460ff16600381111561184857611848611ba5565b146104cd57604051631f9c0ddd60e31b815260040160405180910390fd5b5f825f0361187557505f6118e1565b5f82841161188c576118878484611eb1565b611896565b6118968385611eb1565b90505f846118a48388611e7b565b6118ae9190611e92565b90505f876118bf57858511156118c4565b858510155b9050806118d9576118d482611ec4565b6118db565b815b93505050505b949350505050565b600180546001600160a01b031916905561088d81611b18565b61194f6040518060e001604052805f151581526020015f6001600160a01b031681526020015f6001600160a01b031681526020015f81526020015f81526020015f81526020015f81525090565b604051630d4d5c4360e31b8152600481018390527f00000000000000000000000000000000000000000000000000000000000000006001600160a01b031690636a6ae2189060240160e060405180830381865afa1580156119b2573d5f803e3d5ffd5b505050506040513d601f19601f820116820180604052508101906119d69190611ee9565b80519091506119f857604051639db8d5b160e01b815260040160405180910390fd5b919050565b811580611a0957508082115b15611a2757604051633fe89cb960e11b815260040160405180910390fd5b5050565b5f815f03611a3a57505f6104cd565b81611a4d670de0b6b3a764000085611e7b565b611a579190611e92565b9392505050565b6004546001600160a01b0316611a72575050565b6004805460405163b44a846b60e01b81526001600160a01b0385811693820193909352602481018490525f929091169063b44a846b90604401602060405180830381865afa158015611ac6573d5f803e3d5ffd5b505050506040513d601f19601f82011682018060405250810190611aea9190611f8a565b90508015801590611afa57508042105b15610fe35760405163478f84e760e01b815260040160405180910390fd5b5f80546001600160a01b038381166001600160a01b0319831681178455604051919092169283917f8be0079c531659141344cd1fd0a4f28419497f9722a3daafe3b4186f6b6457e09190a35050565b6001600160a01b038116811461088d575f80fd5b5f8060408385031215611b8c575f80fd5b8235611b9781611b67565b946020939093013593505050565b634e487b7160e01b5f52602160045260245ffd5b60048110611bd557634e487b7160e01b5f52602160045260245ffd5b9052565b815181526020808301516101c0830191611bfd908401826001600160a01b03169052565b50604083015160408301526060830151611c2260608401826001600160a01b03169052565b506080830151608083015260a083015160a083015260c083015160c083015260e083015160e083015261010080840151611c5f8285018215159052565b505061012080840151611c7482850182611bb9565b505061014080840151611c8982850182611bb9565b50506101608381015167ffffffffffffffff81168483015250506101808381015167ffffffffffffffff81168483015250506101a092830151919092015290565b5f60208284031215611cda575f80fd5b8135611a5781611b67565b5f805f8060808587031215611cf8575f80fd5b8435611d0381611b67565b9350602085013592506040850135611d1a81611b67565b9396929550929360600135925050565b5f6101008284031215611d3b575f80fd5b50919050565b5f8060408385031215611d52575f80fd5b50508035926020909101359150565b5f60a08284031215611d3b575f80fd5b5f60808284031215611d3b575f80fd5b801515811461088d575f80fd5b5f8060408385031215611d9f575f80fd5b8235611daa81611b67565b91506020830135611dba81611d81565b809150509250929050565b5f60608284031215611d3b575f80fd5b6001600160a01b0394909416845260208401929092526040830152606082015260800190565b634e487b7160e01b5f52601160045260245ffd5b5f60018201611e2057611e20611dfb565b5060010190565b80516119f881611d81565b5f60208284031215611e42575f80fd5b8151611a5781611d81565b5f60208284031215611e5d575f80fd5b8135611a5781611d81565b808201808211156104cd576104cd611dfb565b80820281158282048414176104cd576104cd611dfb565b5f82611eac57634e487b7160e01b5f52601260045260245ffd5b500490565b818103818111156104cd576104cd611dfb565b5f600160ff1b8201611ed857611ed8611dfb565b505f0390565b80516119f881611b67565b5f60e08284031215611ef9575f80fd5b60405160e0810181811067ffffffffffffffff82111715611f2857634e487b7160e01b5f52604160045260245ffd5b604052611f3483611e27565b8152611f4260208401611ede565b6020820152611f5360408401611ede565b6040820152606083015160608201526080830151608082015260a083015160a082015260c083015160c08201528091505092915050565b5f60208284031215611f9a575f80fd5b505191905056fea2646970667358221220a3e721e0c261a3f1d89a173697b5e88c153a7605ce4cba42788642cb026902a764736f6c63430008180033","linkReferences":{}},"methodIdentifiers":{"acceptOwnership()":"79ba5097","addMargin(bytes32,uint256)":"9e0a7378","authorizedRelayer(address)":"cfad9ca8","closePosition((address,bytes32,uint256))":"f9954735","getPosition(address,bytes32)":"0fa8f516","increasePosition((address,bytes32,uint256,uint256,uint256))":"acf0f66a","insuranceController()":"8f972240","liquidationEngine()":"44bf3c72","marginVault()":"c2b12cb6","markLiquidated(address,bytes32,address,uint256)":"5fae9687","nextPositionId()":"899346c7","openPosition((address,bytes32,bool,uint256,uint256,uint256,uint256,bytes32))":"98259db8","owner()":"8da5cb5b","pendingOwner()":"e30c3978","reducePosition((address,bytes32,uint256,uint256))":"c5c535a9","renounceOwnership()":"715018a6","riskConfig()":"7c90a6ca","setInsuranceController(address)":"2def37a0","setLiquidationEngine(address)":"4d298abd","setRelayer(address,bool)":"ecd8dc3a","transferOwnership(address)":"f2fde38b"},"id":4}