{"abi":[{"type":"function","name":"balanceOf","inputs":[{"name":"account","type":"address","internalType":"address"}],"outputs":[{"name":"","type":"uint256","internalType":"uint256"}],"stateMutability":"view"},{"type":"function","name":"deposit","inputs":[{"name":"account","type":"address","internalType":"address"},{"name":"amount","type":"uint256","internalType":"uint256"}],"outputs":[],"stateMutability":"nonpayable"},{"type":"function","name":"withdraw","inputs":[{"name":"account","type":"address","internalType":"address"},{"name":"amount","type":"uint256","internalType":"uint256"}],"outputs":[],"stateMutability":"nonpayable"},{"type":"event","name":"Deposited","inputs":[{"name":"account","type":"address","indexed":true,"internalType":"address"},{"name":"amount","type":"uint256","indexed":false,"internalType":"uint256"}],"anonymous":false},{"type":"event","name":"Withdrawn","inputs":[{"name":"account","type":"address","indexed":true,"internalType":"address"},{"name":"amount","type":"uint256","indexed":false,"internalType":"uint256"}],"anonymous":false},{"type":"error","name":"InsufficientBalance","inputs":[]},{"type":"error","name":"InvalidAddress","inputs":[]},{"type":"error","name":"ZeroAmount","inputs":[]}],"bytecode":{"object":"0x608060405234801561000f575f80fd5b506103108061001d5f395ff3fe608060405234801561000f575f80fd5b506004361061003f575f3560e01c806347e7ef241461004357806370a0823114610058578063f3fef3a314610092575b5f80fd5b610056610051366004610252565b6100a5565b005b61008061006636600461027a565b6001600160a01b03165f9081526020819052604090205490565b60405190815260200160405180910390f35b6100566100a0366004610252565b61015a565b6001600160a01b0382166100cc5760405163e6c4247b60e01b815260040160405180910390fd5b805f036100ec57604051631f2a200560e01b815260040160405180910390fd5b6001600160a01b0382165f90815260208190526040812080548392906101139084906102ae565b90915550506040518181526001600160a01b038316907f2da466a7b24304f47e87fa2e1e5a81b9831ce54fec19055ce277ca2f39ba42c49060200160405180910390a25050565b6001600160a01b0382166101815760405163e6c4247b60e01b815260040160405180910390fd5b805f036101a157604051631f2a200560e01b815260040160405180910390fd5b6001600160a01b0382165f90815260208190526040902054818110156101da57604051631e9acf1760e31b815260040160405180910390fd5b6101e482826102c7565b6001600160a01b0384165f8181526020818152604091829020939093555184815290917f7084f5476618d8e60b11ef0d7d3f06914655adb8793e28ff7f018d4c76d505d5910160405180910390a2505050565b80356001600160a01b038116811461024d575f80fd5b919050565b5f8060408385031215610263575f80fd5b61026c83610237565b946020939093013593505050565b5f6020828403121561028a575f80fd5b61029382610237565b9392505050565b634e487b7160e01b5f52601160045260245ffd5b808201808211156102c1576102c161029a565b92915050565b818103818111156102c1576102c161029a56fea2646970667358221220a0df7d1c3175b5e762bcab26c158b7a8b84ff1fc07530c30d0755952cab2550e64736f6c63430008180033","linkReferences":{}},"methodIdentifiers":{"balanceOf(address)":"70a08231","deposit(address,uint256)":"47e7ef24","withdraw(address,uint256)":"f3fef3a3"},"id":7}