{"abi":[{"type":"constructor","inputs":[{"name":"initialOwner","type":"address","internalType":"address"},{"name":"collateralToken_","type":"address","internalType":"address"},{"name":"riskConfig_","type":"address","internalType":"address"}],"stateMutability":"nonpayable"},{"type":"function","name":"acceptOwnership","inputs":[],"outputs":[],"stateMutability":"nonpayable"},{"type":"function","name":"authorizedPremiumCaller","inputs":[{"name":"caller","type":"address","internalType":"address"}],"outputs":[{"name":"isAuthorized","type":"bool","internalType":"bool"}],"stateMutability":"view"},{"type":"function","name":"collateralToken","inputs":[],"outputs":[{"name":"","type":"address","internalType":"address"}],"stateMutability":"view"},{"type":"function","name":"fundVault","inputs":[{"name":"amount","type":"uint256","internalType":"uint256"}],"outputs":[],"stateMutability":"nonpayable"},{"type":"function","name":"getAvailableCapacity","inputs":[],"outputs":[{"name":"","type":"uint256","internalType":"uint256"}],"stateMutability":"view"},{"type":"function","name":"getReservedAmount","inputs":[{"name":"positionId","type":"uint256","internalType":"uint256"}],"outputs":[{"name":"","type":"uint256","internalType":"uint256"}],"stateMutability":"view"},{"type":"function","name":"insuranceController","inputs":[],"outputs":[{"name":"","type":"address","internalType":"address"}],"stateMutability":"view"},{"type":"function","name":"owner","inputs":[],"outputs":[{"name":"","type":"address","internalType":"address"}],"stateMutability":"view"},{"type":"function","name":"payClaim","inputs":[{"name":"positionId","type":"uint256","internalType":"uint256"},{"name":"recipient","type":"address","internalType":"address"},{"name":"amount","type":"uint256","internalType":"uint256"}],"outputs":[],"stateMutability":"nonpayable"},{"type":"function","name":"pendingOwner","inputs":[],"outputs":[{"name":"","type":"address","internalType":"address"}],"stateMutability":"view"},{"type":"function","name":"receivePremium","inputs":[{"name":"amount","type":"uint256","internalType":"uint256"}],"outputs":[],"stateMutability":"nonpayable"},{"type":"function","name":"releaseCapacity","inputs":[{"name":"positionId","type":"uint256","internalType":"uint256"}],"outputs":[],"stateMutability":"nonpayable"},{"type":"function","name":"renounceOwnership","inputs":[],"outputs":[],"stateMutability":"nonpayable"},{"type":"function","name":"reserveCapacity","inputs":[{"name":"positionId","type":"uint256","internalType":"uint256"},{"name":"amount","type":"uint256","internalType":"uint256"}],"outputs":[],"stateMutability":"nonpayable"},{"type":"function","name":"reservedByPosition","inputs":[{"name":"positionId","type":"uint256","internalType":"uint256"}],"outputs":[{"name":"amount","type":"uint256","internalType":"uint256"}],"stateMutability":"view"},{"type":"function","name":"riskConfig","inputs":[],"outputs":[{"name":"","type":"address","internalType":"address"}],"stateMutability":"view"},{"type":"function","name":"setInsuranceController","inputs":[{"name":"newInsuranceController","type":"address","internalType":"address"}],"outputs":[],"stateMutability":"nonpayable"},{"type":"function","name":"setPremiumCaller","inputs":[{"name":"caller","type":"address","internalType":"address"},{"name":"isAuthorized","type":"bool","internalType":"bool"}],"outputs":[],"stateMutability":"nonpayable"},{"type":"function","name":"totalAssets","inputs":[],"outputs":[{"name":"","type":"uint256","internalType":"uint256"}],"stateMutability":"view"},{"type":"function","name":"totalReserved","inputs":[],"outputs":[{"name":"","type":"uint256","internalType":"uint256"}],"stateMutability":"view"},{"type":"function","name":"transferOwnership","inputs":[{"name":"newOwner","type":"address","internalType":"address"}],"outputs":[],"stateMutability":"nonpayable"},{"type":"event","name":"InsuranceControllerUpdated","inputs":[{"name":"previousController","type":"address","indexed":true,"internalType":"address"},{"name":"newController","type":"address","indexed":true,"internalType":"address"}],"anonymous":false},{"type":"event","name":"OwnershipTransferStarted","inputs":[{"name":"previousOwner","type":"address","indexed":true,"internalType":"address"},{"name":"newOwner","type":"address","indexed":true,"internalType":"address"}],"anonymous":false},{"type":"event","name":"OwnershipTransferred","inputs":[{"name":"previousOwner","type":"address","indexed":true,"internalType":"address"},{"name":"newOwner","type":"address","indexed":true,"internalType":"address"}],"anonymous":false},{"type":"event","name":"PremiumCallerUpdated","inputs":[{"name":"caller","type":"address","indexed":true,"internalType":"address"},{"name":"isAuthorized","type":"bool","indexed":false,"internalType":"bool"}],"anonymous":false},{"type":"event","name":"VaultClaimPaid","inputs":[{"name":"positionId","type":"uint256","indexed":true,"internalType":"uint256"},{"name":"recipient","type":"address","indexed":true,"internalType":"address"},{"name":"token","type":"address","indexed":true,"internalType":"address"},{"name":"amount","type":"uint256","indexed":false,"internalType":"uint256"},{"name":"totalAssets","type":"uint256","indexed":false,"internalType":"uint256"}],"anonymous":false},{"type":"event","name":"VaultFunded","inputs":[{"name":"funder","type":"address","indexed":true,"internalType":"address"},{"name":"token","type":"address","indexed":true,"internalType":"address"},{"name":"amount","type":"uint256","indexed":false,"internalType":"uint256"},{"name":"totalAssets","type":"uint256","indexed":false,"internalType":"uint256"}],"anonymous":false},{"type":"event","name":"VaultPremiumReceived","inputs":[{"name":"payer","type":"address","indexed":true,"internalType":"address"},{"name":"token","type":"address","indexed":true,"internalType":"address"},{"name":"amount","type":"uint256","indexed":false,"internalType":"uint256"},{"name":"totalAssets","type":"uint256","indexed":false,"internalType":"uint256"}],"anonymous":false},{"type":"event","name":"VaultReserveReleased","inputs":[{"name":"insuranceId","type":"uint256","indexed":true,"internalType":"uint256"},{"name":"amount","type":"uint256","indexed":false,"internalType":"uint256"},{"name":"totalReserved","type":"uint256","indexed":false,"internalType":"uint256"}],"anonymous":false},{"type":"event","name":"VaultReserved","inputs":[{"name":"insuranceId","type":"uint256","indexed":true,"internalType":"uint256"},{"name":"amount","type":"uint256","indexed":false,"internalType":"uint256"},{"name":"totalReserved","type":"uint256","indexed":false,"internalType":"uint256"}],"anonymous":false},{"type":"error","name":"InactivePosition","inputs":[]},{"type":"error","name":"InsuranceNotActive","inputs":[]},{"type":"error","name":"InvalidAddress","inputs":[]},{"type":"error","name":"InvalidLiquidationState","inputs":[]},{"type":"error","name":"OwnableInvalidOwner","inputs":[{"name":"owner","type":"address","internalType":"address"}]},{"type":"error","name":"OwnableUnauthorizedAccount","inputs":[{"name":"account","type":"address","internalType":"address"}]},{"type":"error","name":"TransferFailed","inputs":[]},{"type":"error","name":"Unauthorized","inputs":[]},{"type":"error","name":"VaultCapacityExceeded","inputs":[]},{"type":"error","name":"ZeroAmount","inputs":[]}],"bytecode":{"object":"0x60c060405234801562000010575f80fd5b50604051620011fe380380620011fe83398101604081905262000033916200014d565b826001600160a01b0381166200006257604051631e4fbdf760e01b81525f600482015260240160405180910390fd5b6200006d81620000c4565b506001600160a01b03821615806200008c57506001600160a01b038116155b15620000ab5760405163e6c4247b60e01b815260040160405180910390fd5b6001600160a01b039182166080521660a0525062000194565b600180546001600160a01b0319169055620000df81620000e2565b50565b5f80546001600160a01b038381166001600160a01b0319831681178455604051919092169283917f8be0079c531659141344cd1fd0a4f28419497f9722a3daafe3b4186f6b6457e09190a35050565b80516001600160a01b038116811462000148575f80fd5b919050565b5f805f6060848603121562000160575f80fd5b6200016b8462000131565b92506200017b6020850162000131565b91506200018b6040850162000131565b90509250925092565b60805160a051611017620001e75f395f81816102340152610d1801525f81816102c80152818161036a015281816103bb01528181610547015281816105b4015281816109f30152610a4401526110175ff3fe608060405234801561000f575f80fd5b5060043610610132575f3560e01c8063794c23f3116100b457806395d9120b1161007957806395d9120b14610291578063abe73ef5146102b0578063b2016bd4146102c3578063c71b0e1c146102ea578063e30c3978146102f3578063f2fde38b14610304575f80fd5b8063794c23f31461021457806379ba5097146102275780637c90a6ca1461022f5780638da5cb5b1461026e5780638f9722401461027e575f80fd5b8063370dad80116100fa578063370dad80146101bf57806339350ccc146101c75780634ea0efc9146101e6578063715018a6146101f957806375d97e9a14610201575f80fd5b806301e1d1141461013657806317b7b5ae146101525780631c605efc1461018457806320db1d3d146101995780632def37a0146101ac575b5f80fd5b61013f60035481565b6040519081526020015b60405180910390f35b610174610160366004610e48565b60066020525f908152604090205460ff1681565b6040519015158152602001610149565b610197610192366004610e61565b610317565b005b6101976101a7366004610e78565b610415565b6101976101ba366004610e48565b610631565b61013f6106b1565b61013f6101d5366004610e61565b5f9081526005602052604090205490565b6101976101f4366004610e61565b6106df565b6101976107c7565b61019761020f366004610eb7565b6107da565b610197610222366004610eec565b610860565b610197610985565b6102567f000000000000000000000000000000000000000000000000000000000000000081565b6040516001600160a01b039091168152602001610149565b5f546001600160a01b0316610256565b600254610256906001600160a01b031681565b61013f61029f366004610e61565b60056020525f908152604090205481565b6101976102be366004610e61565b6109ce565b6102567f000000000000000000000000000000000000000000000000000000000000000081565b61013f60045481565b6001546001600160a01b0316610256565b610197610312366004610e48565b610a97565b335f9081526006602052604090205460ff16610345576040516282b42960e81b815260040160405180910390fd5b805f0361036557604051631f2a200560e01b815260040160405180910390fd5b6103917f0000000000000000000000000000000000000000000000000000000000000000333084610b07565b8060035f8282546103a29190610f20565b90915550506003546040805183815260208101929092527f00000000000000000000000000000000000000000000000000000000000000006001600160a01b03169133917f7a4987442228857a812894eb12960b682905604b078674f92f09a0e3309261a391015b60405180910390a350565b6002546001600160a01b0316331461043f576040516282b42960e81b815260040160405180910390fd5b825f0361045f57604051631f9c0ddd60e31b815260040160405180910390fd5b6001600160a01b0382166104865760405163e6c4247b60e01b815260040160405180910390fd5b805f036104a657604051631f2a200560e01b815260040160405180910390fd5b5f83815260056020526040812054908190036104d55760405163446b96e160e01b815260040160405180910390fd5b808211806104e4575060035482115b1561050257604051630c57b57760e21b815260040160405180910390fd5b5f84815260056020526040812081905560048054839290610524908490610f33565b925050819055508160035f82825461053c9190610f33565b9091555061056d90507f00000000000000000000000000000000000000000000000000000000000000008484610bfc565b837fe76b372f819cbd388c6c6cc8693a4cb222aeb9a9d651a4153a9818d4348df865826004546040516105aa929190918252602082015260400190565b60405180910390a27f00000000000000000000000000000000000000000000000000000000000000006001600160a01b0316836001600160a01b0316857f89350a27f10b63c02174a621df2dfed83256ffe186a7bcff663c9ed286bde1f285600354604051610623929190918252602082015260400190565b60405180910390a450505050565b610639610ce8565b6001600160a01b0381166106605760405163e6c4247b60e01b815260040160405180910390fd5b600280546001600160a01b038381166001600160a01b0319831681179093556040519116919082907f220b46f293ecd7c9211f4b66fac321c0a954fe57bdbab6ff0d2582dc52e83cfa905f90a35050565b5f806106bb610d14565b905060045481116106cc575f6106d9565b6004546106d99082610f33565b91505090565b6002546001600160a01b03163314610709576040516282b42960e81b815260040160405180910390fd5b805f0361072957604051631f9c0ddd60e31b815260040160405180910390fd5b5f81815260056020526040812054908190036107585760405163446b96e160e01b815260040160405180910390fd5b5f8281526005602052604081208190556004805483929061077a908490610f33565b909155505060045460405183917fe76b372f819cbd388c6c6cc8693a4cb222aeb9a9d651a4153a9818d4348df865916107bb91858252602082015260400190565b60405180910390a25050565b6107cf610ce8565b6107d85f610da4565b565b6107e2610ce8565b6001600160a01b0382166108095760405163e6c4247b60e01b815260040160405180910390fd5b6001600160a01b0382165f81815260066020908152604091829020805460ff191685151590811790915591519182527fb1c7b2072e090d47da5ed3595b6ceafcfad5c08ff2884c33f0e365566a0d9cd691016107bb565b6002546001600160a01b0316331461088a576040516282b42960e81b815260040160405180910390fd5b815f036108aa57604051631f9c0ddd60e31b815260040160405180910390fd5b805f036108ca57604051631f2a200560e01b815260040160405180910390fd5b5f82815260056020526040902054156108f65760405163381e4d7d60e01b815260040160405180910390fd5b5f816004546109059190610f20565b905061090f610d14565b81111561092f57604051630c57b57760e21b815260040160405180910390fd5b5f838152600560209081526040918290208490556004839055815184815290810183905284917fc3e510dd743e18d3fb075aa881bc2a1ce45912ae1d0e4f689baf721a8fa65be0910160405180910390a2505050565b60015433906001600160a01b031681146109c25760405163118cdaa760e01b81526001600160a01b03821660048201526024015b60405180910390fd5b6109cb81610da4565b50565b805f036109ee57604051631f2a200560e01b815260040160405180910390fd5b610a1a7f0000000000000000000000000000000000000000000000000000000000000000333084610b07565b8060035f828254610a2b9190610f20565b90915550506003546040805183815260208101929092527f00000000000000000000000000000000000000000000000000000000000000006001600160a01b03169133917f943ce8e71d578980d4d3086e5a98d699c6981d4fdc860f44ebced8aeff76ab78910161040a565b610a9f610ce8565b600180546001600160a01b0383166001600160a01b03199091168117909155610acf5f546001600160a01b031690565b6001600160a01b03167f38d16b8cac22d99fc7c124b9cd0de2d3fa1faef420bfe791d8c362d765e2270060405160405180910390a350565b604080516001600160a01b0385811660248301528481166044830152606480830185905283518084039091018152608490920183526020820180516001600160e01b03166323b872dd60e01b17905291515f92839290881691610b6a9190610f46565b5f604051808303815f865af19150503d805f8114610ba3576040519150601f19603f3d011682016040523d82523d5f602084013e610ba8565b606091505b5091509150811580610bd65750805115801590610bd6575080806020019051810190610bd49190610f72565b155b15610bf4576040516312171d8360e31b815260040160405180910390fd5b505050505050565b604080516001600160a01b038481166024830152604480830185905283518084039091018152606490920183526020820180516001600160e01b031663a9059cbb60e01b17905291515f92839290871691610c579190610f46565b5f604051808303815f865af19150503d805f8114610c90576040519150601f19603f3d011682016040523d82523d5f602084013e610c95565b606091505b5091509150811580610cc35750805115801590610cc3575080806020019051810190610cc19190610f72565b155b15610ce1576040516312171d8360e31b815260040160405180910390fd5b5050505050565b5f546001600160a01b031633146107d85760405163118cdaa760e01b81523360048201526024016109b9565b5f807f00000000000000000000000000000000000000000000000000000000000000006001600160a01b03166312e08b446040518163ffffffff1660e01b8152600401602060405180830381865afa158015610d72573d5f803e3d5ffd5b505050506040513d601f19601f82011682018060405250810190610d969190610f94565b90506106d960035482610dbd565b600180546001600160a01b03191690556109cb81610dde565b5f612710610dcb8385610fab565b610dd59190610fc2565b90505b92915050565b5f80546001600160a01b038381166001600160a01b0319831681178455604051919092169283917f8be0079c531659141344cd1fd0a4f28419497f9722a3daafe3b4186f6b6457e09190a35050565b80356001600160a01b0381168114610e43575f80fd5b919050565b5f60208284031215610e58575f80fd5b610dd582610e2d565b5f60208284031215610e71575f80fd5b5035919050565b5f805f60608486031215610e8a575f80fd5b83359250610e9a60208501610e2d565b9150604084013590509250925092565b80151581146109cb575f80fd5b5f8060408385031215610ec8575f80fd5b610ed183610e2d565b91506020830135610ee181610eaa565b809150509250929050565b5f8060408385031215610efd575f80fd5b50508035926020909101359150565b634e487b7160e01b5f52601160045260245ffd5b80820180821115610dd857610dd8610f0c565b81810381811115610dd857610dd8610f0c565b5f82515f5b81811015610f655760208186018101518583015201610f4b565b505f920191825250919050565b5f60208284031215610f82575f80fd5b8151610f8d81610eaa565b9392505050565b5f60208284031215610fa4575f80fd5b5051919050565b8082028115828204841417610dd857610dd8610f0c565b5f82610fdc57634e487b7160e01b5f52601260045260245ffd5b50049056fea2646970667358221220060556a362046bc8ca7d7f0ad0dc22217b64f7220c324bd9f425991890ab953064736f6c63430008180033","linkReferences":{}},"methodIdentifiers":{"acceptOwnership()":"79ba5097","authorizedPremiumCaller(address)":"17b7b5ae","collateralToken()":"b2016bd4","fundVault(uint256)":"abe73ef5","getAvailableCapacity()":"370dad80","getReservedAmount(uint256)":"39350ccc","insuranceController()":"8f972240","owner()":"8da5cb5b","payClaim(uint256,address,uint256)":"20db1d3d","pendingOwner()":"e30c3978","receivePremium(uint256)":"1c605efc","releaseCapacity(uint256)":"4ea0efc9","renounceOwnership()":"715018a6","reserveCapacity(uint256,uint256)":"794c23f3","reservedByPosition(uint256)":"95d9120b","riskConfig()":"7c90a6ca","setInsuranceController(address)":"2def37a0","setPremiumCaller(address,bool)":"75d97e9a","totalAssets()":"01e1d114","totalReserved()":"c71b0e1c","transferOwnership(address)":"f2fde38b"},"id":7}