{"abi":[{"type":"constructor","inputs":[{"name":"initialOwner","type":"address","internalType":"address"},{"name":"collateralToken_","type":"address","internalType":"address"},{"name":"riskConfig_","type":"address","internalType":"address"}],"stateMutability":"nonpayable"},{"type":"function","name":"acceptOwnership","inputs":[],"outputs":[],"stateMutability":"nonpayable"},{"type":"function","name":"authorizedPremiumCaller","inputs":[{"name":"caller","type":"address","internalType":"address"}],"outputs":[{"name":"isAuthorized","type":"bool","internalType":"bool"}],"stateMutability":"view"},{"type":"function","name":"baseExitCooldownSeconds","inputs":[],"outputs":[{"name":"","type":"uint256","internalType":"uint256"}],"stateMutability":"view"},{"type":"function","name":"benefitNFT","inputs":[],"outputs":[{"name":"","type":"address","internalType":"address"}],"stateMutability":"view"},{"type":"function","name":"claimYield","inputs":[{"name":"amount","type":"uint256","internalType":"uint256"}],"outputs":[{"name":"assetsClaimed","type":"uint256","internalType":"uint256"},{"name":"sharesBurned","type":"uint256","internalType":"uint256"}],"stateMutability":"nonpayable"},{"type":"function","name":"claimableYieldOf","inputs":[{"name":"provider","type":"address","internalType":"address"}],"outputs":[{"name":"yieldAmount","type":"uint256","internalType":"uint256"}],"stateMutability":"view"},{"type":"function","name":"collateralToken","inputs":[],"outputs":[{"name":"","type":"address","internalType":"address"}],"stateMutability":"view"},{"type":"function","name":"depositLiquidity","inputs":[{"name":"amount","type":"uint256","internalType":"uint256"}],"outputs":[{"name":"sharesMinted","type":"uint256","internalType":"uint256"}],"stateMutability":"nonpayable"},{"type":"function","name":"fundVault","inputs":[{"name":"amount","type":"uint256","internalType":"uint256"}],"outputs":[],"stateMutability":"nonpayable"},{"type":"function","name":"getAvailableCapacity","inputs":[],"outputs":[{"name":"","type":"uint256","internalType":"uint256"}],"stateMutability":"view"},{"type":"function","name":"getAvailableLiquidity","inputs":[],"outputs":[{"name":"","type":"uint256","internalType":"uint256"}],"stateMutability":"view"},{"type":"function","name":"getReservedAmount","inputs":[{"name":"positionId","type":"uint256","internalType":"uint256"}],"outputs":[{"name":"","type":"uint256","internalType":"uint256"}],"stateMutability":"view"},{"type":"function","name":"insuranceController","inputs":[],"outputs":[{"name":"","type":"address","internalType":"address"}],"stateMutability":"view"},{"type":"function","name":"lpAssetValue","inputs":[{"name":"provider","type":"address","internalType":"address"}],"outputs":[{"name":"assetValue","type":"uint256","internalType":"uint256"}],"stateMutability":"view"},{"type":"function","name":"lpUnlockTime","inputs":[{"name":"provider","type":"address","internalType":"address"}],"outputs":[{"name":"unlockTimestamp","type":"uint256","internalType":"uint256"}],"stateMutability":"view"},{"type":"function","name":"owner","inputs":[],"outputs":[{"name":"","type":"address","internalType":"address"}],"stateMutability":"view"},{"type":"function","name":"payClaim","inputs":[{"name":"positionId","type":"uint256","internalType":"uint256"},{"name":"recipient","type":"address","internalType":"address"},{"name":"amount","type":"uint256","internalType":"uint256"}],"outputs":[],"stateMutability":"nonpayable"},{"type":"function","name":"pendingOwner","inputs":[],"outputs":[{"name":"","type":"address","internalType":"address"}],"stateMutability":"view"},{"type":"function","name":"previewDeposit","inputs":[{"name":"amount","type":"uint256","internalType":"uint256"}],"outputs":[{"name":"sharesMinted","type":"uint256","internalType":"uint256"}],"stateMutability":"view"},{"type":"function","name":"previewRedeem","inputs":[{"name":"shares","type":"uint256","internalType":"uint256"}],"outputs":[{"name":"assetsReturned","type":"uint256","internalType":"uint256"}],"stateMutability":"view"},{"type":"function","name":"principalBalanceOf","inputs":[{"name":"provider","type":"address","internalType":"address"}],"outputs":[{"name":"principal","type":"uint256","internalType":"uint256"}],"stateMutability":"view"},{"type":"function","name":"receivePremium","inputs":[{"name":"amount","type":"uint256","internalType":"uint256"}],"outputs":[],"stateMutability":"nonpayable"},{"type":"function","name":"redeemLiquidity","inputs":[{"name":"shares","type":"uint256","internalType":"uint256"}],"outputs":[{"name":"assetsReturned","type":"uint256","internalType":"uint256"}],"stateMutability":"nonpayable"},{"type":"function","name":"releaseCapacity","inputs":[{"name":"positionId","type":"uint256","internalType":"uint256"}],"outputs":[],"stateMutability":"nonpayable"},{"type":"function","name":"renounceOwnership","inputs":[],"outputs":[],"stateMutability":"nonpayable"},{"type":"function","name":"reserveCapacity","inputs":[{"name":"positionId","type":"uint256","internalType":"uint256"},{"name":"amount","type":"uint256","internalType":"uint256"}],"outputs":[],"stateMutability":"nonpayable"},{"type":"function","name":"reservedByPosition","inputs":[{"name":"positionId","type":"uint256","internalType":"uint256"}],"outputs":[{"name":"amount","type":"uint256","internalType":"uint256"}],"stateMutability":"view"},{"type":"function","name":"riskConfig","inputs":[],"outputs":[{"name":"","type":"address","internalType":"address"}],"stateMutability":"view"},{"type":"function","name":"setBaseExitCooldown","inputs":[{"name":"newCooldown","type":"uint256","internalType":"uint256"}],"outputs":[],"stateMutability":"nonpayable"},{"type":"function","name":"setBenefitNFT","inputs":[{"name":"newBenefitNFT","type":"address","internalType":"address"}],"outputs":[],"stateMutability":"nonpayable"},{"type":"function","name":"setInsuranceController","inputs":[{"name":"newInsuranceController","type":"address","internalType":"address"}],"outputs":[],"stateMutability":"nonpayable"},{"type":"function","name":"setPremiumCaller","inputs":[{"name":"caller","type":"address","internalType":"address"},{"name":"isAuthorized","type":"bool","internalType":"bool"}],"outputs":[],"stateMutability":"nonpayable"},{"type":"function","name":"shareBalanceOf","inputs":[{"name":"provider","type":"address","internalType":"address"}],"outputs":[{"name":"shares","type":"uint256","internalType":"uint256"}],"stateMutability":"view"},{"type":"function","name":"totalAssets","inputs":[],"outputs":[{"name":"","type":"uint256","internalType":"uint256"}],"stateMutability":"view"},{"type":"function","name":"totalReserved","inputs":[],"outputs":[{"name":"","type":"uint256","internalType":"uint256"}],"stateMutability":"view"},{"type":"function","name":"totalShares","inputs":[],"outputs":[{"name":"","type":"uint256","internalType":"uint256"}],"stateMutability":"view"},{"type":"function","name":"transferOwnership","inputs":[{"name":"newOwner","type":"address","internalType":"address"}],"outputs":[],"stateMutability":"nonpayable"},{"type":"event","name":"BaseExitCooldownUpdated","inputs":[{"name":"previousCooldown","type":"uint256","indexed":false,"internalType":"uint256"},{"name":"newCooldown","type":"uint256","indexed":false,"internalType":"uint256"}],"anonymous":false},{"type":"event","name":"BenefitNFTUpdated","inputs":[{"name":"previousBenefitNFT","type":"address","indexed":true,"internalType":"address"},{"name":"newBenefitNFT","type":"address","indexed":true,"internalType":"address"}],"anonymous":false},{"type":"event","name":"InsuranceControllerUpdated","inputs":[{"name":"previousController","type":"address","indexed":true,"internalType":"address"},{"name":"newController","type":"address","indexed":true,"internalType":"address"}],"anonymous":false},{"type":"event","name":"OwnershipTransferStarted","inputs":[{"name":"previousOwner","type":"address","indexed":true,"internalType":"address"},{"name":"newOwner","type":"address","indexed":true,"internalType":"address"}],"anonymous":false},{"type":"event","name":"OwnershipTransferred","inputs":[{"name":"previousOwner","type":"address","indexed":true,"internalType":"address"},{"name":"newOwner","type":"address","indexed":true,"internalType":"address"}],"anonymous":false},{"type":"event","name":"PremiumCallerUpdated","inputs":[{"name":"caller","type":"address","indexed":true,"internalType":"address"},{"name":"isAuthorized","type":"bool","indexed":false,"internalType":"bool"}],"anonymous":false},{"type":"event","name":"VaultClaimPaid","inputs":[{"name":"positionId","type":"uint256","indexed":true,"internalType":"uint256"},{"name":"recipient","type":"address","indexed":true,"internalType":"address"},{"name":"token","type":"address","indexed":true,"internalType":"address"},{"name":"amount","type":"uint256","indexed":false,"internalType":"uint256"},{"name":"totalAssets","type":"uint256","indexed":false,"internalType":"uint256"}],"anonymous":false},{"type":"event","name":"VaultFunded","inputs":[{"name":"funder","type":"address","indexed":true,"internalType":"address"},{"name":"token","type":"address","indexed":true,"internalType":"address"},{"name":"amount","type":"uint256","indexed":false,"internalType":"uint256"},{"name":"totalAssets","type":"uint256","indexed":false,"internalType":"uint256"}],"anonymous":false},{"type":"event","name":"VaultLiquidityDeposited","inputs":[{"name":"provider","type":"address","indexed":true,"internalType":"address"},{"name":"token","type":"address","indexed":true,"internalType":"address"},{"name":"assetAmount","type":"uint256","indexed":false,"internalType":"uint256"},{"name":"shareAmount","type":"uint256","indexed":false,"internalType":"uint256"},{"name":"totalAssets","type":"uint256","indexed":false,"internalType":"uint256"},{"name":"totalShares","type":"uint256","indexed":false,"internalType":"uint256"}],"anonymous":false},{"type":"event","name":"VaultLiquidityWithdrawn","inputs":[{"name":"provider","type":"address","indexed":true,"internalType":"address"},{"name":"token","type":"address","indexed":true,"internalType":"address"},{"name":"assetAmount","type":"uint256","indexed":false,"internalType":"uint256"},{"name":"shareAmount","type":"uint256","indexed":false,"internalType":"uint256"},{"name":"totalAssets","type":"uint256","indexed":false,"internalType":"uint256"},{"name":"totalShares","type":"uint256","indexed":false,"internalType":"uint256"}],"anonymous":false},{"type":"event","name":"VaultPremiumReceived","inputs":[{"name":"payer","type":"address","indexed":true,"internalType":"address"},{"name":"token","type":"address","indexed":true,"internalType":"address"},{"name":"amount","type":"uint256","indexed":false,"internalType":"uint256"},{"name":"totalAssets","type":"uint256","indexed":false,"internalType":"uint256"}],"anonymous":false},{"type":"event","name":"VaultReserveReleased","inputs":[{"name":"insuranceId","type":"uint256","indexed":true,"internalType":"uint256"},{"name":"amount","type":"uint256","indexed":false,"internalType":"uint256"},{"name":"totalReserved","type":"uint256","indexed":false,"internalType":"uint256"}],"anonymous":false},{"type":"event","name":"VaultReserved","inputs":[{"name":"insuranceId","type":"uint256","indexed":true,"internalType":"uint256"},{"name":"amount","type":"uint256","indexed":false,"internalType":"uint256"},{"name":"totalReserved","type":"uint256","indexed":false,"internalType":"uint256"}],"anonymous":false},{"type":"event","name":"VaultYieldClaimed","inputs":[{"name":"provider","type":"address","indexed":true,"internalType":"address"},{"name":"token","type":"address","indexed":true,"internalType":"address"},{"name":"assetAmount","type":"uint256","indexed":false,"internalType":"uint256"},{"name":"shareAmount","type":"uint256","indexed":false,"internalType":"uint256"},{"name":"remainingPrincipal","type":"uint256","indexed":false,"internalType":"uint256"},{"name":"totalAssets","type":"uint256","indexed":false,"internalType":"uint256"},{"name":"totalShares","type":"uint256","indexed":false,"internalType":"uint256"}],"anonymous":false},{"type":"error","name":"CooldownActive","inputs":[]},{"type":"error","name":"InactivePosition","inputs":[]},{"type":"error","name":"InsufficientBalance","inputs":[]},{"type":"error","name":"InsuranceNotActive","inputs":[]},{"type":"error","name":"InvalidAddress","inputs":[]},{"type":"error","name":"InvalidLiquidationState","inputs":[]},{"type":"error","name":"OwnableInvalidOwner","inputs":[{"name":"owner","type":"address","internalType":"address"}]},{"type":"error","name":"OwnableUnauthorizedAccount","inputs":[{"name":"account","type":"address","internalType":"address"}]},{"type":"error","name":"TransferFailed","inputs":[]},{"type":"error","name":"Unauthorized","inputs":[]},{"type":"error","name":"VaultCapacityExceeded","inputs":[]},{"type":"error","name":"ZeroAmount","inputs":[]}],"bytecode":{"object":"0x60c060405234801562000010575f80fd5b5060405162001f4638038062001f4683398101604081905262000033916200014d565b826001600160a01b0381166200006257604051631e4fbdf760e01b81525f600482015260240160405180910390fd5b6200006d81620000c4565b506001600160a01b03821615806200008c57506001600160a01b038116155b15620000ab5760405163e6c4247b60e01b815260040160405180910390fd5b6001600160a01b039182166080521660a0525062000194565b600180546001600160a01b0319169055620000df81620000e2565b50565b5f80546001600160a01b038381166001600160a01b0319831681178455604051919092169283917f8be0079c531659141344cd1fd0a4f28419497f9722a3daafe3b4186f6b6457e09190a35050565b80516001600160a01b038116811462000148575f80fd5b919050565b5f805f6060848603121562000160575f80fd5b6200016b8462000131565b92506200017b6020850162000131565b91506200018b6040850162000131565b90509250925092565b60805160a051611d35620002115f395f81816103c1015261168401525f818161047e015281816105a0015281816105f10152818161077d015281816107ea01528181610ae201528181610b4901528181610d9801528181610e5f01528181611103015281816111540152818161135c01526113a40152611d355ff3fe608060405234801561000f575f80fd5b506004361061021e575f3560e01c80637c90a6ca1161012a578063b2016bd4116100b4578063ef0b02e011610079578063ef0b02e0146104e2578063ef8b30f7146104f5578063f1e9672d14610508578063f2fde38b1461051b578063f67cd9cd1461052e575f80fd5b8063b2016bd414610479578063c634dfaa146104a0578063c71b0e1c146104bf578063e30c3978146104c8578063e9031a26146104d9575f80fd5b806395d9120b116100fa57806395d9120b146104195780639b745aec146104385780639ea7e5f814610440578063a61b1c7614610453578063abe73ef514610466575f80fd5b80637c90a6ca146103bc5780638aae98b6146103e35780638da5cb5b146103f65780638f97224014610406575f80fd5b806340bd2e23116101ab578063715018a61161017b578063715018a61461037357806375d97e9a1461037b57806376d58e1a1461038e578063794c23f3146103a157806379ba5097146103b4575f80fd5b806340bd2e23146103065780634473ad521461032e5780634cdad5061461034d5780634ea0efc914610360575f80fd5b806320db1d3d116101f157806320db1d3d146102b05780632def37a0146102c3578063370dad80146102d657806339350ccc146102de5780633a98ef39146102fd575f80fd5b806301e1d114146102225780630a89a2c01461023e57806317b7b5ae146102695780631c605efc1461029b575b5f80fd5b61022b60045481565b6040519081526020015b60405180910390f35b600354610251906001600160a01b031681565b6040516001600160a01b039091168152602001610235565b61028b610277366004611b2b565b600c6020525f908152604090205460ff1681565b6040519015158152602001610235565b6102ae6102a9366004611b44565b61054d565b005b6102ae6102be366004611b5b565b61064b565b6102ae6102d1366004611b2b565b610867565b61022b6108e7565b61022b6102ec366004611b44565b5f9081526008602052604090205490565b61022b60065481565b610319610314366004611b44565b610915565b60408051928352602083019190915201610235565b61022b61033c366004611b2b565b60096020525f908152604090205481565b61022b61035b366004611b44565b610b9d565b6102ae61036e366004611b44565b610bb3565b6102ae610c9b565b6102ae610389366004611b9a565b610cae565b61022b61039c366004611b44565b610d34565b6102ae6103af366004611bcf565b610ebd565b6102ae610fe2565b6102517f000000000000000000000000000000000000000000000000000000000000000081565b61022b6103f1366004611b2b565b61102b565b5f546001600160a01b0316610251565b600254610251906001600160a01b031681565b61022b610427366004611b44565b60086020525f908152604090205481565b61022b61104e565b61022b61044e366004611b2b565b61105c565b6102ae610461366004611b2b565b611085565b6102ae610474366004611b44565b6110de565b6102517f000000000000000000000000000000000000000000000000000000000000000081565b61022b6104ae366004611b2b565b600a6020525f908152604090205481565b61022b60055481565b6001546001600160a01b0316610251565b61022b60075481565b6102ae6104f0366004611b44565b6111a7565b61022b610503366004611b44565b6111f4565b61022b610516366004611b44565b611204565b6102ae610529366004611b2b565b611403565b61022b61053c366004611b2b565b600b6020525f908152604090205481565b335f908152600c602052604090205460ff1661057b576040516282b42960e81b815260040160405180910390fd5b805f0361059b57604051631f2a200560e01b815260040160405180910390fd5b6105c77f0000000000000000000000000000000000000000000000000000000000000000333084611473565b8060045f8282546105d89190611c03565b90915550506004546040805183815260208101929092527f00000000000000000000000000000000000000000000000000000000000000006001600160a01b03169133917f7a4987442228857a812894eb12960b682905604b078674f92f09a0e3309261a391015b60405180910390a350565b6002546001600160a01b03163314610675576040516282b42960e81b815260040160405180910390fd5b825f0361069557604051631f9c0ddd60e31b815260040160405180910390fd5b6001600160a01b0382166106bc5760405163e6c4247b60e01b815260040160405180910390fd5b805f036106dc57604051631f2a200560e01b815260040160405180910390fd5b5f838152600860205260408120549081900361070b5760405163446b96e160e01b815260040160405180910390fd5b8082118061071a575060045482115b1561073857604051630c57b57760e21b815260040160405180910390fd5b5f8481526008602052604081208190556005805483929061075a908490611c16565b925050819055508160045f8282546107729190611c16565b909155506107a390507f00000000000000000000000000000000000000000000000000000000000000008484611568565b837fe76b372f819cbd388c6c6cc8693a4cb222aeb9a9d651a4153a9818d4348df865826005546040516107e0929190918252602082015260400190565b60405180910390a27f00000000000000000000000000000000000000000000000000000000000000006001600160a01b0316836001600160a01b0316857f89350a27f10b63c02174a621df2dfed83256ffe186a7bcff663c9ed286bde1f285600454604051610859929190918252602082015260400190565b60405180910390a450505050565b61086f611654565b6001600160a01b0381166108965760405163e6c4247b60e01b815260040160405180910390fd5b600280546001600160a01b038381166001600160a01b0319831681179093556040519116919082907f220b46f293ecd7c9211f4b66fac321c0a954fe57bdbab6ff0d2582dc52e83cfa905f90a35050565b5f806108f1611680565b90506005548111610902575f61090f565b60055461090f9082611c16565b91505090565b5f80825f0361093757604051631f2a200560e01b815260040160405180910390fd5b335f908152600960205260408120549081900361096757604051631e9acf1760e31b815260040160405180910390fd5b335f908152600b60205260409020544210156109965760405163aa9a98df60e01b815260040160405180910390fd5b5f6109a13383611710565b9050805f036109c357604051631e9acf1760e31b815260040160405180910390fd5b8085106109d057806109d2565b845b93506109dc61176a565b8411156109fc57604051630c57b57760e21b815260040160405180910390fd5b610a0b8460045460065461178b565b9250821580610a1957508183115b15610a3757604051631e9acf1760e31b815260040160405180910390fd5b610a46836004546006546117e2565b935080841115610a695760405163381e4d7d60e01b815260040160405180910390fd5b610a7161176a565b841115610a9157604051630c57b57760e21b815260040160405180910390fd5b610a9b8383611c16565b335f9081526009602052604081209190915560068054859290610abf908490611c16565b925050819055508360045f828254610ad79190611c16565b90915550610b0890507f00000000000000000000000000000000000000000000000000000000000000003386611568565b335f818152600a60209081526040918290205460045460065484518a8152938401899052838501929092526060830152608082015290516001600160a01b037f00000000000000000000000000000000000000000000000000000000000000001692917f6e4f5828f4dcad11e0ac8531318cdd71ded0235165f7dc1d0abfaf671c720cb1919081900360a00190a35050915091565b5f610bad826004546006546117e2565b92915050565b6002546001600160a01b03163314610bdd576040516282b42960e81b815260040160405180910390fd5b805f03610bfd57604051631f9c0ddd60e31b815260040160405180910390fd5b5f8181526008602052604081205490819003610c2c5760405163446b96e160e01b815260040160405180910390fd5b5f82815260086020526040812081905560058054839290610c4e908490611c16565b909155505060055460405183917fe76b372f819cbd388c6c6cc8693a4cb222aeb9a9d651a4153a9818d4348df86591610c8f91858252602082015260400190565b60405180910390a25050565b610ca3611654565b610cac5f61180e565b565b610cb6611654565b6001600160a01b038216610cdd5760405163e6c4247b60e01b815260040160405180910390fd5b6001600160a01b0382165f818152600c6020908152604091829020805460ff191685151590811790915591519182527fb1c7b2072e090d47da5ed3595b6ceafcfad5c08ff2884c33f0e365566a0d9cd69101610c8f565b5f815f03610d5557604051631f2a200560e01b815260040160405180910390fd5b5f610d6583600454600654611827565b9050610d713382611858565b9150815f03610d9357604051631f2a200560e01b815260040160405180910390fd5b610dbf7f0000000000000000000000000000000000000000000000000000000000000000333086611473565b8260045f828254610dd09190611c03565b925050819055508160065f828254610de89190611c03565b9091555050335f9081526009602052604081208054849290610e0b908490611c03565b9091555050335f908152600a602052604081208054859290610e2e908490611c03565b90915550610e3d90503361191d565b60045460065460408051868152602081018690529081019290925260608201527f00000000000000000000000000000000000000000000000000000000000000006001600160a01b03169033907f53852aec619b23973dda13077532b9453b754c9065c552a065b5ff9c0c3ab8229060800160405180910390a350919050565b6002546001600160a01b03163314610ee7576040516282b42960e81b815260040160405180910390fd5b815f03610f0757604051631f9c0ddd60e31b815260040160405180910390fd5b805f03610f2757604051631f2a200560e01b815260040160405180910390fd5b5f8281526008602052604090205415610f535760405163381e4d7d60e01b815260040160405180910390fd5b5f81600554610f629190611c03565b9050610f6c611680565b811115610f8c57604051630c57b57760e21b815260040160405180910390fd5b5f838152600860209081526040918290208490556005839055815184815290810183905284917fc3e510dd743e18d3fb075aa881bc2a1ce45912ae1d0e4f689baf721a8fa65be0910160405180910390a2505050565b60015433906001600160a01b0316811461101f5760405163118cdaa760e01b81526001600160a01b03821660048201526024015b60405180910390fd5b6110288161180e565b50565b6001600160a01b0381165f90815260096020526040812054610bad908390611710565b5f61105761176a565b905090565b6001600160a01b0381165f90815260096020526040812054600454600654610bad9291906117e2565b61108d611654565b600380546001600160a01b038381166001600160a01b0319831681179093556040519116919082907f4aba22d1e550a2844004df5bf46eed5e37aefb846f2d2cc32a5e9ac87f44e17e905f90a35050565b805f036110fe57604051631f2a200560e01b815260040160405180910390fd5b61112a7f0000000000000000000000000000000000000000000000000000000000000000333084611473565b8060045f82825461113b9190611c03565b90915550506004546040805183815260208101929092527f00000000000000000000000000000000000000000000000000000000000000006001600160a01b03169133917f943ce8e71d578980d4d3086e5a98d699c6981d4fdc860f44ebced8aeff76ab789101610640565b6111af611654565b600780549082905560408051828152602081018490527f178ecdca7aea374490407a9536dc523a085d888c3a47205cc1342d8e017c7400910160405180910390a15050565b5f610bad82600454600654611827565b5f815f0361122557604051631f2a200560e01b815260040160405180910390fd5b335f908152600960205260409020548281101561125557604051631e9acf1760e31b815260040160405180910390fd5b335f908152600b60205260409020544210156112845760405163aa9a98df60e01b815260040160405180910390fd5b611293836004546006546117e2565b9150815f036112b557604051631f2a200560e01b815260040160405180910390fd5b6112bd61176a565b8211156112dd57604051630c57b57760e21b815260040160405180910390fd5b5f6112e9338584611999565b90506112f58483611c16565b335f90815260096020908152604080832093909355600a90529081208054839290611321908490611c16565b925050819055508360065f8282546113399190611c16565b925050819055508260045f8282546113519190611c16565b9091555061138290507f00000000000000000000000000000000000000000000000000000000000000003385611568565b60045460065460408051868152602081018890529081019290925260608201527f00000000000000000000000000000000000000000000000000000000000000006001600160a01b03169033907f1c6cf408172a32434a286bc82cd0142186982d504eb6a29e00dfdf6aad0190bf9060800160405180910390a35050919050565b61140b611654565b600180546001600160a01b0383166001600160a01b0319909116811790915561143b5f546001600160a01b031690565b6001600160a01b03167f38d16b8cac22d99fc7c124b9cd0de2d3fa1faef420bfe791d8c362d765e2270060405160405180910390a350565b604080516001600160a01b0385811660248301528481166044830152606480830185905283518084039091018152608490920183526020820180516001600160e01b03166323b872dd60e01b17905291515f928392908816916114d69190611c29565b5f604051808303815f865af19150503d805f811461150f576040519150601f19603f3d011682016040523d82523d5f602084013e611514565b606091505b509150915081158061154257508051158015906115425750808060200190518101906115409190611c55565b155b15611560576040516312171d8360e31b815260040160405180910390fd5b505050505050565b604080516001600160a01b038481166024830152604480830185905283518084039091018152606490920183526020820180516001600160e01b031663a9059cbb60e01b17905291515f928392908716916115c39190611c29565b5f604051808303815f865af19150503d805f81146115fc576040519150601f19603f3d011682016040523d82523d5f602084013e611601565b606091505b509150915081158061162f575080511580159061162f57508080602001905181019061162d9190611c55565b155b1561164d576040516312171d8360e31b815260040160405180910390fd5b5050505050565b5f546001600160a01b03163314610cac5760405163118cdaa760e01b8152336004820152602401611016565b5f807f00000000000000000000000000000000000000000000000000000000000000006001600160a01b03166312e08b446040518163ffffffff1660e01b8152600401602060405180830381865afa1580156116de573d5f803e3d5ffd5b505050506040513d601f19601f820116820180604052508101906117029190611c70565b905061090f600454826119df565b5f815f0361171f57505f610bad565b5f61172f836004546006546117e2565b6001600160a01b0385165f908152600a6020526040902054909150808211611757575f611761565b6117618183611c16565b95945050505050565b5f6005546004541161177b57505f90565b6005546004546110579190611c16565b5f831580611797575082155b806117a0575081155b156117ac57505f6117db565b826001816117ba8588611c87565b6117c49190611c03565b6117ce9190611c16565b6117d89190611c9e565b90505b9392505050565b5f8315806117ee575081155b806117f7575082155b1561180357505f6117db565b816117ce8486611c87565b600180546001600160a01b0319169055611028816119f7565b5f835f0361183657505f6117db565b811580611841575082155b1561184d5750826117db565b826117ce8386611c87565b5f81158061186f57506003546001600160a01b0316155b1561187b575080610bad565b6003546040516356f71c2360e01b81526001600160a01b0385811660048301525f9216906356f71c23906024016040805180830381865afa1580156118c2573d5f803e3d5ffd5b505050506040513d601f19601f820116820180604052508101906118e69190611cce565b5090508061ffff165f036118fd5782915050610bad565b61190b838261ffff166119df565b6119159084611c03565b949350505050565b5f61192782611a46565b9050805f0361194c57506001600160a01b03165f908152600b60205260409020429055565b5f6119578242611c03565b6001600160a01b0384165f908152600b6020526040902054909150811115611994576001600160a01b0383165f908152600b602052604090208190555b505050565b6001600160a01b0383165f908152600a60205260408120548015806119bc575082155b156119ca575f9150506117db565b826119d58583611c87565b6117619190611c9e565b5f6127106119ed8385611c87565b6117db9190611c9e565b5f80546001600160a01b038381166001600160a01b0319831681178455604051919092169283917f8be0079c531659141344cd1fd0a4f28419497f9722a3daafe3b4186f6b6457e09190a35050565b600754801580611a5f57506003546001600160a01b0316155b15611a6957919050565b6003546040516356f71c2360e01b81526001600160a01b0384811660048301525f9216906356f71c23906024016040805180830381865afa158015611ab0573d5f803e3d5ffd5b505050506040513d601f19601f82011682018060405250810190611ad49190611cce565b9150508061ffff165f03611ae85750919050565b5f611af7838361ffff166119df565b9050808311611b06575f611915565b6119158184611c16565b80356001600160a01b0381168114611b26575f80fd5b919050565b5f60208284031215611b3b575f80fd5b6117db82611b10565b5f60208284031215611b54575f80fd5b5035919050565b5f805f60608486031215611b6d575f80fd5b83359250611b7d60208501611b10565b9150604084013590509250925092565b8015158114611028575f80fd5b5f8060408385031215611bab575f80fd5b611bb483611b10565b91506020830135611bc481611b8d565b809150509250929050565b5f8060408385031215611be0575f80fd5b50508035926020909101359150565b634e487b7160e01b5f52601160045260245ffd5b80820180821115610bad57610bad611bef565b81810381811115610bad57610bad611bef565b5f82515f5b81811015611c485760208186018101518583015201611c2e565b505f920191825250919050565b5f60208284031215611c65575f80fd5b81516117db81611b8d565b5f60208284031215611c80575f80fd5b5051919050565b8082028115828204841417610bad57610bad611bef565b5f82611cb857634e487b7160e01b5f52601260045260245ffd5b500490565b805161ffff81168114611b26575f80fd5b5f8060408385031215611cdf575f80fd5b611ce883611cbd565b9150611cf660208401611cbd565b9050925092905056fea26469706673582212203dae1c72d6716d2d4467b9786a42ed4b1de8b4ff36f1f8f3401b8a5aab82b60964736f6c63430008180033","linkReferences":{}},"methodIdentifiers":{"acceptOwnership()":"79ba5097","authorizedPremiumCaller(address)":"17b7b5ae","baseExitCooldownSeconds()":"e9031a26","benefitNFT()":"0a89a2c0","claimYield(uint256)":"40bd2e23","claimableYieldOf(address)":"8aae98b6","collateralToken()":"b2016bd4","depositLiquidity(uint256)":"76d58e1a","fundVault(uint256)":"abe73ef5","getAvailableCapacity()":"370dad80","getAvailableLiquidity()":"9b745aec","getReservedAmount(uint256)":"39350ccc","insuranceController()":"8f972240","lpAssetValue(address)":"9ea7e5f8","lpUnlockTime(address)":"f67cd9cd","owner()":"8da5cb5b","payClaim(uint256,address,uint256)":"20db1d3d","pendingOwner()":"e30c3978","previewDeposit(uint256)":"ef8b30f7","previewRedeem(uint256)":"4cdad506","principalBalanceOf(address)":"c634dfaa","receivePremium(uint256)":"1c605efc","redeemLiquidity(uint256)":"f1e9672d","releaseCapacity(uint256)":"4ea0efc9","renounceOwnership()":"715018a6","reserveCapacity(uint256,uint256)":"794c23f3","reservedByPosition(uint256)":"95d9120b","riskConfig()":"7c90a6ca","setBaseExitCooldown(uint256)":"ef0b02e0","setBenefitNFT(address)":"a61b1c76","setInsuranceController(address)":"2def37a0","setPremiumCaller(address,bool)":"75d97e9a","shareBalanceOf(address)":"4473ad52","totalAssets()":"01e1d114","totalReserved()":"c71b0e1c","totalShares()":"3a98ef39","transferOwnership(address)":"f2fde38b"},"id":5}