{"abi":[{"type":"constructor","inputs":[{"name":"treasury_","type":"address","internalType":"address"}],"stateMutability":"nonpayable"},{"type":"receive","stateMutability":"payable"},{"type":"function","name":"accruedFees","inputs":[],"outputs":[{"name":"","type":"uint256","internalType":"uint256"}],"stateMutability":"view"},{"type":"function","name":"routeFees","inputs":[],"outputs":[],"stateMutability":"nonpayable"},{"type":"function","name":"treasury","inputs":[],"outputs":[{"name":"","type":"address","internalType":"address"}],"stateMutability":"view"},{"type":"error","name":"InvalidAddress","inputs":[]}],"bytecode":{"object":"0x608060405234801561000f575f80fd5b5060405161027f38038061027f83398101604081905261002e91610079565b6001600160a01b0381166100555760405163e6c4247b60e01b815260040160405180910390fd5b5f80546001600160a01b0319166001600160a01b03929092169190911790556100a6565b5f60208284031215610089575f80fd5b81516001600160a01b038116811461009f575f80fd5b9392505050565b6101cc806100b35f395ff3fe608060405260043610610036575f3560e01c806361d027b314610058578063682c205814610093578063f6e06c0e146100b6575f80fd5b36610054573460015f82825461004c9190610171565b925050819055005b5f80fd5b348015610063575f80fd5b505f54610076906001600160a01b031681565b6040516001600160a01b0390911681526020015b60405180910390f35b34801561009e575f80fd5b506100a860015481565b60405190815260200161008a565b3480156100c1575f80fd5b506100ca6100cc565b005b600180545f9182905581546040519192916001600160a01b039091169083908381818185875af1925050503d805f8114610121576040519150601f19603f3d011682016040523d82523d5f602084013e610126565b606091505b505090508061016d5760405162461bcd60e51b815260206004820152600f60248201526e1514905394d1915497d19052531151608a1b604482015260640160405180910390fd5b5050565b8082018082111561019057634e487b7160e01b5f52601160045260245ffd5b9291505056fea2646970667358221220b5ebe414931f32595434aa37072aeca0b759a06fe843fe1cc84511d0a3f8d29164736f6c63430008180033","linkReferences":{}},"methodIdentifiers":{"accruedFees()":"682c2058","routeFees()":"f6e06c0e","treasury()":"61d027b3"},"id":0}