{"abi":[{"type":"constructor","inputs":[{"name":"initialOwner","type":"address","internalType":"address"},{"name":"collateralToken_","type":"address","internalType":"address"},{"name":"riskVault_","type":"address","internalType":"address"},{"name":"riskConfig_","type":"address","internalType":"address"},{"name":"treasury_","type":"address","internalType":"address"}],"stateMutability":"nonpayable"},{"type":"function","name":"acceptOwnership","inputs":[],"outputs":[],"stateMutability":"nonpayable"},{"type":"function","name":"authorizedCaller","inputs":[{"name":"caller","type":"address","internalType":"address"}],"outputs":[{"name":"isAuthorized","type":"bool","internalType":"bool"}],"stateMutability":"view"},{"type":"function","name":"collateralToken","inputs":[],"outputs":[{"name":"","type":"address","internalType":"address"}],"stateMutability":"view"},{"type":"function","name":"getUnroutedBalance","inputs":[],"outputs":[{"name":"","type":"uint256","internalType":"uint256"}],"stateMutability":"view"},{"type":"function","name":"owner","inputs":[],"outputs":[{"name":"","type":"address","internalType":"address"}],"stateMutability":"view"},{"type":"function","name":"pendingOwner","inputs":[],"outputs":[{"name":"","type":"address","internalType":"address"}],"stateMutability":"view"},{"type":"function","name":"renounceOwnership","inputs":[],"outputs":[],"stateMutability":"nonpayable"},{"type":"function","name":"riskConfig","inputs":[],"outputs":[{"name":"","type":"address","internalType":"address"}],"stateMutability":"view"},{"type":"function","name":"riskVault","inputs":[],"outputs":[{"name":"","type":"address","internalType":"address"}],"stateMutability":"view"},{"type":"function","name":"routePremium","inputs":[{"name":"payer","type":"address","internalType":"address"},{"name":"amount","type":"uint256","internalType":"uint256"}],"outputs":[],"stateMutability":"nonpayable"},{"type":"function","name":"routeProtocolFee","inputs":[{"name":"payer","type":"address","internalType":"address"},{"name":"amount","type":"uint256","internalType":"uint256"}],"outputs":[],"stateMutability":"nonpayable"},{"type":"function","name":"setAuthorizedCaller","inputs":[{"name":"caller","type":"address","internalType":"address"},{"name":"isAuthorized","type":"bool","internalType":"bool"}],"outputs":[],"stateMutability":"nonpayable"},{"type":"function","name":"setTreasury","inputs":[{"name":"newTreasury","type":"address","internalType":"address"}],"outputs":[],"stateMutability":"nonpayable"},{"type":"function","name":"totalPremiumRouted","inputs":[],"outputs":[{"name":"","type":"uint256","internalType":"uint256"}],"stateMutability":"view"},{"type":"function","name":"totalProtocolFeesRouted","inputs":[],"outputs":[{"name":"","type":"uint256","internalType":"uint256"}],"stateMutability":"view"},{"type":"function","name":"totalSentToRiskVault","inputs":[],"outputs":[{"name":"","type":"uint256","internalType":"uint256"}],"stateMutability":"view"},{"type":"function","name":"totalSentToTreasury","inputs":[],"outputs":[{"name":"","type":"uint256","internalType":"uint256"}],"stateMutability":"view"},{"type":"function","name":"transferOwnership","inputs":[{"name":"newOwner","type":"address","internalType":"address"}],"outputs":[],"stateMutability":"nonpayable"},{"type":"function","name":"treasury","inputs":[],"outputs":[{"name":"","type":"address","internalType":"address"}],"stateMutability":"view"},{"type":"event","name":"AuthorizedCallerUpdated","inputs":[{"name":"caller","type":"address","indexed":true,"internalType":"address"},{"name":"isAuthorized","type":"bool","indexed":false,"internalType":"bool"}],"anonymous":false},{"type":"event","name":"OwnershipTransferStarted","inputs":[{"name":"previousOwner","type":"address","indexed":true,"internalType":"address"},{"name":"newOwner","type":"address","indexed":true,"internalType":"address"}],"anonymous":false},{"type":"event","name":"OwnershipTransferred","inputs":[{"name":"previousOwner","type":"address","indexed":true,"internalType":"address"},{"name":"newOwner","type":"address","indexed":true,"internalType":"address"}],"anonymous":false},{"type":"event","name":"PremiumRouted","inputs":[{"name":"caller","type":"address","indexed":true,"internalType":"address"},{"name":"payer","type":"address","indexed":true,"internalType":"address"},{"name":"amount","type":"uint256","indexed":false,"internalType":"uint256"},{"name":"treasuryAmount","type":"uint256","indexed":false,"internalType":"uint256"},{"name":"vaultAmount","type":"uint256","indexed":false,"internalType":"uint256"},{"name":"treasuryBps","type":"uint256","indexed":false,"internalType":"uint256"}],"anonymous":false},{"type":"event","name":"ProtocolFeeRouted","inputs":[{"name":"caller","type":"address","indexed":true,"internalType":"address"},{"name":"payer","type":"address","indexed":true,"internalType":"address"},{"name":"amount","type":"uint256","indexed":false,"internalType":"uint256"},{"name":"treasuryAmount","type":"uint256","indexed":false,"internalType":"uint256"},{"name":"vaultAmount","type":"uint256","indexed":false,"internalType":"uint256"},{"name":"treasuryBps","type":"uint256","indexed":false,"internalType":"uint256"}],"anonymous":false},{"type":"event","name":"TreasuryUpdated","inputs":[{"name":"previousTreasury","type":"address","indexed":true,"internalType":"address"},{"name":"newTreasury","type":"address","indexed":true,"internalType":"address"}],"anonymous":false},{"type":"error","name":"InvalidAddress","inputs":[]},{"type":"error","name":"InvalidOracleConfig","inputs":[]},{"type":"error","name":"OwnableInvalidOwner","inputs":[{"name":"owner","type":"address","internalType":"address"}]},{"type":"error","name":"OwnableUnauthorizedAccount","inputs":[{"name":"account","type":"address","internalType":"address"}]},{"type":"error","name":"TransferFailed","inputs":[]},{"type":"error","name":"Unauthorized","inputs":[]},{"type":"error","name":"ZeroAmount","inputs":[]}],"bytecode":{"object":"0x60e060405234801562000010575f80fd5b506040516200124e3803806200124e8339810160408190526200003391620001a2565b846001600160a01b0381166200006257604051631e4fbdf760e01b81525f600482015260240160405180910390fd5b6200006d8162000119565b506001600160a01b03851615806200008c57506001600160a01b038416155b806200009f57506001600160a01b038316155b80620000b257506001600160a01b038216155b80620000c557506001600160a01b038116155b15620000e45760405163e6c4247b60e01b815260040160405180910390fd5b6001600160a01b0393841660805291831660a052821660c052600280546001600160a01b03191691909216179055506200020e565b600180546001600160a01b0319169055620001348162000137565b50565b5f80546001600160a01b038381166001600160a01b0319831681178455604051919092169283917f8be0079c531659141344cd1fd0a4f28419497f9722a3daafe3b4186f6b6457e09190a35050565b80516001600160a01b03811681146200019d575f80fd5b919050565b5f805f805f60a08688031215620001b7575f80fd5b620001c28662000186565b9450620001d26020870162000186565b9350620001e26040870162000186565b9250620001f26060870162000186565b9150620002026080870162000186565b90509295509295909350565b60805160a05160c051610fcf6200027f5f395f81816101dc015261088b01525f818161015e015281816103d20152818161040d01528181610636015261067101525f8181610245015281816103b10152818161053d015281816106150152818161093301526109810152610fcf5ff3fe608060405234801561000f575f80fd5b506004361061011b575f3560e01c80637c90a6ca116100a9578063c2167b471161006e578063c2167b471461026f578063e30c397814610278578063eef2189614610289578063f0f442601461029c578063f2fde38b146102af575f80fd5b80637c90a6ca146101d75780638da5cb5b146101fe57806398f6ef121461020e578063b2016bd414610240578063b363f89914610267575f80fd5b806358bfd736116100ef57806358bfd7361461019857806361d027b3146101a15780636a6615fa146101b4578063715018a6146101c757806379ba5097146101cf575f80fd5b8062d6770b1461011f5780633c7c801d1461013b578063454bbd291461014457806356a8792d14610159575b5f80fd5b61012860065481565b6040519081526020015b60405180910390f35b61012860075481565b610157610152366004610e4e565b6102c2565b005b6101807f000000000000000000000000000000000000000000000000000000000000000081565b6040516001600160a01b039091168152602001610132565b61012860045481565b600254610180906001600160a01b031681565b6101576101c2366004610e83565b61034f565b6101576104ca565b6101576104dd565b6101807f000000000000000000000000000000000000000000000000000000000000000081565b5f546001600160a01b0316610180565b61023061021c366004610eab565b60036020525f908152604090205460ff1681565b6040519015158152602001610132565b6101807f000000000000000000000000000000000000000000000000000000000000000081565b610128610526565b61012860055481565b6001546001600160a01b0316610180565b610157610297366004610e83565b6105b3565b6101576102aa366004610eab565b610723565b6101576102bd366004610eab565b6107a3565b6102ca610813565b6001600160a01b0382166102f15760405163e6c4247b60e01b815260040160405180910390fd5b6001600160a01b0382165f81815260036020908152604091829020805460ff191685151590811790915591519182527fad857fa38c9319cb80848f1ef2f924383b90297eb5d71755738ff037d100faa1910160405180910390a25050565b335f9081526003602052604090205460ff1661037d576040516282b42960e81b815260040160405180910390fd5b5f805f61038a858561083f565b9250925092508360045f8282546103a19190610ed8565b9091555050811561046d576103f77f00000000000000000000000000000000000000000000000000000000000000007f0000000000000000000000000000000000000000000000000000000000000000846109eb565b60405163071817bf60e21b8152600481018390527f00000000000000000000000000000000000000000000000000000000000000006001600160a01b031690631c605efc906024015f604051808303815f87803b158015610456575f80fd5b505af1158015610468573d5f803e3d5ffd5b505050505b6040805185815260208101859052908101839052606081018290526001600160a01b0386169033907f439d03bea2a6b0dc307b7f27071b3cfd39d43bb2ed1ff83d8c4993216110a91e906080015b60405180910390a35050505050565b6104d2610813565b6104db5f610bbc565b565b60015433906001600160a01b0316811461051a5760405163118cdaa760e01b81526001600160a01b03821660048201526024015b60405180910390fd5b61052381610bbc565b50565b6040516370a0823160e01b81523060048201525f907f00000000000000000000000000000000000000000000000000000000000000006001600160a01b0316906370a0823190602401602060405180830381865afa15801561058a573d5f803e3d5ffd5b505050506040513d601f19601f820116820180604052508101906105ae9190610eeb565b905090565b335f9081526003602052604090205460ff166105e1576040516282b42960e81b815260040160405180910390fd5b5f805f6105ee858561083f565b9250925092508360055f8282546106059190610ed8565b909155505081156106d15761065b7f00000000000000000000000000000000000000000000000000000000000000007f0000000000000000000000000000000000000000000000000000000000000000846109eb565b60405163abe73ef560e01b8152600481018390527f00000000000000000000000000000000000000000000000000000000000000006001600160a01b03169063abe73ef5906024015f604051808303815f87803b1580156106ba575f80fd5b505af11580156106cc573d5f803e3d5ffd5b505050505b6040805185815260208101859052908101839052606081018290526001600160a01b0386169033907f05641d92161cea9e5eea572c5d1d83b7cfbeace96b83611e52c8191216506688906080016104bb565b61072b610813565b6001600160a01b0381166107525760405163e6c4247b60e01b815260040160405180910390fd5b600280546001600160a01b038381166001600160a01b0319831681179093556040519116919082907f4ab5be82436d353e61ca18726e984e561f5c1cc7c6d38b29d2553c790434705a905f90a35050565b6107ab610813565b600180546001600160a01b0383166001600160a01b031990911681179091556107db5f546001600160a01b031690565b6001600160a01b03167f38d16b8cac22d99fc7c124b9cd0de2d3fa1faef420bfe791d8c362d765e2270060405160405180910390a350565b5f546001600160a01b031633146104db5760405163118cdaa760e01b8152336004820152602401610511565b5f80806001600160a01b0385166108695760405163e6c4247b60e01b815260040160405180910390fd5b835f0361088957604051631f2a200560e01b815260040160405180910390fd5b7f00000000000000000000000000000000000000000000000000000000000000006001600160a01b031663799df0696040518163ffffffff1660e01b8152600401602060405180830381865afa1580156108e5573d5f803e3d5ffd5b505050506040513d601f19601f820116820180604052508101906109099190610eeb565b905061271081111561092e5760405163dae95a0760e01b815260040160405180910390fd5b61095a7f0000000000000000000000000000000000000000000000000000000000000000863087610bd5565b6109648482610cca565b92506109708385610f02565b915082156109c7576002546109b0907f0000000000000000000000000000000000000000000000000000000000000000906001600160a01b031685610ceb565b8260065f8282546109c19190610ed8565b90915550505b81156109e4578160075f8282546109de9190610ed8565b90915550505b9250925092565b604080516001600160a01b0384811660248301525f604480840182905284518085039091018152606490930184526020830180516001600160e01b031663095ea7b360e01b1790529251839291871691610a4491610f15565b5f604051808303815f865af19150503d805f8114610a7d576040519150601f19603f3d011682016040523d82523d5f602084013e610a82565b606091505b5091509150811580610ab05750805115801590610ab0575080806020019051810190610aae9190610f41565b155b15610ace576040516312171d8360e31b815260040160405180910390fd5b604080516001600160a01b038681166024830152604480830187905283518084039091018152606490920183526020820180516001600160e01b031663095ea7b360e01b17905291515f92839290891691610b299190610f15565b5f604051808303815f865af19150503d805f8114610b62576040519150601f19603f3d011682016040523d82523d5f602084013e610b67565b606091505b5091509150811580610b955750805115801590610b95575080806020019051810190610b939190610f41565b155b15610bb3576040516312171d8360e31b815260040160405180910390fd5b50505050505050565b600180546001600160a01b031916905561052381610dd7565b604080516001600160a01b0385811660248301528481166044830152606480830185905283518084039091018152608490920183526020820180516001600160e01b03166323b872dd60e01b17905291515f92839290881691610c389190610f15565b5f604051808303815f865af19150503d805f8114610c71576040519150601f19603f3d011682016040523d82523d5f602084013e610c76565b606091505b5091509150811580610ca45750805115801590610ca4575080806020019051810190610ca29190610f41565b155b15610cc2576040516312171d8360e31b815260040160405180910390fd5b505050505050565b5f612710610cd88385610f63565b610ce29190610f7a565b90505b92915050565b604080516001600160a01b038481166024830152604480830185905283518084039091018152606490920183526020820180516001600160e01b031663a9059cbb60e01b17905291515f92839290871691610d469190610f15565b5f604051808303815f865af19150503d805f8114610d7f576040519150601f19603f3d011682016040523d82523d5f602084013e610d84565b606091505b5091509150811580610db25750805115801590610db2575080806020019051810190610db09190610f41565b155b15610dd0576040516312171d8360e31b815260040160405180910390fd5b5050505050565b5f80546001600160a01b038381166001600160a01b0319831681178455604051919092169283917f8be0079c531659141344cd1fd0a4f28419497f9722a3daafe3b4186f6b6457e09190a35050565b80356001600160a01b0381168114610e3c575f80fd5b919050565b8015158114610523575f80fd5b5f8060408385031215610e5f575f80fd5b610e6883610e26565b91506020830135610e7881610e41565b809150509250929050565b5f8060408385031215610e94575f80fd5b610e9d83610e26565b946020939093013593505050565b5f60208284031215610ebb575f80fd5b610ce282610e26565b634e487b7160e01b5f52601160045260245ffd5b80820180821115610ce557610ce5610ec4565b5f60208284031215610efb575f80fd5b5051919050565b81810381811115610ce557610ce5610ec4565b5f82515f5b81811015610f345760208186018101518583015201610f1a565b505f920191825250919050565b5f60208284031215610f51575f80fd5b8151610f5c81610e41565b9392505050565b8082028115828204841417610ce557610ce5610ec4565b5f82610f9457634e487b7160e01b5f52601260045260245ffd5b50049056fea26469706673582212201a13b2edcba9b7697ab860658b0194e4379181bebfbb4a8dc9aacdad4010179264736f6c63430008180033","linkReferences":{}},"methodIdentifiers":{"acceptOwnership()":"79ba5097","authorizedCaller(address)":"98f6ef12","collateralToken()":"b2016bd4","getUnroutedBalance()":"b363f899","owner()":"8da5cb5b","pendingOwner()":"e30c3978","renounceOwnership()":"715018a6","riskConfig()":"7c90a6ca","riskVault()":"56a8792d","routePremium(address,uint256)":"6a6615fa","routeProtocolFee(address,uint256)":"eef21896","setAuthorizedCaller(address,bool)":"454bbd29","setTreasury(address)":"f0f44260","totalPremiumRouted()":"58bfd736","totalProtocolFeesRouted()":"c2167b47","totalSentToRiskVault()":"3c7c801d","totalSentToTreasury()":"00d6770b","transferOwnership(address)":"f2fde38b","treasury()":"61d027b3"},"id":0}