{"abi":[{"type":"constructor","inputs":[{"name":"initialOwner","type":"address","internalType":"address"},{"name":"collateralToken_","type":"address","internalType":"address"},{"name":"riskVault_","type":"address","internalType":"address"},{"name":"riskConfig_","type":"address","internalType":"address"},{"name":"treasury_","type":"address","internalType":"address"}],"stateMutability":"nonpayable"},{"type":"function","name":"acceptOwnership","inputs":[],"outputs":[],"stateMutability":"nonpayable"},{"type":"function","name":"authorizedCaller","inputs":[{"name":"caller","type":"address","internalType":"address"}],"outputs":[{"name":"isAuthorized","type":"bool","internalType":"bool"}],"stateMutability":"view"},{"type":"function","name":"benefitNFT","inputs":[],"outputs":[{"name":"","type":"address","internalType":"address"}],"stateMutability":"view"},{"type":"function","name":"collateralToken","inputs":[],"outputs":[{"name":"","type":"address","internalType":"address"}],"stateMutability":"view"},{"type":"function","name":"getUnroutedBalance","inputs":[],"outputs":[{"name":"","type":"uint256","internalType":"uint256"}],"stateMutability":"view"},{"type":"function","name":"owner","inputs":[],"outputs":[{"name":"","type":"address","internalType":"address"}],"stateMutability":"view"},{"type":"function","name":"pendingOwner","inputs":[],"outputs":[{"name":"","type":"address","internalType":"address"}],"stateMutability":"view"},{"type":"function","name":"previewDiscountedProtocolFee","inputs":[{"name":"benefitAccount","type":"address","internalType":"address"},{"name":"grossAmount","type":"uint256","internalType":"uint256"}],"outputs":[{"name":"netAmount","type":"uint256","internalType":"uint256"},{"name":"discountBps","type":"uint256","internalType":"uint256"}],"stateMutability":"view"},{"type":"function","name":"renounceOwnership","inputs":[],"outputs":[],"stateMutability":"nonpayable"},{"type":"function","name":"riskConfig","inputs":[],"outputs":[{"name":"","type":"address","internalType":"address"}],"stateMutability":"view"},{"type":"function","name":"riskVault","inputs":[],"outputs":[{"name":"","type":"address","internalType":"address"}],"stateMutability":"view"},{"type":"function","name":"routePremium","inputs":[{"name":"payer","type":"address","internalType":"address"},{"name":"amount","type":"uint256","internalType":"uint256"}],"outputs":[],"stateMutability":"nonpayable"},{"type":"function","name":"routeProtocolFee","inputs":[{"name":"payer","type":"address","internalType":"address"},{"name":"amount","type":"uint256","internalType":"uint256"}],"outputs":[],"stateMutability":"nonpayable"},{"type":"function","name":"routeProtocolFeeWithBenefits","inputs":[{"name":"payer","type":"address","internalType":"address"},{"name":"benefitAccount","type":"address","internalType":"address"},{"name":"grossAmount","type":"uint256","internalType":"uint256"}],"outputs":[{"name":"chargedAmount","type":"uint256","internalType":"uint256"}],"stateMutability":"nonpayable"},{"type":"function","name":"setAuthorizedCaller","inputs":[{"name":"caller","type":"address","internalType":"address"},{"name":"isAuthorized","type":"bool","internalType":"bool"}],"outputs":[],"stateMutability":"nonpayable"},{"type":"function","name":"setBenefitNFT","inputs":[{"name":"newBenefitNFT","type":"address","internalType":"address"}],"outputs":[],"stateMutability":"nonpayable"},{"type":"function","name":"setTreasury","inputs":[{"name":"newTreasury","type":"address","internalType":"address"}],"outputs":[],"stateMutability":"nonpayable"},{"type":"function","name":"totalPremiumRouted","inputs":[],"outputs":[{"name":"","type":"uint256","internalType":"uint256"}],"stateMutability":"view"},{"type":"function","name":"totalProtocolFeesRouted","inputs":[],"outputs":[{"name":"","type":"uint256","internalType":"uint256"}],"stateMutability":"view"},{"type":"function","name":"totalSentToRiskVault","inputs":[],"outputs":[{"name":"","type":"uint256","internalType":"uint256"}],"stateMutability":"view"},{"type":"function","name":"totalSentToTreasury","inputs":[],"outputs":[{"name":"","type":"uint256","internalType":"uint256"}],"stateMutability":"view"},{"type":"function","name":"transferOwnership","inputs":[{"name":"newOwner","type":"address","internalType":"address"}],"outputs":[],"stateMutability":"nonpayable"},{"type":"function","name":"treasury","inputs":[],"outputs":[{"name":"","type":"address","internalType":"address"}],"stateMutability":"view"},{"type":"event","name":"AuthorizedCallerUpdated","inputs":[{"name":"caller","type":"address","indexed":true,"internalType":"address"},{"name":"isAuthorized","type":"bool","indexed":false,"internalType":"bool"}],"anonymous":false},{"type":"event","name":"BenefitNFTUpdated","inputs":[{"name":"previousBenefitNFT","type":"address","indexed":true,"internalType":"address"},{"name":"newBenefitNFT","type":"address","indexed":true,"internalType":"address"}],"anonymous":false},{"type":"event","name":"OwnershipTransferStarted","inputs":[{"name":"previousOwner","type":"address","indexed":true,"internalType":"address"},{"name":"newOwner","type":"address","indexed":true,"internalType":"address"}],"anonymous":false},{"type":"event","name":"OwnershipTransferred","inputs":[{"name":"previousOwner","type":"address","indexed":true,"internalType":"address"},{"name":"newOwner","type":"address","indexed":true,"internalType":"address"}],"anonymous":false},{"type":"event","name":"PremiumRouted","inputs":[{"name":"caller","type":"address","indexed":true,"internalType":"address"},{"name":"payer","type":"address","indexed":true,"internalType":"address"},{"name":"amount","type":"uint256","indexed":false,"internalType":"uint256"},{"name":"treasuryAmount","type":"uint256","indexed":false,"internalType":"uint256"},{"name":"vaultAmount","type":"uint256","indexed":false,"internalType":"uint256"},{"name":"treasuryBps","type":"uint256","indexed":false,"internalType":"uint256"}],"anonymous":false},{"type":"event","name":"ProtocolFeeRouted","inputs":[{"name":"caller","type":"address","indexed":true,"internalType":"address"},{"name":"payer","type":"address","indexed":true,"internalType":"address"},{"name":"amount","type":"uint256","indexed":false,"internalType":"uint256"},{"name":"treasuryAmount","type":"uint256","indexed":false,"internalType":"uint256"},{"name":"vaultAmount","type":"uint256","indexed":false,"internalType":"uint256"},{"name":"treasuryBps","type":"uint256","indexed":false,"internalType":"uint256"}],"anonymous":false},{"type":"event","name":"TreasuryUpdated","inputs":[{"name":"previousTreasury","type":"address","indexed":true,"internalType":"address"},{"name":"newTreasury","type":"address","indexed":true,"internalType":"address"}],"anonymous":false},{"type":"error","name":"InvalidAddress","inputs":[]},{"type":"error","name":"InvalidOracleConfig","inputs":[]},{"type":"error","name":"OwnableInvalidOwner","inputs":[{"name":"owner","type":"address","internalType":"address"}]},{"type":"error","name":"OwnableUnauthorizedAccount","inputs":[{"name":"account","type":"address","internalType":"address"}]},{"type":"error","name":"TransferFailed","inputs":[]},{"type":"error","name":"Unauthorized","inputs":[]},{"type":"error","name":"ZeroAmount","inputs":[]}],"bytecode":{"object":"0x60e060405234801562000010575f80fd5b5060405162001630380380620016308339810160408190526200003391620001a2565b846001600160a01b0381166200006257604051631e4fbdf760e01b81525f600482015260240160405180910390fd5b6200006d8162000119565b506001600160a01b03851615806200008c57506001600160a01b038416155b806200009f57506001600160a01b038316155b80620000b257506001600160a01b038216155b80620000c557506001600160a01b038116155b15620000e45760405163e6c4247b60e01b815260040160405180910390fd5b6001600160a01b0393841660805291831660a052821660c052600280546001600160a01b03191691909216179055506200020e565b600180546001600160a01b0319169055620001348162000137565b50565b5f80546001600160a01b038381166001600160a01b0319831681178455604051919092169283917f8be0079c531659141344cd1fd0a4f28419497f9722a3daafe3b4186f6b6457e09190a35050565b80516001600160a01b03811681146200019d575f80fd5b919050565b5f805f805f60a08688031215620001b7575f80fd5b620001c28662000186565b9450620001d26020870162000186565b9350620001e26040870162000186565b9250620001f26060870162000186565b9150620002026080870162000186565b90509295509295909350565b60805160a05160c05161139c620002945f395f81816102430152610b5b01525f81816101b50152818161045f0152818161049a015281816106a2015281816106dd01528181610906015261094101525f81816102d20152818161043e015281816106810152818161080d015281816108e501528181610c030152610c51015261139c5ff3fe608060405234801561000f575f80fd5b5060043610610147575f3560e01c80637c90a6ca116100bf578063b363f89911610079578063b363f899146102f4578063c2167b47146102fc578063e30c397814610305578063eef2189614610316578063f0f4426014610329578063f2fde38b1461033c575f80fd5b80637c90a6ca1461023e5780638da5cb5b14610265578063930081e31461027557806398f6ef1214610288578063a61b1c76146102ba578063b2016bd4146102cd575f80fd5b806358bfd7361161011057806358bfd736146101d757806361d027b3146101e05780636a6615fa146101f3578063715018a614610206578063716172e31461020e57806379ba509714610236575f80fd5b8062d6770b1461014b5780630a89a2c0146101675780633c7c801d14610192578063454bbd291461019b57806356a8792d146101b0575b5f80fd5b61015460075481565b6040519081526020015b60405180910390f35b60035461017a906001600160a01b031681565b6040516001600160a01b03909116815260200161015e565b61015460085481565b6101ae6101a93660046111c1565b61034f565b005b61017a7f000000000000000000000000000000000000000000000000000000000000000081565b61015460055481565b60025461017a906001600160a01b031681565b6101ae6102013660046111f6565b6103dc565b6101ae610557565b61022161021c3660046111f6565b61056a565b6040805192835260208301919091520161015e565b6101ae610594565b61017a7f000000000000000000000000000000000000000000000000000000000000000081565b5f546001600160a01b031661017a565b61015461028336600461121e565b6105dd565b6102aa610296366004611257565b60046020525f908152604090205460ff1681565b604051901515815260200161015e565b6101ae6102c8366004611257565b61079d565b61017a7f000000000000000000000000000000000000000000000000000000000000000081565b6101546107f6565b61015460065481565b6001546001600160a01b031661017a565b6101ae6103243660046111f6565b610883565b6101ae610337366004611257565b6109f3565b6101ae61034a366004611257565b610a73565b610357610ae3565b6001600160a01b03821661037e5760405163e6c4247b60e01b815260040160405180910390fd5b6001600160a01b0382165f81815260046020908152604091829020805460ff191685151590811790915591519182527fad857fa38c9319cb80848f1ef2f924383b90297eb5d71755738ff037d100faa1910160405180910390a25050565b335f9081526004602052604090205460ff1661040a576040516282b42960e81b815260040160405180910390fd5b5f805f6104178585610b0f565b9250925092508360055f82825461042e9190611284565b909155505081156104fa576104847f00000000000000000000000000000000000000000000000000000000000000007f000000000000000000000000000000000000000000000000000000000000000084610cbb565b60405163071817bf60e21b8152600481018390527f00000000000000000000000000000000000000000000000000000000000000006001600160a01b031690631c605efc906024015f604051808303815f87803b1580156104e3575f80fd5b505af11580156104f5573d5f803e3d5ffd5b505050505b6040805185815260208101859052908101839052606081018290526001600160a01b0386169033907f439d03bea2a6b0dc307b7f27071b3cfd39d43bb2ed1ff83d8c4993216110a91e906080015b60405180910390a35050505050565b61055f610ae3565b6105685f610e8c565b565b5f8061057584610ea5565b90506105818382610f48565b61058b9084611297565b91509250929050565b60015433906001600160a01b031681146105d15760405163118cdaa760e01b81526001600160a01b03821660048201526024015b60405180910390fd5b6105da81610e8c565b50565b335f9081526004602052604081205460ff1661060b576040516282b42960e81b815260040160405180910390fd5b815f0361062b57604051631f2a200560e01b815260040160405180910390fd5b5f61063584610ea5565b90506106418382610f48565b61064b9084611297565b91505f805f61065a8886610b0f565b9250925092508460065f8282546106719190611284565b9091555050811561073d576106c77f00000000000000000000000000000000000000000000000000000000000000007f000000000000000000000000000000000000000000000000000000000000000084610cbb565b60405163abe73ef560e01b8152600481018390527f00000000000000000000000000000000000000000000000000000000000000006001600160a01b03169063abe73ef5906024015f604051808303815f87803b158015610726575f80fd5b505af1158015610738573d5f803e3d5ffd5b505050505b6040805186815260208101859052908101839052606081018290526001600160a01b0389169033907f05641d92161cea9e5eea572c5d1d83b7cfbeace96b83611e52c81912165066889060800160405180910390a3505050509392505050565b6107a5610ae3565b600380546001600160a01b038381166001600160a01b0319831681179093556040519116919082907f4aba22d1e550a2844004df5bf46eed5e37aefb846f2d2cc32a5e9ac87f44e17e905f90a35050565b6040516370a0823160e01b81523060048201525f907f00000000000000000000000000000000000000000000000000000000000000006001600160a01b0316906370a0823190602401602060405180830381865afa15801561085a573d5f803e3d5ffd5b505050506040513d601f19601f8201168201806040525081019061087e91906112aa565b905090565b335f9081526004602052604090205460ff166108b1576040516282b42960e81b815260040160405180910390fd5b5f805f6108be8585610b0f565b9250925092508360065f8282546108d59190611284565b909155505081156109a15761092b7f00000000000000000000000000000000000000000000000000000000000000007f000000000000000000000000000000000000000000000000000000000000000084610cbb565b60405163abe73ef560e01b8152600481018390527f00000000000000000000000000000000000000000000000000000000000000006001600160a01b03169063abe73ef5906024015f604051808303815f87803b15801561098a575f80fd5b505af115801561099c573d5f803e3d5ffd5b505050505b6040805185815260208101859052908101839052606081018290526001600160a01b0386169033907f05641d92161cea9e5eea572c5d1d83b7cfbeace96b83611e52c819121650668890608001610548565b6109fb610ae3565b6001600160a01b038116610a225760405163e6c4247b60e01b815260040160405180910390fd5b600280546001600160a01b038381166001600160a01b0319831681179093556040519116919082907f4ab5be82436d353e61ca18726e984e561f5c1cc7c6d38b29d2553c790434705a905f90a35050565b610a7b610ae3565b600180546001600160a01b0383166001600160a01b03199091168117909155610aab5f546001600160a01b031690565b6001600160a01b03167f38d16b8cac22d99fc7c124b9cd0de2d3fa1faef420bfe791d8c362d765e2270060405160405180910390a350565b5f546001600160a01b031633146105685760405163118cdaa760e01b81523360048201526024016105c8565b5f80806001600160a01b038516610b395760405163e6c4247b60e01b815260040160405180910390fd5b835f03610b5957604051631f2a200560e01b815260040160405180910390fd5b7f00000000000000000000000000000000000000000000000000000000000000006001600160a01b031663799df0696040518163ffffffff1660e01b8152600401602060405180830381865afa158015610bb5573d5f803e3d5ffd5b505050506040513d601f19601f82011682018060405250810190610bd991906112aa565b9050612710811115610bfe5760405163dae95a0760e01b815260040160405180910390fd5b610c2a7f0000000000000000000000000000000000000000000000000000000000000000863087610f69565b610c348482610f48565b9250610c408385611297565b91508215610c9757600254610c80907f0000000000000000000000000000000000000000000000000000000000000000906001600160a01b03168561105e565b8260075f828254610c919190611284565b90915550505b8115610cb4578160085f828254610cae9190611284565b90915550505b9250925092565b604080516001600160a01b0384811660248301525f604480840182905284518085039091018152606490930184526020830180516001600160e01b031663095ea7b360e01b1790529251839291871691610d14916112c1565b5f604051808303815f865af19150503d805f8114610d4d576040519150601f19603f3d011682016040523d82523d5f602084013e610d52565b606091505b5091509150811580610d805750805115801590610d80575080806020019051810190610d7e91906112ed565b155b15610d9e576040516312171d8360e31b815260040160405180910390fd5b604080516001600160a01b038681166024830152604480830187905283518084039091018152606490920183526020820180516001600160e01b031663095ea7b360e01b17905291515f92839290891691610df991906112c1565b5f604051808303815f865af19150503d805f8114610e32576040519150601f19603f3d011682016040523d82523d5f602084013e610e37565b606091505b5091509150811580610e655750805115801590610e65575080806020019051810190610e6391906112ed565b155b15610e83576040516312171d8360e31b815260040160405180910390fd5b50505050505050565b600180546001600160a01b03191690556105da8161114a565b6003545f906001600160a01b03161580610ec657506001600160a01b038216155b15610ed257505f919050565b600354604051632002567160e01b81526001600160a01b03848116600483015290911690632002567190602401602060405180830381865afa158015610f1a573d5f803e3d5ffd5b505050506040513d601f19601f82011682018060405250810190610f3e919061130f565b61ffff1692915050565b5f612710610f568385611330565b610f609190611347565b90505b92915050565b604080516001600160a01b0385811660248301528481166044830152606480830185905283518084039091018152608490920183526020820180516001600160e01b03166323b872dd60e01b17905291515f92839290881691610fcc91906112c1565b5f604051808303815f865af19150503d805f8114611005576040519150601f19603f3d011682016040523d82523d5f602084013e61100a565b606091505b5091509150811580611038575080511580159061103857508080602001905181019061103691906112ed565b155b15611056576040516312171d8360e31b815260040160405180910390fd5b505050505050565b604080516001600160a01b038481166024830152604480830185905283518084039091018152606490920183526020820180516001600160e01b031663a9059cbb60e01b17905291515f928392908716916110b991906112c1565b5f604051808303815f865af19150503d805f81146110f2576040519150601f19603f3d011682016040523d82523d5f602084013e6110f7565b606091505b5091509150811580611125575080511580159061112557508080602001905181019061112391906112ed565b155b15611143576040516312171d8360e31b815260040160405180910390fd5b5050505050565b5f80546001600160a01b038381166001600160a01b0319831681178455604051919092169283917f8be0079c531659141344cd1fd0a4f28419497f9722a3daafe3b4186f6b6457e09190a35050565b80356001600160a01b03811681146111af575f80fd5b919050565b80151581146105da575f80fd5b5f80604083850312156111d2575f80fd5b6111db83611199565b915060208301356111eb816111b4565b809150509250929050565b5f8060408385031215611207575f80fd5b61121083611199565b946020939093013593505050565b5f805f60608486031215611230575f80fd5b61123984611199565b925061124760208501611199565b9150604084013590509250925092565b5f60208284031215611267575f80fd5b610f6082611199565b634e487b7160e01b5f52601160045260245ffd5b80820180821115610f6357610f63611270565b81810381811115610f6357610f63611270565b5f602082840312156112ba575f80fd5b5051919050565b5f82515f5b818110156112e057602081860181015185830152016112c6565b505f920191825250919050565b5f602082840312156112fd575f80fd5b8151611308816111b4565b9392505050565b5f6020828403121561131f575f80fd5b815161ffff81168114611308575f80fd5b8082028115828204841417610f6357610f63611270565b5f8261136157634e487b7160e01b5f52601260045260245ffd5b50049056fea2646970667358221220dc6a09e1896b1138739cb2eeb7407554783d949b5585869aca05709d5bcdaefb64736f6c63430008180033","linkReferences":{}},"methodIdentifiers":{"acceptOwnership()":"79ba5097","authorizedCaller(address)":"98f6ef12","benefitNFT()":"0a89a2c0","collateralToken()":"b2016bd4","getUnroutedBalance()":"b363f899","owner()":"8da5cb5b","pendingOwner()":"e30c3978","previewDiscountedProtocolFee(address,uint256)":"716172e3","renounceOwnership()":"715018a6","riskConfig()":"7c90a6ca","riskVault()":"56a8792d","routePremium(address,uint256)":"6a6615fa","routeProtocolFee(address,uint256)":"eef21896","routeProtocolFeeWithBenefits(address,address,uint256)":"930081e3","setAuthorizedCaller(address,bool)":"454bbd29","setBenefitNFT(address)":"a61b1c76","setTreasury(address)":"f0f44260","totalPremiumRouted()":"58bfd736","totalProtocolFeesRouted()":"c2167b47","totalSentToRiskVault()":"3c7c801d","totalSentToTreasury()":"00d6770b","transferOwnership(address)":"f2fde38b","treasury()":"61d027b3"},"id":0}